:020000040800F2
:1000000050140020850100089F0200089702000894
:100010009B0200089102000829040008000000006B
:10002000000000000000000000000000A302000823
:100030009502000800000000A1020008A5020008C7
:100040009F0100089F0100089F0100089F01000810
:100050009F0100089F0100089F0100089F01000800
:100060009F0100089F0100089F0100089F010008F0
:100070009F0100089F0100089F0100089F010008E0
:100080009F0100089F0100089F0100089F010008D0
:100090009F0100089F0100089F0100089F010008C0
:1000A0009F0100089F0100089F0100089F010008B0
:1000B0009F010008450300089F0100089F010008F8
:1000C0009F0100089F0100089F0100089F01000890
:1000D0009F010008A90300089F0100089F01000874
:1000E0009F0100089F0100089F0100080000000018
:1000F0000000000000000000000000000000000000
:10010000000000009F0100089F010008000000009F
:100110009F0100089F01000800000000000000008F
:100120009F0100089F0100089F0100089F0100082F
:1001300000000000000000000000000000000000BF
:100140000000000000000000000000009F01000807
:1001500000000000000000009F0100089F0100084F
:100160000000000000000000000000009F010008E7
:10017000DFF80CD000F07AF800480047DD100008E6
:10018000501400200648804706480047FEE7FEE777
:10019000FEE7FEE7FEE7FEE7FEE7FEE7FEE7FEE737
:1001A000A9020008710100082DE9F05F0546002052
:1001B00092469B4688460646814640241BE02846D8
:1001C00041464746224600F041F853465A46C01A77
:1001D000914110D311461846224600F028F82D1AF6
:1001E00067EB01084F4622460120002100F01FF86E
:1001F00017EB00094E41201EA4F10104DFDC484644
:1002000031462A464346BDE8F09FD2B201E000F8ED
:10021000012B491EFBD270470022F6E710B51346AA
:100220000A4604461946FFF7F0FF204610BD202A73
:1002300004DB203A00FA02F1002070479140C2F13D
:10024000200320FA03F3194390407047202A04DB6F
:10025000203A21FA02F00021704721FA02F3D0403F
:10026000C2F120029140084319467047064C074DE1
:1002700006E0E06840F0010394E807009847103476
:10028000AC42F6D3FFF778FFB0160008D01600088E
:1002900000BFFEE7704700BFFEE700BFFEE7704704
:1002A00070477047704700002248C06920F08050B6
:1002B00000F180501F49C8611F48007840F00400D9
:1002C0001D49503981F850001A48C06920F080500B
:1002D0001849C8610846006820F00100401C086009
:1002E00000BF14480068C0F340000028F9D011484E
:1002F000406820F003000F49486000BF0D48406887
:10030000C0F381000028F9D10A4800680B49084071
:10031000084908600020486041F61070C8624FF438
:10032000801008634FF41F008860C8030449086008
:10033000704700000010024050700040FFFFF2FEC6
:1003400008ED00E010B50121134801F088F80128FC
:1003500020D10121104801F07FF8002000F0D4F9ED
:100360000E480078B0B10E480078401CC0B20C496D
:10037000087008B9FF20087009480078022801DDDC
:1003800000F0DCF906480078052803DD0021054867
:1003900000F052FC10BD0000000400400D000020E1
:1003A0000C0000200400180010B500201B49087044
:1003B00020211B4801F0FBF870B3194801F0EAF85E
:1003C00004461848B0F80408B0F5806F08DB002038
:1003D0001449A1F80408A1F80008A1F802081BE0DC
:1003E0001048B0F80408401C0E49A1F8040808465B
:1003F000B0F80018B0F80008401C0A4AA2F800083B
:10040000104620F81140B0F80008B0F5806F03DB0B
:1004100000201146A1F8000810BD00000C000020CB
:10042000003801404A08002000BFFEE7002807DB33
:1004300000F01F0201219140024A430942F82310B3
:100440007047000080E200E002E008C8121F08C107
:10045000002AFAD170477047002001E001C1121F45
:10046000002AFBD17047000010B504462068A0F1B7
:100470000050B0F5603F22D20021114800F0DCFBB3
:100480000021104800F0D8FB00210E480C3800F085
:10049000D3FB252000F048FE1D2000F045FE25205E
:1004A000FFF7C4FF1D20FFF7C1FF07496068086020
:1004B000206880F3088800BF08460068804710BDA8
:1004C00001001C000E0018000800002010B50024D8
:1004D00048480078F0B948480078022806D1002042
:1004E0004549087001204349087081E0424800787E
:1004F000042805D100204049087000F057F977E042
:100500003D480078032873D100203B49087000F073
:1005100015F96DE037480078012807D13749087090
:1005200002203449087000F041F961E03148007858
:10053000022836D132480078042828D13148407842
:1005400001063048807801EB00412E48C07801EB6D
:1005500000212C4800790C182B48844211D32B48D9
:100560000068800200F10060A0420AD92549491DB7
:10057000204600F097FC00202149087000F016F991
:1005800036E000201E49087000F0D8F830E01C4822
:10059000007805282CD100201949087000F0CEF809
:1005A00026E014480078032822D113480078022856
:1005B00015D100201049087000F0F8F81248406882
:1005C00000F07F40B0F1006F05D100F0DBFB0E487A
:1005D000FFF74AFF0CE003200749087008E00648CF
:1005E0000078032804D100200349087000F0A6F821
:1005F00010BD000002000020010000200D000020BE
:10060000000000204400002000400008E0F7FF1F29
:1006100003480078022800D170470120FCE7000061
:100620000038000810B500F021FC002000F030F880
:10063000012000F02DF8022000F02AF8002000F040
:100640004FF8012000F04CF8022000F049F800F0CB
:1006500001F810BD1CB501210B4800F0EDFA684609
:1006600000F0D6FC01208DF8070000208DF8040072
:100670008DF806000120009028208DF805006946BD
:10068000024800F0D0FC1CBD020018000008014028
:100690001CB504460F4951F82400012100F0CCFAA2
:1006A000684600F0B5FC01208DF8070000208DF8A9
:1006B000040010208DF80600074830F81400009060
:1006C00004208DF80500054951F82400694600F022
:1006D000AAFC1CBD240000201C00002010000020EB
:1006E000022800DD7047064931F8101031B1044985
:1006F00031F81010034A52F82020116100BFF1E7D1
:100700001C00002010000020022800DD704709496D
:1007100031F8101059B1084951F82010C968054A3C
:1007200032F810205140044A52F82020D16000BF16
:10073000ECE700001C0000201000002010B5EE21A6
:10074000124800F02BFF00BF4021104800F02FFF9F
:100750000028F9D0FF210D4800F020FF00BF402104
:100760000A4800F024FF0028F9D00020084908704A
:100770000849087008490870084908700849086065
:10078000084908700849087010BD00000038014091
:1007900000000020010000200200002003000020D3
:1007A000040000200C0000200D00002010B5CC211A
:1007B0000A4800F0F3FE00BF4021084800F0F7FEB1
:1007C0000028F9D0DD21054800F0E8FE00BF4021F7
:1007D000024800F0ECFE0028F9D010BD00380140BE
:1007E00070B55A49B1F80418002902DD00F00EFB7B
:1007F00000E070BD56490978E1B95649097829B930
:100800005A2802D10121534A11709CE051490978BC
:100810000129FAD1012803D102214E4A117092E038
:10082000A52803D104214B4A11708CE00321494AC9
:10083000117088E04649097802296AD14649097849
:1008400031B101291AD002292BD003295FD13DE013
:10085000312807D10121404A117000213F4A11700F
:100860003F4A11605A2808D13A49097829B901212B
:10087000384A11700321364A117049E03949374A24
:100880001278885435490978491C344A1170114648
:100890000978042904DB0021117002212E4A11700D
:1008A00036E03049091D2E4A126888542C490968DF
:1008B000491C2B4A116011460968B1F5006F04D339
:1008C000002111600321244A117021E00025002439
:1008D00005E02449095D2944CDB2611C8CB2042C89
:1008E000F7DB002406E01F49091D095D2944CDB24C
:1008F000611C8CB2B4F5006FF5DB854203D1042195
:10090000154A117002E00521134A117000E000BF82
:1009100019E00F490978032915D10E49097829B939
:100920005A2810D101210B4A11700CE009490978AD
:10093000012908D1022803D10221064A117002E0E0
:100940000321044A117000BF53E700004A08002049
:100950000200002001000020000000200300002011
:1009600004000020450000200349496860F3071196
:10097000014A516070470000001002400349496875
:1009800060F30A21014A51607047000000100240E4
:100990000349496860F3CD21014A51607047000066
:1009A00000100240012807D10749496D21F03001AC
:1009B0003031054A516505E00349496D21F03001A8
:1009C000014A51657047000000100240052827D2F7
:1009D000DFE800F0030A11181F00134A126861F3E0
:1009E0000002114B1A601CE00F4A126861F31042BA
:1009F0000D4B1A6015E00C4A126861F318620A4B3D
:100A00001A600EE0084A126A61F30002064B1A628D
:100A100007E0054A526A61F30002034B5A6200E0A4
:100A200000BF00BF70470000001002402DE9F04FEA
:100A300085B004460025AA46AB460026A9460020FC
:100A4000049003900290019000F0D8F90090009873
:100A500020B1012812D0022875D112E05648406D0D
:100A6000C0F3402038B15448006BC0F3406010B16F
:100A70005248206001E05248206067E05048206002
:100A800064E04D484068C0F3004B4B48C06AC00F5B
:100A900030BB49484068C0F3834547484068C0F3CD
:100AA000417ABAF1000F01D10F2D04D14FEA0A109B
:100AB000401C054400E0AD1CBBF1000F03D14148D0
:100AC000684320603DE03C484068C0F3404018B1B6
:100AD0003C486843206034E039486843206030E097
:100AE0003548C06AC0F3031003903348C06AC0F3AE
:100AF000082002903048C06A00F007000190BBF166
:100B0000000F02D12F48049009E02B484068C0F341
:100B1000404010B12B48049001E029480490012185
:100B2000019801FA00F0039900FB01FC0299049876
:100B3000A0FB01700146624600233846FFF734FBF4
:100B4000206003E0FFE71E48206000BF00BF1A4896
:100B50004068C0F303161C4810F80690206820FA7D
:100B600009F0606014484068C0F30226174810F886
:100B70000690606820FA09F0E0600F484068C0F312
:100B8000C226134810F80690606820FA09F0A060A9
:100B900009484068C0F3007607484068C0F38130D8
:100BA00040EA86060B4810F80690A068B0FBF9F002
:100BB000206105B0BDE8F08F00100240006CDC023F
:100BC00000127A0000093D0076160008861600081B
:100BD0008E1600089616000810B501460020094B35
:100BE00003EB1142126801F01F040123A3401A40D5
:100BF00001F01F040123A3409A4200D000E001202D
:100C000010BD00000010024030B50024002500E0B7
:100C1000641C1120FFF7E0FF012802D0B4F5405F0B
:100C2000F6D31120FFF7D8FF012801D0002500E0FE
:100C30000125284630BD000010B501290DD10E4B0D
:100C400003EB1042126800F01F040123A3401A4373
:100C5000094C04EB10431A600CE0074B03EB104205
:100C6000126800F01F040123A3409A43024C04EBD6
:100C700010431A6010BD00000010024030B502465B
:100C8000002000233AB9324C646824F48034304D9B
:100C90006C60304819E02E4C646824F4803404F50C
:100CA00080342B4D6C60012A06D12B482C46646899
:100CB00024F400346C6008E02648254C646824F471
:100CC000003404F50034224D6C60244CA04204D959
:100CD000234CA04201D2002326E0224CA04204D99A
:100CE000214CA04201D201231EE0204CA04204D995
:100CF0001F4CA04201D2022316E01D4CA04204D991
:100D00001C4CA04201D203230EE01B4CA04204D98C
:100D10001A4CA04201D2042306E0184CA04203D989
:100D2000174CA04200D20523094C646861F3954436
:100D3000074D6C600D09064C646865F35E74044DE4
:100D40006C602C46E46A63F31A64EC6230BD000008
:100D50000010024000093D0000127A0060823B0052
:100D6000404B4C0080584F00105E5F009435770078
:100D7000101B7F0020BCBE00286BEE0030D73D0169
:100D8000D8E9DC011648006820F00100401C144935
:100D9000086000BF12480068C0F340000028F9D086
:100DA0000F48406820F003000D49486000BF0C4820
:100DB0004068C0F381000028F9D10948006809495A
:100DC0000840074908600020486041F61070C8627A
:100DD0004FF4801008634FF41F00886070470000D4
:100DE00000100240FFFFF2FE0349496860F3010171
:100DF000014A5160704700000010024002484068FC
:100E0000C0F38100704700000010024010B50022BE
:100E10001349144800F00AFC1348B0F80408401EB7
:100E20001149A1F8040801220D490E4800F0FEFB0B
:100E30000D48B0F80218B0F80208401C0A4AA2F89F
:100E40000208104610F81140B0F80208B0F5806FA3
:100E500003DB00201146A1F80208204610BD000067
:100E600005000C00003801404A08002010B504209D
:100E700000F0CCFA074800680749B0FBF1F00749D9
:100E80000860084600684FF47A71484304490860D6
:100E900010BD00004000002040420F003000002044
:100EA000340000202DE9F04105460E4600F096F88A
:100EB000284600F073F80F480068FF2803D805F5AE
:100EC000806000F06BF800240CE0315D601C305C49
:100ED00001EB002087B23946284600F00DF8AD1C22
:100EE000A01C84B2B4F5006FEFDB00F021F8BDE880
:100EF000F0810000E0F7FF1F70B504460D460326A1
:100F00000A48006920F00100401C0849086125805A
:100F10004FF4801000F030F806460448006920F0D5
:100F2000010002490861304670BD00000020024007
:100F30000348006920F08000803001490861704753
:100F40000020024003200B49C96801F0010109B1EA
:100F500000200EE00749C968C1F3800109B10120F2
:100F600007E00449C968C1F3001109B1022000E09B
:100F7000032070470020024000B502460323FFF71C
:100F8000E1FF034603E0FFF7DDFF0346521E0BB906
:100F9000002AF8D102B90423184600BD30B5044632
:100FA00003250D48006920F00200801C0A490861F1
:100FB00008464461006920F0400040300861480460
:100FC000FFF7DAFF05460448006920F002000249F5
:100FD0000861284630BD0000002002400248034955
:100FE000486003484860704723016745002002407D
:100FF000AB89EFCD044800680449884201D1012043
:1010000070470020FCE7000000380008384B5441CE
:101010004FF6FF710160002181710171042141715E
:101020000121C1717047F0B50A461588ABB29579B8
:10103000032D01D100241AE0957965B9557905F0A1
:101040000F045579182D01D1036110E05579282D31
:101050000DD143610BE0957905F00805167906F08E
:1010600004063543D67906F0030645EA0604DDB2E8
:10107000A5B1002110E001258D401D405DB105683E
:101080008F000F26BE40B543056005688E0004FA48
:1010900006F635430560491C0829ECD3FF2B15DD06
:1010A0001B12002110E001258D401D405DB14568F7
:1010B0008F000F26BE40B543456045688E0004FA98
:1010C00006F635434560491C0829ECD3F0BD10B540
:1010D000FFF786FBFFF7FAF910BD000000F0B2F849
:1010E000FFF7A0FA032000F099F8FFF791FA022821
:1010F00003D10B48FFF7B8F902E00A48FFF7B4F94B
:101100004FF4E13000F0EEF9FFF774FF08B1FFF79C
:101110004DFB00F0ADF901E0FFF7D9FFFCE700005F
:1011200000C001080040000810B50146084600282C
:101130000BDB00F01F0301229A40054B440943F8E2
:101140002420BFF34F8FBFF36F8F00BF10BD00008F
:1011500080E100E02DE9F0470B4614464FF0000C0B
:1011600000BF2C4A1268C2F302211D4626460A46D9
:10117000C2F10709B9F1040F02D94FF0040901E0E7
:10118000C2F10709C84602F10409B9F1070F02D2FA
:101190004FF0000901E0A2F103094F464FF00109A9
:1011A00009FA08F9A9F1010909EA050909FA07F993
:1011B0004FF0010A0AFA07FAAAF1010A0AEA060A36
:1011C00049EA0A09CC4601466246002904DB1507B4
:1011D0002E0E114D6E5407E015072F0E0D4D0C35D8
:1011E00001F00F06361FAF5500BF014600290DDB89
:1011F00000BF00BF01F01F050122AA404D09AD004C
:1012000005F1E025C5F8002100BF00BF00BFBDE823
:10121000F08700000CED00E000E400E000BF00F00B
:101220000702064B19684FF6FF031940044B0B43A6
:1012300043EA0221014B196000BF70470CED00E04A
:101240000000FA0510B54FF4AA701A490860FFF7BC
:1012500099FD01210846FFF7B9FB00BFFFF7D4FC59
:101260000028FBD023210220FFF708FD01210220E6
:10127000FFF7ACFB00BF1920FFF7AEFC0128FAD145
:101280000020FFF771FB0420FFF782FB0420FFF72B
:1012900075FB0120FFF786FB0220FFF7A5FD00BFCD
:1012A000FFF7ACFD0228FBD10020FFF77BFB00F02D
:1012B00003F810BD002002402DE9FF5F0024002547
:1012C0000026A146A246A34600200390029001906A
:1012D000FFF794FD0090009820B1012814D0022857
:1012E00074D115E04348406DC0F3402040B14148FF
:1012F000006BC0F3406018B13F484049086002E00D
:101300003F483E49086065E03D483C49086061E06F
:1013100038484068C0F300463648C06AC00F20BB5A
:1013200034484068C0F3834432484068C0F3417594
:101330000DB90F2C03D12801401C044400E0A41C6B
:1013400026B9304860432D4908603DE0294840688F
:10135000C0F3404020B12B4860432849086033E087
:1013600027486043254908602EE02248C06AC0F340
:10137000031003901F48C06AC0F3082002901D4864
:10138000C06A00F00700019016B9DFF878B009E0F4
:1013900018484068C0F3404010B1DFF868B001E081
:1013A000DFF85CB00121019801FA00F0039900FB1D
:1013B00001FC0298ABFB00700146624600233846F0
:1013C000FEF7F2FE0D49086004E0FFE70C480B4908
:1013D000086000BF00BF07484068C0F303190A480F
:1013E00010F809A00548006820FA0AF003490860CF
:1013F000BDE8FF9F00100240006CDC0240000020AE
:1014000000127A0000093D009E160008042808D149
:101410004FF0E021096941F004014FF0E022116131
:1014200007E04FF0E021096921F004014FF0E022CC
:1014300011617047C1628262436923F001035B1C42
:1014400043617047026861F30612026070470268E8
:1014500061F3000202607047CA43026170470246AE
:10146000002013690B400BB1012000E00020704701
:1014700010B586B0142101A8FEF7CEFE0121114857
:10148000FFF7DAFB002201211D20FFF763FE01A810
:10149000FFF7CCFA42F210710298B0FBF1F4224649
:1014A0000948FFF7C7FF00210748FFF7CBFF0122DC
:1014B0001146054800F00AF801210348FFF7C7FF6D
:1014C00006B010BD01001C0000040040012A03D139
:1014D000C3680B43C36003E012B9C3688B43C360A6
:1014E000704700001CB5044601212648FFF7A4FB05
:1014F000012124480C38FFF79FFB6846FFF788FD61
:1015000001208DF8070000208DF8040008208DF8D8
:1015100006008001009004208DF8050069461A48F5
:10152000FFF781FD01208DF8070000208DF80400F1
:101530008DF806004FF48060009018208DF80500AB
:1015400069461148FFF76FFD002211462520FFF77D
:1015500001FE00231A4621460C4800F031F8012113
:101560000A4800F083F80121084800F07AF80122C7
:101570000749064800F05AF80121044800F012F823
:101580001CBD00000E00180000080140003801409A
:1015900005000C000146486880B27047C1F308029C
:1015A00042607047C26861F34D32C26070470246C4
:1015B0001068084008B1012070470020FCE70000D7
:1015C0002DE9F04385B004460F469046994668469B
:1015D000FFF72CFA1448844201D1029E00E0039EDA
:1015E00006EB86004000B0FBF7F50A20B5FBF0F1F2
:1015F00000FB1150052803D20A20B5FBF0F503E0EB
:101600000A20B5FBF0F0451CA06865F30F00A06050
:10161000E06868F30C30E060206969F30D30206108
:1016200005B0BDE8F08300000038014030B5012A64
:101630000BD100EB11431B6801F01F050124AC40E6
:10164000234300EB114423600AE000EB11431B68C5
:1016500001F01F050124AC40A34300EB11442360BB
:1016600030BDC26861F38202C2607047C26861F334
:10167000C302C260704700000000000000000102C9
:10168000030406070809000000000102030400002B
:1016900000000102030402040608020C0810000006
:1016A0000000000000000102030406070809000012
:1016B000D016000800000020440000004804000884
:1016C00014170008440000200C14000058040008FF
:1016D000000000000000000000000000000000000A
:1016E00000100140001001400010014000200800DF
:1016F0002000000004001800040018000400180076
:1017000000000000000000000000000001000000D8
:0417100000127A0049
:04000005080001717D
:020000040800F2
:10400000B87A0020E5420008174900080B4900086B
:1040100013490008414600086D4C000800000000EC
:104020000000000000000000000000004D420008F9
:1040300009490008000000009142000819490008E1
:10404000FF420008FF420008FF420008FF4200084C
:10405000FF420008FF420008FF420008FF4200083C
:10406000FF420008FF420008FF420008FF4200082C
:10407000FF420008FF420008FF420008FF4200081C
:10408000FF420008FF420008FF420008FF4200080C
:1040900045460008FF42000819470008FF42000893
:1040A000FF420008FF420008FF420008FF420008EC
:1040B000FF420008FF420008FF42000811490008C3
:1040C0000F490008FF420008FF420008FF420008B5
:1040D000FF420008E9490008394B0008FF42000888
:1040E000FF420008FF420008FF42000800000000F5
:1040F00000000000000000000000000000000000C0
:1041000000000000FF420008FF420008000000001D
:10411000FF420008FF42000800000000000000000D
:10412000FF420008FF420008FF420008FF4200086B
:10413000000000000000000000000000000000007F
:10414000000000000000000000000000FF42000826
:104150000000000000000000FF420008FF420008CD
:10416000000000000000000000000000FF42000806
:1041700000F002F800F05AF80AA090E8000C82441F
:104180008344AAF10107DA4501D100F04FF8AFF2FC
:10419000090EBAE80F0013F0010F18BFFB1A43F025
:1041A00001031847A07E0000C07E00000A444FF0C3
:1041B000000C10F8013B13F0070408BF10F8014B86
:1041C0001D1108BF10F8015B641E05D010F8016BCB
:1041D000641E01F8016BF9D113F0080F1EBF10F82F
:1041E000014BAD1C0C1B09D16D1E58BF01F801CB52
:1041F000FAD505E014F8016B01F8016B6D1EF9D5D5
:104200009142D6D3704700000023002400250026E9
:10421000103A28BF78C1FBD8520728BF30C148BF29
:104220000B6070471FB51FBD10B510BD00F0D5F96C
:104230001146FFF7F7FF02F069FA00F0F3F903B453
:10424000FFF7F2FF03BC00F013FD0000224B1968DA
:104250000868B0E8F00F80F30988BFF36F8F4FF064
:10426000000080F311884EF00D0E70470000000032
:1042700006480068006880F3088862B661B6BFF33C
:104280004F8FBFF36F8F00DF00BF00BF08ED00E06E
:10429000EFF30980BFF36F8F0F4B1A6820E9F00F1F
:1042A000106008B54FF0100080F31188BFF34F8FF6
:1042B000BFF36F8F06F09EFE4FF0000080F3118871
:1042C000BDE8084019680868B0E8F00F80F3098875
:1042D000BFF36F8F704700BF28060020EFF3058003
:1042E000704700000948804709480047FEE7FEE79D
:1042F000FEE7FEE7FEE7FEE7FEE7FEE7FEE7FEE796
:1043000004480549054A064B704700004D4900081E
:1043100071410008B8740020B87A0020B8760020F7
:10432000B8760020704753EA020C00F069802DE94E
:10433000F04B4FF00006002B1FBFB3FA83F503FAD2
:1043400005F424FA05F65E4012BF1643B2FA82F570
:1043500002FA05F4C5F120051EBF22FA05FC44EA65
:104360000C04203556EA044C4FEA144418BF641C70
:104370004FF000084FF00009904271EB030C39D365
:10438000002919BFB1FA81F701FA07F6B0FA80F7F0
:1043900000FA07F6C7F120071EBF20FA07FC46EA1D
:1043A0000C062037B6FBF4FCA7EB0507103F07F01F
:1043B0001F0BCBF120060CFA0BFB2CFA06F644BFC0
:1043C000B3460026202FA4BF5E464FF0000B5BEAE9
:1043D000060C08BF4FF0010B19EB0B09ABFB027C7D
:1043E00048EB0608C01B06FB02CC0BFB03CC71EBB1
:1043F0000C01C1E70B46024641464846BDE8F08B3A
:1044000013B54FF000004FF00001AFF30080BDE89E
:104410001C40704710B5431C02E010F8011B71B13D
:104420008107FAD14FF0013202C88C1A8C4314EA8A
:10443000C211F9D0C01A0A0603D0C01E10BDC01A9E
:1044400010BD0A0401D0801E10BD0902FCD0401E20
:1044500010BD032A40F2308010F0030C00F01580EC
:1044600011F8013BBCF1020F624498BF11F801CB77
:1044700000F8013B38BF11F8013BA2F1040298BFDC
:1044800000F801CB38BF00F8013B11F0030300F046
:104490002580083AC0F0088051F8043B083A51F8EA
:1044A00004CBA0E80810F5E7121D5CBF51F8043BEF
:1044B00040F8043BAFF30080D20724BF11F8013B62
:1044C00011F801CB48BF11F8012B24BF00F8013BC4
:1044D00000F801CB48BF00F8012B704710B5203A17
:1044E000C0F00B80B1E81850203AA0E81850B1E8AD
:1044F0001850A0E81850BFF4F5AF5FEA027C24BF63
:10450000B1E81850A0E8185044BF18C918C0BDE859
:1045100010405FEA827C24BF51F8043B40F8043B22
:1045200008BF7047D20728BF31F8023B48BF11F8D7
:10453000012B28BF20F8023B48BF00F8012B704731
:104540004FF000020429C0F0128010F0030C00F0BC
:104550001B80CCF1040CBCF1020F18BF00F8012B3A
:10456000A8BF20F8022BA1EB0C0100F00DB85FEA08
:10457000C17C24BF00F8012B00F8012B48BF00F8D4
:10458000012B70474FF0000200B513469446964643
:10459000203922BFA0E80C50A0E80C50B1F1200156
:1045A000BFF4F7AF090728BFA0E80C5048BF0CC004
:1045B0005DF804EB890028BF40F8042B08BF704762
:1045C00048BF20F8022B11F0804F18BF00F8012BD4
:1045D00070477047704770477047754600F02CF879
:1045E000AE4605006946534620F00700854618B0E0
:1045F00020B5FFF785FEBDE820404FF000064FF0E4
:1046000000074FF000084FF0000B21F00701AC4607
:10461000ACE8C009ACE8C009ACE8C009ACE8C00926
:104620008D46704710B50446AFF300802046BDE8C4
:104630001040FFF704BE0000004870475874002087
:1046400000BFFEE700B585B009212B4800F04AFD08
:1046500000284ED06A460021274800F0FEFD009851
:10466000FF2846D90098B0F5006F42D240F2F171B0
:104670000098884208D1142269462048FFF72EFF8F
:1046800001201F49087034E040F2F271009888421E
:1046900009D11422694619481430FFF71FFF012081
:1046A0001849087025E040F2F3710098884209D15A
:1046B0001422694611482830FFF710FF01201249E3
:1046C000087016E040F2F4710098884209D1142273
:1046D00069460A483C30FFF701FF01200B4908708A
:1046E00007E0142269460A48FFF7F8FE012009494D
:1046F000087005B000BD000000640040EC1200200E
:10470000410000204200002043000020440000201F
:10471000D81200204000002008B50020009004219D
:10472000074800F0DFFC50B105481830006800F081
:10473000700000900421024800F096FC00BF08BD04
:10474000006400402DE9FE4F8246CAF1FF0ABAF12B
:10475000550F43DA6A48007807F09AF806460022B7
:10476000684B06F0F9FE04460D460AEB4A01C1F11A
:10477000FF0007F076F8804622462B4607F09CF8AB
:10478000CDE9000107F040F8C0B28DF80900002023
:104790008DF808005A48007807F07AF88046002221
:1047A000584B06F0D9FE04460D460AEB4A0007F0C6
:1047B00058F8064622462B4607F07EF8CDE9000160
:1047C00007F022F8C0B28DF80A00BDF808100846BC
:1047D0009DF80A1040EA0140BDE8FE8FBAF1AA0F29
:1047E00046DAAAF1550000F0FF0A00208DF8090012
:1047F0004348007807F04CF80022424BCDE9000115
:1048000006F0AAFE04460D460AEB4A0007F029F816
:10481000064622462B4607F04FF8804606F0F4FF86
:10482000C0B28DF808003648007807F031F88046AD
:104830000022344B06F090FE04460D460AEB4A0176
:10484000C1F1FF0007F00DF8064622462B4607F09F
:1048500033F8CDE9000106F0D7FFC0B28DF80A00A9
:10486000BDF8081008469DF80A1040EA0140B3E779
:10487000AAF1AA0000F0FF0A2148007807F008F822
:10488000064600221F4B06F067FE04460D460AEB63
:104890004A0006F0E6FF804622462B4607F00CF859
:1048A000CDE9000106F0B0FFC0B28DF80900144850
:1048B000007806F0EDFF06460022124B06F04CFE93
:1048C00004460D460AEB4A01C1F1FF0006F0C9FF9C
:1048D000804622462B4606F0EFFFCDE9000106F0A8
:1048E00093FFC0B28DF8080000208DF80A00BDF8D3
:1048F000081008469DF80A1040EA01406CE70000E5
:10490000B400002000005940704700BFFEE7704728
:10491000704700BFFEE7704710B500BF102080F35E
:104920001188BFF34F8FBFF36F8F00BF06F0EEFC0F
:1049300018B14FF080500449086000BF002080F398
:10494000118800BF10BD000004ED00E02248C069DE
:1049500020F0805000F180501F49C8611F48007846
:1049600040F004001D49503981F850001A48C069D0
:1049700020F080501849C8610846006820F0010006
:10498000401C086000BF14480068C0F340000028C5
:10499000F9D01148406820F003000F49486000BF7B
:1049A0000D484068C0F381000028F9D10A4800682A
:1049B0000B490840084908600020486041F6107023
:1049C000C8624FF4801008634FF41F008860C8036A
:1049D0000449086070470000001002405070004019
:1049E000FFFFF2FE08ED00E010B520214D4806F073
:1049F0004DF8002812D020214A4806F03EF84A48D7
:104A0000007800287BD14948007840B9454806F035
:104A100027F8552873D10120444908706FE04348B6
:104A20000078012815D13F4806F01AF8AA2803D1CA
:104A300002203E49087062E03A4806F011F8552815
:104A400003D101203949087059E000203749087026
:104A500055E03648007802281DD15520344981F8A8
:104A60008000AA21324880F881102E4805F0F8FF16
:104A7000C1B22F4880F8821090F88200852806DCA9
:104A800003202B4981F881012849087037E0002074
:104A90002649087033E02548007803282FD12148A3
:104AA00005F0DEFFC1B2224890F8812190F8810123
:104AB000401C1F4B83F8810103F180008154803832
:104AC00090F8811190F88200401D814217D118465C
:104AD00090F8812100F180011648FFF7FFFC0120CA
:104AE00011490870010212488030FFF74BFD002089
:104AF0000F4981F8810181F883010C490870402138
:104B0000084805F0C3FF18B14021064805F0B5FF7D
:104B10008021044805F0BAFF18B18021014805F052
:104B2000ACFF10BD003801403200002038000020EA
:104B30009C060020A409002010B52021464805F05D
:104B4000A5FF002812D02021434805F096FF4348D6
:104B5000007800287BD14248007840B93E4805F0F3
:104B60007FFF552873D101203D4908706FE03C4814
:104B70000078012815D1384805F072FFAA2803D122
:104B800002203749087062E0334805F069FF552874
:104B900003D101203249087059E0002030490870E3
:104BA00055E02F48007802281DD155202D4981F865
:104BB0008000AA212B4880F88110274805F050FF7B
:104BC000C1B2284880F8821090F88200852806DC5F
:104BD0000320244981F881012149087037E0002031
:104BE0001F49087033E01E48007803282FD11A4867
:104BF00005F036FFC1B21B4890F8812190F8810181
:104C0000401C184B83F8810103F1800081548038E7
:104C100090F8811190F88200401D814217D118460A
:104C200090F8812100F180010F48FFF757FC012027
:104C30000A49087001020B488030FFF7A3FC0020EE
:104C4000084981F8810181F88301054908708021B4
:104C5000014805F01BFF10BD004400403300002058
:104C60003900002020080020C409002000BFFEE712
:104C700000BF704710B50446012C04D180210548BF
:104C800001F0C1FA04E01CB98021024801F0B9FA30
:104C900010BD00000008014000200FE000220B4979
:104CA0000A540021094A121F11540A220749091DFA
:104CB0000A540022091D0A54411CC8B20428EDDB25
:104CC0000021024A121F1174704700004013002097
:104CD00030B5024600200023146824F0020414605A
:104CE000146824F00104641C146000E05B1C546828
:104CF00004F001041CB94FF6FF74A342F6D15468C6
:104D000004F00104002C3FD04D78146865F3C714FB
:104D100014608D78146865F386141460CD78146877
:104D200065F3451414600D79146865F30414146078
:104D30004D79146865F3C30414608D79146865F3C4
:104D4000820414600C78D56964F39E75D5610C7883
:104D50006508D46965F3DF74D461146824F0010434
:104D60001460002300E05B1C546804F001041CB1D3
:104D70004FF6FF74A342F6D1546804F001040CB15D
:104D8000002002E0012000E0002030BD30B50246E6
:104D900000200023146824F002041460146824F036
:104DA0000104641C146000E05B1C546804F00104FE
:104DB0001CB94FF6FF74A342F6D1546804F0010405
:104DC0005CB30C88641ED56964F30B05D5618D78DE
:104DD000D46965F31964D461CD78D46965F313445B
:104DE000D4610D79D46965F31654D461146824F044
:104DF00001041460002300E05B1C546804F001040B
:104E00001CB14FF6FF74A342F6D1546804F00104BC
:104E10000CB1002002E0012000E0002030BD0000C5
:104E200000B589B00121304800F0CAFF07A800F0A2
:104E30005FF800208DF81C008DF81D0001208DF812
:104E40001E008DF81F0000208DF820008DF8210035
:104E500001208DF8220007A92448FFF739FF0D2013
:104E6000ADF8140000208DF8160005208DF817000D
:104E700000208DF8180005A91C48FFF787FF0120C6
:104E80008DF8040000208DF805008DF806008DF8DF
:104E9000070001208DF808000020ADF80A00ADF8E9
:104EA0000C00ADF80E00ADF8100001A90F4800F09D
:104EB00028F800221146162001F022FD002211469A
:104EC000142001F01DFD01220221084800F0BCF968
:104ED0000122D102054800F0B7F90122D1030348AD
:104EE00000F0B2F909B000BD19001C0000640040D8
:104EF000002141708170C170017141718171017037
:104F0000704730B50022CC78012303FA04F2D0F8C0
:104F1000003223F001035B1CC0F80032D0F81C32D1
:104F20009343C0F81C320B7913B1012B5AD12CE0FA
:104F3000D0F80C329343C0F80C328B891C04CD7826
:104F400000F5107343F83540CC7853F834300C89B1
:104F50002343CD7800F5107444F835304B891C0498
:104F6000CD7800F5107303EBC5035C60CC7800F5D9
:104F7000107303EBC4035B68CC882343CD7800F542
:104F8000107404EBC50463602DE0D0F80C321343B9
:104F9000C0F80C32CB881C04CD7800F5107343F8B0
:104FA0003540CC7853F834300C892343CD7800F564
:104FB000107444F835304B891C04CD7800F510731B
:104FC00003EBC5035C60CC7800F5107303EBC403FE
:104FD0005B688C892343CD7800F5107404EBC5041D
:104FE000636000E000BF00BF4B7813B1012B0CD110
:104FF00005E0D0F804329343C0F8043206E0D0F85C
:1050000004321343C0F8043200E000BF00BF8B78C5
:1050100013B1012B0CD105E0D0F814329343C0F842
:10502000143206E0D0F814321343C0F8143200E012
:1050300000BF00BF0B783BB1012B0BD1D0F81C3265
:105040001343C0F81C3206E0D0F81C329343C0F87A
:105050001C3200E000BF00BFD0F8003223F0010393
:10506000C0F8003230BD0000122935D2DFE801F06F
:1050700034090A0B0F0C14171B341F223425282B5C
:105080002E3100BF00BF00BF0422426025E0042291
:1050900042600022826120E0012282601DE04FF424
:1050A0008072826019E04FF48032826015E008223D
:1050B000C26012E01022C2600FE0082202610CE020
:1050C0001022026109E00822426006E010224260DC
:1050D00003E0034A826000E000BF00BF70470000A9
:1050E000010101000246002012296FD2DFE801F021
:1050F0006E090D11151D2125292D35393D45494DC7
:10510000515D936903F0010062E09369C3F34000CD
:105110005EE09369C3F380005AE09369C3F302131E
:105120000BB1012000E0002052E05368C3F380007F
:105130004EE0936803F001004AE09368C3F3002057
:1051400046E09368C3F3004042E0D36803F00303F2
:105150000BB1012000E000203AE0D368C3F3C000A7
:1051600036E0D368C3F3001032E0136903F00303A1
:105170000BB1012000E000202AE01369C3F3C00056
:1051800026E01369C3F3001022E05368C3F3C000A4
:105190001EE05368C3F340031BB95368C3F3001305
:1051A0000BB1012000E0002012E09368C3F380639C
:1051B0003BB99368C3F3C0631BB99368C3F300732F
:1051C0000BB1012000E0002002E0FFE7002000BF5B
:1051D00000BF70471CB50121184800F0F1FD012106
:1051E0004FF4C01000F0ECFD0121154801F06CF8FF
:1051F000684601F00AF801208DF8070000208DF8BC
:10520000040008208DF806008001009004208DF82D
:10521000050069460B4801F003F801208DF80700EE
:1052200000208DF806004FF48070009018208DF853
:1052300005006946034800F0F3FF1CBD0300180099
:105240000204002C000C01401AB143690B43436176
:1052500002E043698B434361704730B505460C4615
:10526000134605F5D87000EB04100068C0F3800009
:105270001872187A10B1012813D107E005F5D8701B
:1052800000EB04100068400D18600BE005F5D870C5
:1052900000EB041000686FF0604101EAD000586034
:1052A00000E000BF00BF05F5D87000EB04100068F7
:1052B000C0F34000587205F5D87000EB0410406848
:1052C00000F00F00987205F5D87000EB04104068EC
:1052D000000AD87405F5D87000EB04108068D87205
:1052E00005F5D87000EB04108068010A197305F504
:1052F000D87000EB04108068010C597305F5D87064
:1053000000EB04108068010E997305F5D87000EB6E
:105310000410C068D87305F5D87000EB0410C0689D
:10532000010A197405F5D87000EB0410C068010C6F
:10533000597405F5D87000EB0410C068010E99741B
:105340002146284600F09DF830BD10B502460420E5
:105350009368C3F380630BB100200CE09368C3F340
:10536000C0630BB1012006E09368C3F300730BB177
:10537000022000E0042004287CD002F5C07303EB77
:1053800000131B6803F0010402F5C07303EB001364
:105390001C600C7A02F5C07303EB00131B6864F306
:1053A000820302F5C07404EB001423600B7A13B17E
:1053B000012B1CD10DE00C8802F5C07303EB001328
:1053C0001B6864F35F5302F5C07404EB00142360A0
:1053D0000EE002F5C07303EB00131B684C6843EA50
:1053E000C40402F5C07303EB00131C6000E000BFAF
:1053F00000BF4C7A02F5C07303EB00131B6864F323
:10540000410302F5C07404EB001423608B7A02F5AB
:10541000C07404EB0014646863F3030402F5C07302
:1054200003EB00135C608B7B1C064B7B44EA03445C
:105430000B7B44EA0323CC7A234302F5C07404EBCC
:105440000014A3608B7C1C064B7C44EA03440B7C59
:1054500044EA0323CC7B234302F5C07404EB00141D
:10546000E36002F5C07303EB00131B6823F0010334
:105470005B1C00E004E002F5C07404EB0014236040
:1054800010BD11B1012906D102E02022C26003E063
:105490002022026100E000BF00BF70471BE18E4880
:1054A0000078012805D1002001F06CFC00208A4919
:1054B00008708A480078012804D101F063FC0020BC
:1054C0008649087086480078012805D1022001F03D
:1054D00059FC00208249087082480078012805D1D3
:1054E000032001F04FFC00207E4908707E480078C0
:1054F000012870D17D480068B0F5D66F68D02DDCEA
:10550000B0F5D26F62D015DCB0F5D06F5DD009DC9C
:10551000A0F28120B8B3102852D0202851D03028D2
:1055200073D14FE0A0F2816070B301286FD00228E0
:1055300079D172E0B0F5D46F49D007DCA0F2916068
:10554000A0B3012864D002286DD167E0A0F2A16069
:1055500068B301285DD0022865D160E040F2927204
:10556000811A90424CD017DC40F28172A0EB02010C
:10557000904238D009DCA0F2B16068B3012849D06C
:10558000022850D14CE01AE027E0012937D0022947
:105590002FD0102947D127E011292CD008DC012970
:1055A00028D00F2921D010293DD12AE016E016E09D
:1055B0001F291BD0202925D0212934D11CE000BF70
:1055C00000BF00BF02F08CF82EE000BF00BF00BF9C
:1055D00001F068FE28E02BE002E000BF00BF00BF42
:1055E00002F092FD20E000BF00BF00BF02F07EFB92
:1055F0001AE000BF00BF00BF02F004FB14E000BFD0
:1056000000BF00BF02F066F90EE00CE0FFE700BF4C
:1056100000BF00BF02F008FC06E000BF00BF00BFF3
:1056200002F09AFB00E000BF00BF00202E49087086
:105630002F48007C282840DB00202D4908740024D6
:1056400038E02B48015D001D005D814207D02848ED
:10565000015D001D01550021001D015507E0244892
:105660000830005D401CC1B2214808300155204877
:105670000830005D0A2817DBFF2004EB44011D4AB7
:1056800022F8210004EB440102EB8101488004EB85
:10569000440102EB81018880002115480C3001553E
:1056A0000A21001F015503E0012111480C3001556A
:1056B000601CC4B2042CC4DB00240D48007C401CD8
:1056C0000B4908740C48006840F010000A49086053
:1056D000052005F011FCE2E6410000204200002018
:1056E000430000204400002040000020D812002089
:1056F0003C130020901800201406002070B50446CA
:105700000BE01C480088401C1A49088008460088A5
:105710004FF6FF71884200D105E02946164800F097
:105720002DF80428EDD000BF002012490880072181
:1057300004F10B0000F056FDA07421460E48FFF75F
:1057400004FE05460BE00B480088401C0949088010
:10575000084600884FF6FF71884200D105E02946CF
:10576000054800F00BF80128EDD100BF00200149E9
:10577000088070BD46000020006400400246002002
:1057800021B1012910D002292AD11BE0936803F02E
:1057900001033BB19368C3F340030BB1012002E066
:1057A000002000E002201DE09368C3F300233BB11A
:1057B0009368C3F340230BB1012002E0002000E016
:1057C00002200FE09368C3F300433BB19368C3F337
:1057D00040430BB1012002E0002000E0022001E084
:1057E000002000BF00BF70470EE004F0A1F803F0F6
:1057F0003DFF03F0ADFE322005F07EFB034800685C
:1058000040F0080001490860EFE70000140600209E
:1058100010B500F00DF84FF40061044800F0F1FC01
:105820004FF48051014800F0ECFC10BD000801402D
:105830001CB50121114800F0C3FA01210F4800F006
:10584000BFFA684600F0E1FC01208DF80700002057
:105850008DF8040010208DF80600C001009004208F
:105860008DF805006946064800F0DAFC4FF48050D8
:1058700000906946024800F0D3FC1CBD02001800ED
:105880000008014010B50446012C04D180210448D1
:1058900000F0B9FC03E08021014800F0B2FC10BD2B
:1058A000000C014010B504460020FFF7EBFF642117
:1058B00004FB01F005F020FB0120FFF7E3FF0120CE
:1058C00001498877487710BD4219002010B5124869
:1058D000C07D012804D103F065FB00200E49C87586
:1058E0000D48407E012804D103F0B8FA00200A498F
:1058F00048760948C07E012804D103F003F900204E
:105900000549C8760448407F012804D103F0AAF86D
:1059100000200149487710BD1419002010B51E4819
:1059200090F82800012806D1002003F0DDFE0020B9
:10593000194981F82800184890F82A00032806D150
:10594000012003F0D1FE0020134981F82A001248FB
:1059500090F82B00032806D1022003F0C5FE00209A
:105960000D4981F82B000C4890F82C00032805D134
:1059700003F0BAFE0020084981F82C00064890F890
:105980002D00032806D1042003F0AEFE00200249BA
:1059900081F82D0010BD00001419002010B5184822
:1059A0000078012804D103F0CDFC002014490870D0
:1059B00013488078012805D1002003F047FF00201C
:1059C0000F4988700E48C078012804D103F03EFFCB
:1059D00000200B49C8700A480079012805D102202F
:1059E00003F034FF0020064908710548407901287A
:1059F00005D1032003F02AFF00200149487110BDA2
:105A00001419002030B502460B464FF6FF700021F6
:105A100011E0555C6840002409E000F0010525B163
:105A200040104AF20105684000E04010641C082C58
:105A3000F3DB4D1CE9B29942EBDB30BD024682EA52
:105A4000010070470349496860F30711014A51603A
:105A500070470000001002400349496860F30A21C2
:105A6000014A516070470000001002400349496834
:105A700060F3CD21014A51607047000000100240E0
:105A8000052827D2DFE800F0030A11181F00134A87
:105A9000126861F30002114B1A601CE00F4A126891
:105AA00061F310420D4B1A6015E00C4A126861F365
:105AB00018620A4B1A600EE0084A126A61F300028B
:105AC000064B1A6207E0054A526A61F30002034B73
:105AD0005A6200E000BF00BF7047000000100240A3
:105AE0002DE9F04F85B004460025AA46AB460026B6
:105AF000A9460020049003900290019000F042FA21
:105B00000090009820B1012812D0022875D112E02F
:105B10005648406DC0F3402038B15448006BC0F384
:105B2000406010B15248206001E05248206067E0B8
:105B30005048206064E04D484068C0F3004B4B483B
:105B4000C06AC00F30BB49484068C0F3834547482E
:105B50004068C0F3417ABAF1000F01D10F2D04D192
:105B60004FEA0A10401C054400E0AD1CBBF1000FD9
:105B700003D14148684320603DE03C484068C0F3A1
:105B8000404018B13C486843206034E039486843DD
:105B9000206030E03548C06AC0F3031003903348FA
:105BA000C06AC0F3082002903048C06A00F00700C5
:105BB0000190BBF1000F02D12F48049009E02B485F
:105BC0004068C0F3404010B12B48049001E02948E0
:105BD00004900121019801FA00F0039900FB01FCF7
:105BE00002990498A0FB01700146624600233846E2
:105BF000FEF799FB206003E0FFE71E48206000BF2E
:105C000000BF1A484068C0F303161C4810F80690FD
:105C1000206820FA09F0606014484068C0F302264A
:105C2000174810F80690606820FA09F0E0600F4805
:105C30004068C0F3C226134810F80690606820FA46
:105C400009F0A06009484068C0F300760748406842
:105C5000C0F3813040EA86060B4810F80690A06831
:105C6000B0FBF9F0206105B0BDE8F08F00100240F4
:105C7000006CDC0200127A0000093D00E4BF00085D
:105C8000F4BF0008FCBF000804C00008324A811AB3
:105C9000904218D009DCA0F50021082959D2DFE88C
:105CA00001F0222B343D4658584F891E062950D208
:105CB000DFE801F003040506070800BF00BF00BFCE
:105CC00000BF00BF00BF2549496A21F0807101F182
:105CD0008071224A516200BF2049496AC1F30061C4
:105CE0000029F9D136E01D49896821F4803101F598
:105CF00080311A4A91602DE01849896821F40031F9
:105D000001F50031154A916024E01449896821F4B5
:105D1000802101F58021114A91601BE00F498968BB
:105D200021F4002101F500210C4A916012E00B4999
:105D3000896821F4801101F58011084A916009E019
:105D40000649896821F4000101F50001034A9160C8
:105D500000E000BF00BF70471800240000100240A0
:105D600010B501460020094B03EB1142126801F007
:105D70001F040123A3401A4001F01F040123A34084
:105D80009A4200D000E0012010BD00000010024047
:105D900030B50024002500E0641C1120FFF7E0FF6F
:105DA000012802D0B4F5405FF6D31120FFF7D8FFE9
:105DB000012801D0002500E00125284630BD000063
:105DC00010B501290DD10E4B03EB1042126800F003
:105DD0001F040123A3401A43094C04EB10431A602B
:105DE0000CE0074B03EB1042126800F01F04012384
:105DF000A3409A43024C04EB10431A6010BD00000C
:105E00000010024030B50246002000233AB9324C5F
:105E1000646824F48034304D6C60304819E02E4CB6
:105E2000646824F4803404F580342B4D6C60012ABE
:105E300006D12B482C46646824F400346C6008E0DA
:105E40002648254C646824F4003404F50034224DBF
:105E50006C60244CA04204D9234CA04201D2002300
:105E600026E0224CA04204D9214CA04201D20123B9
:105E70001EE0204CA04204D91F4CA04201D20223B4
:105E800016E01D4CA04204D91C4CA04201D20323B1
:105E90000EE01B4CA04204D91A4CA04201D20423AC
:105EA00006E0184CA04203D9174CA04200D20523AB
:105EB000094C646861F39544074D6C600D09064C0C
:105EC000646865F35E74044D6C602C46E46A63F3A9
:105ED0001A64EC6230BD00000010024000093D0071
:105EE00000127A0060823B00404B4C0080584F000B
:105EF000105E5F0094357700101B7F0020BCBE0051
:105F0000286BEE0030D73D01D8E9DC011648006867
:105F100020F00100401C1449086000BF12480068CE
:105F2000C0F340000028F9D00F48406820F003007B
:105F30000D49486000BF0C484068C0F3810000284C
:105F4000F9D109480068094908400749086000205C
:105F5000486041F61070C8624FF4801008634FF437
:105F60001F0088607047000000100240FFFFF2FE33
:105F70000349496860F30101014A5160704700001C
:105F80000010024002484068C0F3810070470000E2
:105F9000001002401CB501212C48FFF711FF012120
:105FA0002A48FFF70DFF01212848801EFFF708FF50
:105FB00001212648801EFFF703FF01212348401ED0
:105FC000FFF7FEFE01212148401EFFF7F9FE0121E7
:105FD0001E48401EFFF7F4FE684600F016F9012047
:105FE0008DF8070000208DF8040010208DF80600C1
:105FF00004208DF80500C00200906946144800F0A6
:106000000FF9202000906946114800F009F940205E
:10601000009069460F4800F003F98020009069461F
:106020000C4800F0FDF88020009069460A4800F016
:10603000F7F8202000906946074800F0F1F840206A
:1060400000906946044800F0EBF81CBD04001800FD
:106050000010014000080140000C01400149C860E7
:10606000704700000020024070B504460D4603262C
:106070000A48006920F00100401C08490861258099
:106080004FF4801000F030F806460448006920F014
:10609000010002490861304670BD00000020024046
:1060A0000348006920F08000803001490861704792
:1060B0000020024003200B49C96801F0010109B129
:1060C00000200EE00749C968C1F3800109B1012031
:1060D00007E00449C968C1F3001109B1022000E0DA
:1060E000032070470020024000B502460323FFF75B
:1060F000E1FF034603E0FFF7DDFF0346521E0BB945
:10610000002AF8D102B90423184600BD10B50B4689
:10611000002104E004785C54401C4C1CA1B2914264
:10612000F8DB10BD30B5044603250D48006920F0AA
:106130000200801C0A49086108464461006920F099
:106140004000403008614804FFF7CEFF0546044890
:10615000006920F0020002490861284630BD0000B5
:1061600000200240024803494860034848607047E5
:106170002301674500200240AB89EFCD01B5072020
:106180002BE09DF80010C0F10702114101F0010160
:1061900009B1FC2100E0C021114A11549DF8011001
:1061A000C0F10702114101F0010109B1FC2200E038
:1061B000C0220B4B00F108015A549DF80210C0F1A7
:1061C0000702114101F0010109B1FC2200E0C022E7
:1061D000034B00F110015A54401E0028D1DA08BDCB
:1061E000F505002010B502460B460024002104E00E
:1061F000505C204484B2481CC1B29942F8DBE0B242
:1062000010BD41617047016170474FF6FF71016039
:10621000002181710171042141710121C171704717
:10622000F0B50A461588ABB29579032D01D100244B
:106230001AE0957965B9557905F00F045579182D4F
:1062400001D1036110E05579282D0DD143610BE098
:10625000957905F00805167906F004063543D679D8
:1062600006F0030645EA0604DDB2A5B1002110E000
:1062700001258D401D405DB105688F000F26BE4091
:10628000B543056005688E0004FA06F635430560DF
:10629000491C0829ECD3FF2B15DD1B12002110E04F
:1062A00001258D401D405DB145688F000F26BE4021
:1062B000B543456045688E0004FA06F635434560EF
:1062C000491C0829ECD3F0BDF0B50C46104F07EB84
:1062D0001062C0F30741C0F30725C6B2C5F120071D
:1062E000A7EB010C4FF0FF3707FA0CF3C5F12007BD
:1062F0007F1AFB40CB408B4017689F4317602CB13F
:1063000006FA01FC176847EA0C071760F0BD0000A9
:106310000000014070B505460C46022C41DC012D01
:1063200004D0022D12D0032D39D11FE0022C09D147
:10633000002000F087F8C82004F0DEFD012000F006
:1063400081F802E0204600F07DF829E0022C09D116
:10635000002000F08FF8C82004F0CEFD012000F0EE
:1063600089F802E0204600F085F819E0022C0FD1F0
:10637000002000F067F8002000F07CF8C82004F04E
:10638000BBFD012000F05EF8012000F073F805E08D
:10639000204600F057F8204600F06CF800E000BFFF
:1063A00000BF70BD70B506460C461546022C47DC92
:1063B000012E04D0022E14D0032E3FD123E0022C54
:1063C0000BD1002000F03EF8642105FB01F004F041
:1063D00093FD012000F036F802E0204600F032F88C
:1063E0002DE0022C0BD1002000F044F8642105FBC5
:1063F00001F004F081FD012000F03CF802E02046AD
:1064000000F038F81BE0022C11D1002000F01AF83F
:10641000002000F02FF8642105FB01F004F06CFD72
:10642000012000F00FF8012000F024F805E02046DC
:1064300000F008F8204600F01DF800E000BF00BFA3
:1064400070BD000010B504463CB920210748FFF795
:10645000D8FE00200649087006E020210348FFF717
:10646000D2FE01200249087010BD0000000C01405E
:106470001806002010B504463CB940210748FFF734
:10648000C0FE00200649487006E040210348FFF79F
:10649000BAFE01200249487010BD0000000C014006
:1064A0001806002000200449087048708020887079
:1064B0000320024908707047A4000020B2000020A9
:1064C000002037494860087248720820887200200E
:1064D00034494860087248720820887200213148A7
:1064E000816101774177082181770021C16280F8BD
:1064F000301080F83110082180F83210002101643A
:1065000080F8441080F84510082180F846100020DB
:106510002549486008724872082088720020234983
:106520004860087248720820887200211F48816103
:1065300001774177082181770021C16280F830100E
:1065400080F83110082180F832100021016480F8B1
:10655000441080F84510082180F8461000201449A6
:1065600048600872487208208872002110488161D2
:1065700001774177082181770021C16280F83010CE
:1065800080F83110082180F832100021016480F871
:10659000441080F84510082180F84610704700002C
:1065A000C41200205C1A0020AC1A00200C1A002033
:1065B000C01A002010B51B480068FDF72BFF0446E9
:1065C0002246184801681848FDF743FF4FF48071D0
:1065D00015488030FDF7D6FF0020134981F880016F
:1065E00081F881010F480068FDF714FF0E4981F81A
:1065F0008201002081F8830180210C48FDF7C2FF51
:106600004FF4807109488030FDF7BCFF0020074936
:1066100081F8800181F8810181F8820181F883018C
:1066200010BD00002C0000209C0600202008002047
:1066300010B50B48FFF794FB10B10948FFF726FB94
:10664000012004F037FD052004F022FD40F2DB506C
:1066500004F03CFD04F014FD04F024FD10BD000026
:106660001D0024000BE003F0C9FF0548006840F05E
:106670000100034908604FF4FA7004F03DFCF2E7B2
:106680001406002008B51F4800780A2836D2DFE833
:1066900000F005080E11171D2335292F03F004FD06
:1066A0002DE019480068009003F0C4FC27E003F0D7
:1066B0006FFC24E014480068009003F087F91EE0A6
:1066C00011480068009003F0E9F918E00E480068EE
:1066D000009003F0C9FB12E00B480068009003F043
:1066E00045FA0CE008480068009003F069FC06E0F9
:1066F00005480068009003F07BFC00E000BF00BF8D
:1067000008BD0000B2000020A40000201CB54B48CA
:1067100000784B4908700846007802280CD1494897
:10672000486049488860C860012048704FF4E031F3
:10673000C00600F073F90BE0434841494860414806
:106740008860C860022048704103800600F066F946
:10675000032000F039F903F0E5FD0C223B493C48E9
:10676000FFF7D4FCFFF716FC00F062F9FFF722FFF9
:1067700004F0CAF9FEF790FAFEF72CFDFEF750FB85
:10678000FFF746F804F0E6FC04F008FB314802216C
:1067900000231022CDE900102FA1324804F086FD1D
:1067A0003148022100230A02CDE900102FA133480D
:1067B00004F07CFD3248022100234A02CDE900109A
:1067C00030A1344804F072FD334802210023CA018D
:1067D000CDE9001031A1344804F068FD33480221AE
:1067E0000023CA01CDE9001031A1344804F05EFD58
:1067F0003348052100234FF40072CDE9001031A188
:10680000334804F053FD3348062100238022CDE9AC
:10681000001031A1334804F049FD33480221002320
:106820008022CDE9001031A1344804F03FFD04F08E
:10683000DFFA04F08FFB00201CBD000000380008C8
:10684000701B002000C0010800400008D81800207C
:10685000E8F7FF1F040000204C4544325F74617369
:106860006B00000065660008080000207573617207
:1068700074315F72785F7461736B000051A6000819
:106880000C0000207573617274315F74785F7461FD
:10689000736B000039A700081400002063616E5F6D
:1068A00074785F7461736B00E9570008180000206A
:1068B00063616E5F72785F7461736B009D54000852
:1068C0001C0000207773323831325F7461736B00C3
:1068D00065B1000820000020777464675F746173FD
:1068E0006B0000008DB100082400002075736172F8
:1068F00074325F72785F7461736B0000E5A7000803
:106900002DE9F0470B4614464FF0000C00BF2C4A0F
:106910001268C2F302211D4626460A46C2F1070943
:10692000B9F1040F02D94FF0040901E0C2F10709DF
:10693000C84602F10409B9F1070F02D24FF000096D
:1069400001E0A2F103094F464FF0010909FA08F9E5
:10695000A9F1010909EA050909FA07F94FF0010A45
:106960000AFA07FAAAF1010A0AEA060A49EA0A0932
:10697000CC4601466246002904DB15072E0E114D58
:106980006E5407E015072F0E0D4D0C3501F00F0664
:10699000361FAF5500BF014600290DDB00BF00BF09
:1069A00001F01F050122AA404D09AD0005F1E025C7
:1069B000C5F8002100BF00BF00BFBDE8F0870000A0
:1069C0000CED00E000E400E000BF00F00702064B21
:1069D00019684FF6FF031940044B0B4343EA0221A9
:1069E000014B196000BF70470CED00E00000FA0594
:1069F00000BFBFF34F8F0748006800F4E06006490E
:106A00000843001D03490860BFF34F8F00BF00BF5C
:106A100000BFFDE70CED00E00000FA05024A0A4065
:106A20000243024B1A60704780FFFF1F08ED00E031
:106A300070B500BF012004F057F9012003F062FC9B
:106A40000120FEF717F900210C460D4603E000BFB8
:106A5000641C45F100050849611A75F10000F6D380
:106A60000120FEF70FFF01210846FFF753FC01212B
:106A70000220FFF74FFC70BD80841E002DE9F0411D
:106A800004460D46164655200B490870AA2048704A
:106A900004208870200AC8700C7108464571867100
:106AA0008178C01CFEF7AEFF0746380A0249C8715C
:106AB0000F720920BDE8F081601B00202DE9F04134
:106AC00004460E46154655200D490870AA20487008
:106AD00005208870200AC8700C7108464671280A83
:106AE0008871CD7108468178C01CFEF78BFF074680
:106AF000380A034908724F720A20BDE8F08100008D
:106B0000601B002010B50446022C06DA2046FEF772
:106B1000B1F801200449087702E000200249087713
:106B200001200149C87610BD4219002010B5044665
:106B30000020FEF79FF8642104FB01F004F0DCF96B
:106B40000120FEF797F8012001490877C87610BDAB
:106B50004219002008B55648407904280FDC5448F3
:106B6000807909280BDC5248C079802807DC50481E
:106B7000007A802803DC4E48407A802808DD002017
:106B80004C4988734A4840794873012008738EE065
:106B90004748807907280CD14548C079642808DD2A
:106BA00000204449887342484079487301200873A3
:106BB0007DE03F48407918BB3D488079072808D1DF
:106BC0003B48C079642804DC3948C0793A490870E8
:106BD00009E03748C079394948703548007A08706B
:106BE0003348407A887032488079354908700120EE
:106BF000304988732E48407948730120087356E065
:106C00002B484079012811D140F201702D490860CC
:106C10002748407A00902648037AC279817900207B
:106C200003F0B2FC01202849087040E02048407978
:106C3000022811D140F21170224948611C48407A63
:106C400000901B48037AC2798179012003F09CFCF3
:106C500001201D4948702AE015484079032811D1C8
:106C600040F22170174988621148407A009010481C
:106C7000037AC2798179022003F086FC012012494F
:106C8000887014E00A484079042810D140F231702D
:106C90000C49C8630648407A00900548037AC279D7
:106CA0008179032003F070FC01200749C87008BDFA
:106CB000A409002014190020B4000020A400002022
:106CC000B20000205C1A0020701900202948807949
:106CD00009280BDC2748C079802807DC2548007A82
:106CE000802803DC2348407A802808DD00202249E0
:106CF00048742048407908740120C87339E01D4861
:106D0000807907280CD11B48C079642808DD002051
:106D1000194948741748407908740120C87328E05D
:106D20001448407940B9002013494874114840790B
:106D300008740120C8731CE040F203700F4908601A
:106D40000C488079C8720B48C1790C480173094816
:106D5000017A0A4841730748417A08488173054817
:106D600041790648C173002101744174012004492E
:106D700008747047A409002014190020AC1A0020E0
:106D80007019002030B1012813D0022825D0032823
:106D90004DD137E02749C97A274A11802549097B17
:106DA00051802449497B91802249497C234A1170B2
:106DB0003EE02049C97F204A91811E4991F8202058
:106DC0001D49CA811B4991F821201B490A82194992
:106DD00091F82510194A51702AE0164991F833109C
:106DE000154A1183134991F8342013494A831149F4
:106DF00091F8352010498A830E4991F839100F4ACD
:106E0000917015E00B4991F847100B4A918409499C
:106E100091F848200849CA84064991F84920064952
:106E20000A85044991F84D10044AD17000E000BF72
:106E300000BF7047EC120020901800203C13002087
:106E4000274880780C2808D0002026490870264959
:106E5000C87288720120487241E02148407918B90F
:106E60001F48807B072808DD00201E4908701E4946
:106E7000C87288720120487208E001201949087020
:106E80001949C8720020887201204872154800789C
:106E9000012824D112488079144908701048C0791B
:106EA00048700F48007A88700D48417A0F48C170C9
:106EB0000B48807A0D4908710948C17A0B48417125
:106EC0000748007B094988710548417B0748C17123
:106ED0000348807B06490870062006490870704701
:106EE000A40900203100002014190020A90000206E
:106EF000B1000020B2000020274880780C2808D07C
:106F000000202649087026490872C871012088713E
:106F100041E02148407918B91F48807B072808DDE7
:106F200000201E4908701E490872C871012088712E
:106F300008E0012019490870194908720020C87139
:106F40000120887115480078012824D112488079E1
:106F5000144908701048C07948700F48007A88704A
:106F60000D48417A0F48C1700B48807A0D4908716D
:106F70000948C17A0B4841710748007B094988716B
:106F80000548417B0748C1710348807B064908706A
:106F90000520064908707047A40900203100002030
:106FA00014190020A9000020B1000020B200002028
:106FB00010B55548C0795449897940EA01205349B0
:106FC00088830846807803287ED14F48407901287D
:106FD0000FD0002088700846828B00219B20FFF78D
:106FE0006DFD4B490870084601784A4801F084FC61
:106FF00089E04648808B4549098B884210DB43482D
:10700000828B00219B20FFF759FD414908700846FB
:107010000178404801F070FC00203C49887072E023
:10702000394A9278D21C384B995C3B4A1078FEF76B
:1070300005FD39490870344A9278121D324B995C2B
:10704000354A5078FEF7FAFC334948702F498C8B4B
:10705000E11704EB11710911A4EB01112F4B03EBA4
:10706000C110294989784A1F27490831FDF7F1F9EC
:1070700026498A8B098B491E8A4209D02349888B6D
:10708000C11700EB11710911A0EB01110F2911D1EA
:107090001E494FF40062C868204904F01DF81B48DF
:1070A000C06800F500601949C8604FF400611B48D2
:1070B000FDF768FA1548828B01219B20FFF7FEFC43
:1070C00013490870084600E00DE00178114801F00E
:1070D00013FC0E48818B008B401E814213D104208B
:1070E0000A4988700FE00020084988700846828BA2
:1070F00000219B20FFF7E2FC054908700846017853
:10710000044801F0F9FB10BDC4090020701B0020E9
:107110001A060020601B00201C060020C40A002064
:1071200010B51E48807818B11C488078012826D1F7
:107130001B484079012814D119488079012810D1C1
:107140001648427801219820FFF798FC15490870ED
:1071500008460178144801F0CFFB01200F498870E0
:107160001AE00E48427800219820FFF787FC0D496D
:107170000870084601780C4801F0BEFB0CE0074897
:10718000427800219820FFF779FC064908700846EC
:107190000178054801F0B0FB10BD0000701B002015
:1071A000C40900201A060020601B002010B51F48EB
:1071B0004079042807DD00201D4981F829000120BD
:1071C00081F8280031E01948407930B90120184988
:1071D00081F8290081F8280027E014484079012827
:1071E00004D140F202601349086019E00F48407969
:1071F000022804D140F212600E49086010E00B48EA
:107200004079032804D140F222600A49086007E06F
:1072100006484079042803D140F2326005490860ED
:1072200003F0DEF90348FEF769FA10BDA409002057
:1072300014190020C412002010B50446042C05DDEA
:107240000020164948700120087025E024B901206B
:107250001249487008701FE0012C04D140F201600F
:107260000F49086013E0022C04D140F211600C4970
:1072700008600CE0032C04D140F22160084908604A
:1072800005E0042C03D140F231600549086003F0A9
:10729000A7F90348FEF732FA10BD000014190020C8
:1072A000C41200200A480068B0F5D06F09D0B0F5CC
:1072B000D26F07D0B0F5D46F05D0B0F5D66F04D13A
:1072C00002E003E002E001E000E000BF00BF704721
:1072D000D812002070B50446A07B2070617B207B13
:1072E00041EA0020A4F80500217CE07B41EA00206F
:1072F000A4F80100607CE071A07C207280218848A5
:10730000FDF740F994F8892004F109018448FDF75C
:10731000A0F82078052871D2DFE800F003041A7184
:107320009900BDE0204603F073F9B4F8010028B9D4
:10733000E079012802D17A49887202E00020784978
:10734000887294F88900801D754981F88201A7E050
:10735000204603F05DF9B4F80100002844DDB4F8DC
:107360000100032840DCE079022813DAE07800F01D
:10737000010018B1E1790120FEF7CCFFE078C0F3FD
:10738000400018B1E1790220FEF7C4FF01206449F2
:1073900088722CE0E079022822D1E07800F0010028
:1073A00040B1E078C0F3400020B1227AE1790320B7
:1073B000FEF7F8FFE07800F0010020B1227AE179D1
:1073C0000120FEF7EFFFE078C0F3400020B1227A01
:1073D000E1790220FEF7E6FF01205149887206E0BC
:1073E00000204F49887202E000204D49887294F8CD
:1073F0008900801D4A4981F8820151E04FE0204612
:1074000003F006F9B4F80100B8B9E079022806DA09
:10741000E079FFF777FB01204149887210E0E079BD
:10742000022806D1207AFFF781FB01203C498872AF
:1074300006E000203A49887202E00020384988724C
:1074400094F88900801D364981F8820128E02046A1
:1074500003F0DEF8B4F80100B8B9E079022806DAE2
:10746000E079FEF70FFA01202D49887210E0E079EB
:10747000022806D1207AFEF715FA012028498872E1
:1074800006E000202649887202E000202449887224
:1074900094F88900801D224981F8820100E000BF34
:1074A00000BF1F488178C01CFEF7ACFA0546290AC8
:1074B0001B488078C01C1A4A115410468078001D61
:1074C000155414E000BF8021164803F0DFFA0028AD
:1074D000F9D0134890F8802190F88001401C104B9F
:1074E00083F880011846815C0E4803F0BDFA0C4811
:1074F00090F880010A4991F882118842E2DB00206D
:10750000074981F88001052003F0F6FC2078012866
:1075100005D14FF47A7003F0EFFCFFF769FA70BD04
:107520009C0600200038014070B504460026A07B70
:107530002070617B207B41EA0020A4F80500217CBB
:10754000E07B41EA0020A4F80100607CE071A07CAF
:10755000207280213748FDF715F894F8892004F14E
:1075600009013448FCF775FF207805281CD2DFE8B4
:1075700000F01C1D031E1F00204603F049F82E4892
:1075800000782D49497840EA4106300A2949887136
:10759000CE710020087248720120887294F8890028
:1075A000801D81F8820104E000BF00BF00BF00BF62
:1075B00000BF00BF1F488178C01CFEF723FA0546B4
:1075C000290A1C488078C01C1A4A11541046807839
:1075D000001D155414E000BF8021184803F056FA2E
:1075E0000028F9D0134890F8802190F88001401CC1
:1075F000104B83F880011846815C104803F034FA80
:107600000C4890F880010B4991F882118842E2DB26
:107610000020084981F88001052003F06DFC2078E6
:10762000012805D14FF47A7003F066FCFFF7E0F90A
:1076300070BD00009C0600201806002000380140A4
:1076400010B50446042C07DD002022498875084641
:107650004475012008753BE03CB901201D4988753F
:10766000002048750120087532E0012C0AD140F253
:10767000012019490860002002F032FF012017495B
:10768000087225E0022C0AD140F21120124948610B
:10769000012002F025FF01211048417218E0032C5F
:1076A0000AD140F221200C498862022002F018FF22
:1076B00001210A4881720BE0042C09D140F23120EB
:1076C0000549C863032002F00BFF01210348C17282
:1076D00010BD000014190020C01A002070190020ED
:1076E00026480068A0F2812030B1102813D020284D
:1076F00021D030283FD12EE02048407C012802D103
:107700001F49887502E000201D49887501201C4929
:107710004875087530E01948407C012802D11849A5
:10772000887502E0002016498875022014494875C2
:107730000120087520E01148407C012802D1104941
:10774000887502E000200E49887503200C494875B1
:107750000120087510E00948407C012802D1084941
:10776000887502E0002006498875042004494875A0
:107770000120087500E000BF00BF7047D81200204C
:107780001419002010B51248407928B10020114981
:1077900088770120487719E00D48807930B90020BA
:1077A000FEF770F801200B4988770CE008488079D3
:1077B000012805D1FEF766F801200649887702E026
:1077C00000200449887701200249487710BD000055
:1077D000A40900201419002010B51248407928B1DE
:1077E0000020114908770120C87619E00D488079FA
:1077F00030B90020FDF73EFA01200B4908770CE074
:1078000008488079012805D1FDF734FA012006499E
:10781000087702E000200449087701200249C87671
:1078200010BD0000A40900201419002000B525484F
:107830004079042802DC2348407930B900202249ED
:10784000C8742048407988743AE01E48407901287D
:107850000AD140F202701D490860002002F06AFE61
:1078600001201B4908712BE01648407902280AD1F3
:1078700040F2127015494861012002F05BFE0121BF
:10788000134841711CE00F48407903280AD140F2A7
:1078900022700E498862022002F04CFE01210C4841
:1078A00081710DE007484079042809D140F2327017
:1078B0000649C863032002F03DFE01210448C1715E
:1078C00000BD0000A4090020141900200C1A00209B
:1078D0007019002012480068A0F2827030B11028A0
:1078E00009D020280DD0302817D110E001200D49F3
:1078F000C874887412E001200A49C8740220887490
:107900000CE001200749C8740320887406E00120B8
:107910000449C8740420887400E000BF00BF7047A9
:10792000D81200201419002010B51248407928B14F
:107930000020114988760120487619E00D488079A9
:1079400030B9002002F0DEFC01200B4988760CE003
:1079500008488079012805D102F0D4FC01200649AD
:10796000887602E0002004498876012002494876A2
:1079700010BD0000A40900201419002010B5124801
:10798000407928B10020114908760120C87519E016
:107990000D48807930B9002003F0A6F901200B4989
:1079A00008760CE008488079012805D103F09CF99D
:1079B00001200649087602E00020044908760120EB
:1079C0000249C87510BD0000A40900201419002048
:1079D00010B54148807801286DD1404880793E49F2
:1079E0004978884210D000203B4988700846427888
:1079F00000219920FFF742F83949087008460178BC
:107A0000384800F079FF66E03448C0790006334911
:107A1000097A40EA01403149497A40EA01202F4978
:107A2000897A08432C4908612C48007B2B49C97A84
:107A300040EA0120284908830846007C00F07F00C6
:107A400028B908460069C0F3CF10488306E02248F1
:107A50000069012101EBD0101F4948831E480069CD
:107A6000B0F5C03F05D81C48008B1B49498B8842A4
:107A700010D00020184988700846427800219920CB
:107A8000FEF7FCFF1649087008460178154800F01B
:107A900033FF20E01048427801219920FEF7EEFFE5
:107AA0000F490870084601780E4800F025FF0220B3
:107AB000094988700FE0002007498870084642781D
:107AC00000219920FEF7DAFF054908700846017881
:107AD000044800F011FF10BD701B0020C4090020F5
:107AE0001A060020601B002010B54048807802284C
:107AF0006AD13F484079012805D13D4880793B490A
:107B00004978884210D00020384988700846427869
:107B100000219A20FEF7B2FF364908700846017826
:107B2000354800F0E9FE5FE0304880682F49C860C2
:107B3000FF203249087048702D48C07900062C4952
:107B4000097A40EA01402A49497A40EA0120284955
:107B5000897A0843254948612548007B2449C97A28
:107B600040EA012021494883084640690969884262
:107B700005D11E48408B1D49098B884210D000203A
:107B80001A4988700846427800219A20FEF776FF4D
:107B90001849087008460178174800F0ADFE23E048
:107BA0000120174908701148427801219A20FEF7F8
:107BB00065FF10490870084601780F4800F09CFEE8
:107BC00003200A4988700FE00020084988700846A1
:107BD000427800219A20FEF751FF064908700846B6
:107BE0000178054800F088FE10BD0000701B0020E1
:107BF000C40900201A060020601B00201C0600207B
:107C00001B06002035480068A0F2837030B11028B0
:107C100012D0202820D030283ED12DE030480078E6
:107C200040F001002E4908702C48407C2D4909780D
:107C300008432C49087030E02948007840F00200E1
:107C4000274908702548407C40062649097841EAC2
:107C500010602449087020E02148007840F00400BA
:107C60001F4908701D48407C80061E49097841EA7A
:107C700010601C49087010E01948007840F00800B6
:107C8000174908701548407CC0061649097841EA32
:107C900010601449087000E000BF00BF0F48C07BAF
:107CA0000F490978884217D10C48C07B0D490978E3
:107CB000884203D101200C49487402E000200A499F
:107CC000487407480078084908740120C8730020E8
:107CD000034908700349087070470000D81200205B
:107CE00048000020490000201419002018480068AE
:107CF000A0F2817030B110280CD0202813D0302889
:107D000023D119E01248407C12498873012048733E
:107D100008731BE00E48407C0E49887302204873AC
:107D20000120087312E00A48407C0A498873032046
:107D300048730120087309E00548407C05498873B1
:107D4000042048730120087300E000BF00BF7047A3
:107D5000D81200201419002031480068A0F2836076
:107D600030B1102855D0202854D0302854D152E0BA
:107D70002B48C07A01281BD12A49C8772848007BA4
:107D8000012810D12648407B012803D02448407B9D
:107D9000022808D12248017B224880F821100121C5
:107DA00080F8201034E000211E4880F820102FE0D9
:107DB0001B48C07A02282BD101201A49C8771848DD
:107DC000007B01281CD1084690F821101448407B04
:107DD000814215D10121134880F820101048C17B41
:107DE000807B41EA00200F4948840D48417C007C9B
:107DF00041EA00200B49888400210A48C18403E03D
:107E00000021084880F820100021064880F8211041
:107E100003E002E001E000E000BF00BF70470000A7
:107E2000D81200204219002061480068A0F2826048
:107E300030B1102831D020285CD0302872D187E0B2
:107E40005B48807C012827D15948407C01280FD10C
:107E5000584857490B310A68C260898801825648E0
:107E600090F82A0040F00100534981F82A0013E0FD
:107E70004F48407C02280FD14E484D490B310A68CB
:107E8000C0F812208988C1824B4890F82A0040F03F
:107E90000200494981F82A0088E04548807C012891
:107EA00027D14348407C01280FD1424840490B313B
:107EB0000A688261898881833F4890F82B0040F0EE
:107EC00001003D4981F82B0013E03948407C02282D
:107ED0000FD1384836490B310A68C0F81E2089880E
:107EE0004184354890F82B0040F00200324981F877
:107EF0002B005BE02E48807C012828D12C48407C58
:107F0000012810D12B482A490B310A68426289881E
:107F10000185294890F82C0040F00100264981F89D
:107F20002C0014E041E02248407C02280FD1214877
:107F30001F490B310A68C0F82A208988C1851E486C
:107F400090F82C0040F002001B4981F82C002DE035
:107F50001748807C012827D11548407C01280FD183
:107F6000144813490B310A680263898881861248D4
:107F700090F82D0040F001000F4981F82D0013E02A
:107F80000B48407C02280FD10A4809490B310A6886
:107F9000C0F8362089884187074890F82D0040F0C6
:107FA0000200054981F82D0000E000BF00BF7047C6
:107FB000D8120020D81800201419002010B5184835
:107FC0004079012803D11648407901280DD0154881
:107FD000427800219D20FEF751FD134908700846A4
:107FE0000178124800F088FC19E00E48427801211F
:107FF0009D20FEF743FD0C490870084601780B48A8
:1080000000F07AFC074880680649C8600020887044
:10801000FF2007490870487000200649087010BD0D
:10802000C4090020701B00201A060020601B0020DD
:108030001C0600201B06002010B52D48807804285F
:1080400048D12C48407901280DD029484278002198
:108050009C20FEF713FD2849087008460178274840
:1080600000F04AFC43E0234880792549097888429A
:1080700005D12048C0792249497888420DD01C4852
:10808000427800219C20FEF7F9FC1B490870084645
:1080900001781A4800F030FC29E01548407814496E
:1080A000887701221E31174803F016F810484278ED
:1080B00001219C20FEF7E2FC0F4908700846017878
:1080C0000E4800F019FC4FF47A7002F015FFFEF72D
:1080D0008FFC0CE00648427800219C20FEF7CEFC85
:1080E0000549087008460178044800F005FC10BDF9
:1080F000701B0020C40900201A060020601B00200D
:108100001C0600200038000826480068A0F28160A4
:1081100030B1102813D0202821D030283ED12DE0B6
:108120002048407C012809D11F481E490B310A68AC
:1081300002608988818001201C4988702FE01948DD
:10814000407C01280AD1184816490B310A68C0F84A
:1081500006208988418101201449C8701FE0114818
:10816000407C012809D110480E490B310A68C260D1
:108170008988018201200D49087110E00948407C7E
:1081800001280AD1084807490B310A68C0F81220B3
:108190008988C18201200549487100E000BF00BF05
:1081A00070470000D8120020C018002014190020C9
:1081B0002DE9F04105460E461C4807681C4800683A
:1081C000001D02F0A1FD50B91948006890F82C106C
:1081D0000120884017490968814316480160681CDE
:1081E00038B936B112480168091D134802F0CAFDBA
:1081F0001AE07C190E4800684460BC4207D20C4863
:108200000168091D0D48006802F0A2FD0CE0084855
:108210000168091D0A48006802F09AFD09480068D3
:10822000844201D207480460BDE8F0813C0600208A
:1082300028060020400600204424002030060020AC
:108240002C0600205806002010B5044602F0A6FDBA
:1082500023480068401C224908602248006840B951
:10826000204804600846006801280DD100F01EF97E
:108270000AE01D48006838B91A480068C06AE16A17
:10828000884201D81748046018480068401C174904
:10829000086094F82C1001208840154909680843AB
:1082A00013490860E16A01EB8101124A02EB810087
:1082B000211D02F067FD02F09BFD0B48006868B1CC
:1082C00008480068C06AE16A884207D24FF08050CF
:1082D00009490860BFF34F8FBFF36F8F10BD0000D7
:1082E00038060020280600204406002054060020FE
:1082F000400600209023002004ED00E010B516E0B9
:1083000002F04CFD0C48C068C468201D02F0FCFC63
:108310000A480068401E0949086009480068401E74
:108320000749086002F064FD204600F00BF804489D
:1083300000680028E4D110BD302400203806002059
:108340003406002010B50446206B02F06FFD204675
:1083500002F06CFD10BD000030B54FF4A04317488B
:1083600000F007042CB1C01D20F00700134C041BC3
:108370001B1B0246124C22600024114D6C60D01869
:10838000083820F007000F4C206000240D4D2D68A8
:108390006C600C4D2D682C601146441A4C60094CE1
:1083A00024680C60084D4C682C60084D4C682C60AB
