:020000040800F2
:1000000050140020850100089F0200089702000894
:100010009B0200089102000829040008000000006B
:10002000000000000000000000000000A302000823
:100030009502000800000000A1020008A5020008C7
:100040009F0100089F0100089F0100089F01000810
:100050009F0100089F0100089F0100089F01000800
:100060009F0100089F0100089F0100089F010008F0
:100070009F0100089F0100089F0100089F010008E0
:100080009F0100089F0100089F0100089F010008D0
:100090009F0100089F0100089F0100089F010008C0
:1000A0009F0100089F0100089F0100089F010008B0
:1000B0009F010008450300089F0100089F010008F8
:1000C0009F0100089F0100089F0100089F01000890
:1000D0009F010008A90300089F0100089F01000874
:1000E0009F0100089F0100089F0100080000000018
:1000F0000000000000000000000000000000000000
:10010000000000009F0100089F010008000000009F
:100110009F0100089F01000800000000000000008F
:100120009F0100089F0100089F0100089F0100082F
:1001300000000000000000000000000000000000BF
:100140000000000000000000000000009F01000807
:1001500000000000000000009F0100089F0100084F
:100160000000000000000000000000009F010008E7
:10017000DFF80CD000F07AF800480047DD100008E6
:10018000501400200648804706480047FEE7FEE777
:10019000FEE7FEE7FEE7FEE7FEE7FEE7FEE7FEE737
:1001A000A9020008710100082DE9F05F0546002052
:1001B00092469B4688460646814640241BE02846D8
:1001C00041464746224600F041F853465A46C01A77
:1001D000914110D311461846224600F028F82D1AF6
:1001E00067EB01084F4622460120002100F01FF86E
:1001F00017EB00094E41201EA4F10104DFDC484644
:1002000031462A464346BDE8F09FD2B201E000F8ED
:10021000012B491EFBD270470022F6E710B51346AA
:100220000A4604461946FFF7F0FF204610BD202A73
:1002300004DB203A00FA02F1002070479140C2F13D
:10024000200320FA03F3194390407047202A04DB6F
:10025000203A21FA02F00021704721FA02F3D0403F
:10026000C2F120029140084319467047064C074DE1
:1002700006E0E06840F0010394E807009847103476
:10028000AC42F6D3FFF778FFB0160008D01600088E
:1002900000BFFEE7704700BFFEE700BFFEE7704704
:1002A00070477047704700002248C06920F08050B6
:1002B00000F180501F49C8611F48007840F00400D9
:1002C0001D49503981F850001A48C06920F080500B
:1002D0001849C8610846006820F00100401C086009
:1002E00000BF14480068C0F340000028F9D011484E
:1002F000406820F003000F49486000BF0D48406887
:10030000C0F381000028F9D10A4800680B49084071
:10031000084908600020486041F61070C8624FF438
:10032000801008634FF41F008860C8030449086008
:10033000704700000010024050700040FFFFF2FEC6
:1003400008ED00E010B50121134801F088F80128FC
:1003500020D10121104801F07FF8002000F0D4F9ED
:100360000E480078B0B10E480078401CC0B20C496D
:10037000087008B9FF20087009480078022801DDDC
:1003800000F0DCF906480078052803DD0021054867
:1003900000F052FC10BD0000000400400D000020E1
:1003A0000C0000200400180010B500201B49087044
:1003B00020211B4801F0FBF870B3194801F0EAF85E
:1003C00004461848B0F80408B0F5806F08DB002038
:1003D0001449A1F80408A1F80008A1F802081BE0DC
:1003E0001048B0F80408401C0E49A1F8040808465B
:1003F000B0F80018B0F80008401C0A4AA2F800083B
:10040000104620F81140B0F80008B0F5806F03DB0B
:1004100000201146A1F8000810BD00000C000020CB
:10042000003801404A08002000BFFEE7002807DB33
:1004300000F01F0201219140024A430942F82310B3
:100440007047000080E200E002E008C8121F08C107
:10045000002AFAD170477047002001E001C1121F45
:10046000002AFBD17047000010B504462068A0F1B7
:100470000050B0F5603F22D20021114800F0DCFBB3
:100480000021104800F0D8FB00210E480C3800F085
:10049000D3FB252000F048FE1D2000F045FE25205E
:1004A000FFF7C4FF1D20FFF7C1FF07496068086020
:1004B000206880F3088800BF08460068804710BDA8
:1004C00001001C000E0018000800002010B50024D8
:1004D00048480078F0B948480078022806D1002042
:1004E0004549087001204349087081E0424800787E
:1004F000042805D100204049087000F057F977E042
:100500003D480078032873D100203B49087000F073
:1005100015F96DE037480078012807D13749087090
:1005200002203449087000F041F961E03148007858
:10053000022836D132480078042828D13148407842
:1005400001063048807801EB00412E48C07801EB6D
:1005500000212C4800790C182B48844211D32B48D9
:100560000068800200F10060A0420AD92549491DB7
:10057000204600F097FC00202149087000F016F991
:1005800036E000201E49087000F0D8F830E01C4822
:10059000007805282CD100201949087000F0CEF809
:1005A00026E014480078032822D113480078022856
:1005B00015D100201049087000F0F8F81248406882
:1005C00000F07F40B0F1006F05D100F0DBFB0E487A
:1005D000FFF74AFF0CE003200749087008E00648CF
:1005E0000078032804D100200349087000F0A6F821
:1005F00010BD000002000020010000200D000020BE
:10060000000000204400002000400008E0F7FF1F29
:1006100003480078022800D170470120FCE7000061
:100620000038000810B500F021FC002000F030F880
:10063000012000F02DF8022000F02AF8002000F040
:100640004FF8012000F04CF8022000F049F800F0CB
:1006500001F810BD1CB501210B4800F0EDFA684609
:1006600000F0D6FC01208DF8070000208DF8040072
:100670008DF806000120009028208DF805006946BD
:10068000024800F0D0FC1CBD020018000008014028
:100690001CB504460F4951F82400012100F0CCFAA2
:1006A000684600F0B5FC01208DF8070000208DF8A9
:1006B000040010208DF80600074830F81400009060
:1006C00004208DF80500054951F82400694600F022
:1006D000AAFC1CBD240000201C00002010000020EB
:1006E000022800DD7047064931F8101031B1044985
:1006F00031F81010034A52F82020116100BFF1E7D1
:100700001C00002010000020022800DD704709496D
:1007100031F8101059B1084951F82010C968054A3C
:1007200032F810205140044A52F82020D16000BF16
:10073000ECE700001C0000201000002010B5EE21A6
:10074000124800F02BFF00BF4021104800F02FFF9F
:100750000028F9D0FF210D4800F020FF00BF402104
:100760000A4800F024FF0028F9D00020084908704A
:100770000849087008490870084908700849086065
:10078000084908700849087010BD00000038014091
:1007900000000020010000200200002003000020D3
:1007A000040000200C0000200D00002010B5CC211A
:1007B0000A4800F0F3FE00BF4021084800F0F7FEB1
:1007C0000028F9D0DD21054800F0E8FE00BF4021F7
:1007D000024800F0ECFE0028F9D010BD00380140BE
:1007E00070B55A49B1F80418002902DD00F00EFB7B
:1007F00000E070BD56490978E1B95649097829B930
:100800005A2802D10121534A11709CE051490978BC
:100810000129FAD1012803D102214E4A117092E038
:10082000A52803D104214B4A11708CE00321494AC9
:10083000117088E04649097802296AD14649097849
:1008400031B101291AD002292BD003295FD13DE013
:10085000312807D10121404A117000213F4A11700F
:100860003F4A11605A2808D13A49097829B901212B
:10087000384A11700321364A117049E03949374A24
:100880001278885435490978491C344A1170114648
:100890000978042904DB0021117002212E4A11700D
:1008A00036E03049091D2E4A126888542C490968DF
:1008B000491C2B4A116011460968B1F5006F04D339
:1008C000002111600321244A117021E00025002439
:1008D00005E02449095D2944CDB2611C8CB2042C89
:1008E000F7DB002406E01F49091D095D2944CDB24C
:1008F000611C8CB2B4F5006FF5DB854203D1042195
:10090000154A117002E00521134A117000E000BF82
:1009100019E00F490978032915D10E49097829B939
:100920005A2810D101210B4A11700CE009490978AD
:10093000012908D1022803D10221064A117002E0E0
:100940000321044A117000BF53E700004A08002049
:100950000200002001000020000000200300002011
:1009600004000020450000200349496860F3071196
:10097000014A516070470000001002400349496875
:1009800060F30A21014A51607047000000100240E4
:100990000349496860F3CD21014A51607047000066
:1009A00000100240012807D10749496D21F03001AC
:1009B0003031054A516505E00349496D21F03001A8
:1009C000014A51657047000000100240052827D2F7
:1009D000DFE800F0030A11181F00134A126861F3E0
:1009E0000002114B1A601CE00F4A126861F31042BA
:1009F0000D4B1A6015E00C4A126861F318620A4B3D
:100A00001A600EE0084A126A61F30002064B1A628D
:100A100007E0054A526A61F30002034B5A6200E0A4
:100A200000BF00BF70470000001002402DE9F04FEA
:100A300085B004460025AA46AB460026A9460020FC
:100A4000049003900290019000F0D8F90090009873
:100A500020B1012812D0022875D112E05648406D0D
:100A6000C0F3402038B15448006BC0F3406010B16F
:100A70005248206001E05248206067E05048206002
:100A800064E04D484068C0F3004B4B48C06AC00F5B
:100A900030BB49484068C0F3834547484068C0F3CD
:100AA000417ABAF1000F01D10F2D04D14FEA0A109B
:100AB000401C054400E0AD1CBBF1000F03D14148D0
:100AC000684320603DE03C484068C0F3404018B1B6
:100AD0003C486843206034E039486843206030E097
:100AE0003548C06AC0F3031003903348C06AC0F3AE
:100AF000082002903048C06A00F007000190BBF166
:100B0000000F02D12F48049009E02B484068C0F341
:100B1000404010B12B48049001E029480490012185
:100B2000019801FA00F0039900FB01FC0299049876
:100B3000A0FB01700146624600233846FFF734FBF4
:100B4000206003E0FFE71E48206000BF00BF1A4896
:100B50004068C0F303161C4810F80690206820FA7D
:100B600009F0606014484068C0F30226174810F886
:100B70000690606820FA09F0E0600F484068C0F312
:100B8000C226134810F80690606820FA09F0A060A9
:100B900009484068C0F3007607484068C0F38130D8
:100BA00040EA86060B4810F80690A068B0FBF9F002
:100BB000206105B0BDE8F08F00100240006CDC023F
:100BC00000127A0000093D0076160008861600081B
:100BD0008E1600089616000810B501460020094B35
:100BE00003EB1142126801F01F040123A3401A40D5
:100BF00001F01F040123A3409A4200D000E001202D
:100C000010BD00000010024030B50024002500E0B7
:100C1000641C1120FFF7E0FF012802D0B4F5405F0B
:100C2000F6D31120FFF7D8FF012801D0002500E0FE
:100C30000125284630BD000010B501290DD10E4B0D
:100C400003EB1042126800F01F040123A3401A4373
:100C5000094C04EB10431A600CE0074B03EB104205
:100C6000126800F01F040123A3409A43024C04EBD6
:100C700010431A6010BD00000010024030B502465B
:100C8000002000233AB9324C646824F48034304D9B
:100C90006C60304819E02E4C646824F4803404F50C
:100CA00080342B4D6C60012A06D12B482C46646899
:100CB00024F400346C6008E02648254C646824F471
:100CC000003404F50034224D6C60244CA04204D959
:100CD000234CA04201D2002326E0224CA04204D99A
:100CE000214CA04201D201231EE0204CA04204D995
:100CF0001F4CA04201D2022316E01D4CA04204D991
:100D00001C4CA04201D203230EE01B4CA04204D98C
:100D10001A4CA04201D2042306E0184CA04203D989
:100D2000174CA04200D20523094C646861F3954436
:100D3000074D6C600D09064C646865F35E74044DE4
:100D40006C602C46E46A63F31A64EC6230BD000008
:100D50000010024000093D0000127A0060823B0052
:100D6000404B4C0080584F00105E5F009435770078
:100D7000101B7F0020BCBE00286BEE0030D73D0169
:100D8000D8E9DC011648006820F00100401C144935
:100D9000086000BF12480068C0F340000028F9D086
:100DA0000F48406820F003000D49486000BF0C4820
:100DB0004068C0F381000028F9D10948006809495A
:100DC0000840074908600020486041F61070C8627A
:100DD0004FF4801008634FF41F00886070470000D4
:100DE00000100240FFFFF2FE0349496860F3010171
:100DF000014A5160704700000010024002484068FC
:100E0000C0F38100704700000010024010B50022BE
:100E10001349144800F00AFC1348B0F80408401EB7
:100E20001149A1F8040801220D490E4800F0FEFB0B
:100E30000D48B0F80218B0F80208401C0A4AA2F89F
:100E40000208104610F81140B0F80208B0F5806FA3
:100E500003DB00201146A1F80208204610BD000067
:100E600005000C00003801404A08002010B504209D
:100E700000F0CCFA074800680749B0FBF1F00749D9
:100E80000860084600684FF47A71484304490860D6
:100E900010BD00004000002040420F003000002044
:100EA000340000202DE9F04105460E4600F096F88A
:100EB000284600F073F80F480068FF2803D805F5AE
:100EC000806000F06BF800240CE0315D601C305C49
:100ED00001EB002087B23946284600F00DF8AD1C22
:100EE000A01C84B2B4F5006FEFDB00F021F8BDE880
:100EF000F0810000E0F7FF1F70B504460D460326A1
:100F00000A48006920F00100401C0849086125805A
:100F10004FF4801000F030F806460448006920F0D5
:100F2000010002490861304670BD00000020024007
:100F30000348006920F08000803001490861704753
:100F40000020024003200B49C96801F0010109B1EA
:100F500000200EE00749C968C1F3800109B10120F2
:100F600007E00449C968C1F3001109B1022000E09B
:100F7000032070470020024000B502460323FFF71C
:100F8000E1FF034603E0FFF7DDFF0346521E0BB906
:100F9000002AF8D102B90423184600BD30B5044632
:100FA00003250D48006920F00200801C0A490861F1
:100FB00008464461006920F0400040300861480460
:100FC000FFF7DAFF05460448006920F002000249F5
:100FD0000861284630BD0000002002400248034955
:100FE000486003484860704723016745002002407D
:100FF000AB89EFCD044800680449884201D1012043
:1010000070470020FCE7000000380008384B5441CE
:101010004FF6FF710160002181710171042141715E
:101020000121C1717047F0B50A461588ABB29579B8
:10103000032D01D100241AE0957965B9557905F0A1
:101040000F045579182D01D1036110E05579282D31
:101050000DD143610BE0957905F00805167906F08E
:1010600004063543D67906F0030645EA0604DDB2E8
:10107000A5B1002110E001258D401D405DB105683E
:101080008F000F26BE40B543056005688E0004FA48
:1010900006F635430560491C0829ECD3FF2B15DD06
:1010A0001B12002110E001258D401D405DB14568F7
:1010B0008F000F26BE40B543456045688E0004FA98
:1010C00006F635434560491C0829ECD3F0BD10B540
:1010D000FFF786FBFFF7FAF910BD000000F0B2F849
:1010E000FFF7A0FA032000F099F8FFF791FA022821
:1010F00003D10B48FFF7B8F902E00A48FFF7B4F94B
:101100004FF4E13000F0EEF9FFF774FF08B1FFF79C
:101110004DFB00F0ADF901E0FFF7D9FFFCE700005F
:1011200000C001080040000810B50146084600282C
:101130000BDB00F01F0301229A40054B440943F8E2
:101140002420BFF34F8FBFF36F8F00BF10BD00008F
:1011500080E100E02DE9F0470B4614464FF0000C0B
:1011600000BF2C4A1268C2F302211D4626460A46D9
:10117000C2F10709B9F1040F02D94FF0040901E0E7
:10118000C2F10709C84602F10409B9F1070F02D2FA
:101190004FF0000901E0A2F103094F464FF00109A9
:1011A00009FA08F9A9F1010909EA050909FA07F993
:1011B0004FF0010A0AFA07FAAAF1010A0AEA060A36
:1011C00049EA0A09CC4601466246002904DB1507B4
:1011D0002E0E114D6E5407E015072F0E0D4D0C35D8
:1011E00001F00F06361FAF5500BF014600290DDB89
:1011F00000BF00BF01F01F050122AA404D09AD004C
:1012000005F1E025C5F8002100BF00BF00BFBDE823
:10121000F08700000CED00E000E400E000BF00F00B
:101220000702064B19684FF6FF031940044B0B43A6
:1012300043EA0221014B196000BF70470CED00E04A
:101240000000FA0510B54FF4AA701A490860FFF7BC
:1012500099FD01210846FFF7B9FB00BFFFF7D4FC59
:101260000028FBD023210220FFF708FD01210220E6
:10127000FFF7ACFB00BF1920FFF7AEFC0128FAD145
:101280000020FFF771FB0420FFF782FB0420FFF72B
:1012900075FB0120FFF786FB0220FFF7A5FD00BFCD
:1012A000FFF7ACFD0228FBD10020FFF77BFB00F02D
:1012B00003F810BD002002402DE9FF5F0024002547
:1012C0000026A146A246A34600200390029001906A
:1012D000FFF794FD0090009820B1012814D0022857
:1012E00074D115E04348406DC0F3402040B14148FF
:1012F000006BC0F3406018B13F484049086002E00D
:101300003F483E49086065E03D483C49086061E06F
:1013100038484068C0F300463648C06AC00F20BB5A
:1013200034484068C0F3834432484068C0F3417594
:101330000DB90F2C03D12801401C044400E0A41C6B
:1013400026B9304860432D4908603DE0294840688F
:10135000C0F3404020B12B4860432849086033E087
:1013600027486043254908602EE02248C06AC0F340
:10137000031003901F48C06AC0F3082002901D4864
:10138000C06A00F00700019016B9DFF878B009E0F4
:1013900018484068C0F3404010B1DFF868B001E081
:1013A000DFF85CB00121019801FA00F0039900FB1D
:1013B00001FC0298ABFB00700146624600233846F0
:1013C000FEF7F2FE0D49086004E0FFE70C480B4908
:1013D000086000BF00BF07484068C0F303190A480F
:1013E00010F809A00548006820FA0AF003490860CF
:1013F000BDE8FF9F00100240006CDC0240000020AE
:1014000000127A0000093D009E160008042808D149
:101410004FF0E021096941F004014FF0E022116131
:1014200007E04FF0E021096921F004014FF0E022CC
:1014300011617047C1628262436923F001035B1C42
:1014400043617047026861F30612026070470268E8
:1014500061F3000202607047CA43026170470246AE
:10146000002013690B400BB1012000E00020704701
:1014700010B586B0142101A8FEF7CEFE0121114857
:10148000FFF7DAFB002201211D20FFF763FE01A810
:10149000FFF7CCFA42F210710298B0FBF1F4224649
:1014A0000948FFF7C7FF00210748FFF7CBFF0122DC
:1014B0001146054800F00AF801210348FFF7C7FF6D
:1014C00006B010BD01001C0000040040012A03D139
:1014D000C3680B43C36003E012B9C3688B43C360A6
:1014E000704700001CB5044601212648FFF7A4FB05
:1014F000012124480C38FFF79FFB6846FFF788FD61
:1015000001208DF8070000208DF8040008208DF8D8
:1015100006008001009004208DF8050069461A48F5
:10152000FFF781FD01208DF8070000208DF80400F1
:101530008DF806004FF48060009018208DF80500AB
:1015400069461148FFF76FFD002211462520FFF77D
:1015500001FE00231A4621460C4800F031F8012113
:101560000A4800F083F80121084800F07AF80122C7
:101570000749064800F05AF80121044800F012F823
:101580001CBD00000E00180000080140003801409A
:1015900005000C000146486880B27047C1F308029C
:1015A00042607047C26861F34D32C26070470246C4
:1015B0001068084008B1012070470020FCE70000D7
:1015C0002DE9F04385B004460F469046994668469B
:1015D000FFF72CFA1448844201D1029E00E0039EDA
:1015E00006EB86004000B0FBF7F50A20B5FBF0F1F2
:1015F00000FB1150052803D20A20B5FBF0F503E0EB
:101600000A20B5FBF0F0451CA06865F30F00A06050
:10161000E06868F30C30E060206969F30D30206108
:1016200005B0BDE8F08300000038014030B5012A64
:101630000BD100EB11431B6801F01F050124AC40E6
:10164000234300EB114423600AE000EB11431B68C5
:1016500001F01F050124AC40A34300EB11442360BB
:1016600030BDC26861F38202C2607047C26861F334
:10167000C302C260704700000000000000000102C9
:10168000030406070809000000000102030400002B
:1016900000000102030402040608020C0810000006
:1016A0000000000000000102030406070809000012
:1016B000D016000800000020440000004804000884
:1016C00014170008440000200C14000058040008FF
:1016D000000000000000000000000000000000000A
:1016E00000100140001001400010014000200800DF
:1016F0002000000004001800040018000400180076
:1017000000000000000000000000000001000000D8
:0417100000127A0049
:04000005080001717D
:020000040800F2
:10400000187B0020E54200087F490008734900083A
:104010007B490008FD450008D54C00080000000061
:104020000000000000000000000000004D420008F9
:104030007149000800000000914200088149000811
:10404000FF420008FF420008FF420008FF4200084C
:10405000FF420008FF420008FF420008FF4200083C
:10406000FF420008FF420008FF420008FF4200082C
:10407000FF420008FF420008FF420008FF4200081C
:10408000FF420008FF420008FF420008FF4200080C
:1040900001460008FF42000881470008FF4200086F
:1040A000FF420008FF420008FF420008FF420008EC
:1040B000FF420008FF420008FF420008794900085B
:1040C00077490008FF420008FF420008FF4200084D
:1040D000FF420008514A0008A14B0008FF420008B7
:1040E000FF420008FF420008FF42000800000000F5
:1040F00000000000000000000000000000000000C0
:1041000000000000FF420008FF420008000000001D
:10411000FF420008FF42000800000000000000000D
:10412000FF420008FF420008FF420008FF4200086B
:10413000000000000000000000000000000000007F
:10414000000000000000000000000000FF42000826
:104150000000000000000000FF420008FF420008CD
:10416000000000000000000000000000FF42000806
:1041700000F002F800F05AF80AA090E8000C82441F
:104180008344AAF10107DA4501D100F04FF8AFF2FC
:10419000090EBAE80F0013F0010F18BFFB1A43F025
:1041A0000103184784840000A48400000A444FF0EF
:1041B000000C10F8013B13F0070408BF10F8014B86
:1041C0001D1108BF10F8015B641E05D010F8016BCB
:1041D000641E01F8016BF9D113F0080F1EBF10F82F
:1041E000014BAD1C0C1B09D16D1E58BF01F801CB52
:1041F000FAD505E014F8016B01F8016B6D1EF9D5D5
:104200009142D6D3704700000023002400250026E9
:10421000103A28BF78C1FBD8520728BF30C148BF29
:104220000B6070471FB51FBD10B510BD00F0B3F98E
:104230001146FFF7F7FF02F025FA00F0D1F903B4B9
:10424000FFF7F2FF03BC00F047FD0000224B1968A6
:104250000868B0E8F00F80F30988BFF36F8F4FF064
:10426000000080F311884EF00D0E70470000000032
:1042700006480068006880F3088862B661B6BFF33C
:104280004F8FBFF36F8F00DF00BF00BF08ED00E06E
:10429000EFF30980BFF36F8F0F4B1A6820E9F00F1F
:1042A000106008B54FF0100080F31188BFF34F8FF6
:1042B000BFF36F8F06F048FD4FF0000080F31188C8
:1042C000BDE8084019680868B0E8F00F80F3098875
:1042D000BFF36F8F704700BF4C060020EFF30580DF
:1042E000704700000948804709480047FEE7FEE79D
:1042F000FEE7FEE7FEE7FEE7FEE7FEE7FEE7FEE796
:1043000004480549054A064B70470000B5490008B6
:104310007141000818750020187B002018770020D4
:1043200018770020704753EA020C00F069802DE9ED
:10433000F04B4FF00006002B1FBFB3FA83F503FAD2
:1043400005F424FA05F65E4012BF1643B2FA82F570
:1043500002FA05F4C5F120051EBF22FA05FC44EA65
:104360000C04203556EA044C4FEA144418BF641C70
:104370004FF000084FF00009904271EB030C39D365
:10438000002919BFB1FA81F701FA07F6B0FA80F7F0
:1043900000FA07F6C7F120071EBF20FA07FC46EA1D
:1043A0000C062037B6FBF4FCA7EB0507103F07F01F
:1043B0001F0BCBF120060CFA0BFB2CFA06F644BFC0
:1043C000B3460026202FA4BF5E464FF0000B5BEAE9
:1043D000060C08BF4FF0010B19EB0B09ABFB027C7D
:1043E00048EB0608C01B06FB02CC0BFB03CC71EBB1
:1043F0000C01C1E70B46024641464846BDE8F08B3A
:1044000013B54FF000004FF00001AFF30080BDE89E
:104410001C40704710B5431C02E010F8011B71B13D
:104420008107FAD14FF0013202C88C1A8C4314EA8A
:10443000C211F9D0C01A0A0603D0C01E10BDC01A9E
:1044400010BD0A0401D0801E10BD0902FCD0401E20
:1044500010BD032A40F2308010F0030C00F01580EC
:1044600011F8013BBCF1020F624498BF11F801CB77
:1044700000F8013B38BF11F8013BA2F1040298BFDC
:1044800000F801CB38BF00F8013B11F0030300F046
:104490002580083AC0F0088051F8043B083A51F8EA
:1044A00004CBA0E80810F5E7121D5CBF51F8043BEF
:1044B00040F8043BAFF30080D20724BF11F8013B62
:1044C00011F801CB48BF11F8012B24BF00F8013BC4
:1044D00000F801CB48BF00F8012B704710B5203A17
:1044E000C0F00B80B1E81850203AA0E81850B1E8AD
:1044F0001850A0E81850BFF4F5AF5FEA027C24BF63
:10450000B1E81850A0E8185044BF18C918C0BDE859
:1045100010405FEA827C24BF51F8043B40F8043B22
:1045200008BF7047D20728BF31F8023B48BF11F8D7
:10453000012B28BF20F8023B48BF00F8012B704731
:104540004FF0000200B5134694469646203922BF2C
:10455000A0E80C50A0E80C50B1F12001BFF4F7AF77
:10456000090728BFA0E80C5048BF0CC05DF804EB59
:10457000890028BF40F8042B08BF704748BF20F8C7
:10458000022B11F0804F18BF00F8012B70477047C5
:10459000704770477047754600F02CF8AE4605002E
:1045A0006946534620F00700854618B020B5FFF74E
:1045B000A7FEBDE820404FF000064FF000074FF087
:1045C00000084FF0000B21F00701AC46ACE8C00931
:1045D000ACE8C009ACE8C009ACE8C0098D4670473A
:1045E00010B50446AFF300802046BDE81040FFF749
:1045F00026BE000000487047B874002000BFFEE7E8
:1046000000B585B00921504800F0A0FD002870D009
:104610006A4600214C4800F054FE0098FF2868D9F3
:104620000098B0F5006F64D20098B0F5417F4DD08E
:1046300012DC40F20132A0EB0201904250D006DCC5
:10464000A0F28220002868D0012871D15CE0012905
:1046500050D002296CD130E0A0F2F17030B10128C5
:104660000DD0022815D0032862D11CE0142269461F
:104670003648FFF733FF01203549087061E0142206
:10468000694632481430FFF729FF0120314908708C
:1046900057E0142269462D482830FFF71FFF0120FC
:1046A0002D4908704DE01422694628483C30FFF738
:1046B00015FF01202949087043E014226946284863
:1046C000FFF70CFF0120274908703AE014226946E1
:1046D00023481430FFF702FF01202249487030E0E0
:1046E000142269462048FFF7F9FE01201F4908708F
:1046F00027E027E0142269461B481430FFF7EEFE3E
:1047000001201A4948701CE0142269461848FFF736
:10471000E5FE01201749487013E014226946144849
:104720001438FFF7DBFE01201249087009E0FFE7AB
:10473000142269461048FFF7D1FE01200F49087086
:1047400000BF00BF05B000BD006400403C13002066
:10475000490000204A0000204B0000204C000020AF
:10476000B41300204F0000208C1300204D000020C7
:10477000F0130020510000202813002048000020E2
:1047800008B5002000900421074800F0DFFC50B17C
:1047900005481830006800F07000009004210248BD
:1047A00000F096FC00BF08BD006400402DE9FE4FFC
:1047B0008246CAF1FF0ABAF1550F43DA6A48007817
:1047C00007F058FB06460022684B07F0B7F904468D
:1047D0000D460AEB4A01C1F1FF0007F034FB8046A9
:1047E00022462B4607F05AFBCDE9000107F0FEFAFE
:1047F000C0B28DF8090000208DF808005A480078F2
:1048000007F038FB80460022584B07F097F9044622
:104810000D460AEB4A0007F016FB064622462B46D9
:1048200007F03CFBCDE9000107F0E0FAC0B28DF8DB
:104830000A00BDF8081008469DF80A1040EA014039
:10484000BDE8FE8FBAF1AA0F46DAAAF1550000F0D2
:10485000FF0A00208DF809004348007807F00AFBA2
:104860000022424BCDE9000107F068F904460D46ED
:104870000AEB4A0007F0E7FA064622462B4607F005
:104880000DFB804607F0B2FAC0B28DF8080036483A
:10489000007807F0EFFA80460022344B07F04EF91B
:1048A00004460D460AEB4A01C1F1FF0007F0CBFABE
:1048B000064622462B4607F0F1FACDE9000107F043
:1048C00095FAC0B28DF80A00BDF8081008469DF8A8
:1048D0000A1040EA0140B3E7AAF1AA0000F0FF0A7B
:1048E0002148007807F0C6FA064600221F4B07F061
:1048F00025F904460D460AEB4A0007F0A4FA804663
:1049000022462B4607F0CAFACDE9000107F06EFAFD
:10491000C0B28DF809001448007807F0ABFA0646DB
:104920000022124B07F00AF904460D460AEB4A0131
:10493000C1F1FF0007F087FA804622462B4607F0B8
:10494000ADFACDE9000107F051FAC0B28DF80800C8
:1049500000208DF80A00BDF8081008469DF80A10DE
:1049600040EA01406CE70000C00000200000594010
:10497000704700BFFEE77047704700BFFEE7704713
:1049800010B500BF102080F31188BFF34F8FBFF325
:104990006F8F00BF06F0B8FE18B14FF08050044989
:1049A000086000BF002080F3118800BF10BD000028
:1049B00004ED00E02248C06920F0805000F18050F2
:1049C0001F49C8611F48007840F004001D49503954
:1049D00081F850001A48C06920F080501849C86119
:1049E0000846006820F00100401C086000BF144821
:1049F0000068C0F340000028F9D01148406820F05A
:104A000003000F49486000BF0D484068C0F38100B3
:104A10000028F9D10A4800680B4908400849086095
:104A20000020486041F61070C8624FF4801008639F
:104A30004FF41F008860C8030449086070470000F5
:104A40000010024050700040FFFFF2FE08ED00E051
:104A500010B520214D4805F00DFE002812D0202170
:104A60004A4805F0FEFD4A48007800287BD14948B5
:104A7000007840B9454805F0E7FD552873D101207D
:104A8000444908706FE043480078012815D13F4839
:104A900005F0DAFDAA2803D102203E49087062E041
:104AA0003A4805F0D1FD552803D101203949087055
:104AB00059E000203749087055E036480078022850
:104AC0001DD15520344981F88000AA21324880F850
:104AD00081102E4805F0B8FDC1B22F4880F8821031
:104AE00090F88200852806DC03202B4981F881019B
:104AF0002849087037E000202649087033E025482F
:104B0000007803282FD1214805F09EFDC1B222482C
:104B100090F8812190F88101401C1F4B83F881019E
:104B200003F180008154803890F8811190F8820060
:104B3000401D814217D1184690F8812100F1800173
:104B40001648FFF7CBFC01201149087001021248FA
:104B50008030FFF7F5FC00200F4981F8810181F8D2
:104B600083010C4908704021084805F083FD18B105
:104B70004021064805F075FD8021044805F07AFDC6
:104B800018B18021014805F06CFD10BD00380140CE
:104B90003200002040000020D8060020E00900205C
:104BA00010B52021464805F065FD002812D02021CF
:104BB000434805F056FD4348007800287BD1424821
:104BC000007840B93E4805F03FFD552873D10120DB
:104BD0003D4908706FE03C480078012815D13848FD
:104BE00005F032FDAA2803D102203749087062E09F
:104BF000334805F029FD552803D1012032490870BA
:104C000059E000203049087055E02F48007802280C
:104C10001DD155202D4981F88000AA212B4880F80C
:104C20008110274805F010FDC1B2284880F8821095
:104C300090F88200852806DC0320244981F8810150
:104C40002149087037E000201F49087033E01E48F2
:104C5000007803282FD11A4805F0F6FCC1B21B4892
:104C600090F8812190F88101401C184B83F8810154
:104C700003F180008154803890F8811190F882000F
:104C8000401D814217D1184690F8812100F1800122
:104C90000F48FFF723FC01200A49087001020B4866
:104CA0008030FFF74DFC0020084981F8810181F830
:104CB0008301054908708021014805F0DBFC10BD27
:104CC0000044004033000020410000205C08002028
:104CD000000A002000BFFEE700BF704710B5044681
:104CE000012C04D18021054801F063FA04E01CB9CD
:104CF0008021024801F05BFA10BD0000000801406D
:104D000000200FE000220B490A540021094A121F1B
:104D100011540A220749091D0A540022091D0A5488
:104D2000411CC8B20428EDDB0021024A121F117495
:104D3000704700000814002030B502460020002310
:104D4000146824F002041460146824F00104641C44
:104D5000146000E05B1C546804F001041CB94FF6B9
:104D6000FF74A342F6D1546804F00104002C3FD034
:104D70004D78146865F3C71414608D78146865F372
:104D800086141460CD78146865F3451414600D79A9
:104D9000146865F3041414604D79146865F3C30452
:104DA00014608D79146865F3820414600C78D569F9
:104DB00064F39E75D5610C786508D46965F3DF747A
:104DC000D461146824F001041460002300E05B1C2B
:104DD000546804F001041CB14FF6FF74A342F6D1ED
:104DE000546804F001040CB1002002E0012000E04E
:104DF000002030BD30B5024600200023146824F0A6
:104E000002041460146824F00104641C146000E0BF
:104E10005B1C546804F001041CB94FF6FF74A342F4
:104E2000F6D1546804F001045CB30C88641ED569A3
:104E300064F30B05D5618D78D46965F31964D46189
:104E4000CD78D46965F31344D4610D79D46965F3E1
:104E50001654D461146824F001041460002300E0A7
:104E60005B1C546804F001041CB14FF6FF74A342AC
:104E7000F6D1546804F001040CB1002002E00120D6
:104E800000E0002030BD000000B589B001213048AD
:104E900000F06CFF07A800F05FF800208DF81C0000
:104EA0008DF81D0001208DF81E008DF81F000020D8
:104EB0008DF820008DF8210001208DF8220007A92F
:104EC0002448FFF739FF0D20ADF8140000208DF8BD
:104ED000160005208DF8170000208DF8180005A990
:104EE0001C48FFF787FF01208DF8040000208DF893
:104EF00005008DF806008DF8070001208DF80800E8
:104F00000020ADF80A00ADF80C00ADF80E00ADF8C9
:104F1000100001A90F4800F028F8002211461620C1
:104F200001F0C0FC00221146142001F0BBFC01225C
:104F30000221084800F0BCF90122D102054800F026
:104F4000B7F90122D103034800F0B2F909B000BD5E
:104F500019001C0000640040002141708170C17084
:104F60000171417181710170704730B50022CC78B8
:104F7000012303FA04F2D0F8003223F001035B1C92
:104F8000C0F80032D0F81C329343C0F81C320B79C1
:104F900013B1012B5AD12CE0D0F80C329343C0F856
:104FA0000C328B891C04CD7800F5107343F8354022
:104FB000CC7853F834300C892343CD7800F5107445
:104FC00044F835304B891C04CD7800F5107303EBA1
:104FD000C5035C60CC7800F5107303EBC4035B6819
:104FE000CC882343CD7800F5107404EBC5046360CE
:104FF0002DE0D0F80C321343C0F80C32CB881C04DF
:10500000CD7800F5107343F83540CC7853F8343040
:105010000C892343CD7800F5107444F835304B8962
:105020001C04CD7800F5107303EBC5035C60CC78ED
:1050300000F5107303EBC4035B688C892343CD78C0
:1050400000F5107404EBC504636000E000BF00BF0E
:105050004B7813B1012B0CD105E0D0F80432934307
:10506000C0F8043206E0D0F804321343C0F804322A
:1050700000E000BF00BF8B7813B1012B0CD105E01D
:10508000D0F814329343C0F8143206E0D0F814324A
:105090001343C0F8143200E000BF00BF0B783BB1EF
:1050A000012B0BD1D0F81C321343C0F81C3206E0A0
:1050B000D0F81C329343C0F81C3200E000BF00BFA0
:1050C000D0F8003223F00103C0F8003230BD0000F8
:1050D000122935D2DFE801F034090A0B0F0C14173E
:1050E0001B341F223425282B2E3100BF00BF00BFE8
:1050F0000422426025E0042242600022826120E016
:10510000012282601DE04FF48072826019E04FF44A
:105110008032826015E00822C26012E01022C26074
:105120000FE0082202610CE01022026109E008226F
:10513000426006E01022426003E0034A826000E021
:1051400000BF00BF704700000101010002460020BF
:1051500012296FD2DFE801F06E090D11151D21250E
:10516000292D35393D45494D515D936903F00100C5
:1051700062E09369C3F340005EE09369C3F380008B
:105180005AE09369C3F302130BB1012000E0002041
:1051900052E05368C3F380004EE0936803F00100CF
:1051A0004AE09368C3F3002046E09368C3F30040ED
:1051B00042E0D36803F003030BB1012000E00020BC
:1051C0003AE0D368C3F3C00036E0D368C3F30010FD
:1051D00032E0136903F003030BB1012000E000206B
:1051E0002AE01369C3F3C00026E01369C3F300107B
:1051F00022E05368C3F3C0001EE05368C3F34003CA
:105200001BB95368C3F300130BB1012000E0002069
:1052100012E09368C3F380633BB99368C3F3C06340
:105220001BB99368C3F300730BB1012000E00020A9
:1052300002E0FFE7002000BF00BF70471CB501215E
:10524000184800F093FD01214FF4C01000F08EFDCE
:105250000121154801F00EF8684600F0ACFF01206E
:105260008DF8070000208DF8040008208DF8060056
:105270008001009004208DF8050069460B4800F07D
:10528000A5FF01208DF8070000208DF806004FF4DF
:105290008070009018208DF805006946034800F0E2
:1052A00095FF1CBD030018000204002C000C0140F7
:1052B0001AB143690B43436102E043698B43436185
:1052C000704730B505460C46134605F5D87000EB1F
:1052D00004100068C0F380001872187A10B1012819
:1052E00013D107E005F5D87000EB04100068400DFD
:1052F00018600BE005F5D87000EB041000686FF043
:10530000604101EAD000586000E000BF00BF05F531
:10531000D87000EB04100068C0F34000587205F527
:10532000D87000EB0410406800F00F00987205F58B
:10533000D87000EB04104068000AD87405F5D870E6
:1053400000EB04108068D87205F5D87000EB0410EB
:105350008068010A197305F5D87000EB04108068A5
:10536000010C597305F5D87000EB04108068010E2C
:10537000997305F5D87000EB0410C068D87305F573
:10538000D87000EB0410C068010A197405F5D870D4
:1053900000EB0410C068010C597405F5D87000EBDF
:1053A0000410C068010E99742146284600F09DF84B
:1053B00030BD10B5024604209368C3F380630BB17F
:1053C00000200CE09368C3F3C0630BB1012006E03A
:1053D0009368C3F300730BB1022000E0042004289B
:1053E0007CD002F5C07303EB00131B6803F00104CB
:1053F00002F5C07303EB00131C600C7A02F5C07356
:1054000003EB00131B6864F3820302F5C07404EB22
:10541000001423600B7A13B1012B1CD10DE00C8812
:1054200002F5C07303EB00131B6864F35F5302F5CE
:10543000C07404EB001423600EE002F5C07303EBAC
:1054400000131B684C6843EAC40402F5C07303EB05
:1054500000131C6000E000BF00BF4C7A02F5C0736F
:1054600003EB00131B6864F3410302F5C07404EB03
:10547000001423608B7A02F5C07404EB0014646896
:1054800063F3030402F5C07303EB00135C608B7BD2
:105490001C064B7B44EA03440B7B44EA0323CC7A8F
:1054A000234302F5C07404EB0014A3608B7C1C063C
:1054B0004B7C44EA03440B7C44EA0323CC7B234328
:1054C00002F5C07404EB0014E36002F5C07303EB53
:1054D00000131B6823F001035B1C00E004E002F5ED
:1054E000C07404EB0014236010BD11B1012906D172
:1054F00002E02022C26003E02022026100E000BF3F
:1055000000BF704723E192480078012805D10020B0
:1055100001F0E8FD00208E4908708D484078012890
:1055200004D101F0DFFD00208949487089480078E6
:10553000012805D1002001F0EFFC0020854908700A
:1055400084484078012804D101F0E6FC002081491C
:10555000487081480078012804D101F0F3FC002054
:105560007D4908707D480078012870D17C4800682A
:10557000B0F5D66F68D02DDCB0F5D26F62D015DCF7
:10558000B0F5D06F5DD009DCA0F28120B8B310284F
:1055900052D0202851D0302873D14FE0A0F2816042
:1055A00070B301286FD0022879D172E0B0F5D46FC2
:1055B00049D007DCA0F29160A0B3012864D0022892
:1055C0006DD167E0A0F2A16068B301285DD0022828
:1055D00065D160E040F29272811A90424CD017DCA3
:1055E00040F28172A0EB0201904238D009DCA0F2B7
:1055F000B16068B3012849D0022850D14CE01AE0CC
:1056000027E0012937D002292FD0102947D127E0E0
:1056100011292CD008DC012928D00F2921D01029EC
:105620003DD12AE016E016E01F291BD0202925D005
:10563000212934D11CE000BF00BF00BF01F0E8FD0C
:105640002EE000BF00BF00BF01F0CAFD28E02BE044
:1056500002E000BF00BF00BF02F006FA20E000BF7A
:1056600000BF00BF02F000F81AE000BF00BF00BF9B
:1056700001F088FF14E000BF00BF00BF01F03EFE54
:105680000EE00CE0FFE700BF00BF00BF02F07CF8B7
:1056900006E000BF00BF00BF02F016F800E000BF48
:1056A00000BF00202D4908702E48007C282840DBD0
:1056B00000202C490874002438E02A48015D001DB0
:1056C000005D814207D02748015D001D0155002182
:1056D000001D015507E023480830005D401CC1B2A1
:1056E0002048083001551F480830005D0A2817DBA4
:1056F000FF2004EB44011C4A22F8210004EB440182
:1057000002EB8101488004EB440102EB81018880B7
:10571000002114480C3001550A21001F015503E0F7
:10572000012110480C300155601CC4B2042CC4DBAC
:1057300000240C48007C401C0A4908740B4800688F
:1057400040F0100009490860052005F02BFADAE660
:105750004F0000204D000020510000204800002094
:1057600028130020041400206419002020060020C3
:1057700070B504460BE01C480088401C1A4908809C
:10578000084600884FF6FF71884200D105E029469F
:10579000164800F02DF80428EDD000BF0020124973
:1057A0000880072104F10B0000F0F2FCA0742146F0
:1057B0000E48FFF7FEFD05460BE00B480088401C35
:1057C00009490880084600884FF6FF71884200D1D9
:1057D00005E02946054800F00BF80128EDD100BF8F
:1057E00000200149088070BD540000200064004082
:1057F0000246002021B1012910D002292AD11BE044
:10580000936803F001033BB19368C3F340030BB10A
:10581000012002E0002000E002201DE09368C3F3B5
:1058200000233BB19368C3F340230BB1012002E096
:10583000002000E002200FE09368C3F300433BB177
:105840009368C3F340430BB1012002E0002000E065
:10585000022001E0002000BF00BF70470AE003F013
:1058600009FC322005F09EF90348006840F008006A
:1058700001490860F3E700002006002010B500F0A1
:105880000DF84FF40061044800F091FC4FF4805192
:10589000014800F08CFC10BD000801401CB501213E
:1058A000114800F063FA01210F4800F05FFA6846E2
:1058B00000F081FC01208DF8070000208DF8040025
:1058C00010208DF80600C001009004208DF805001E
:1058D0006946064800F07AFC4FF480500090694613
:1058E000024800F073FC1CBD0200180000080140D3
:1058F00010B50446012C04D18021044800F059FC65
:1059000003E08021014800F052FC10BD000C014072
:1059100010B51648807C012806D11449C87C03F0D4
:1059200055FB0020114988741048007D012806D1DC
:105930000E49487D03F0F6FA00200C4908750B4823
:10594000807D012806D10949C87D03F05FF8002059
:10595000064988750548007E012806D10349487E1E
:1059600003F000F800200149087610BDE819002076
:1059700010B50E480078012804D103F061FC002026
:105980000A49087009488078012805D1002003F0F1
:1059900071FD0020054988700448C078012804D1B1
:1059A00003F068FD00200149C87010BDE81900200F
:1059B00030B502460B464FF6FF70002111E0555CF2
:1059C0006840002409E000F0010525B140104AF2CA
:1059D0000105684000E04010641C082CF3DB4D1CFE
:1059E000E9B29942EBDB30BD024682EA0100704722
:1059F0000349496860F30711014A5160704700008C
:105A0000001002400349496860F30A21014A5160CD
:105A100070470000001002400349496860F3CD213F
:105A2000014A51607047000000100240052827D24B
:105A3000DFE800F0030A11181F00134A126861F32F
:105A40000002114B1A601CE00F4A126861F3104209
:105A50000D4B1A6015E00C4A126861F318620A4B8C
:105A60001A600EE0084A126A61F30002064B1A62DD
:105A700007E0054A526A61F30002034B5A6200E0F4
:105A800000BF00BF70470000001002402DE9F04F3A
:105A900085B004460025AA46AB460026A94600204C
:105AA000049003900290019000F042FA0090009858
:105AB00020B1012812D0022875D112E05648406D5D
:105AC000C0F3402038B15448006BC0F3406010B1BF
:105AD0005248206001E05248206067E05048206052
:105AE00064E04D484068C0F3004B4B48C06AC00FAB
:105AF00030BB49484068C0F3834547484068C0F31D
:105B0000417ABAF1000F01D10F2D04D14FEA0A10EA
:105B1000401C054400E0AD1CBBF1000F03D141481F
:105B2000684320603DE03C484068C0F3404018B105
:105B30003C486843206034E039486843206030E0E6
:105B40003548C06AC0F3031003903348C06AC0F3FD
:105B5000082002903048C06A00F007000190BBF1B5
:105B6000000F02D12F48049009E02B484068C0F391
:105B7000404010B12B48049001E0294804900121D5
:105B8000019801FA00F0039900FB01FC02990498C6
:105B9000A0FB01700146624600233846FEF7C3FBB6
:105BA000206003E0FFE71E48206000BF00BF1A48E6
:105BB0004068C0F303161C4810F80690206820FACD
:105BC00009F0606014484068C0F30226174810F8D6
:105BD0000690606820FA09F0E0600F484068C0F362
:105BE000C226134810F80690606820FA09F0A060F9
:105BF00009484068C0F3007607484068C0F3813028
:105C000040EA86060B4810F80690A068B0FBF9F051
:105C1000206105B0BDE8F08F00100240006CDC028E
:105C200000127A0000093D00C8C50008D8C5000868
:105C3000E0C50008E8C50008324A811A904218D031
:105C400009DCA0F50021082959D2DFE801F0222B58
:105C5000343D4658584F891E062950D2DFE801F0DE
:105C600003040506070800BF00BF00BF00BF00BF58
:105C700000BF2549496A21F0807101F18071224AF3
:105C8000516200BF2049496AC1F300610029F9D17E
:105C900036E01D49896821F4803101F580311A4AC6
:105CA00091602DE01849896821F4003101F5003137
:105CB000154A916024E01449896821F4802101F596
:105CC0008021114A91601BE00F49896821F400216D
:105CD00001F500210C4A916012E00B49896821F41A
:105CE000801101F58011084A916009E00649896830
:105CF00021F4000101F50001034A916000E000BFBA
:105D000000BF7047180024000010024010B5014683
:105D10000020094B03EB1142126801F01F0401231C
:105D2000A3401A4001F01F040123A3409A4200D06F
:105D300000E0012010BD00000010024030B500243A
:105D4000002500E0641C1120FFF7E0FF012802D0CD
:105D5000B4F5405FF6D31120FFF7D8FF012801D03A
:105D6000002500E00125284630BD000010B50129BE
:105D70000DD10E4B03EB1042126800F01F040123FB
:105D8000A3401A43094C04EB10431A600CE0074B84
:105D900003EB1042126800F01F040123A3409A4352
:105DA000024C04EB10431A6010BD000000100240CA
:105DB00030B50246002000233AB9324C646824F41E
:105DC0008034304D6C60304819E02E4C646824F407
:105DD000803404F580342B4D6C60012A06D12B48A9
:105DE0002C46646824F400346C6008E02648254C96
:105DF000646824F4003404F50034224D6C60244CB3
:105E0000A04204D9234CA04201D2002326E0224C18
:105E1000A04204D9214CA04201D201231EE0204C13
:105E2000A04204D91F4CA04201D2022316E01D4C0F
:105E3000A04204D91C4CA04201D203230EE01B4C0B
:105E4000A04204D91A4CA04201D2042306E0184C07
:105E5000A04203D9174CA04200D20523094C646824
:105E600061F39544074D6C600D09064C646865F359
:105E70005E74044D6C602C46E46A63F31A64EC6251
:105E800030BD00000010024000093D0000127A0001
:105E900060823B00404B4C0080584F00105E5F001A
:105EA00094357700101B7F0020BCBE00286BEE00ED
:105EB00030D73D01D8E9DC011648006820F0010028
:105EC000401C1449086000BF12480068C0F340003D
:105ED0000028F9D00F48406820F003000D494860C1
:105EE00000BF0C484068C0F381000028F9D1094880
:105EF000006809490840074908600020486041F6E9
:105F00001070C8624FF4801008634FF41F0088605F
:105F10007047000000100240FFFFF2FE034949688D
:105F200060F30101014A5160704700000010024017
:105F300002484068C0F38100704700000010024032
:105F40001CB501212C48FFF711FF01212A48FFF75A
:105F50000DFF01212848801EFFF708FF0121264878
:105F6000801EFFF703FF01212348401EFFF7FEFEBE
:105F700001212148401EFFF7F9FE01211E48401E65
:105F8000FFF7F4FE684600F016F901208DF80700CF
:105F900000208DF8040010208DF8060004208DF8F4
:105FA0000500C00200906946144800F00FF9202057
:105FB00000906946114800F009F9402000906946B8
:105FC0000F4800F003F98020009069460C4800F06B
:105FD000FDF88020009069460A4800F0F7F820207C
:105FE00000906946074800F0F1F8402000906946AB
:105FF000044800F0EBF81CBD04001800001001403C
:1060000000080140000C01400149C86070470000D1
:106010000020024070B504460D4603260A48006978
:1060200020F00100401C0849086125804FF48010D1
:1060300000F030F806460448006920F001000249EB
:106040000861304670BD000000200240034800692E
:1060500020F0800080300149086170470020024034
:1060600003200B49C96801F0010109B100200EE0CD
:106070000749C968C1F3800109B1012007E004495B
:10608000C968C1F3001109B1022000E00320704784
:106090000020024000B502460323FFF7E1FF03465C
:1060A00003E0FFF7DDFF0346521E0BB9002AF8D1CB
:1060B00002B90423184600BD10B50B46002104E0C8
:1060C00004785C54401C4C1CA1B29142F8DB10BD1A
:1060D00030B5044603250D48006920F00200801CFD
:1060E0000A49086108464461006920F040004030D8
:1060F00008614804FFF7CEFF05460448006920F018
:10610000020002490861284630BD0000002002401C
:1061100002480349486003484860704723016745C7
:1061200000200240AB89EFCD01B507202BE09DF8A0
:106130000010C0F10702114101F0010109B1FC2179
:1061400000E0C021114A11549DF80110C0F107026E
:10615000114101F0010109B1FC2200E0C0220B4B0A
:1061600000F108015A549DF80210C0F107021141D4
:1061700001F0010109B1FC2200E0C022034B00F153
:1061800010015A54401E0028D1DA08BD0106002033
:1061900010B502460B460024002104E0505C204468
:1061A00084B2481CC1B29942F8DBE0B210BD416133
:1061B0007047016170474FF6FF71016000218171E6
:1061C0000171042141710121C1717047F0B50A4686
:1061D0001588ABB29579032D01D100241AE0957989
:1061E00065B9557905F00F045579182D01D1036172
:1061F00010E05579282D0DD143610BE0957905F01C
:106200000805167906F004063543D67906F003062C
:1062100045EA0604DDB2A5B1002110E001258D405C
:106220001D405DB105688F000F26BE40B543056077
:1062300005688E0004FA06F635430560491C0829F6
:10624000ECD3FF2B15DD1B12002110E001258D4042
:106250001D405DB145688F000F26BE40B5434560C7
:1062600045688E0004FA06F635434560491C082946
:10627000ECD3F0BDF0B50C46104F07EB1062C0F345
:106280000741C0F30725C6B2C5F12007A7EB010CF3
:106290004FF0FF3707FA0CF3C5F120077F1AFB40D8
:1062A000CB408B4017689F4317602CB106FA01FC66
:1062B000176847EA0C071760F0BD000000000140B6
:1062C00070B505460C46022C41DC012D04D0022D90
:1062D00012D0032D39D11FE0022C09D1002000F08B
:1062E00087F8C82004F05EFC012000F081F802E08D
:1062F000204600F07DF829E0022C09D1002000F0B2
:106300008FF8C82004F04EFC012000F089F802E06C
:10631000204600F085F819E0022C0FD1002000F093
:1063200067F8002000F07CF8C82004F03BFC012056
:1063300000F05EF8012000F073F805E0204600F060
:1063400057F8204600F06CF800E000BF00BF70BDB9
:1063500070B506460C461546022C47DC012E04D0CB
:10636000022E14D0032E3FD123E0022C0BD10020AB
:1063700000F03EF8642105FB01F004F013FC01205D
:1063800000F036F802E0204600F032F82DE0022C52
:106390000BD1002000F044F8642105FB01F004F06B
:1063A00001FC012000F03CF802E0204600F038F843
:1063B0001BE0022C11D1002000F01AF8002000F0A0
:1063C0002FF8642105FB01F004F0ECFB012000F044
:1063D0000FF8012000F024F805E0204600F008F84E
:1063E000204600F01DF800E000BF00BF70BD0000B7
:1063F00010B504463CB920210748FFF7D8FE00201D
:106400000649087006E020210348FFF7D2FE01206C
:106410000249087010BD0000000C01403706002042
:1064200010B504463CB940210748FFF7C0FE0020E4
:106430000649487006E040210348FFF7BAFE0120F4
:106440000249487010BD0000000C014037060020D2
:106450000020044908704870802088700320024999
:1064600008707047B0000020BE00002000202A49BC
:1064700048600872487208208872002027494860E6
:1064800008724872082088720021244881610177CF
:106490004177082181770021C16280F8301080F8AF
:1064A0003110082180F832100021016480F8441076
:1064B00080F84510082180F84610002018494860EF
:1064C00008724872082088720020164948600872D5
:1064D0004872082088720021124881610177417753
:1064E000082181770021C16280F8301080F83110D6
:1064F000082180F832100021016480F8441080F8EF
:106500004510082180F846100020074948600872AD
:10651000487208208872704700130020581A002023
:10652000A81A0020BC1A00201413002010B51B4824
:106530000068FDF76FFF04462246184801681848B6
:10654000FDF787FF4FF4807115488030FDF7F8FFA5
:106550000020134981F8800181F881010F4800680B
:10656000FDF758FF0E4981F88201002081F8830170
:1065700080210C48FDF7E4FF4FF48071094880301A
:10658000FDF7DEFF0020074981F8800181F88101D5
:1065900081F8820181F8830110BD00002C000020E9
:1065A000D80600205C08002010B50B48FFF7AEFBB2
:1065B00010B10948FFF740FB012004F065FC0520FD
:1065C00004F050FC40F2DB5004F06AFC04F042FCA2
:1065D00004F052FC10BD00001D0024000BE003F08D
:1065E0003FFD0548006840F00100034908604FF492
:1065F000FA7004F0D7FAF2E72006002008B51F4829
:1066000000780A2836D2DFE800F005080E11171DC1
:106610002335292F03F008FB2DE01948006800906E
:1066200003F0C8FA27E003F073FA24E01448006886
:10663000009002F08BFF1EE011480068009002F00D
:10664000EDFF18E00E480068009003F0CDF912E06D
:106650000B480068009003F049F80CE00848006817
:10666000009003F06DFA06E005480068009003F022
:106670007FFA00E000BF00BF08BD0000BE000020A0
:10668000B00000201CB550480078504908700846FA
:10669000007802280CD14E4848604E488860C86097
:1066A000012048704FF4E031C00600F089F90BE09A
:1066B00048484649486046488860C860022048709B
:1066C0004103800600F07CF9032000F04FF903F04D
:1066D000E9FB0C2240494148FFF7EEFCFFF730FC94
:1066E00000F078F9FFF722FF04F002F8FEF708FB4C
:1066F000FEF7A4FDFEF7C8FBFFF7C0F804F014FC9A
:1067000004F040F9364801231A466421009035A070
:1067100005F06CF937490860374802210023102240
:10672000CDE9001035A1384804F0A8FF3748022110
:1067300000230A02CDE9001035A1394804F09EFF7C
:106740003848022100234A02CDE9001036A13A4818
:1067500004F094FF394802210023CA01CDE900105A
:1067600037A13A4804F08AFF394802210023CA01C0
:10677000CDE9001037A13A4804F080FF39480521DF
:1067800000234FF40072CDE9001037A1394804F01E
:1067900075FF3948062100238022CDE9001037A17A
:1067A000394804F06BFF3948022100238022CDE9EB
:1067B000001037A13A4804F061FF04F00DF904F02D
:1067C0006DFA00201CBD0000003800086C1B002082
:1067D00000C0010800400008AC190020E8F7FF1FC6
:1067E000D5AD000873696E67616C54494D455253CD
:1067F0000000000038000020040000204C45443216
:106800005F7461736B000000DD6500080800002004
:106810007573617274315F72785F7461736B0000BD
:1068200075A000080C0000207573617274315F74EC
:10683000785F7461736B000021A3000814000020CE
:1068400063616E5F74785F7461736B005D580008FC
:106850001800002063616E5F72785F7461736B0073
:10686000055500081C0000207773323831325F7400
:1068700061736B0039AF00082000002077746467F3
:106880005F7461736B00000061AF0008240000209A
:106890007573617274325F72785F7461736B00003C
:1068A0002DA400082DE9F0470B4614464FF0000CCC
:1068B00000BF2C4A1268C2F302211D4626460A4632
:1068C000C2F10709B9F1040F02D94FF0040901E040
:1068D000C2F10709C84602F10409B9F1070F02D253
:1068E0004FF0000901E0A2F103094F464FF0010902
:1068F00009FA08F9A9F1010909EA050909FA07F9EC
:106900004FF0010A0AFA07FAAAF1010A0AEA060A8E
:1069100049EA0A09CC4601466246002904DB15070C
:106920002E0E114D6E5407E015072F0E0D4D0C3530
:1069300001F00F06361FAF5500BF014600290DDBE1
:1069400000BF00BF01F01F050122AA404D09AD00A4
:1069500005F1E025C5F8002100BF00BF00BFBDE87C
:10696000F08700000CED00E000E400E000BF00F064
:106970000702064B19684FF6FF031940044B0B43FF
:1069800043EA0221014B196000BF70470CED00E0A3
:106990000000FA0500BFBFF34F8F0748006800F4FE
:1069A000E06006490843001D03490860BFF34F8FAC
:1069B00000BF00BF00BFFDE70CED00E00000FA05DE
:1069C000024A0A400243024B1A60704780FFFF1FD1
:1069D00008ED00E010B5012003F07AFF012003F07C
:1069E00051FA0120FEF77AF90120FEF781FF01211B
:1069F0000846FFF765FC01210220FFF761FC10BD8E
:106A00002DE9F04104460D46164655200B49087005
:106A1000AA20487004208870200AC8700C710846AB
:106A2000457186718178C01CFEF7C2FF0746380A9F
:106A30000249C8710F720920BDE8F0815C1B00207B
:106A40002DE9F04104460E46154655200D490870C3
:106A5000AA20487005208870200AC8700C7108466A
:106A60004671280A8871CD7108468178C01CFEF7EE
:106A70009FFF0746380A034908724F720A20BDE893
:106A8000F08100005C1B002010B50446022C05DDDF
:106A9000002012494876012008761EE034B9002013
:106AA000FEF726FF01200D49487616E0012C06D19D
:106AB0000120FEF71DFF0120084948760DE0022C59
:106AC0000BD10020FEF714FFC82004F06BF8012062
:106AD000FEF70EFF01200149487610BDE81900209D
:106AE00010B504464FF44070064908606078C872DB
:106AF000A17804480173E178417321798173FEF72D
:106B000037FE10BD1413002000B503461878062880
:106B100005DD02201D49C8720120887235E0187811
:106B200004281DDC9878802805DC5878802802DC51
:106B3000D878802805DD02201449C87201208872A7
:106B400023E098781249487058780870D87888708F
:106B500018781049087001200C49C872887214E036
:106B60001878052807D1184600F0B0F80120074929
:106B7000C871887109E01878062806D1184600F017
:106B800067F801200149C871887100BDE81900202B
:106B9000B0000020BE00002010B50446022C05DD28
:106BA000002012494875012008751EE034B9002004
:106BB00003F068F901200D49487516E0012C06D153
:106BC000012003F05FF90120084948750DE0022C0F
:106BD0000BD1002003F056F9C82003F0E3FF012099
:106BE00003F050F901200149487510BDE819002053
:106BF00010B50446022C05DD02201449C87401209A
:106C0000887421E034B9002003F062FE01200F49AE
:106C1000C87416E0012C06D1012003F059FE0120B2
:106C20000A49C8740DE0022C0BD1002003F050FE7D
:106C3000C82003F0B7FF012003F04AFE01200349FA
:106C4000C87401200149887410BD0000E8190020B3
:106C50004179072908DD0021174A11700221174ADE
:106C6000D1710121917105E00121134A1170134A7C
:106C7000D17191711049097801291BD18179104A8C
:106C80001170C1795170017A9170427A0C49CA70C1
:106C9000817A0B4A1171C27A09494A71017B084A0B
:106CA0009171427B0649CA714179064A11700621E9
:106CB000054A11707047000031000020E8190020DB
:106CC000B5000020BD000020BE000020417907294A
:106CD00008DD0021174A11700221174AD1710121E4
:106CE000917105E00121134A1170134AD17191711C
:106CF0001049097801291BD18179104A1170C17995
:106D00005170017A9170427A0C49CA70817A0B4AAB
:106D10001171C27A09494A71017B084A9171427B1B
:106D20000649CA714179064A11700521054A117058
:106D30007047000031000020E8190020B500002055
:106D4000BD000020BE00002010B50446022C05DD69
:106D50000020154948700120087024E024B9012062
:106D60001149487008701EE0012C0DD140F20160FD
:106D70000E4908600120C87200210C48017341735C
:106D80008173FEF7F5FC0EE0022C0CD140F211608D
:106D9000064908600120C87200210448017341734C
:106DA0008173FEF7E5FC10BDE819002000130020F8
:106DB000032805DD0021094A5174114608740BE0CF
:106DC00028B90121054A51740021117404E00128F9
:106DD00002D0022800D000BF70470000E819002050
:106DE00010B50446022C05DD00201249C8750120AB
:106DF00088751EE034B90020FDF770FF01200D49B1
:106E0000C87516E0012C06D10120FDF767FF0120AF
:106E10000849C8750DE0022C0BD10020FDF75EFF7C
:106E2000C82003F0BFFE0120FDF758FF01200149F3
:106E3000C87510BDE819002010B51A48007901285E
:106E40000BD018480079022807D00220164981F893
:106E50002D00012081F82C0010BD0120124981F87D
:106E60002D0081F82C0011480078012804D140F24F
:106E700002200F49086007E00C480078022803D17F
:106E800040F203200A490860084840780849C8725F
:106E900000210748017341738173FEF769FC00BF4D
:106EA000DAE70000E0090020E8190020350600209C
:106EB0000013002010B50446022C06DA2046FDF728
:106EC0000DFF01200449C87502E000200249C87581
:106ED00001200149887510BD161A002070B50446BE
:106EE0000D46032C0ED10020FDF7F8FE642105FBB2
:106EF00001F003F057FE0120FDF7F0FE01200549E7
:106F0000C87502E000200349C87501200149887551
:106F100070BD0000161A002010B101280BD104E04A
:106F20000649497C064A117006E0044991F825108B
:106F3000034A517000E000BF00BF70478C1300206F
:106F40002C060020012802D002280BD104E00749BA
:106F5000097B074A117006E0044991F82010044AA1
:106F6000517000E000BF00BF704700008C1300208C
:106F70002E06002010B55548C0795449897940EA59
:106F80000120534988830846807803287ED14F48E2
:106F9000407901280FD0002088700846828B00219C
:106FA0009B20FFF74DFD4B490870084601784A4881
:106FB00001F022FC89E04648808B4549098B8842D4
:106FC00010DB4348828B00219B20FFF739FD4149AC
:106FD000087008460178404801F00EFC00203C494A
:106FE000887072E0394A9278D21C384B995C3B4ADF
:106FF0001078FEF7F9FC39490870344A9278121D6E
:10700000324B995C354A5078FEF7EEFC33494870B4
:107010002F498C8BE11704EB11710911A4EB0111BD
:107020002F4B03EBC110294989784A1F27490831A2
:10703000FDF70FFA26498A8B098B491E8A4209D02F
:107040002349888BC11700EB11710911A0EB0111C5
:107050000F2911D11E494FF40062C868204903F07E
:1070600025FF1B48C06800F500601949C8604FF44F
:1070700000611B48FDF764FA1548828B01219B20B3
:10708000FFF7DEFC13490870084600E00DE00178C8
:10709000114801F0B1FB0E48818B008B401E8142EC
:1070A00013D104200A4988700FE000200849887035
:1070B0000846828B00219B20FFF7C2FC054908701F
:1070C00008460178044801F097FB10BD000A002033
:1070D0006C1B00203D0600205C1B00203F060020AA
:1070E000000B002010B101282BD111E01649C97AFC
:1070F000164A11701449097B51701349497B9170EC
:107100001149897BD1701049497C114A117019E0ED
:107110000D49C97F0D4A11710B4991F820200B4987
:107120004A71094991F8212008498A71064991F864
:1071300022200649CA71044991F82510044A517069
:1071400000E000BF00BF7047B413002024060020F9
:107150000414002010B51E48807818B11C488078AF
:10716000012826D11B484079012814D1194880797B
:10717000012810D11648427801219820FFF740FCE1
:107180001549087008460178144801F035FB0120C4
:107190000F4988701AE00E48427800219820FFF7C6
:1071A0002FFC0D490870084601780C4801F024FBBB
:1071B0000CE00748427800219820FFF721FC06499F
:1071C000087008460178054801F016FB10BD000064
:1071D0006C1B0020000A00203D0600205C1B0020E4
:1071E0000A480068B0F5D06F09D0B0F5D26F07D06B
:1071F000B0F5D46F05D0B0F5D66F04D102E003E04E
:1072000002E001E000E000BF00BF7047281300204B
:1072100023480068A0F2812030B1102812D0202825
:107220001ED0302838D129E01D48407C012802D1E9
:107230001C49487402E000201A4948740120194989
:1072400008742AE01648407C012802D11549487488
:1072500002E00020134948740220124908741CE01F
:107260000F48407C012802D10E49487402E00020FA
:107270000C49487403200B4908740EE00848407C10
:10728000012802D10749487402E0002005494874EA
:1072900004200449087400E000BF00BF70470000EC
:1072A00028130020E819002010B51248407928B1B1
:1072B00000201149C8750120887519E00D488079B2
:1072C00030B90020FDF70AFD01200B49C8750CE01C
:1072D00008488079012805D1FDF700FD0120064905
:1072E000C87502E000200449C8750120024988756C
:1072F00010BD0000E0090020E819002012480068D5
:10730000A0F2827030B1102809D020280DD030288A
:1073100017D110E001200D49C873887312E00120D5
:107320000A49C873022088730CE001200749C8731A
:107330000320887306E001200449C8730420887381
:1073400000E000BF00BF704728130020E8190020AC
:1073500010B54148807801286DD1404880793E4978
:107360004978884210D000203B498870084642780E
:1073700000219920FFF744FB39490870084601783D
:10738000384801F039FA66E03448C07900063349DC
:10739000097A40EA01403149497A40EA01202F49FF
:1073A000897A08432C4908612C48007B2B49C97A0B
:1073B00040EA0120284908830846007C00F07F004D
:1073C00028B908460069C0F3CF10488306E0224878
:1073D0000069012101EBD0101F4948831E48006954
:1073E000B0F5C03F05D81C48008B1B49498B88422B
:1073F00010D0002018498870084642780021992052
:10740000FFF7FEFA1649087008460178154801F0A2
:10741000F3F920E01048427801219920FFF7F0FAB3
:107420000F490870084601780E4801F0E5F902207E
:10743000094988700FE000200749887008464278A3
:1074400000219920FFF7DCFA054908700846017809
:10745000044801F0D1F910BD6C1B0020000A002087
:107460003D0600205C1B002010B5404880780228B3
:107470006AD13F484079012805D13D4880793B4990
:107480004978884210D000203849887008464278F0
:1074900000219A20FFF7B4FA3649087008460178AF
:1074A000354801F0A9F95FE0304880682F49C8608D
:1074B000FF203249087048702D48C07900062C49D9
:1074C000097A40EA01402A49497A40EA01202849DC
:1074D000897A0843254948612548007B2449C97AAF
:1074E00040EA0120214948830846406909698842E9
:1074F00005D11E48408B1D49098B884210D00020C1
:107500001A4988700846427800219A20FFF778FAD5
:107510001849087008460178174801F06DF923E012
:107520000120174908701148427801219A20FFF77D
:1075300067FA10490870084601780F4801F05CF9B5
:1075400003200A4988700FE0002008498870084627
:10755000427800219A20FFF753FA0649087008463E
:107560000178054801F048F910BD00006C1B0020AF
:10757000000A00203D0600205C1B00203F06002082
:107580003E06002034480068A0F2837030B1102815
:1075900012D0202820D030283ED12DE02F4800786E
:1075A00040F001002D4908702B48407C2C49097897
:1075B00008432B49087030E02848007840F002006A
:1075C000264908702448407C40062549097841EA4C
:1075D00010602349087020E02048007840F0040043
:1075E0001E4908701C48407C80061D49097841EA04
:1075F00010601B49087010E01848007840F008003F
:10760000164908701448407CC0061549097841EABB
:1076100010601349087000E000BF00BF0E48C07B37
:107620000E490978884215D10B48C07B0C4909786E
:10763000884203D101200B49487302E00020094928
:10764000487306480078074908730020034908700A
:1076500003490870704700002813002056000020DE
:1076600057000020E819002015480068A0F281703A
:1076700030B110280BD0202810D030281CD114E0B5
:107680000F48407C0F49C8720120887215E00C48F1
:10769000407C0C49C872022088720EE00848407C89
:1076A0000849C8720320887207E00548407C0549F4
:1076B000C8720420887200E000BF00BF704700005D
:1076C00028130020E81900202D480068A0F28360EC
:1076D00030B110284ED020284DD030284DD14BE06D
:1076E0002748C07A012818D1264988762448007B8B
:1076F00001280ED12248407B012803D02048407B3E
:10770000022806D11E48017B1E4801770121C1765F
:107710002FE000211B48C1762BE01948C07A0228CF
:1077200027D10120174988761548007B01281AD1F6
:107730000846017F1248407B814214D10121114843
:10774000C1760F48C17B807B41EA00200D49C88388
:107750000B48417C007C41EA00200A490884002152
:107760000848418402E000210648C176002105480E
:10777000017703E002E001E000E000BF00BF7047D6
:1077800028130020161A002061480068A0F28260C9
:1077900030B1102831D020285CD0302872D187E059
:1077A0005B48807C012827D15948407C01280FD1B3
:1077B000584857490B310A68C26089880182564887
:1077C00090F8260040F00100534981F8260013E0AC
:1077D0004F48407C02280FD14E484D490B310A6872
:1077E000C0F812208988C1824B4890F8260040F0EA
:1077F0000200494981F8260088E04548807C01283C
:1078000027D14348407C01280FD1424840490B31E1
:107810000A688261898881833F4890F8270040F098
:1078200001003D4981F8270013E03948407C0228D7
:107830000FD1384836490B310A68C0F81E208988B4
:107840004184354890F8270040F00200324981F821
:1078500027005BE02E48807C012828D12C48407C02
:10786000012810D12B482A490B310A6842628988C5
:107870000185294890F8280040F00100264981F848
:10788000280014E041E02248407C02280FD1214822
:107890001F490B310A68C0F82A208988C1851E4813
:1078A00090F8280040F002001B4981F828002DE0E4
:1078B0001748807C012827D11548407C01280FD12A
:1078C000144813490B310A6802638988818612487B
:1078D00090F8290040F001000F4981F8290013E0D9
:1078E0000B48407C02280FD10A4809490B310A682D
:1078F000C0F8362089884187074890F8290040F071
:107900000200054981F8290000E000BF00BF704770
:1079100028130020AC190020E819002010B51848E1
:107920004079012803D11648407901280DD0154827
:10793000427800219D20FFF763F81349087008463C
:107940000178124800F058FF19E00E4842780121F2
:107950009D20FFF755F80C490870084601780B4840
:1079600000F04AFF074880680649C8600020887018
:10797000FF2007490870487000200649087010BDB4
:10798000000A00206C1B00203D0600205C1B00202C
:107990003F0600203E06002010B52D4880780428C0
:1079A00048D12C48407901280DD02948427800213F
:1079B0009C20FFF725F828490870084601782748D9
:1079C00000F01AFF43E0234880792549097888426E
:1079D00005D12048C0792249497888420DD01C48F9
:1079E000427800219C20FFF70BF81B4908700846DD
:1079F00001781A4800F000FF29E015484078144942
:107A0000887701221E31174803F050FA1048427857
:107A100001219C20FEF7F4FF0F4908700846017809
:107A20000E4800F0E9FE4FF47A7003F0BBF8FEF761
:107A3000B1FF0CE00648427800219C20FEF7E0FFF1
:107A40000549087008460178044800F0D5FE10BDCD
:107A50006C1B0020000A00203D0600205C1B00205B
:107A60003F0600200038000826480068A0F2816028
:107A700030B1102813D0202821D030283ED12DE05D
:107A80002048407C012809D11F481E490B310A6853
:107A900002608988818001201C4988702FE0194884
:107AA000407C01280AD1184816490B310A68C0F8F1
:107AB00006208988418101201449C8701FE01148BF
:107AC000407C012809D110480E490B310A68C26078
:107AD0008988018201200D49087110E00948407C25
:107AE00001280AD1084807490B310A68C0F812205A
:107AF0008988C18201200549487100E000BF00BFAC
:107B0000704700002813002094190020E819002075
:107B10002DE9F04105460E461C4807681C480068E0
:107B2000001D02F0E5FE50B91948006890F82C10CD
:107B30000120884017490968814316480160681C84
:107B400038B936B112480168091D134802F00EFF1A
:107B50001AE07C190E4800684460BC4207D20C4809
:107B60000168091D0D48006802F0E6FE0CE00848B7
:107B70000168091D0A48006802F0DEFE0948006835
:107B8000844201D207480460BDE8F081600600200D
:107B90004C060020640600207C24002054060020AF
:107BA000500600207C06002010B5044602F0EAFED4
:107BB00023480068401C224908602248006840B9F8
:107BC000204804600846006801280DD100F0E2F961
:107BD0000AE01D48006838B91A480068C06AE16ABE
:107BE000884201D81748046018480068401C1749AB
:107BF000086094F82C100120884015490968084352
:107C000013490860E16A01EB8101124A02EB81002D
:107C1000211D02F0ABFE02F0DFFE0B48006868B1E8
:107C200008480068C06AE16A884207D24FF0805075
:107C300009490860BFF34F8FBFF36F8F10BD00007D
:107C40005C0600204C060020680600207806002014
:107C5000640600208C23002004ED00E010B502F043
:107C600091FE0C48006890B90B4802F055FE0B4895
:107C700002F052FE08480A490860084809490860AD
:107C800000220C210A2003F0FBF90249086002F0EF
:107C9000A3FE10BD9806002090240020A4240020FC
:107CA000900600209406002010B516E002F06AFE4F
:107CB0000C48C068C468201D02F01AFE0A4800681B
:107CC000401E0949086009480068401E07490860CD
:107CD00002F082FE204600F055F8044800680028B3
:107CE000E4D110BD682400205C0600205806002066
:107CF00070B504460D46206C70B1216CE0680144FB
:107D0000E160D4E90210884201D32168E16028468D
:107D1000226CE168FCF79DFB70BD2DE9F041044643
:107D20000F4615464FF00008A66B206C28B37DB9AE
:107D30003946226C6068FCF78CFB216C6068084453
:107D40006060D4E90101884217D32068606014E0C4
:107D50003946226CE068FCF77CFB216CE068411A34
:107D6000E1602168E068884203D2216CA068411A72
:107D7000E160022D01D106B1761E701CA063404661
:107D8000BDE8F08110B50446206B02F043FE2046AA
:107D900002F040FE10BD00000146084A1268126859
:107DA0000AB9012200E000220A600A6822B9034AE7
:107DB0001268D268106800E000207047900600202A
:107DC00030B54FF4A043174800F007042CB1C01D94
:107DD00020F00700134C041B1B1B0246124C2260B0
:107DE0000024114D6C60D018083820F007000F4CAB
:107DF000206000240D4D2D686C600C4D2D682C60AA
:107E00001146441A4C60094C24680C60084D4C68BB
:107E10002C60084D4C682C604FF00044064D2C60DF
:107E200030BD0000B8240020A8060020B0060020C5
:107E3000B8060020B4060020C406002000BFFFF7EB
:107E400033FF064800680128F9D94FF080500449F3
:107E50000860BFF34F8FBFF36F8FF0E78C230020D4
:107E600004ED00E02DE9F04106460D461746984620
:107E7000069C0DB9246000E02760E66325640121BB
:107E8000204603F04FF9BDE8F0812DE9FF5F814600
:107E90000E469246DDE90E7B109CAAF10100216B93
:107EA00001EB800828F0070808F0070008B9012056
:107EB00000E0002050B900BF102080F31188BFF30C
:107EC0004F8FBFF36F8F00BF00BFFEE786B1002565
:107ED00007E0715D04F134004155705D00B902E0C6
:107EE0006D1C102DF5D300BF00214320015502E089
:107EF000002084F83400082F00D30727E762201DF4
:107F000002F017FD04F1180002F013FD2461C7F11F
:107F10000800A06164620020606484F8480049465B
:107F20004046039A00F098FB2060BBF1000F01D09F
:107F3000CBF80040BDE8FF9F2DE9F04706460D460F
:107F400017469846DDE908940DB1012000E00020B5
:107F500050B900BF102080F31188BFF34F8FBFF3DB
:107F60006F8F00BF00BFFEE78CB1FFF777FE266082
:107F7000A561C4F81C80C4F82090201D02F0D9FC33
:107F80002FB194F8240040F0040084F82400BDE8E8
:107F9000F087000010B5002407E004EB84010F4ACD
:107FA00002EB810002F0B8FC641C082CF5D30C48ED
:107FB00002F0B2FC0B4802F0AFFC0B4802F0ACFC44
:107FC0000A4802F0A9FC0A4802F0A6FC0448094944
:107FD000086004480849086010BD00008C23002098
:107FE0002C24002040240020542400206824002059
:107FF0007C240020500600205406002010B50146C5
:10800000164800E0006803688B42FBD302464368D1
:1080100013448B4204D143684C68234443600146B7
:108020000A464B6813440468A34211D10C4C036800
:108030002468A34208D04B680468646823444B60FA
:1080400003681B680B6005E0054B1B680B6001E0D3
:1080500003680B60884200D0016010BDA8060020B4
:10806000B00600202DE9F04104460D4616461F4695
:108070004FF0000865602461B5420CD8F01BA1697F
:10808000884202D34FF0010811E0211D0948006821
:1080900002F052FC0BE0BE4204D2BD4202D34FF0CC
:1080A000010804E0211D0448006802F045FC404638
:1080B000BDE8F081940600209006002070B50546CA
:1080C00002F060FCA86B08B9012400E0002402F073
:1080D00083FC204670BD70B5054602F053FCA86BCA
:1080E000E96B884201D1012400E0002402F074FC15
:1080F000204670BDF8B505460F461A480068C068AE
:10810000C468201D02F0F4FB94F8240000F0040081
:10811000E8B1A06941192B463A462046FFF7A2FF75
:10812000D8B1002003462A4601460090204603F0BD
:10813000A5FC064656B900BF102080F31188BFF396
:108140004F8FBFF36F8F00BF00BFFEE705E094F8CD
:10815000240020F0010084F824002046216A88478A
:10816000F8BD00009006002070B586B08BE0039843
:108170000028FBDB059C606908B9012000E00020B5
:1081800010B9201D02F0B4FB02A800F0DBF8054690
:1081900003980A2875D2DFE800F009050739416322
:1081A00006083A4200BF00BF00BF00BF94F8240099
:1081B00040F0010084F824000498A2698118034665
:1081C0002A462046FFF74EFFF8B12046216A88472D
:1081D00094F8240000F00400B8B100200090049846
:1081E000A169421800231946204603F047FC0646C1
:1081F00056B900BF102080F31188BFF34F8FBFF333
:108200006F8F00BF00BFFEE700BF3BE000BF94F8E8
:10821000240020F0010084F8240033E000BF94F82B
:10822000240040F0010084F824000498A061A069B3
:1082300008B1012000E0002050B900BF102080F3F9
:108240001188BFF34F8FBFF36F8F00BF00BFFEE7F2
:10825000A06941192B462A462046FFF703FF11E08B
:1082600094F8240000F0020018B9204602F0D2FB76
:1082700005E094F8240020F0010084F8240001E0D7
:10828000FFE700BF00BF002203A90448006803F015
:10829000F9F800287FF46BAF06B070BD9806002097
:1082A000F8B505460C4602F047FD684600F04AF86E
:1082B0000646009820BB44B9B54206D803F014FB2B
:1082C00031462846FFF716FF1CE03CB10E48006817
:1082D000006808B9012000E000200446A91B2246DE
:1082E0000A48006802F038FC03F0FEFA50B94FF07B
:1082F000805007490860BFF34F8FBFF36F8F01E0D5
:1083000003F0F2FAF8BD0000940600209806002061
:1083100004ED00E009480068006808B9012000E0A9
:10832000002020B14FF0FF300549086005E0034808
:108330000068C06800680249086070475006002065
:108340007C06002070B5044603F0D8F905460748BE
:108350000068854204D200F00BF80120206001E0A3
:108360000020206001480560284670BDA00600205E
:108370002DE9F84334E025480068C06805682348C3
:108380000068C068C468201D02F0B2FA2046216A65
:10839000884794F8240000F0040008B3A069461947
:1083A000AE4207D966602461211D1848006802F0BA
