:020000040800F2
:1000000050140020850100089F0200089702000894
:100010009B0200089102000829040008000000006B
:10002000000000000000000000000000A302000823
:100030009502000800000000A1020008A5020008C7
:100040009F0100089F0100089F0100089F01000810
:100050009F0100089F0100089F0100089F01000800
:100060009F0100089F0100089F0100089F010008F0
:100070009F0100089F0100089F0100089F010008E0
:100080009F0100089F0100089F0100089F010008D0
:100090009F0100089F0100089F0100089F010008C0
:1000A0009F0100089F0100089F0100089F010008B0
:1000B0009F010008450300089F0100089F010008F8
:1000C0009F0100089F0100089F0100089F01000890
:1000D0009F010008A90300089F0100089F01000874
:1000E0009F0100089F0100089F0100080000000018
:1000F0000000000000000000000000000000000000
:10010000000000009F0100089F010008000000009F
:100110009F0100089F01000800000000000000008F
:100120009F0100089F0100089F0100089F0100082F
:1001300000000000000000000000000000000000BF
:100140000000000000000000000000009F01000807
:1001500000000000000000009F0100089F0100084F
:100160000000000000000000000000009F010008E7
:10017000DFF80CD000F07AF800480047DD100008E6
:10018000501400200648804706480047FEE7FEE777
:10019000FEE7FEE7FEE7FEE7FEE7FEE7FEE7FEE737
:1001A000A9020008710100082DE9F05F0546002052
:1001B00092469B4688460646814640241BE02846D8
:1001C00041464746224600F041F853465A46C01A77
:1001D000914110D311461846224600F028F82D1AF6
:1001E00067EB01084F4622460120002100F01FF86E
:1001F00017EB00094E41201EA4F10104DFDC484644
:1002000031462A464346BDE8F09FD2B201E000F8ED
:10021000012B491EFBD270470022F6E710B51346AA
:100220000A4604461946FFF7F0FF204610BD202A73
:1002300004DB203A00FA02F1002070479140C2F13D
:10024000200320FA03F3194390407047202A04DB6F
:10025000203A21FA02F00021704721FA02F3D0403F
:10026000C2F120029140084319467047064C074DE1
:1002700006E0E06840F0010394E807009847103476
:10028000AC42F6D3FFF778FFB0160008D01600088E
:1002900000BFFEE7704700BFFEE700BFFEE7704704
:1002A00070477047704700002248C06920F08050B6
:1002B00000F180501F49C8611F48007840F00400D9
:1002C0001D49503981F850001A48C06920F080500B
:1002D0001849C8610846006820F00100401C086009
:1002E00000BF14480068C0F340000028F9D011484E
:1002F000406820F003000F49486000BF0D48406887
:10030000C0F381000028F9D10A4800680B49084071
:10031000084908600020486041F61070C8624FF438
:10032000801008634FF41F008860C8030449086008
:10033000704700000010024050700040FFFFF2FEC6
:1003400008ED00E010B50121134801F088F80128FC
:1003500020D10121104801F07FF8002000F0D4F9ED
:100360000E480078B0B10E480078401CC0B20C496D
:10037000087008B9FF20087009480078022801DDDC
:1003800000F0DCF906480078052803DD0021054867
:1003900000F052FC10BD0000000400400D000020E1
:1003A0000C0000200400180010B500201B49087044
:1003B00020211B4801F0FBF870B3194801F0EAF85E
:1003C00004461848B0F80408B0F5806F08DB002038
:1003D0001449A1F80408A1F80008A1F802081BE0DC
:1003E0001048B0F80408401C0E49A1F8040808465B
:1003F000B0F80018B0F80008401C0A4AA2F800083B
:10040000104620F81140B0F80008B0F5806F03DB0B
:1004100000201146A1F8000810BD00000C000020CB
:10042000003801404A08002000BFFEE7002807DB33
:1004300000F01F0201219140024A430942F82310B3
:100440007047000080E200E002E008C8121F08C107
:10045000002AFAD170477047002001E001C1121F45
:10046000002AFBD17047000010B504462068A0F1B7
:100470000050B0F5603F22D20021114800F0DCFBB3
:100480000021104800F0D8FB00210E480C3800F085
:10049000D3FB252000F048FE1D2000F045FE25205E
:1004A000FFF7C4FF1D20FFF7C1FF07496068086020
:1004B000206880F3088800BF08460068804710BDA8
:1004C00001001C000E0018000800002010B50024D8
:1004D00048480078F0B948480078022806D1002042
:1004E0004549087001204349087081E0424800787E
:1004F000042805D100204049087000F057F977E042
:100500003D480078032873D100203B49087000F073
:1005100015F96DE037480078012807D13749087090
:1005200002203449087000F041F961E03148007858
:10053000022836D132480078042828D13148407842
:1005400001063048807801EB00412E48C07801EB6D
:1005500000212C4800790C182B48844211D32B48D9
:100560000068800200F10060A0420AD92549491DB7
:10057000204600F097FC00202149087000F016F991
:1005800036E000201E49087000F0D8F830E01C4822
:10059000007805282CD100201949087000F0CEF809
:1005A00026E014480078032822D113480078022856
:1005B00015D100201049087000F0F8F81248406882
:1005C00000F07F40B0F1006F05D100F0DBFB0E487A
:1005D000FFF74AFF0CE003200749087008E00648CF
:1005E0000078032804D100200349087000F0A6F821
:1005F00010BD000002000020010000200D000020BE
:10060000000000204400002000400008E0F7FF1F29
:1006100003480078022800D170470120FCE7000061
:100620000038000810B500F021FC002000F030F880
:10063000012000F02DF8022000F02AF8002000F040
:100640004FF8012000F04CF8022000F049F800F0CB
:1006500001F810BD1CB501210B4800F0EDFA684609
:1006600000F0D6FC01208DF8070000208DF8040072
:100670008DF806000120009028208DF805006946BD
:10068000024800F0D0FC1CBD020018000008014028
:100690001CB504460F4951F82400012100F0CCFAA2
:1006A000684600F0B5FC01208DF8070000208DF8A9
:1006B000040010208DF80600074830F81400009060
:1006C00004208DF80500054951F82400694600F022
:1006D000AAFC1CBD240000201C00002010000020EB
:1006E000022800DD7047064931F8101031B1044985
:1006F00031F81010034A52F82020116100BFF1E7D1
:100700001C00002010000020022800DD704709496D
:1007100031F8101059B1084951F82010C968054A3C
:1007200032F810205140044A52F82020D16000BF16
:10073000ECE700001C0000201000002010B5EE21A6
:10074000124800F02BFF00BF4021104800F02FFF9F
:100750000028F9D0FF210D4800F020FF00BF402104
:100760000A4800F024FF0028F9D00020084908704A
:100770000849087008490870084908700849086065
:10078000084908700849087010BD00000038014091
:1007900000000020010000200200002003000020D3
:1007A000040000200C0000200D00002010B5CC211A
:1007B0000A4800F0F3FE00BF4021084800F0F7FEB1
:1007C0000028F9D0DD21054800F0E8FE00BF4021F7
:1007D000024800F0ECFE0028F9D010BD00380140BE
:1007E00070B55A49B1F80418002902DD00F00EFB7B
:1007F00000E070BD56490978E1B95649097829B930
:100800005A2802D10121534A11709CE051490978BC
:100810000129FAD1012803D102214E4A117092E038
:10082000A52803D104214B4A11708CE00321494AC9
:10083000117088E04649097802296AD14649097849
:1008400031B101291AD002292BD003295FD13DE013
:10085000312807D10121404A117000213F4A11700F
:100860003F4A11605A2808D13A49097829B901212B
:10087000384A11700321364A117049E03949374A24
:100880001278885435490978491C344A1170114648
:100890000978042904DB0021117002212E4A11700D
:1008A00036E03049091D2E4A126888542C490968DF
:1008B000491C2B4A116011460968B1F5006F04D339
:1008C000002111600321244A117021E00025002439
:1008D00005E02449095D2944CDB2611C8CB2042C89
:1008E000F7DB002406E01F49091D095D2944CDB24C
:1008F000611C8CB2B4F5006FF5DB854203D1042195
:10090000154A117002E00521134A117000E000BF82
:1009100019E00F490978032915D10E49097829B939
:100920005A2810D101210B4A11700CE009490978AD
:10093000012908D1022803D10221064A117002E0E0
:100940000321044A117000BF53E700004A08002049
:100950000200002001000020000000200300002011
:1009600004000020450000200349496860F3071196
:10097000014A516070470000001002400349496875
:1009800060F30A21014A51607047000000100240E4
:100990000349496860F3CD21014A51607047000066
:1009A00000100240012807D10749496D21F03001AC
:1009B0003031054A516505E00349496D21F03001A8
:1009C000014A51657047000000100240052827D2F7
:1009D000DFE800F0030A11181F00134A126861F3E0
:1009E0000002114B1A601CE00F4A126861F31042BA
:1009F0000D4B1A6015E00C4A126861F318620A4B3D
:100A00001A600EE0084A126A61F30002064B1A628D
:100A100007E0054A526A61F30002034B5A6200E0A4
:100A200000BF00BF70470000001002402DE9F04FEA
:100A300085B004460025AA46AB460026A9460020FC
:100A4000049003900290019000F0D8F90090009873
:100A500020B1012812D0022875D112E05648406D0D
:100A6000C0F3402038B15448006BC0F3406010B16F
:100A70005248206001E05248206067E05048206002
:100A800064E04D484068C0F3004B4B48C06AC00F5B
:100A900030BB49484068C0F3834547484068C0F3CD
:100AA000417ABAF1000F01D10F2D04D14FEA0A109B
:100AB000401C054400E0AD1CBBF1000F03D14148D0
:100AC000684320603DE03C484068C0F3404018B1B6
:100AD0003C486843206034E039486843206030E097
:100AE0003548C06AC0F3031003903348C06AC0F3AE
:100AF000082002903048C06A00F007000190BBF166
:100B0000000F02D12F48049009E02B484068C0F341
:100B1000404010B12B48049001E029480490012185
:100B2000019801FA00F0039900FB01FC0299049876
:100B3000A0FB01700146624600233846FFF734FBF4
:100B4000206003E0FFE71E48206000BF00BF1A4896
:100B50004068C0F303161C4810F80690206820FA7D
:100B600009F0606014484068C0F30226174810F886
:100B70000690606820FA09F0E0600F484068C0F312
:100B8000C226134810F80690606820FA09F0A060A9
:100B900009484068C0F3007607484068C0F38130D8
:100BA00040EA86060B4810F80690A068B0FBF9F002
:100BB000206105B0BDE8F08F00100240006CDC023F
:100BC00000127A0000093D0076160008861600081B
:100BD0008E1600089616000810B501460020094B35
:100BE00003EB1142126801F01F040123A3401A40D5
:100BF00001F01F040123A3409A4200D000E001202D
:100C000010BD00000010024030B50024002500E0B7
:100C1000641C1120FFF7E0FF012802D0B4F5405F0B
:100C2000F6D31120FFF7D8FF012801D0002500E0FE
:100C30000125284630BD000010B501290DD10E4B0D
:100C400003EB1042126800F01F040123A3401A4373
:100C5000094C04EB10431A600CE0074B03EB104205
:100C6000126800F01F040123A3409A43024C04EBD6
:100C700010431A6010BD00000010024030B502465B
:100C8000002000233AB9324C646824F48034304D9B
:100C90006C60304819E02E4C646824F4803404F50C
:100CA00080342B4D6C60012A06D12B482C46646899
:100CB00024F400346C6008E02648254C646824F471
:100CC000003404F50034224D6C60244CA04204D959
:100CD000234CA04201D2002326E0224CA04204D99A
:100CE000214CA04201D201231EE0204CA04204D995
:100CF0001F4CA04201D2022316E01D4CA04204D991
:100D00001C4CA04201D203230EE01B4CA04204D98C
:100D10001A4CA04201D2042306E0184CA04203D989
:100D2000174CA04200D20523094C646861F3954436
:100D3000074D6C600D09064C646865F35E74044DE4
:100D40006C602C46E46A63F31A64EC6230BD000008
:100D50000010024000093D0000127A0060823B0052
:100D6000404B4C0080584F00105E5F009435770078
:100D7000101B7F0020BCBE00286BEE0030D73D0169
:100D8000D8E9DC011648006820F00100401C144935
:100D9000086000BF12480068C0F340000028F9D086
:100DA0000F48406820F003000D49486000BF0C4820
:100DB0004068C0F381000028F9D10948006809495A
:100DC0000840074908600020486041F61070C8627A
:100DD0004FF4801008634FF41F00886070470000D4
:100DE00000100240FFFFF2FE0349496860F3010171
:100DF000014A5160704700000010024002484068FC
:100E0000C0F38100704700000010024010B50022BE
:100E10001349144800F00AFC1348B0F80408401EB7
:100E20001149A1F8040801220D490E4800F0FEFB0B
:100E30000D48B0F80218B0F80208401C0A4AA2F89F
:100E40000208104610F81140B0F80208B0F5806FA3
:100E500003DB00201146A1F80208204610BD000067
:100E600005000C00003801404A08002010B504209D
:100E700000F0CCFA074800680749B0FBF1F00749D9
:100E80000860084600684FF47A71484304490860D6
:100E900010BD00004000002040420F003000002044
:100EA000340000202DE9F04105460E4600F096F88A
:100EB000284600F073F80F480068FF2803D805F5AE
:100EC000806000F06BF800240CE0315D601C305C49
:100ED00001EB002087B23946284600F00DF8AD1C22
:100EE000A01C84B2B4F5006FEFDB00F021F8BDE880
:100EF000F0810000E0F7FF1F70B504460D460326A1
:100F00000A48006920F00100401C0849086125805A
:100F10004FF4801000F030F806460448006920F0D5
:100F2000010002490861304670BD00000020024007
:100F30000348006920F08000803001490861704753
:100F40000020024003200B49C96801F0010109B1EA
:100F500000200EE00749C968C1F3800109B10120F2
:100F600007E00449C968C1F3001109B1022000E09B
:100F7000032070470020024000B502460323FFF71C
:100F8000E1FF034603E0FFF7DDFF0346521E0BB906
:100F9000002AF8D102B90423184600BD30B5044632
:100FA00003250D48006920F00200801C0A490861F1
:100FB00008464461006920F0400040300861480460
:100FC000FFF7DAFF05460448006920F002000249F5
:100FD0000861284630BD0000002002400248034955
:100FE000486003484860704723016745002002407D
:100FF000AB89EFCD044800680449884201D1012043
:1010000070470020FCE7000000380008384B5441CE
:101010004FF6FF710160002181710171042141715E
:101020000121C1717047F0B50A461588ABB29579B8
:10103000032D01D100241AE0957965B9557905F0A1
:101040000F045579182D01D1036110E05579282D31
:101050000DD143610BE0957905F00805167906F08E
:1010600004063543D67906F0030645EA0604DDB2E8
:10107000A5B1002110E001258D401D405DB105683E
:101080008F000F26BE40B543056005688E0004FA48
:1010900006F635430560491C0829ECD3FF2B15DD06
:1010A0001B12002110E001258D401D405DB14568F7
:1010B0008F000F26BE40B543456045688E0004FA98
:1010C00006F635434560491C0829ECD3F0BD10B540
:1010D000FFF786FBFFF7FAF910BD000000F0B2F849
:1010E000FFF7A0FA032000F099F8FFF791FA022821
:1010F00003D10B48FFF7B8F902E00A48FFF7B4F94B
:101100004FF4E13000F0EEF9FFF774FF08B1FFF79C
:101110004DFB00F0ADF901E0FFF7D9FFFCE700005F
:1011200000C001080040000810B50146084600282C
:101130000BDB00F01F0301229A40054B440943F8E2
:101140002420BFF34F8FBFF36F8F00BF10BD00008F
:1011500080E100E02DE9F0470B4614464FF0000C0B
:1011600000BF2C4A1268C2F302211D4626460A46D9
:10117000C2F10709B9F1040F02D94FF0040901E0E7
:10118000C2F10709C84602F10409B9F1070F02D2FA
:101190004FF0000901E0A2F103094F464FF00109A9
:1011A00009FA08F9A9F1010909EA050909FA07F993
:1011B0004FF0010A0AFA07FAAAF1010A0AEA060A36
:1011C00049EA0A09CC4601466246002904DB1507B4
:1011D0002E0E114D6E5407E015072F0E0D4D0C35D8
:1011E00001F00F06361FAF5500BF014600290DDB89
:1011F00000BF00BF01F01F050122AA404D09AD004C
:1012000005F1E025C5F8002100BF00BF00BFBDE823
:10121000F08700000CED00E000E400E000BF00F00B
:101220000702064B19684FF6FF031940044B0B43A6
:1012300043EA0221014B196000BF70470CED00E04A
:101240000000FA0510B54FF4AA701A490860FFF7BC
:1012500099FD01210846FFF7B9FB00BFFFF7D4FC59
:101260000028FBD023210220FFF708FD01210220E6
:10127000FFF7ACFB00BF1920FFF7AEFC0128FAD145
:101280000020FFF771FB0420FFF782FB0420FFF72B
:1012900075FB0120FFF786FB0220FFF7A5FD00BFCD
:1012A000FFF7ACFD0228FBD10020FFF77BFB00F02D
:1012B00003F810BD002002402DE9FF5F0024002547
:1012C0000026A146A246A34600200390029001906A
:1012D000FFF794FD0090009820B1012814D0022857
:1012E00074D115E04348406DC0F3402040B14148FF
:1012F000006BC0F3406018B13F484049086002E00D
:101300003F483E49086065E03D483C49086061E06F
:1013100038484068C0F300463648C06AC00F20BB5A
:1013200034484068C0F3834432484068C0F3417594
:101330000DB90F2C03D12801401C044400E0A41C6B
:1013400026B9304860432D4908603DE0294840688F
:10135000C0F3404020B12B4860432849086033E087
:1013600027486043254908602EE02248C06AC0F340
:10137000031003901F48C06AC0F3082002901D4864
:10138000C06A00F00700019016B9DFF878B009E0F4
:1013900018484068C0F3404010B1DFF868B001E081
:1013A000DFF85CB00121019801FA00F0039900FB1D
:1013B00001FC0298ABFB00700146624600233846F0
:1013C000FEF7F2FE0D49086004E0FFE70C480B4908
:1013D000086000BF00BF07484068C0F303190A480F
:1013E00010F809A00548006820FA0AF003490860CF
:1013F000BDE8FF9F00100240006CDC0240000020AE
:1014000000127A0000093D009E160008042808D149
:101410004FF0E021096941F004014FF0E022116131
:1014200007E04FF0E021096921F004014FF0E022CC
:1014300011617047C1628262436923F001035B1C42
:1014400043617047026861F30612026070470268E8
:1014500061F3000202607047CA43026170470246AE
:10146000002013690B400BB1012000E00020704701
:1014700010B586B0142101A8FEF7CEFE0121114857
:10148000FFF7DAFB002201211D20FFF763FE01A810
:10149000FFF7CCFA42F210710298B0FBF1F4224649
:1014A0000948FFF7C7FF00210748FFF7CBFF0122DC
:1014B0001146054800F00AF801210348FFF7C7FF6D
:1014C00006B010BD01001C0000040040012A03D139
:1014D000C3680B43C36003E012B9C3688B43C360A6
:1014E000704700001CB5044601212648FFF7A4FB05
:1014F000012124480C38FFF79FFB6846FFF788FD61
:1015000001208DF8070000208DF8040008208DF8D8
:1015100006008001009004208DF8050069461A48F5
:10152000FFF781FD01208DF8070000208DF80400F1
:101530008DF806004FF48060009018208DF80500AB
:1015400069461148FFF76FFD002211462520FFF77D
:1015500001FE00231A4621460C4800F031F8012113
:101560000A4800F083F80121084800F07AF80122C7
:101570000749064800F05AF80121044800F012F823
:101580001CBD00000E00180000080140003801409A
:1015900005000C000146486880B27047C1F308029C
:1015A00042607047C26861F34D32C26070470246C4
:1015B0001068084008B1012070470020FCE70000D7
:1015C0002DE9F04385B004460F469046994668469B
:1015D000FFF72CFA1448844201D1029E00E0039EDA
:1015E00006EB86004000B0FBF7F50A20B5FBF0F1F2
:1015F00000FB1150052803D20A20B5FBF0F503E0EB
:101600000A20B5FBF0F0451CA06865F30F00A06050
:10161000E06868F30C30E060206969F30D30206108
:1016200005B0BDE8F08300000038014030B5012A64
:101630000BD100EB11431B6801F01F050124AC40E6
:10164000234300EB114423600AE000EB11431B68C5
:1016500001F01F050124AC40A34300EB11442360BB
:1016600030BDC26861F38202C2607047C26861F334
:10167000C302C260704700000000000000000102C9
:10168000030406070809000000000102030400002B
:1016900000000102030402040608020C0810000006
:1016A0000000000000000102030406070809000012
:1016B000D016000800000020440000004804000884
:1016C00014170008440000200C14000058040008FF
:1016D000000000000000000000000000000000000A
:1016E00000100140001001400010014000200800DF
:1016F0002000000004001800040018000400180076
:1017000000000000000000000000000001000000D8
:0417100000127A0049
:04000005080001717D
:00000001FF
