:020000040800F2
:1000000050140020850100089F0200089702000894
:100010009B0200089102000829040008000000006B
:10002000000000000000000000000000A302000823
:100030009502000800000000A1020008A5020008C7
:100040009F0100089F0100089F0100089F01000810
:100050009F0100089F0100089F0100089F01000800
:100060009F0100089F0100089F0100089F010008F0
:100070009F0100089F0100089F0100089F010008E0
:100080009F0100089F0100089F0100089F010008D0
:100090009F0100089F0100089F0100089F010008C0
:1000A0009F0100089F0100089F0100089F010008B0
:1000B0009F010008450300089F0100089F010008F8
:1000C0009F0100089F0100089F0100089F01000890
:1000D0009F010008A90300089F0100089F01000874
:1000E0009F0100089F0100089F0100080000000018
:1000F0000000000000000000000000000000000000
:10010000000000009F0100089F010008000000009F
:100110009F0100089F01000800000000000000008F
:100120009F0100089F0100089F0100089F0100082F
:1001300000000000000000000000000000000000BF
:100140000000000000000000000000009F01000807
:1001500000000000000000009F0100089F0100084F
:100160000000000000000000000000009F010008E7
:10017000DFF80CD000F07AF800480047E9100008DA
:10018000501400200648804706480047FEE7FEE777
:10019000FEE7FEE7FEE7FEE7FEE7FEE7FEE7FEE737
:1001A000A9020008710100082DE9F05F0546002052
:1001B00092469B4688460646814640241BE02846D8
:1001C00041464746224600F041F853465A46C01A77
:1001D000914110D311461846224600F028F82D1AF6
:1001E00067EB01084F4622460120002100F01FF86E
:1001F00017EB00094E41201EA4F10104DFDC484644
:1002000031462A464346BDE8F09FD2B201E000F8ED
:10021000012B491EFBD270470022F6E710B51346AA
:100220000A4604461946FFF7F0FF204610BD202A73
:1002300004DB203A00FA02F1002070479140C2F13D
:10024000200320FA03F3194390407047202A04DB6F
:10025000203A21FA02F00021704721FA02F3D0403F
:10026000C2F120029140084319467047064C074DE1
:1002700006E0E06840F0010394E807009847103476
:10028000AC42F6D3FFF778FFBC160008DC16000876
:1002900000BFFEE7704700BFFEE700BFFEE7704704
:1002A00070477047704700002248C06920F08050B6
:1002B00000F180501F49C8611F48007840F00400D9
:1002C0001D49503981F850001A48C06920F080500B
:1002D0001849C8610846006820F00100401C086009
:1002E00000BF14480068C0F340000028F9D011484E
:1002F000406820F003000F49486000BF0D48406887
:10030000C0F381000028F9D10A4800680B49084071
:10031000084908600020486041F61070C8624FF438
:10032000801008634FF41F008860C8030449086008
:10033000704700000010024050700040FFFFF2FEC6
:1003400008ED00E010B50121134801F08EF80128F6
:1003500020D10121104801F085F8002000F0D4F9E7
:100360000E480078B0B10E480078401CC0B20C496D
:10037000087008B9FF20087009480078022801DDDC
:1003800000F0DCF906480078052803DD0021054867
:1003900000F052FC10BD0000000400400D000020E1
:1003A0000C0000200400180010B500201B49087044
:1003B00020211B4801F001F970B3194801F0F0F851
:1003C00004461848B0F80408B0F5806F08DB002038
:1003D0001449A1F80408A1F80008A1F802081BE0DC
:1003E0001048B0F80408401C0E49A1F8040808465B
:1003F000B0F80018B0F80008401C0A4AA2F800083B
:10040000104620F81140B0F80008B0F5806F03DB0B
:1004100000201146A1F8000810BD00000C000020CB
:10042000003801404A08002000BFFEE7002807DB33
:1004300000F01F0201219140024A430942F82310B3
:100440007047000080E200E002E008C8121F08C107
:10045000002AFAD170477047002001E001C1121F45
:10046000002AFBD17047000010B504462068A0F1B7
:100470000050B0F5603F22D20021114800F0DCFBB3
:100480000021104800F0D8FB00210E480C3800F085
:10049000D3FB252000F04EFE1D2000F04BFE252052
:1004A000FFF7C4FF1D20FFF7C1FF07496068086020
:1004B000206880F3088800BF08460068804710BDA8
:1004C00001001C000E0018000800002010B50024D8
:1004D00048480078F0B948480078022806D1002042
:1004E0004549087001204349087081E0424800787E
:1004F000042805D100204049087000F057F977E042
:100500003D480078032873D100203B49087000F073
:1005100015F96DE037480078012807D13749087090
:1005200002203449087000F041F961E03148007858
:10053000022836D132480078042828D13148407842
:1005400001063048807801EB00412E48C07801EB6D
:1005500000212C4800790C182B48844211D32B48D9
:100560000068800200F10060A0420AD92549491DB7
:10057000204600F09DFC00202149087000F016F98B
:1005800036E000201E49087000F0D8F830E01C4822
:10059000007805282CD100201949087000F0CEF809
:1005A00026E014480078032822D113480078022856
:1005B00015D100201049087000F0F8F81248406882
:1005C00000F07F40B0F1006F05D100F0E1FB0E4874
:1005D000FFF74AFF0CE003200749087008E00648CF
:1005E0000078032804D100200349087000F0A6F821
:1005F00010BD000002000020010000200D000020BE
:10060000000000204400002000400008E0F7FF1F29
:1006100003480078022800D170470120FCE7000061
:100620000038000810B500F027FC002000F030F87A
:10063000012000F02DF8022000F02AF8002000F040
:100640004FF8012000F04CF8022000F049F800F0CB
:1006500001F810BD1CB501210B4800F0EDFA684609
:1006600000F0DCFC01208DF8070000208DF804006C
:100670008DF806000120009028208DF805006946BD
:10068000024800F0D6FC1CBD020018000008014022
:100690001CB504460F4951F82400012100F0CCFAA2
:1006A000684600F0BBFC01208DF8070000208DF8A3
:1006B000040010208DF80600074830F81400009060
:1006C00004208DF80500054951F82400694600F022
:1006D000B0FC1CBD240000201C00002010000020E5
:1006E000022800DD7047064931F8101031B1044985
:1006F00031F81010034A52F82020116100BFF1E7D1
:100700001C00002010000020022800DD704709496D
:1007100031F8101059B1084951F82010C968054A3C
:1007200032F810205140044A52F82020D16000BF16
:10073000ECE700001C0000201000002010B5EE21A6
:10074000124800F031FF00BF4021104800F035FF93
:100750000028F9D0FF210D4800F026FF00BF4021FE
:100760000A4800F02AFF0028F9D000200849087044
:100770000849087008490870084908700849086065
:10078000084908700849087010BD00000038014091
:1007900000000020010000200200002003000020D3
:1007A000040000200C0000200D00002010B5CC211A
:1007B0000A4800F0F9FE00BF4021084800F0FDFEA5
:1007C0000028F9D0DD21054800F0EEFE00BF4021F1
:1007D000024800F0F2FE0028F9D010BD00380140B8
:1007E00070B55A49B1F80418002902DD00F014FB75
:1007F00000E070BD56490978E1B95649097829B930
:100800005A2802D10121534A11709CE051490978BC
:100810000129FAD1012803D102214E4A117092E038
:10082000A52803D104214B4A11708CE00321494AC9
:10083000117088E04649097802296AD14649097849
:1008400031B101291AD002292BD003295FD13DE013
:10085000312807D10121404A117000213F4A11700F
:100860003F4A11605A2808D13A49097829B901212B
:10087000384A11700321364A117049E03949374A24
:100880001278885435490978491C344A1170114648
:100890000978042904DB0021117002212E4A11700D
:1008A00036E03049091D2E4A126888542C490968DF
:1008B000491C2B4A116011460968B1F5006F04D339
:1008C000002111600321244A117021E00025002439
:1008D00005E02449095D2944CDB2611C8CB2042C89
:1008E000F7DB002406E01F49091D095D2944CDB24C
:1008F000611C8CB2B4F5006FF5DB854203D1042195
:10090000154A117002E00521134A117000E000BF82
:1009100019E00F490978032915D10E49097829B939
:100920005A2810D101210B4A11700CE009490978AD
:10093000012908D1022803D10221064A117002E0E0
:100940000321044A117000BF53E700004A08002049
:100950000200002001000020000000200300002011
:1009600004000020450000200349496860F3071196
:10097000014A516070470000001002400349496875
:1009800060F30A21014A51607047000000100240E4
:100990000349496860F3CD21014A51607047000066
:1009A00000100240012807D10749496D21F03001AC
:1009B0003031054A516505E00349496D21F03001A8
:1009C000014A51657047000000100240052827D2F7
:1009D000DFE800F0030A11181F00134A126861F3E0
:1009E0000002114B1A601CE00F4A126861F31042BA
:1009F0000D4B1A6015E00C4A126861F318620A4B3D
:100A00001A600EE0084A126A61F30002064B1A628D
:100A100007E0054A526A61F30002034B5A6200E0A4
:100A200000BF00BF70470000001002402DE9F04FEA
:100A300085B004460025AA46AB460026A9460020FC
:100A4000049003900290019000F0DEF9009000986D
:100A500020B1012812D0022875D112E05648406D0D
:100A6000C0F3402038B15448006BC0F3406010B16F
:100A70005248206001E05248206067E05048206002
:100A800064E04D484068C0F3004B4B48C06AC00F5B
:100A900030BB49484068C0F3834547484068C0F3CD
:100AA000417ABAF1000F01D10F2D04D14FEA0A109B
:100AB000401C054400E0AD1CBBF1000F03D14148D0
:100AC000684320603DE03C484068C0F3404018B1B6
:100AD0003C486843206034E039486843206030E097
:100AE0003548C06AC0F3031003903348C06AC0F3AE
:100AF000082002903048C06A00F007000190BBF166
:100B0000000F02D12F48049009E02B484068C0F341
:100B1000404010B12B48049001E029480490012185
:100B2000019801FA00F0039900FB01FC0299049876
:100B3000A0FB01700146624600233846FFF734FBF4
:100B4000206003E0FFE71E48206000BF00BF1A4896
:100B50004068C0F303161C4810F80690206820FA7D
:100B600009F0606014484068C0F30226174810F886
:100B70000690606820FA09F0E0600F484068C0F312
:100B8000C226134810F80690606820FA09F0A060A9
:100B900009484068C0F3007607484068C0F38130D8
:100BA00040EA86060B4810F80690A068B0FBF9F002
:100BB000206105B0BDE8F08F00100240006CDC023F
:100BC00000127A0000093D00821600089216000803
:100BD0009A160008A216000810B501460020094B1D
:100BE00003EB1142126801F01F040123A3401A40D5
:100BF00001F01F040123A3409A4200D000E001202D
:100C000010BD00000010024030B50024002500E0B7
:100C1000641C1120FFF7E0FF012802D0B4F5405F0B
:100C2000F6D31120FFF7D8FF012801D0002500E0FE
:100C30000125284630BD000010B501290DD10E4B0D
:100C400003EB1042126800F01F040123A3401A4373
:100C5000094C04EB10431A600CE0074B03EB104205
:100C6000126800F01F040123A3409A43024C04EBD6
:100C700010431A6010BD00000010024030B502465B
:100C80000020002372B9354C646824F48034334D5D
:100C90006C6033482C46246B24F0007404F100741B
:100CA0002C6319E02D4C646824F4803404F58034FE
:100CB0002A4D6C60012A06D12A482C46646824F427
:100CC00000346C6008E02648244C646824F4003446
:100CD00004F50034214D6C60234CA04204D9234C10
:100CE000A04201D2002326E0214CA04204D9214C8D
:100CF000A04201D201231EE01F4CA04204D91F4C88
:100D0000A04201D2022316E01C4CA04204D91C4C84
:100D1000A04201D203230EE01A4CA04204D91A4C7F
:100D2000A04201D2042306E0174CA04203D9174C7D
:100D3000A04200D20523094C646861F39544074D35
:100D40006C600D09054C646865F35E74034D6C605E
:100D50002C46E46A63F31A64EC6230BD0010024072
:100D600000093D0000127A0060823B00404B4C00BD
:100D700080584F00105E5F0094357700101B7F0095
:100D800020BCBE00286BEE0030D73D01D8E9DC0165
:100D90001648006820F00100401C1449086000BF9C
:100DA00012480068C0F340000028F9D00F4840689E
:100DB00020F003000D49486000BF0C484068C0F3B4
:100DC00081000028F9D1094800680949084007490D
:100DD00008600020486041F61070C8624FF480102F
:100DE00008634FF41F008860704700000010024045
:100DF000FFFFF2FE0349496860F30101014A5160B7
:100E0000704700000010024002484068C0F38100B3
:100E1000704700000010024010B50022134914482A
:100E200000F00AFC1348B0F80408401E1149A1F86C
:100E3000040801220D490E4800F0FEFB0D48B0F8F1
:100E40000218B0F80208401C0A4AA2F8020810462C
:100E500010F81140B0F80208B0F5806F03DB0020F5
:100E60001146A1F80208204610BD000005000C0044
:100E7000003801404A08002010B5042000F0CCFAE8
:100E8000074800680749B0FBF1F0074908600846C9
:100E900000684FF47A7148430449086010BD0000AF
:100EA0004000002040420F003000002034000020AD
:100EB0002DE9F04105460E4600F096F8284600F070
:100EC00073F80F480068FF2803D805F5806000F02C
:100ED0006BF800240CE0315D601C305C01EB0020FD
:100EE00087B23946284600F00DF8AD1CA01C84B22C
:100EF000B4F5006FEFDB00F021F8BDE8F0810000F1
:100F0000E0F7FF1F70B504460D4603260A48006946
:100F100020F00100401C0849086125804FF4801032
:100F200000F030F806460448006920F0010002494C
:100F30000861304670BD000000200240034800698F
:100F400020F0800080300149086170470020024095
:100F500003200B49C96801F0010109B100200EE02E
:100F60000749C968C1F3800109B1012007E00449BC
:100F7000C968C1F3001109B1022000E003207047E5
:100F80000020024000B502460323FFF7E1FF0346BD
:100F900003E0FFF7DDFF0346521E0BB9002AF8D12C
:100FA00002B90423184600BD30B5044603250D4898
:100FB000006920F00200801C0A490861084644616B
:100FC000006920F04000403008614804FFF7DAFF74
:100FD00005460448006920F00200024908612846DD
:100FE00030BD000000200240024803494860034829
:100FF000486070472301674500200240AB89EFCD70
:10100000044800680449884201D10120704700204B
:10101000FCE7000000380008384B54414FF6FF71E0
:101020000160002181710171042141710121C171AF
:101030007047F0B50A461588ABB29579032D01D1FA
:1010400000241AE0957965B9557905F00F045579B2
:10105000182D01D1036110E05579282D0DD1436180
:101060000BE0957905F00805167906F0040635437E
:10107000D67906F0030645EA0604DDB2A5B10021E3
:1010800010E001258D401D405DB105688F000F26E1
:10109000BE40B543056005688E0004FA06F6354388
:1010A0000560491C0829ECD3FF2B15DD1B1200211C
:1010B00010E001258D401D405DB145688F000F2671
:1010C000BE40B543456045688E0004FA06F63543D8
:1010D0004560491C0829ECD3F0BD10B5FFF780FB33
:1010E000FFF7F4F910BD000000F0B2F8FFF79AFA2C
:1010F000032000F099F8FFF78BFA022803D10B4880
:10110000FFF7B2F902E00A48FFF7AEF94FF4E13019
:1011100000F0EEF9FFF774FF08B1FFF747FB00F0AE
:10112000ADF901E0FFF7D9FFFCE7000000C00108BE
:101130000040000810B50146084600280BDB00F00F
:101140001F0301229A40054B440943F82420BFF3B2
:101150004F8FBFF36F8F00BF10BD000080E100E034
:101160002DE9F0470B4614464FF0000C00BF2C4A07
:101170001268C2F302211D4626460A46C2F107093B
:10118000B9F1040F02D94FF0040901E0C2F10709D7
:10119000C84602F10409B9F1070F02D24FF0000965
:1011A00001E0A2F103094F464FF0010909FA08F9DD
:1011B000A9F1010909EA050909FA07F94FF0010A3D
:1011C0000AFA07FAAAF1010A0AEA060A49EA0A092A
:1011D000CC4601466246002904DB15072E0E114D50
:1011E0006E5407E015072F0E0D4D0C3501F00F065C
:1011F000361FAF5500BF014600290DDB00BF00BF01
:1012000001F01F050122AA404D09AD0005F1E025BE
:10121000C5F8002100BF00BF00BFBDE8F087000097
:101220000CED00E000E400E000BF00F00702064B18
:1012300019684FF6FF031940044B0B4343EA0221A0
:10124000014B196000BF70470CED00E00000FA058B
:1012500010B54FF4AA701A490860FFF799FD0121F3
:101260000846FFF7B3FB00BFFFF7CEFC0028FBD01A
:1012700023210220FFF702FD01210220FFF7A6FB38
:1012800000BF1920FFF7A8FC0128FAD10020FFF7C2
:101290006BFB0420FFF77CFB0420FFF76FFB0120B2
:1012A000FFF780FB0220FFF7A5FD00BFFFF7ACFDB5
:1012B0000228FBD10020FFF775FB00F003F810BDFA
:1012C000002002402DE9FF5F002400250026A146F2
:1012D000A246A3460020039002900190FFF794FDE0
:1012E0000090009820B1012814D0022874D115E094
:1012F0004348406DC0F3402040B14148006BC0F30B
:10130000406018B13F484049086002E03F483E490C
:10131000086065E03D483C49086061E03848406845
:10132000C0F300463648C06AC00F20BB344840684E
:10133000C0F3834432484068C0F341750DB90F2CA7
:1013400003D12801401C044400E0A41C26B9304805
:1013500060432D4908603DE029484068C0F34040A3
:1013600020B12B4860432849086033E02748604398
:10137000254908602EE02248C06AC0F3031003909C
:101380001F48C06AC0F3082002901D48C06A00F0E0
:101390000700019016B9DFF878B009E018484068F6
:1013A000C0F3404010B1DFF868B001E0DFF85CB096
:1013B0000121019801FA00F0039900FB01FC029859
:1013C000ABFB00700146624600233846FEF7ECFE98
:1013D0000D49086004E0FFE70C480B49086000BFB6
:1013E00000BF07484068C0F303190A4810F809A075
:1013F0000548006820FA0AF003490860BDE8FF9F2D
:1014000000100240006CDC024000002000127A0054
:1014100000093D00AA160008042808D14FF0E02179
:10142000096941F004014FF0E022116107E04FF03B
:10143000E021096921F004014FF0E02211617047B9
:10144000C1628262436923F001035B1C4361704700
:10145000026861F3061202607047026861F30002DD
:1014600002607047CA430261704702460020136958
:101470000B400BB1012000E00020704710B586B092
:10148000142101A8FEF7C8FE01211148FFF7D4FB83
:10149000002201211D20FFF763FE01A8FFF7C6FA15
:1014A00042F210710298B0FBF1F422460948FFF7AE
:1014B000C7FF00210748FFF7CBFF0122114605486F
:1014C00000F00AF801210348FFF7C7FF06B010BD7E
:1014D00001001C0000040040012A03D1C3680B4333
:1014E000C36003E012B9C3688B43C3607047000058
:1014F0001CB5044601212648FFF79EFB0121244824
:101500000C38FFF799FB6846FFF788FD01208DF83E
:10151000070000208DF8040008208DF806008001E7
:10152000009004208DF8050069461A48FFF781FDF8
:1015300001208DF8070000208DF804008DF80600CA
:101540004FF48060009018208DF80500694611481E
:10155000FFF76FFD002211462520FFF701FE002353
:101560001A4621460C4800F031F801210A4800F0E3
:1015700083F80121084800F07AF80122074906485B
:1015800000F05AF80121044800F012F81CBD0000D8
:101590000E001800000801400038014005000C0052
:1015A0000146486880B27047C1F308024260704744
:1015B000C26861F34D32C26070470246106808404D
:1015C00008B1012070470020FCE700002DE9F0433E
:1015D00085B004460F46904699466846FFF726FABE
:1015E0001448844201D1029E00E0039E06EB86006F
:1015F0004000B0FBF7F50A20B5FBF0F100FB1150FD
:10160000052803D20A20B5FBF0F503E00A20B5FB5C
:10161000F0F0451CA06865F30F00A060E06868F377
:101620000C30E060206969F30D30206105B0BDE841
:10163000F08300000038014030B5012A0BD100EBE7
:1016400011431B6801F01F050124AC40234300EB4C
:10165000114423600AE000EB11431B6801F01F05F1
:101660000124AC40A34300EB1144236030BDC268A9
:1016700061F38202C2607047C26861F3C302C26054
:10168000704700000000000000000102030406078C
:10169000080900000000010203040000000001022C
:1016A000030402040608020C0810000000000000F9
:1016B000000001020304060708090000DC16000808
:1016C0000000002044000000480400082017000823
:1016D000440000200C140000580400080000000022
:1016E00000000000000000000000000000100140A9
:1016F000001001400010014004000800002000001C
:101700000400180004001800040018000000000085
:1017100000000000000000000100000000127A003C
:04000005080001717D
:020000040800F2
:10400000E8760020E5420008734800086748000889
:104010006F480008FD450008994B000800000000AB
:104020000000000000000000000000004D420008F9
:10403000654800080000000091420008754800082B
:10404000FF420008FF420008FF420008FF4200084C
:10405000FF420008FF420008FF420008FF4200083C
:10406000FF420008FF420008FF420008FF4200082C
:10407000FF420008FF420008FF420008FF4200081C
:10408000FF420008FF420008FF420008FF4200080C
:1040900001460008FF42000875460008FF4200087C
:1040A000FF420008FF420008FF420008FF420008EC
:1040B000FF420008FF420008FF4200086D48000868
:1040C0006B480008FF420008FF420008FF4200085A
:1040D000FF42000845490008754A0008FF420008F1
:1040E000FF420008FF420008FF42000800000000F5
:1040F00000000000000000000000000000000000C0
:1041000000000000FF420008FF420008000000001D
:10411000FF420008FF42000800000000000000000D
:10412000FF420008FF420008FF420008FF4200086B
:10413000000000000000000000000000000000007F
:10414000000000000000000000000000FF42000826
:104150000000000000000000FF420008FF420008CD
:10416000000000000000000000000000FF42000806
:1041700000F002F800F05AF80AA090E8000C82441F
:104180008344AAF10107DA4501D100F04FF8AFF2FC
:10419000090EBAE80F0013F0010F18BFFB1A43F025
:1041A000010318472C7800004C7800000A444FF0B7
:1041B000000C10F8013B13F0070408BF10F8014B86
:1041C0001D1108BF10F8015B641E05D010F8016BCB
:1041D000641E01F8016BF9D113F0080F1EBF10F82F
:1041E000014BAD1C0C1B09D16D1E58BF01F801CB52
:1041F000FAD505E014F8016B01F8016B6D1EF9D5D5
:104200009142D6D3704700000023002400250026E9
:10421000103A28BF78C1FBD8520728BF30C148BF29
:104220000B6070471FB51FBD10B510BD00F0B3F98E
:104230001146FFF7F7FF02F0EDF900F0D1F903B4F2
:10424000FFF7F2FF03BC00F0A9FC0000224B196845
:104250000868B0E8F00F80F30988BFF36F8F4FF064
:10426000000080F311884EF00D0E70470000000032
:1042700006480068006880F3088862B661B6BFF33C
:104280004F8FBFF36F8F00DF00BF00BF08ED00E06E
:10429000EFF30980BFF36F8F0F4B1A6820E9F00F1F
:1042A000106008B54FF0100080F31188BFF34F8FF6
:1042B000BFF36F8F06F064FB4FF0000080F31188AE
:1042C000BDE8084019680868B0E8F00F80F3098875
:1042D000BFF36F8F704700BFA4040020EFF3058089
:1042E000704700000948804709480047FEE7FEE79D
:1042F000FEE7FEE7FEE7FEE7FEE7FEE7FEE7FEE796
:1043000004480549054A064B70470000A9480008C3
:1043100071410008E8700020E8760020E872002073
:10432000E8720020704753EA020C00F069802DE922
:10433000F04B4FF00006002B1FBFB3FA83F503FAD2
:1043400005F424FA05F65E4012BF1643B2FA82F570
:1043500002FA05F4C5F120051EBF22FA05FC44EA65
:104360000C04203556EA044C4FEA144418BF641C70
:104370004FF000084FF00009904271EB030C39D365
:10438000002919BFB1FA81F701FA07F6B0FA80F7F0
:1043900000FA07F6C7F120071EBF20FA07FC46EA1D
:1043A0000C062037B6FBF4FCA7EB0507103F07F01F
:1043B0001F0BCBF120060CFA0BFB2CFA06F644BFC0
:1043C000B3460026202FA4BF5E464FF0000B5BEAE9
:1043D000060C08BF4FF0010B19EB0B09ABFB027C7D
:1043E00048EB0608C01B06FB02CC0BFB03CC71EBB1
:1043F0000C01C1E70B46024641464846BDE8F08B3A
:1044000013B54FF000004FF00001AFF30080BDE89E
:104410001C40704710B5431C02E010F8011B71B13D
:104420008107FAD14FF0013202C88C1A8C4314EA8A
:10443000C211F9D0C01A0A0603D0C01E10BDC01A9E
:1044400010BD0A0401D0801E10BD0902FCD0401E20
:1044500010BD032A40F2308010F0030C00F01580EC
:1044600011F8013BBCF1020F624498BF11F801CB77
:1044700000F8013B38BF11F8013BA2F1040298BFDC
:1044800000F801CB38BF00F8013B11F0030300F046
:104490002580083AC0F0088051F8043B083A51F8EA
:1044A00004CBA0E80810F5E7121D5CBF51F8043BEF
:1044B00040F8043BAFF30080D20724BF11F8013B62
:1044C00011F801CB48BF11F8012B24BF00F8013BC4
:1044D00000F801CB48BF00F8012B704710B5203A17
:1044E000C0F00B80B1E81850203AA0E81850B1E8AD
:1044F0001850A0E81850BFF4F5AF5FEA027C24BF63
:10450000B1E81850A0E8185044BF18C918C0BDE859
:1045100010405FEA827C24BF51F8043B40F8043B22
:1045200008BF7047D20728BF31F8023B48BF11F8D7
:10453000012B28BF20F8023B48BF00F8012B704731
:104540004FF0000200B5134694469646203922BF2C
:10455000A0E80C50A0E80C50B1F12001BFF4F7AF77
:10456000090728BFA0E80C5048BF0CC05DF804EB59
:10457000890028BF40F8042B08BF704748BF20F8C7
:10458000022B11F0804F18BF00F8012B70477047C5
:10459000704770477047754600F02CF8AE4605002E
:1045A0006946534620F00700854618B020B5FFF74E
:1045B000A7FEBDE820404FF000064FF000074FF087
:1045C00000084FF0000B21F00701AC46ACE8C00931
:1045D000ACE8C009ACE8C009ACE8C0098D4670473A
:1045E00010B50446AFF300802046BDE81040FFF749
:1045F00026BE0000004870478870002000BFFEE71C
:1046000000B585B00921164800F000FD28B36A46C0
:104610000021134800F0B5FD0098FF281DD900982F
:10462000B0F5006F19D20098B0F5FE6F0DD940F2C9
:10463000F4710098884208D8142269460948FFF7A7
:104640004DFF01200849087007E014226946074819
:10465000FFF744FF01200649087005B000BD0000C7
:104660000064004068110020410000205411002027
:104670004000002008B5002000900421074800F009
:10468000C5FC50B105481830006800F0700000907B
:104690000421024800F07CFC00BF08BD006400401B
:1046A0002DE9FE4F8246CAF1FF0ABAF1550F43DAEF
:1046B0006A48007806F0B2FD06460022684B06F014
:1046C00011FC04460D460AEB4A01C1F1FF0006F059
:1046D0008EFD804622462B4606F0B4FDCDE9000152
:1046E00006F058FDC0B28DF8090000208DF80800D2
:1046F0005A48007806F092FD80460022584B06F09A
:10470000F1FB04460D460AEB4A0006F070FD064632
:1047100022462B4606F096FDCDE9000106F03AFD53
:10472000C0B28DF80A00BDF8081008469DF80A10BE
:1047300040EA0140BDE8FE8FBAF1AA0F46DAAAF1BD
:10474000550000F0FF0A00208DF80900434800786A
:1047500006F064FD0022424BCDE9000106F0C2FBE9
:1047600004460D460AEB4A0006F041FD0646224685
:104770002B4606F067FD804606F00CFDC0B28DF8B2
:1047800008003648007806F049FD80460022344B88
:1047900006F0A8FB04460D460AEB4A01C1F1FF00F2
:1047A00006F025FD064622462B4606F04BFDCDE9D8
:1047B000000106F0EFFCC0B28DF80A00BDF8081049
:1047C00008469DF80A1040EA0140B3E7AAF1AA00A2
:1047D00000F0FF0A2148007806F020FD064600227E
:1047E0001F4B06F07FFB04460D460AEB4A0006F01D
:1047F000FEFC804622462B4606F024FDCDE9000152
:1048000006F0C8FCC0B28DF809001448007806F024
:1048100005FD06460022124B06F064FB04460D46D9
:104820000AEB4A01C1F1FF0006F0E1FC8046224696
:104830002B4606F007FDCDE9000106F0ABFCC0B247
:104840008DF8080000208DF80A00BDF80810084611
:104850009DF80A1040EA01406CE70000B00000201B
:1048600000005940704700BFFEE77047704700BF27
:10487000FEE7704710B500BF102080F31188BFF32A
:104880004F8FBFF36F8F00BF06F006FA18B14FF0DD
:1048900080500449086000BF002080F3118800BFE9
:1048A00010BD000004ED00E02248C06920F08050F7
:1048B00000F180501F49C8611F48007840F0040093
:1048C0001D49503981F850001A48C06920F08050C5
:1048D0001849C8610846006820F00100401C0860C3
:1048E00000BF14480068C0F340000028F9D0114808
:1048F000406820F003000F49486000BF0D48406841
:10490000C0F381000028F9D10A4800680B4908402B
:10491000084908600020486041F61070C8624FF4F2
:10492000801008634FF41F008860C80304490860C2
:10493000704700000010024050700040FFFFF2FE80
:1049400008ED00E010B52021454805F065FD002880
:1049500072D02021424805F056FD424800780028D8
:104960006AD14148007840B93D4805F03FFD5528DF
:1049700062D101203C4908705EE03B480078012884
:1049800008D1374805F032FDAA2855D10220364912
:10499000087051E034480078022819D15520334975
:1049A00081F88000AA21314880F881102C4805F058
:1049B0001DFDC1B22D4880F8821090F88200852834
:1049C0003ADC0320294981F881012749087033E046
:1049D0002548007803282FD1214805F007FDC1B2F2
:1049E000224890F8812190F88101401C1F4B83F8E8
:1049F000810103F180008154803890F8811190F892
:104A00008200401D814217D1184690F8812100F1A3
:104A100080011748FFF762FD01201249087001026A
:104A200012488030FFF78CFD0020104981F8810189
:104A300081F883010C4908704021094805F0ECFC1D
:104A400018B14021064805F0DEFC8021044805F03D
:104A5000E3FC18B18021024805F0D5FC10BD000030
:104A600000380140320000203800002018050020E6
:104A70002008002010B52021424805F0CDFC002878
:104A80007BD020213F4805F0BEFC3F48007800283D
:104A900073D13E48007840B93A4805F0A7FC552844
:104AA0006BD101203949087067E038480078012847
:104AB00008D1344805F09AFCAA285ED10220334977
:104AC00008705AE031480078022822D15520304938
:104AD00081F88000AA212E4880F88110294805F02D
:104AE00085FCC1B22A4880F8821090F8820085289F
:104AF00005DC0320264981F88101244908702448F7
:104B000090F88200852838D18521214880F88210CC
:104B100033E01E48007803282FD11A4805F066FCC0
:104B2000C1B21B4890F8812190F88101401C184BBC
:104B300083F8810103F180008154803890F881115D
:104B400090F88200401D814217D1184690F88121CB
:104B500000F180010F48FFF7C1FC01200A490870ED
:104B600001020B488030FFF7EBFC0020084981F878
:104B7000810181F88301054908708021014805F011
:104B80004BFC10BD004400403300002039000020E1
:104B90009C0600204008002000BFFEE700BF7047D1
:104BA00010B50446012C04D18021044801F0AFFA6D
:104BB00003E08021014801F0A8FA10BD000801407F
:104BC00000200FE000220B490A540021094A121F5D
:104BD00011540A220749091D0A540022091D0A54CA
:104BE000411CC8B20428EDDB0021024A121F1174D7
:104BF000704700008011002030B5024600200023DD
:104C0000146824F002041460146824F00104641C85
:104C1000146000E05B1C546804F001041CB94FF6FA
:104C2000FF74A342F6D1546804F00104002C3FD075
:104C30004D78146865F3C71414608D78146865F3B3
:104C400086141460CD78146865F3451414600D79EA
:104C5000146865F3041414604D79146865F3C30493
:104C600014608D79146865F3820414600C78D5693A
:104C700064F39E75D5610C786508D46965F3DF74BB
:104C8000D461146824F001041460002300E05B1C6C
:104C9000546804F001041CB14FF6FF74A342F6D12E
:104CA000546804F001040CB1002002E0012000E08F
:104CB000002030BD30B5024600200023146824F0E7
:104CC00002041460146824F00104641C146000E001
:104CD0005B1C546804F001041CB94FF6FF74A34236
:104CE000F6D1546804F001045CB30C88641ED569E5
:104CF00064F30B05D5618D78D46965F31964D461CB
:104D0000CD78D46965F31344D4610D79D46965F322
:104D10001654D461146824F001041460002300E0E8
:104D20005B1C546804F001041CB14FF6FF74A342ED
:104D3000F6D1546804F001040CB1002002E0012017
:104D400000E0002030BD000000B589B001213048EE
:104D500000F0BAFF07A800F05FF800208DF81C00F3
:104D60008DF81D0001208DF81E008DF81F00002019
:104D70008DF820008DF8210001208DF8220007A970
:104D80002448FFF739FF1220ADF8140000208DF8F9
:104D9000160005208DF8170000208DF8180005A9D1
:104DA0001C48FFF787FF01208DF8040000208DF8D4
:104DB00005008DF806008DF8070001208DF8080029
:104DC0000020ADF80A00ADF80C00ADF80E00ADF80B
:104DD000100001A90F4800F028F800221146162003
:104DE00001F012FD00221146142001F00DFD0122F8
:104DF0000221084800F0BCF90122D102054800F068
:104E0000B7F90122D103034800F0B2F909B000BD9F
:104E100019001C0000640040002141708170C170C5
:104E20000171417181710170704730B50022CC78F9
:104E3000012303FA04F2D0F8003223F001035B1CD3
:104E4000C0F80032D0F81C329343C0F81C320B7902
:104E500013B1012B5AD12CE0D0F80C329343C0F897
:104E60000C328B891C04CD7800F5107343F8354063
:104E7000CC7853F834300C892343CD7800F5107486
:104E800044F835304B891C04CD7800F5107303EBE2
:104E9000C5035C60CC7800F5107303EBC4035B685A
:104EA000CC882343CD7800F5107404EBC50463600F
:104EB0002DE0D0F80C321343C0F80C32CB881C0420
:104EC000CD7800F5107343F83540CC7853F8343082
:104ED0000C892343CD7800F5107444F835304B89A4
:104EE0001C04CD7800F5107303EBC5035C60CC782F
:104EF00000F5107303EBC4035B688C892343CD7802
:104F000000F5107404EBC504636000E000BF00BF4F
:104F10004B7813B1012B0CD105E0D0F80432934348
:104F2000C0F8043206E0D0F804321343C0F804326B
:104F300000E000BF00BF8B7813B1012B0CD105E05E
:104F4000D0F814329343C0F8143206E0D0F814328B
:104F50001343C0F8143200E000BF00BF0B783BB130
:104F6000012B0BD1D0F81C321343C0F81C3206E0E1
:104F7000D0F81C329343C0F81C3200E000BF00BFE1
:104F8000D0F8003223F00103C0F8003230BD000039
:104F9000122935D2DFE801F034090A0B0F0C14177F
:104FA0001B341F223425282B2E3100BF00BF00BF29
:104FB0000422426025E0042242600022826120E057
:104FC000012282601DE04FF48072826019E04FF48C
:104FD0008032826015E00822C26012E01022C260B6
:104FE0000FE0082202610CE01022026109E00822B1
:104FF000426006E01022426003E0034A826000E063
:1050000000BF00BF70470000010101000246002000
:1050100012296FD2DFE801F06E090D11151D21254F
:10502000292D35393D45494D515D936903F0010006
:1050300062E09369C3F340005EE09369C3F38000CC
:105040005AE09369C3F302130BB1012000E0002082
:1050500052E05368C3F380004EE0936803F0010010
:105060004AE09368C3F3002046E09368C3F300402E
:1050700042E0D36803F003030BB1012000E00020FD
:105080003AE0D368C3F3C00036E0D368C3F300103E
:1050900032E0136903F003030BB1012000E00020AC
:1050A0002AE01369C3F3C00026E01369C3F30010BC
:1050B00022E05368C3F3C0001EE05368C3F340030B
:1050C0001BB95368C3F300130BB1012000E00020AB
:1050D00012E09368C3F380633BB99368C3F3C06382
:1050E0001BB99368C3F300730BB1012000E00020EB
:1050F00002E0FFE7002000BF00BF70471CB50121A0
:10510000184800F0E1FD01214FF4C01000F0DCFD73
:105110000121154801F05CF8684600F0FAFF012013
:105120008DF8070000208DF8040008208DF8060097
:105130008001009004208DF8050069460B4800F0BE
:10514000F3FF01208DF8070000208DF806004FF4D2
:105150008070009018208DF805006946034800F023
:10516000E3FF1CBD030018000204002C000C0140EA
:105170001AB143690B43436102E043698B434361C6
:10518000704730B505460C46134605F5D87000EB60
:1051900004100068C0F380001872187A10B101285A
:1051A00013D107E005F5D87000EB04100068400D3E
:1051B00018600BE005F5D87000EB041000686FF084
:1051C000604101EAD000586000E000BF00BF05F573
:1051D000D87000EB04100068C0F34000587205F569
:1051E000D87000EB0410406800F00F00987205F5CD
:1051F000D87000EB04104068000AD87405F5D87028
:1052000000EB04108068D87205F5D87000EB04102C
:105210008068010A197305F5D87000EB04108068E6
:10522000010C597305F5D87000EB04108068010E6D
:10523000997305F5D87000EB0410C068D87305F5B4
:10524000D87000EB0410C068010A197405F5D87015
:1052500000EB0410C068010C597405F5D87000EB20
:105260000410C068010E99742146284600F09DF88C
:1052700030BD10B5024604209368C3F380630BB1C0
:1052800000200CE09368C3F3C0630BB1012006E07B
:105290009368C3F300730BB1022000E004200428DC
:1052A0007CD002F5C07303EB00131B6803F001040C
:1052B00002F5C07303EB00131C600C7A02F5C07397
:1052C00003EB00131B6864F3820302F5C07404EB64
:1052D000001423600B7A13B1012B1CD10DE00C8854
:1052E00002F5C07303EB00131B6864F35F5302F510
:1052F000C07404EB001423600EE002F5C07303EBEE
:1053000000131B684C6843EAC40402F5C07303EB46
:1053100000131C6000E000BF00BF4C7A02F5C073B0
:1053200003EB00131B6864F3410302F5C07404EB44
:10533000001423608B7A02F5C07404EB00146468D7
:1053400063F3030402F5C07303EB00135C608B7B13
:105350001C064B7B44EA03440B7B44EA0323CC7AD0
:10536000234302F5C07404EB0014A3608B7C1C067D
:105370004B7C44EA03440B7C44EA0323CC7B234369
:1053800002F5C07404EB0014E36002F5C07303EB94
:1053900000131B6823F001035B1C00E004E002F52E
:1053A000C07404EB0014236010BD11B1012906D1B3
:1053B00002E02022C26003E02022026100E000BF80
:1053C00000BF70470EE188480078012815D1874852
:1053D0000068A0F2F17030B1012805D0022804D095
:1053E000032806D102E000BF00BF00BF01F0FEFAB3
:1053F00000BF00BF00207C4908707D48007801286C
:1054000070D17C480068B0F5D66F68D02DDCB0F55F
:10541000D26F62D015DCB0F5D06F5DD009DCA0F2A0
:105420008120B8B3102852D0202851D0302873D111
:105430004FE0A0F2816070B301286FD0022879D1CB
:1054400072E0B0F5D46F49D007DCA0F29160A0B350
:10545000012864D002286DD167E0A0F2A16068B392
:1054600001285DD0022865D160E040F29272811A75
:1054700090424CD017DC40F28172A0EB02019042C6
:1054800038D009DCA0F2B16068B3012849D0022805
:1054900050D14CE01AE027E0012937D002292FD063
:1054A000102947D127E011292CD008DC012928D068
:1054B0000F2921D010293DD12AE016E016E01F293E
:1054C0001BD0202925D0212934D11CE000BF00BFEA
:1054D00000BF01F0F9FB2EE000BF00BF00BF01F0EC
:1054E000DBFB28E02BE002E000BF00BF00BF02F0C2
:1054F0004DF820E000BF00BF00BF01F0E9FD1AE059
:1055000000BF00BF00BF01F071FD14E000BF00BF8D
:1055100000BF01F025FC0EE00CE0FFE700BF00BF7C
:1055200000BF01F0C3FE06E000BF00BF00BF01F0F6
:10553000FFFD00E000BF00BF00202D4908702E488D
:10554000007C282840DB00202B490874002438E028
:105550002948015D001D005D814207D02648015D9C
:10556000001D01550021001D015507E022480830AB
:10557000005D401CC1B22048083001551E4808306B
:10558000005D0A2817DBFF2004EB44011B4A22F8C8
:10559000210004EB440102EB8101488004EB44014B
:1055A00002EB81018880002113480C3001550A214B
:1055B000001F015503E001210F480C300155601C0C
:1055C000C4B2042CC4DB00240B48007C401C0A49F4
:1055D00008740B48006840F0100009490860052075
:1055E00005F050F9EFE600004100002068110020AE
:1055F00040000020541100207C1100205015002094
:105600009004002070B504460BE01C480088401C44
:105610001A490880084600884FF6FF71884200D179
:1056200005E02946164800F02DF80428EDD000BF0B
:10563000002012490880072104F10B0000F056FDFC
:10564000A07421460E48FFF714FE05460BE00B48F8
:105650000088401C09490880084600884FF6FF7101
:10566000884200D105E02946054800F00BF80128E2
:10567000EDD100BF00200149088070BD420000202C
:10568000006400400246002021B1012910D0022907
:105690002AD11BE0936803F001033BB19368C3F385
:1056A00040030BB1012002E0002000E002201DE0D9
:1056B0009368C3F300233BB19368C3F340230BB15A
:1056C000012002E0002000E002200FE09368C3F315
:1056D00000433BB19368C3F340430BB1012002E0A8
:1056E000002000E0022001E0002000BF00BF704762
:1056F0000EE003F0F5FA03F095F903F005F9322016
:1057000005F0C0F80348006840F00800014908604F
:10571000EFE700009004002010B500F00DF84FF402
:105720000061044800F0F1FC4FF48051014800F0A2
:10573000ECFC10BD000801401CB50121114800F02F
:10574000C3FA01210F4800F0BFFA684600F0E1FCFF
:1057500001208DF8070000208DF8040010208DF83E
:105760000600C001009004208DF805006946064837
:1057700000F0DAFC4FF4805000906946024800F0D7
:10578000D3FC1CBD020018000008014010B50446FF
:10579000012C04D18021044800F0B7FC03E08021F3
:1057A000014800F0B4FC10BD000C014010B51248D7
:1057B000407C012804D102F0D1FD00200E4948743C
:1057C0000D48C07C012804D102F024FD00200A49C4
:1057D000C8740948407D012804D102F06FFB002005
:1057E000054948750448C07D012804D102F016FB24
:1057F00000200149C87510BDD415002010B51E4801
:1058000090F82400012806D1002003F049F9002077
:10581000194981F82400184890F82500032806D17A
:10582000012003F03DF90020134981F825001248BA
:1058300090F82600032806D1022003F031F9002059
:105840000D4981F826000C4890F82700032805D15F
:1058500003F026F90020084981F82700064890F84F
:105860002800032806D1042003F01AF90020024979
:1058700081F8280010BD0000D415002010B518488C
:105880000078012804D102F039FF00201449087083
:1058900013484078012805D1002003F0AFF900201B
:1058A0000F4948700E488078012804D103F0A6F90A
:1058B00000200B4988700A48C078012805D10220D1
:1058C00003F09CF900200649C870054800790128BA
:1058D00005D1032003F092F900200149087110BDA1
:1058E000D415002030B502460B464FF6FF7000215C
:1058F00011E0555C6840002409E000F0010525B185
:1059000040104AF20105684000E04010641C082C79
:10591000F3DB4D1CE9B29942EBDB30BD024682EA73
:10592000010070470349496860F30711014A51605B
:1059300070470000001002400349496860F30A21E3
:10594000014A516070470000001002400349496855
:1059500060F3CD21014A5160704700000010024001
:10596000012807D10749496D21F030013031054A3E
:10597000516505E00349496D21F03001014A516547
:105980007047000000100240052827D2DFE800F031
:10599000030A11181F00134A126861F30002114B29
:1059A0001A601CE00F4A126861F310420D4B1A6036
:1059B00015E00C4A126861F318620A4B1A600EE097
:1059C000084A126A61F30002064B1A6207E0054AB0
:1059D000526A61F30002034B5A6200E000BF00BF4D
:1059E00070470000001002402DE9F04F85B00446DA
:1059F0000025AA46AB460026A94600200490039045
:105A00000290019000F042FA0090009820B1012825
:105A100012D0022875D112E05648406DC0F34020E4
:105A200038B15448006BC0F3406010B15248206058
:105A300001E05248206067E05048206064E04D4833
:105A40004068C0F3004B4B48C06AC00F30BB4948A8
:105A50004068C0F3834547484068C0F3417ABAF1D3
:105A6000000F01D10F2D04D14FEA0A10401C05444C
:105A700000E0AD1CBBF1000F03D14148684320603A
:105A80003DE03C484068C0F3404018B13C486843A2
:105A9000206034E039486843206030E03548C06A0F
:105AA000C0F3031003903348C06AC0F3082002908B
:105AB0003048C06A00F007000190BBF1000F02D12E
:105AC0002F48049009E02B484068C0F3404010B1D3
:105AD0002B48049001E0294804900121019801FA23
:105AE00000F0039900FB01FC02990498A0FB0170EF
:105AF0000146624600233846FEF715FC206003E0AD
:105B0000FFE71E48206000BF00BF1A484068C0F38E
:105B100003161C4810F80690206820FA09F060600F
:105B200014484068C0F30226174810F806906068D1
:105B300020FA09F0E0600F484068C0F3C22613481D
:105B400010F80690606820FA09F0A06009484068E3
:105B5000C0F3007607484068C0F3813040EA86060B
:105B60000B4810F80690A068B0FBF9F0206105B072
:105B7000BDE8F08F00100240006CDC0200127A00D9
:105B800000093D0070B9000880B9000888B9000814
:105B900090B90008324A811A904218D009DCA0F569
:105BA0000021082959D2DFE801F0222B343D465864
:105BB000584F891E062950D2DFE801F0030405067C
:105BC000070800BF00BF00BF00BF00BF00BF2549DE
:105BD000496A21F0807101F18071224A516200BF4F
:105BE0002049496AC1F300610029F9D136E01D4915
:105BF000896821F4803101F580311A4A91602DE0E5
:105C00001849896821F4003101F50031154A916085
:105C100024E01449896821F4802101F58021114A8A
:105C200091601BE00F49896821F4002101F50021F2
:105C30000C4A916012E00B49896821F4801101F54A
:105C40008011084A916009E00649896821F4000141
:105C500001F50001034A916000E000BF00BF7047FA
:105C6000180024000010024010B501460020094B26
:105C700003EB1142126801F01F040123A3401A40F4
:105C800001F01F040123A3409A4200D000E001204C
:105C900010BD00000010024030B50024002500E0D7
:105CA000641C1120FFF7E0FF012802D0B4F5405F2B
:105CB000F6D31120FFF7D8FF012801D0002500E01E
:105CC0000125284630BD000010B501290DD10E4B2D
:105CD00003EB1042126800F01F040123A3401A4393
:105CE000094C04EB10431A600CE0074B03EB104225
:105CF000126800F01F040123A3409A43024C04EBF6
:105D000010431A6010BD00000010024030B502467A
:105D1000002000233AB9324C646824F48034304DBA
:105D20006C60304819E02E4C646824F4803404F52B
:105D300080342B4D6C60012A06D12B482C466468B8
:105D400024F400346C6008E02648254C646824F490
:105D5000003404F50034224D6C60244CA04204D978
:105D6000234CA04201D2002326E0224CA04204D9B9
:105D7000214CA04201D201231EE0204CA04204D9B4
:105D80001F4CA04201D2022316E01D4CA04204D9B0
:105D90001C4CA04201D203230EE01B4CA04204D9AC
:105DA0001A4CA04201D2042306E0184CA04203D9A9
:105DB000174CA04200D20523094C646861F3954456
:105DC000074D6C600D09064C646865F35E74044D04
:105DD0006C602C46E46A63F31A64EC6230BD000028
:105DE0000010024000093D0000127A0060823B0072
:105DF000404B4C0080584F00105E5F009435770098
:105E0000101B7F0020BCBE00286BEE0030D73D0188
:105E1000D8E9DC011648006820F00100401C144954
:105E2000086000BF12480068C0F340000028F9D0A5
:105E30000F48406820F003000D49486000BF0C483F
:105E40004068C0F381000028F9D109480068094979
:105E50000840074908600020486041F61070C86299
:105E60004FF4801008634FF41F00886070470000F3
:105E700000100240FFFFF2FE0349496860F3010190
:105E8000014A51607047000000100240024840681B
:105E9000C0F3810070470000001002401CB50121D2
:105EA0002C48FFF711FF01212A48FFF70DFF0121C0
:105EB0002848801EFFF708FF01212648801EFFF7B3
:105EC00003FF01212348401EFFF7FEFE0121214868
:105ED000401EFFF7F9FE01211E48401EFFF7F4FEA9
:105EE000684600F016F901208DF8070000208DF8B3
:105EF000040010208DF8060004208DF80500C00273
:105F000000906946144800F00FF92020009069467F
:105F1000114800F009F94020009069460F4800F050
:105F200003F98020009069460C4800F0FDF88020BD
:105F3000009069460A4800F0F7F820200090694672
:105F4000074800F0F1F8402000906946044800F04E
:105F5000EBF81CBD040018000010014000080140CF
:105F6000000C01400149C860704700000020024059
:105F700070B504460D4603260A48006920F001006A
:105F8000401C0849086125804FF4801000F030F86B
:105F900006460448006920F00100024908613046C5
:105FA00070BD0000002002400348006920F080001E
:105FB00080300149086170470020024003200B49EE
:105FC000C96801F0010109B100200EE00749C96864
:105FD000C1F3800109B1012007E00449C968C1F398
:105FE000001109B1022000E00320704700200240A8
:105FF00000B502460323FFF7E1FF034603E0FFF786
:10600000DDFF0346521E0BB9002AF8D102B9042362
:10601000184600BD10B50B46002104E004785C541E
:10602000401C4C1CA1B29142F8DB10BD30B50446B7
:1060300003250D48006920F00200801C0A49086110
:1060400008464461006920F040004030086148047F
:10605000FFF7CEFF05460448006920F00200024920
:106060000861284630BD0000002002400248034974
:10607000486003484860704723016745002002409C
:10608000AB89EFCD01B507202BE09DF80010C0F1E2
:106090000702114101F0010109B1FC2100E0C0211A
:1060A000114A11549DF80110C0F10702114101F08D
:1060B000010109B1FC2200E0C0220B4B00F10801F4
:1060C0005A549DF80210C0F10702114101F001017C
:1060D00009B1FC2200E0C022034B00F110015A5428
:1060E000401E0028D1DA08BD7104002010B5024618
:1060F0000B460024002104E0505C204484B2481C7C
:10610000C1B29942F8DBE0B210BD41617047016154
:1061100070474FF6FF710160002181710171042108
:1061200041710121C1717047F0B50A461588ABB2C3
:106130009579032D01D100241AE0957965B9557937
:1061400005F00F045579182D01D1036110E0557940
:10615000282D0DD143610BE0957905F008051679DE
:1061600006F004063543D67906F0030645EA060430
:10617000DDB2A5B1002110E001258D401D405DB1CB
:1061800005688F000F26BE40B543056005688E0088
:1061900004FA06F635430560491C0829ECD3FF2BA9
:1061A00015DD1B12002110E001258D401D405DB161
:1061B00045688F000F26BE40B543456045688E0098
:1061C00004FA06F635434560491C0829ECD3F0BDB6
:1061D000F0B50C46104F07EB1062C0F30741C0F357
:1061E0000725C6B2C5F12007A7EB010C4FF0FF371A
:1061F00007FA0CF3C5F120077F1AFB40CB408B4018
:1062000017689F4317602CB106FA01FC176847EA2C
:106210000C071760F0BD00000000014070B5054696
:106220000C46022C41DC012D04D0022D12D0032D8E
:1062300039D11FE0022C09D1002000F087F8C820D6
:1062400004F020FB012000F081F802E0204600F07D
:106250007DF829E0022C09D1002000F08FF8C82039
:1062600004F010FB012000F089F802E0204600F065
:1062700085F819E0022C0FD1002000F067F800200B
:1062800000F07CF8C82004F0FDFA012000F05EF870
:10629000012000F073F805E0204600F057F8204692
:1062A00000F06CF800E000BF00BF70BD70B506469E
:1062B0000C461546022C47DC012E04D0022E14D0C9
:1062C000032E3FD123E0022C0BD1002000F03EF83A
:1062D000642105FB01F004F0D5FA012000F036F846
:1062E00002E0204600F032F82DE0022C0BD1002015
:1062F00000F044F8642105FB01F004F0C3FA01202A
:1063000000F03CF802E0204600F038F81BE0022CD8
:1063100011D1002000F01AF8002000F02FF86421BD
:1063200005FB01F004F0AEFA012000F00FF80120A7
:1063300000F024F805E0204600F008F8204600F0C0
:106340001DF800E000BF00BF70BD000010B504469E
:106350003CB920210748FFF7D8FE00200649087005
:1063600006E020210348FFF7D2FE01200249087011
:1063700010BD0000000C01409404002010B504463C
:106380003CB940210748FFF7C0FE0020064948708D
:1063900006E040210348FFF7BAFE01200249487099
:1063A00010BD0000000C01409404002000200449AE
:1063B0000870487080208870032002490870704778
:1063C000A0000020AE00002000203749486008727D
:1063D0004872082088720020344948600872487268
:1063E00008208872002131488161017741770821B6
:1063F00081770021C16280F8301080F831100821C7
:1064000080F832100021016480F8441080F84510B3
:10641000082180F84610002025494860087248721B
:1064200008208872002023494860087248720820BA
:10643000887200211F4881610177417708218177A7
:106440000021C16280F8301080F83110082180F8F6
:1064500032100021016480F8441080F845100821B2
:1064600080F84610002014494860087248720820DD
:106470008872002110488161017741770821817776
:106480000021C16280F8301080F83110082180F8B6
:1064900032100021016480F8441080F84510082172
:1064A00080F8461070470000401100208C16002034
:1064B000DC1600203C160020F016002010B51B480A
:1064C0000068FDF7A7FF04462246184801681848EF
:1064D000FDF7BFFF4FF4807115488030FEF730F8AC
:1064E0000020134981F8800181F881010F4800687C
:1064F000FDF790FF0E4981F88201002081F88301A9
:1065000080210C48FEF71CF84FF480710948803058
:10651000FEF716F80020074981F8800181F8810113
:1065200081F8820181F8830110BD00002C00002059
:10653000180500209C06002010B50B48FFF794FBBF
:1065400010B10948FFF726FB012004F079FA052075
:1065500004F064FA40F2DB5004F07EFA04F056FADC
:1065600004F066FA10BD00001D0024000BE003F0EB
:1065700051FA0548006840F00100034908604FF4F3
:10658000FA7004F07FF9F2E79004002008B51F4884
:1065900000780A2836D2DFE800F005080E11171D32
:1065A0002335292F02F058FF2DE01948006800908C
:1065B00002F018FF27E002F0C3FE24E01448006850
:1065C000009002F0DBFB1EE011480068009002F032
:1065D0003DFC18E00E480068009002F01DFE12E03D
:1065E0000B480068009002F099FC0CE00848006835
:1065F000009002F0BDFE06E005480068009002F041
:10660000CFFE00E000BF00BF08BD0000AE000020CC
:10661000A00000201CB54B4800784B490870084684
:10662000007802280CD14948486049488860C86011
:10663000012048704FF4E031C00600F073F90BE020
:1066400043484149486041488860C860022048701A
:106650004103800600F066F9032000F039F903F0E9
:1066600039F80C223B493C48FFF7D4FCFFF716FCF5
:1066700000F062F9FFF722FF03F00CFFFEF7A0FA2B
:10668000FEF73CFDFEF760FBFFF746F804F028FA42
:1066900004F04AF83148022100231022CDE900100D
:1066A0002FA1324804F0C8FA3148022100230A021F
:1066B000CDE900102FA1334804F0BEFA3248022180
:1066C00000234A02CDE9001030A1344804F0B4FAA6
:1066D000334802210023CA01CDE9001031A134481A
:1066E00004F0AAFA334802210023CA01CDE90010C0
:1066F00031A1344804F0A0FA3348052100234FF4B7
:106700000072CDE9001031A1334804F095FA334806
:10671000062100238022CDE9001031A1334804F086
:106720008BFA3348022100238022CDE9001031A1E9
:10673000344804F081FA04F021F804F0D1F8002084
:106740001CBD000000380008A017002000C0010890
:106750000040000898150020E8F7FF1F0400002003
:106760004C4544325F7461736B0000006D65000836
:10677000080000207573617274315F72785F746114
:10678000736B0000299A00080C0000207573617279
:1067900074315F74785F7461736B000085A10008C9
:1067A0001400002063616E5F74785F7461736B0026
:1067B000F15600081800002063616E5F72785F7404
:1067C00061736B00C55300081C00002077733238DA
:1067D00031325F7461736B00F1AA00082000002061
:1067E000777464675F7461736B00000019AB000815
:1067F000240000207573617274325F72785F746177
:10680000736B000031A200082DE9F0470B461446D7
:106810004FF0000C00BF2C4A1268C2F302211D4643
:1068200026460A46C2F10709B9F1040F02D94FF012
:10683000040901E0C2F10709C84602F10409B9F1EF
:10684000070F02D24FF0000901E0A2F103094F4601
:106850004FF0010909FA08F9A9F1010909EA050946
:1068600009FA07F94FF0010A0AFA07FAAAF1010A30
:106870000AEA060A49EA0A09CC46014662460029A4
:1068800004DB15072E0E114D6E5407E015072F0E71
:106890000D4D0C3501F00F06361FAF5500BF0146F8
:1068A00000290DDB00BF00BF01F01F050122AA4037
:1068B0004D09AD0005F1E025C5F8002100BF00BF7E
:1068C00000BFBDE8F08700000CED00E000E400E050
:1068D00000BF00F00702064B19684FF6FF0319408E
:1068E000044B0B4343EA0221014B196000BF704780
:1068F0000CED00E00000FA0500BFBFF34F8F074822
:10690000006800F4E06006490843001D0349086080
:10691000BFF34F8F00BF00BF00BFFDE70CED00E0ED
:106920000000FA05024A0A400243024B1A6070470F
:1069300080FFFF1F08ED00E010B5012003F09AFE74
:10694000012002F0B7FE0120FEF72AF90120FEF730
:106950001DFF01210846FFF761FC01210220FFF71E
:106960005DFC10BD2DE9F04104460D46164655204C
:106970000B490870AA20487004208870200AC8704B
:106980000C710846457186718178C01CFEF7AAFF1C
:106990000746380A0249C8710F720920BDE8F08124
:1069A000901700202DE9F04104460E46154655206B
:1069B0000D490870AA20487005208870200AC87008
:1069C0000C7108464671280A8871CD710846817895
:1069D000C01CFEF787FF0746380A034908724F724A
:1069E0000A20BDE8F08100009017002028480068C8
:1069F000A0F2F17030B1012813D0022822D0032870
:106A000042D130E02248C07A224908802048007BE9
:106A100048801F48407B88801D48407C1E49087084
:106A200033E01B48C07A1B4988811948017B19480B
:106A3000C1811748417B174801821548407C16499F
:106A4000487022E01248C07A124908831048017B3E
:106A5000104841830E48417B0E4881830C48407C9E
:106A60000D49887011E00A48C07A0A4988840848AC
:106A7000017B0848C1840648417B064801850448DB
:106A8000407C0549C87000E000BF00BF70470000AF
:106A900068110020501500207C11002010B55548C9
:106AA000C0795449897940EA0120534988830846CE
:106AB000807803287ED14F48407901280FD00020EC
:106AC00088700846828B00219B20FFF76BFF4B49A3
:106AD0000870084601784A4801F050F989E04648B4
:106AE000808B4549098B884210DB4348828B00210B
:106AF0009B20FFF757FF414908700846017840483E
:106B000001F03CF900203C49887072E0394A9278E3
:106B1000D21C384B995C3B4A1078FEF7FFFE39498E
:106B20000870344A9278121D324B995C354A50787D
:106B3000FEF7F4FE334948702F498C8BE11704EBC4
:106B400011710911A4EB01112F4B03EBC11029495D
:106B500089784A1F27490831FDF77BFC26498A8B33
:106B6000098B491E8A4209D02349888BC11700EB43
:106B700011710911A0EB01110F2911D11E494FF418
:106B80000062C868204903F06DFF1B48C06800F52B
:106B900000601949C8604FF400611B48FDF7D0FC44
:106BA0001548828B01219B20FFF7FCFE13490870DA
:106BB000084600E00DE00178114801F0DFF80E48CA
:106BC000818B008B401E814213D104200A498870BA
:106BD0000FE00020084988700846828B00219B2026
:106BE000FFF7E0FE0549087008460178044801F007
:106BF000C5F810BD40080020A01700209604002012
:106C000090170020980400204009002010B51E486D
:106C1000807818B11C488078012826D11B4840791B
:106C2000012814D119488079012810D116484278DA
:106C300001219820FFF796FE154908700846017853
:106C4000144801F09BF801200F4988701AE00E48A3
:106C5000427800219820FFF785FE0D49087008460C
:106C600001780C4801F08AF80CE0074842780021CE
:106C70009820FFF777FE0649087008460178054816
:106C800001F07CF810BD0000A01700204008002093
:106C900096040020901700200A480068B0F5D06FD5
:106CA00009D0B0F5D26F07D0B0F5D46F05D0B0F5EC
:106CB000D66F04D102E003E002E001E000E000BF93
:106CC00000BF70475411002023480068A0F28120C3
:106CD00030B1102812D020281ED0302838D129E019
:106CE0001D48407C012802D11C49087402E00020A4
:106CF0001A49087401201949C8732AE01648407CD3
:106D0000012802D11549087402E0002013490874D3
:106D100002201249C8731CE00F48407C012802D1B0
:106D20000E49087402E000200C49087403200B4946
:106D3000C8730EE00848407C012802D10749087456
:106D400002E000200549087404200449C87300E0EB
:106D500000BF00BF7047000054110020D415002070
:106D600012480068A0F2827030B1102809D02028A3
:106D70000DD0302817D110E001200D4988734873D9
:106D800012E001200A498873022048730CE00120B8
:106D9000074988730320487306E00120044988737B
:106DA0000420487300E000BF00BF7047541100206A
:106DB000D415002010B54248807801286ED1414892
:106DC00080793F494978884210D000203C4988703A
:106DD0000846427800219920FFF7C4FD3A4908701F
:106DE00008460178394800F0C9FF67E03548C079A6
:106DF00000063449097A40EA01403249497A40EABA
:106E000001203049897A08432D4908612D48007BCB
:106E10002C49C97A40EA0120294908830846007CA8
:106E200000F07F0028B90846008AC0F3C7104883E5
:106E300007E02348008A012101EBD010C0B22049AD
:106E400048831F480069B0F5C03F05D81C48008B37
:106E50001B49498B884210D0002019498870084688
:106E6000427800219920FFF77DFD174908700846F8
:106E70000178164800F082FF20E011484278012195
:106E80009920FFF76FFD10490870084601780F48F8
:106E900000F074FF02200A4988700FE000200849C2
:106EA00088700846427800219920FFF75BFD06496B
:106EB000087008460178054800F060FF10BD00002A
:106EC000A017002040080020960400209017002002
:106ED00010B54048807802286AD13F48407901289F
:106EE00005D13D4880793B494978884210D000203F
:106EF000384988700846427800219A20FFF732FD11
:106F00003649087008460178354800F037FF5FE0E1
:106F1000304880682F49C860FF20324908704870A7
:106F20002D48C07900062C49097A40EA01402A49D7
:106F3000497A40EA01202849897A0843254948616D
:106F40002548007B2449C97A40EA01202149488329
:106F5000084640690969884205D11E48408B1D4991
:106F6000098B884210D000201A4988700846427860
:106F700000219A20FFF7F6FC1849087008460178AE
:106F8000174800F0FBFE23E0012017490870114864
:106F9000427801219A20FFF7E5FC10490870084665
:106FA00001780F4800F0EAFE03200A4988700FE0DC
:106FB0000020084988700846427800219A20FFF78F
:106FC000D1FC0649087008460178054800F0D6FE55
:106FD00010BD0000A01700204008002096040020EB
:106FE000901700209804002097040020344800687F
:106FF000A0F2837030B1102812D0202820D0302881
:107000003ED12DE02F48007840F001002D49087056
:107010002B48407C2C49097808432B49087030E004
:107020002848007840F00200264908702448407C37
:1070300040062549097841EA10602349087020E09C
:107040002048007840F004001E4908701C48407C2D
:1070500080061D49097841EA10601B49087010E05C
:107060001848007840F00800164908701448407C21
:10707000C0061549097841EA10601349087000E01C
:1070800000BF00BF0E48C07B0E490978884215D169
:107090000B48C07B0C490978884203D101200B4979
:1070A000087302E000200949087306480078074980
:1070B000C872002003490870034908707047000037
:1070C000541100204400002045000020D415002069
:1070D00015480068A0F2817030B110280BD020282C
:1070E00010D030281CD114E00F48407C0F49887222
:1070F0000120487215E00C48407C0C49887202203F
:1071000048720EE00848407C0849887203204872A3
:1071100007E00548407C054988720420487200E079
:1071200000BF00BF7047000054110020D41500209C
:107130002D480068A0F2836030B110284ED020287E
:107140004DD030284DD14BE02748C07A012818D1C6
:10715000264988762448007B01280ED12248407BAE
:10716000012803D02048407B022806D11E48017B1D
:107170001E4801770121C1762FE000211B48C1760E
:107180002BE01948C07A022827D1012017498876B8
:107190001548007B01281AD10846017F1248407B20
:1071A000814214D101211148C1760F48C17B807BF7
:1071B00041EA00200D49C8830B48417C007C41EA2C
:1071C00000200A49088400210848418402E0002187
:1071D0000648C17600210548017703E002E001E09E
:1071E00000E000BF00BF704754110020FE150020D2
:1071F00010B585B029484079002845DD27484079F9
:10720000052841DA25484079012804D140F203607D
:107210002349086019E021484079022804D140F24E
:1072200013601F49486110E01C484079032804D1CD
:1072300040F223601A49886207E018484079042820
:1072400003D140F233601649C8631448407B1349A8
:10725000097B124AD27A114B9B7ACDE90132CDE9F2
:1072600003100E48407A0D4C0090237AE279A17900
:107270006479641EE0B202F091FB01220748407974
:10728000401E08490A5406E000210748C176034819
:1072900040790549887605B010BD0000200800201F
:1072A0004017002034160020FE15002061480068B9
:1072B000A0F2826030B1102831D020285CD0302874
:1072C00072D187E05B48807C012827D15948407CF7
:1072D00001280FD1584857490B310A68C260898884
:1072E0000182564890F8250040F00100534981F88A
:1072F000250013E04F48407C02280FD14E484D49ED
:107300000B310A68C0F812208988C1824B4890F876
:10731000250040F00200494981F8250088E04548F1
:10732000807C012827D14348407C01280FD1424866
:1073300040490B310A688261898881833F4890F80F
:10734000260040F001003D4981F8260013E039484D
:10735000407C02280FD1384836490B310A68C0F802
:107360001E2089884184354890F8260040F00200AC
:10737000324981F826005BE02E48807C012828D124
:107380002C48407C012810D12B482A490B310A682F
:10739000426289880185294890F8270040F0010061
:1073A000264981F8270014E041E02248407C022869
:1073B0000FD121481F490B310A68C0F82A2089885B
:1073C000C1851E4890F8270040F002001B4981F853
:1073D00027002DE01748807C012827D11548407CE4
:1073E00001280FD1144813490B310A6802638988B8
:1073F0008186124890F8280040F001000F4981F87A
:10740000280013E00B48407C02280FD10A480949A4
:107410000B310A68C0F8362089884187074890F800
:10742000280040F00200054981F8280000E000BF74
:1074300000BF70475411002098150020D41500207B
:1074400010B518484079012803D116484079012821
:107450000DD01548427800219D20FFF783FA13498B
:10746000087008460178124800F088FC19E00E48C0
:10747000427801219D20FFF775FA0C4908700846F3
:1074800001780B4800F07AFC074880680649C8601C
:1074900000208870FF2007490870487000200649C6
:1074A000087010BD40080020A0170020960400209E
:1074B00090170020980400209704002010B52D4854
:1074C0008078042848D12C48407901280DD02948DB
:1074D000427800219C20FFF745FA284908700846A9
:1074E0000178274800F04AFC43E023488079254989
:1074F0000978884205D12048C079224949788842D4
:107500000DD01C48427800219C20FFF72BFA1B4924
:107510000870084601781A4800F030FC29E0154848
:1075200040781449887701221E31174803F09AFAEF
:107530001048427801219C20FFF714FA0F49087087
:10754000084601780E4800F019FC4FF47A7003F0F9
:1075500099F9FFF7D1F90CE00648427800219C2008
:10756000FFF700FA0549087008460178044800F062
:1075700005FC10BDA0170020400800209604002044
:107580009017002098040020003800082648006862
:10759000A0F2816030B1102813D0202821D03028EB
:1075A0003ED12DE02048407C012809D11F481E49CA
:1075B0000B310A6802608988818001201C4948706B
:1075C0002FE01948407C01280AD1184816490B3190
:1075D0000A68C0F806208988418101201449887012
:1075E0001FE01148407C012809D110480E490B3199
:1075F0000A68C2608988018201200D49C87010E0C4
:107600000948407C01280AD1084807490B310A681B
:10761000C0F812208988C18201200549087100E064
:1076200000BF00BF704700005411002080150020EB
:10763000D41500202DE9F04105460E461C48076888
:107640001C480068001D03F025F850B9194800686F
:1076500090F82C100120884017490968814316488A
:107660000160681C38B936B112480168091D134819
:1076700003F04EF81AE07C190E4800684460BC42E2
:1076800007D20C480168091D0D48006803F026F870
:107690000CE008480168091D0A48006803F01EF85C
:1076A00009480068844201D207480460BDE8F081BF
:1076B000B8040020A4040020BC0400207420002092
:1076C000AC040020A8040020D404002010B5044617
:1076D00003F02AF823480068401C22490860224829
:1076E000006840B9204804600846006801280DD1B0
:1076F00000F01EF90AE01D48006838B91A48006811
:10770000C06AE16A884201D81748046018480068D6
:10771000401C1749086094F82C1001208840154936
:107720000968084313490860E16A01EB8101124AC4
:1077300002EB8100211D02F0EBFF03F01FF80B4864
:10774000006868B108480068C06AE16A884207D2E8
:107750004FF0805009490860BFF34F8FBFF36F8F20
:1077600010BD0000B4040020A4040020C0040020C8
:10777000D0040020BC040020C01F002004ED00E065
:1077800010B516E002F0D0FF0C48C068C468201D98
:1077900002F080FF0A480068401E09490860094855
:1077A0000068401E0749086002F0E8FF204600F02C
:1077B0000BF8044800680028E4D110BD60200020C8
:1077C000B4040020B004002010B50446206B02F081
:1077D000F3FF204602F0F0FF10BD000030B54FF47B
:1077E000A043174800F007042CB1C01D20F007008B
:1077F000134C041B1B1B0246124C22600024114D2B
:107800006C60D018083820F007000F4C206000246E
:107810000D4D2D686C600C4D2D682C601146441A7E
:107820004C60094C24680C60084D4C682C60084D75
:107830004C682C604FF00044064D2C6030BD0000B9
:1078400088200020E8040020F0040020F804002034
:10785000F40400200405002000BFFFF791FF064854
:1078600000680128F9D94FF0805004490860BFF33F
:107870004F8FBFF36F8FF0E7C01F002004ED00E0D3
:107880002DE9FF5F81460E469246DDE90E7B109C96
:10789000AAF10100216B01EB800828F0070808F02D
:1078A000070008B9012000E0002050B900BF1020F7
:1078B00080F31188BFF34F8FBFF36F8F00BF00BFFE
:1078C000FEE786B1002507E0715D04F13400415503
:1078D000705D00B902E06D1C102DF5D300BF0021D2
:1078E0004320015502E0002084F83400052F00D326
:1078F0000427E762201D02F0EEFE04F1180002F0FA
:10790000EAFE2461C7F10500A061646200206064A2
:1079100084F8480049464046039A00F05FF9206029
:10792000BBF1000F01D0CBF80040BDE8FF9F000085
:1079300010B5002407E004EB84010F4A02EB81003C
:1079400002F0BCFE641C052CF5D30C4802F0B6FE18
:107950000B4802F0B3FE0B4802F0B0FE0A4802F0FA
:10796000ADFE0A4802F0AAFE04480949086004482E
:107970000849086010BD0000C01F0020242000201E
:10798000382000204C20002060200020742000209F
:10799000A8040020AC04002010B50146164800E001
:1079A000006803688B42FBD30246436813448B4252
:1079B00004D143684C682344436001460A464B683F
:1079C00013440468A34211D10C4C03682468A342F9
:1079D00008D04B680468646823444B6003681B68E4
:1079E0000B6005E0054B1B680B6001E003680B6052
:1079F000884200D0016010BDE8040020F00400209F
:107A000009480068006808B9012000E0002020B1A2
:107A10004FF0FF300549086005E003480068C06882
:107A20000068024908607047A8040020D4040020C0
:107A30000E480068401C08B9012000E0002050B941
:107A400000BF102080F31188BFF34F8FBFF36F8FFB
:107A500000BF00BFFEE700BF102080F31188BFF316
:107A60004F8FBFF36F8F00BF00BFFEE70C050020F4
:107A70002DE9F04104464FF0000802F079FF51482B
:107A8000006808B9FFF7AAFE4F48006820400028A8
:107A90007ED13CB304F10800A04223D9083404F09D
:107AA000070000B304F00700C0F108002044A04222
:107AB00016D904F00700C0F10800044404F00700E0
:107AC00008B9012000E0002068B900BF102080F351
:107AD0001188BFF34F8FBFF36F8F00BF00BFFEE76A
:107AE000002400E00024002C54D038480068844270
:107AF00050D8374E3046056801E02E462D6868683C
:107B0000A04202D228680028F7D12E48006885429A
:107B100040D0306800F10808286830606868001BB1
:107B2000102819D92F1907F0070008B9012000E023
:107B3000002050B900BF102080F31188BFF34F8F91
:107B4000BFF36F8F00BF00BFFEE76868001B78605F
:107B50006C603846FFF720FF1C4968680968081AFE
:107B60001A490860084600681A490968884203D221
:107B7000164800681749086013496868096808438F
:107B800068600020286014480068401C124900E02A
:107B900000E0086003F024F908F0070008B90120AC
:107BA00000E0002050B900BF102080F31188BFF31F
:107BB0004F8FBFF36F8F00BF00BFFEE74046BDE8A9
:107BC000F0810000F004002004050020F4040020EF
:107BD000E8040020F8040020FC040020001F4FF0FF
:107BE00080730360001F21F001030360001F034B3B
:107BF000036014380260203870470000317A0008B2
:107C000038B51548008840F2FF31884220DA002458
:107C100011E02002282190FBF1F00F490978084477
:107C2000C5B22846FCF73CFD01460090204600F016
:107C300017F8601CC4B2282CEBDB4FF470710748B6
:107C400001F07EFC04480088401C0349088002E0E3
:107C500000200149088038BD8A0400208D110020D1
:107C600013B50246282A00DD1CBD002012E09DF855
:107C70000410C0F107040123A340194009B1FC21FD
:107C800000E0C02102EB42031B4C04EBC303195478
:107C9000411C88B20728EADD082012E09DF8051093
:107CA000C0F10F040123A340194009B1FC2100E0F9
:107CB000C02102EB4203104C04EBC3031954411CD6
:107CC00088B20F28EADD102012E09DF80610C0F1FE
:107CD00017040123A340194009B1FC2100E0C02191
:107CE00002EB4203044C04EBC3031954411C88B259
:107CF0001728EADD00BFB7E78D11002013B5072074
:107D000037E09DF80020C0F107031A4102F001029C
:107D10000AB1FC2200E0C02201EB410300EBC303E7
:107D2000154CE2549DF80120C0F107031A4102F0FE
:107D300001020AB1FC2300E0C02301EB410400F181
:107D4000080202EBC4020C4CA3549DF80220C0F1BF
:107D500007031A4102F001020AB1FC2300E0C0232C
:107D600001EB410400F1100202EBC402024CA354E7
:107D7000401E0028C5DA1CBDB100002070B50646C3
:107D80000D4602E0022002F07DFD21480078012826
:107D9000F8D001201E490870802D37DA80211D4857
:107DA000FCF7CEFB002404E0305D1A490855601C46
:107DB000C4B2AC42F8DB174880F8825114E000BF2F
:107DC0008021154802F028FB0028F9D0114890F8CE
:107DD000802190F88001401C0E4B83F880011846EA
:107DE000815C0D4802F006FB0A4890F880010949C1
:107DF00091F882118842E2DB0020064981F8800177
:107E0000052002F03FFD00200149087070BD000010
:107E1000300000209C0600200044004070B505465C
:107E200080212348FCF78CFB552021490870AA20AB
:107E30004870042088700220C87008200871002053
:107E400048711C48007E887108468178C01CFDF787
:107E500049FD0446200A1649C8710C72092081F8B0
:107E6000820114E000BF8021134802F0D5FA0028F7
:107E7000F9D00F4890F8802190F88001401C0C4BFD
:107E800083F880011846815C0B4802F0B3FA084879
:107E900090F88001064991F882118842E2DB0020C7
:107EA000034981F88001052002F0ECFC70BD000060
:107EB00018050020D41500200038014070B5054693
:107EC00080212348FCF73CFB552021490870AA205B
:107ED0004870042088700220C870072008710020B4
:107EE00048711C48807D887108468178C01CFDF768
:107EF000F9FC0446200A1649C8710C72092081F861
:107F0000820114E000BF8021134802F085FA0028A6
:107F1000F9D00F4890F8802190F88001401C0C4B5C
:107F200083F880011846815C0B4802F063FA084828
:107F300090F88001064991F882118842E2DB002026
:107F4000034981F88001052002F09CFC70BD00000F
:107F500018050020D41500200038014070B50546F2
:107F600080212548FCF7ECFA552023490870AA2007
:107F70004870042088700220C870112008710F2DED
:107F800001D1002000E028461B4948711B48007AB7
:107F9000887108468178C01CFDF7A4FC0446200ABD
:107FA0001549C8710C72092081F8820114E000BFE4
:107FB0008021134802F030FA0028F9D00E4890F8DA
:107FC000802190F88001401C0B4B83F880011846FB
:107FD000815C0B4802F00EFA074890F880010649D0
:107FE00091F882118842E2DB0020034981F8800188
:107FF000052002F047FC70BD18050020D4150020B4
:108000000038014070B5054680212548FCF798FAF4
:10801000552023490870AA20487004208870022047
:10802000C870102008710F2D01D1002000E02846F3
:108030001B4948711B488079887108468178C01CAB
:10804000FDF750FC0446200A1549C8710C7209203E
:1080500081F8820114E000BF8021134802F0DCF9AE
:108060000028F9D00E4890F8802190F88001401C3B
:108070000B4B83F880011846815C0B4802F0BAF97B
:10808000074890F88001064991F882118842E2DBA6
:108090000020034981F88001052002F0F3FB70BD48
:1080A00018050020D4150020003801402DE9F041CA
:1080B00005460E46174602E0022002F0E3FB284880
:1080C00000780128F8D00120254908708021254832
:1080D000FCF736FA552023490870AA20487006207C
:1080E00088700220C8700B20087100204871084673
:1080F0008571C67107728178C01CFDF7F3FB0446D9
:10810000200A184948728C720B2081F8820114E011
:1081100000BF8021144802F07FF90028F9D01148EF
:1081200090F8802190F88001401C0E4B83F880016C
:108130001846815C0C4802F05DF90A4890F880010D
:10814000084991F882118842E2DB0020054981F854
:10815000800103490870052002F094FBBDE8F0811E
:10816000300000209C0600200044004070B5054609
:1081700080212548FCF7E4F9552023490870AA20FE
:108180004870042088700220C870032008710F2DE9
:1081900001D1002000E028461B4948711B48807A25
:1081A000887108468178C01CFDF79CFB0446200AB4
:1081B0001549C8710C72092081F8820114E000BFD2
:1081C0008021134802F028F90028F9D00E4890F8D1
:1081D000802190F88001401C0B4B83F880011846E9
:1081E000815C0B4802F006F9074890F880010649C7
:1081F00091F882118842E2DB0020034981F8800176
:10820000052002F03FFB70BD18050020D4150020AA
:108210000038014070B5054680212348FCF790F9ED
:10822000552021490870AA20487004208870022037
:10823000C87006200871002048711C48007D8871B4
:1082400008468178C01CFDF74DFB0446200A1649FC
:10825000C8710C72092081F8820114E000BF8021EE
:10826000134802F0D9F80028F9D00F4890F880217F
:1082700090F88001401C0C4B83F880011846815C0B
:108280000B4802F0B7F8084890F88001064991F8C9
:1082900082118842E2DB0020034981F88001052039
:1082A00002F0F0FA70BD000018050020D41500207F
:1082B0000038014070B5054680212548FCF740F99B
:1082C000552023490870AA20487004208870022095
:1082D000C8700A2008710F2D01D1002000E0284647
:1082E0001B4948711B48C07A887108468178C01CB8
:1082F000FDF7F8FA0446200A1549C8710C720920E6
:1083000081F8820114E000BF8021134802F084F854
:108310000028F9D00E4890F8802190F88001401C88
:108320000B4B83F880011846815C0B4802F062F821
:10833000074890F88001064991F882118842E2DBF3
:108340000020034981F88001052002F09BFA70BDEE
:1083500018050020D41500200038014070B50546EE
:1083600080212348FCF7ECF8552021490870AA2009
:108370004870042088700220C87005200871002011
:1083800048711C48807C887108468178C01CFDF7C4
:10839000A9FA0446200A1649C8710C72092081F80E
:1083A000820114E000BF8021134802F035F8002854
