:020000040800F2
:10000000407D0020E502000881090008570900082A
:100010007D090008DD060008950A000800000000C0
:100020000000000000000000000000004D02000879
:100030005509000800000000910200088509000829
:10004000FF020008FF020008FF020008FF0200088C
:10005000FF020008FF020008FF020008FF0200087C
:10006000FF020008FF020008FF020008FF0200086C
:10007000FF020008FF020008FF020008FF0200085C
:10008000FF020008FF020008FF020008FF0200084C
:10009000E1060008FF02000865070008FF020008EB
:1000A000FF020008FF020008FF020008FF0200082C
:1000B000FF020008FF020008FF0200086D090008A7
:1000C0005D090008FF020008FF020008FF020008A7
:1000D000FF020008FF020008550A0008FF0200089E
:1000E000FF020008FF020008FF02000800000000F5
:1000F0000000000000000000000000000000000000
:1001000000000000FF020008FF02000800000000DD
:10011000FF020008FF0200080000000000000000CD
:10012000FF020008FF020008FF020008FF020008AB
:1001300000000000000000000000000000000000BF
:10014000000000000000000000000000FF020008A6
:100150000000000000000000FF020008FF0200088D
:10016000000000000000000000000000FF02000886
:1001700000F002F800F05AF80AA090E8000C82445F
:100180008344AAF10107DA4501D100F04FF8AFF23C
:10019000090EBAE80F0013F0010F18BFFB1A43F065
:1001A00001031847306D0000506D00000A444FF005
:1001B000000C10F8013B13F0070408BF10F8014BC6
:1001C0001D1108BF10F8015B641E05D010F8016B0B
:1001D000641E01F8016BF9D113F0080F1EBF10F86F
:1001E000014BAD1C0C1B09D16D1E58BF01F801CB92
:1001F000FAD505E014F8016B01F8016B6D1EF9D515
:100200009142D6D370470000002300240025002629
:10021000103A28BF78C1FBD8520728BF30C148BF69
:100220000B6070471FB51FBD10B510BD00F010FA70
:100230001146FFF7F7FF03F0D5FB00F042FA03B4D5
:10024000FFF7F2FF03BC00F027FC0000224B196807
:100250000868B0E8F00F80F30988BFF36F8F4FF0A4
:10026000000080F311884EF00D0E70470000000072
:1002700006480068006880F3088862B661B6BFF37C
:100280004F8FBFF36F8F00DF00BF00BF08ED00E0AE
:10029000EFF30980BFF36F8F0F4B1A6820E9F00F5F
:1002A000106008B54FF0100080F31188BFF34F8F36
:1002B000BFF36F8F05F068FB4FF0000080F31188EB
:1002C000BDE8084019680868B0E8F00F80F30988B5
:1002D000BFF36F8F704700BF8C020020EFF30580E3
:1002E000704700000948804709480047FEE7FEE7DD
:1002F000FEE7FEE7FEE7FEE7FEE7FEE7FEE7FEE7D6
:1003000004480549054A064B70470000B909000832
:100310007101000840770020407D002040790020D6
:1003200040790020704753EA020C00F069802DE903
:10033000F04B4FF00006002B1FBFB3FA83F503FA12
:1003400005F424FA05F65E4012BF1643B2FA82F5B0
:1003500002FA05F4C5F120051EBF22FA05FC44EAA5
:100360000C04203556EA044C4FEA144418BF641CB0
:100370004FF000084FF00009904271EB030C39D3A5
:10038000002919BFB1FA81F701FA07F6B0FA80F730
:1003900000FA07F6C7F120071EBF20FA07FC46EA5D
:1003A0000C062037B6FBF4FCA7EB0507103F07F05F
:1003B0001F0BCBF120060CFA0BFB2CFA06F644BF00
:1003C000B3460026202FA4BF5E464FF0000B5BEA29
:1003D000060C08BF4FF0010B19EB0B09ABFB027CBD
:1003E00048EB0608C01B06FB02CC0BFB03CC71EBF1
:1003F0000C01C1E70B46024641464846BDE8F08B7A
:1004000013B54FF000004FF00001AFF30080BDE8DE
:100410001C4070470FB4044910B503AA029800F0BD
:10042000E9F810BC5DF814FB7C02002010B5431CF9
:1004300002E010F8011B71B18107FAD14FF00132CF
:1004400002C88C1A8C4314EAC211F9D0C01A0A06E9
:1004500003D0C01E10BDC01A10BD0A0401D0801EFA
:1004600010BD0902FCD0401E10BD032A40F23080AE
:1004700010F0030C00F0158011F8013BBCF1020FE5
:10048000624498BF11F801CB00F8013B38BF11F866
:10049000013BA2F1040298BF00F801CB38BF00F87D
:1004A000013B11F0030300F02580083AC0F00880FA
:1004B00051F8043B083A51F804CBA0E80810F5E7DE
:1004C000121D5CBF51F8043B40F8043BAFF30080C1
:1004D000D20724BF11F8013B11F801CB48BF11F836
:1004E000012B24BF00F8013B00F801CB48BF00F806
:1004F000012B704710B5203AC0F00B80B1E81850BE
:10050000203AA0E81850B1E81850A0E81850BFF4FD
:10051000F5AF5FEA027C24BFB1E81850A0E818509C
:1005200044BF18C918C0BDE810405FEA827C24BFF0
:1005300051F8043B40F8043B08BF7047D20728BF7E
:1005400031F8023B48BF11F8012B28BF20F8023BCD
:1005500048BF00F8012B70474FF000020429C0F09B
:10056000128010F0030C00F01B80CCF1040CBCF1E5
:10057000020F18BF00F8012BA8BF20F8022BA1EB37
:100580000C0100F00DB85FEAC17C24BF00F8012B1C
:1005900000F8012B48BF00F8012B70474FF0000214
:1005A00000B5134694469646203922BFA0E80C5069
:1005B000A0E80C50B1F12001BFF4F7AF090728BF44
:1005C000A0E80C5048BF0CC05DF804EB890028BFC0
:1005D00040F8042B08BF704748BF20F8022B11F0E9
:1005E000804F18BF00F8012B704770477047704765
:1005F00070470000074B70B50D467B4400F011F8C2
:100600000446284600F020F810B14FF0FF3070BDCE
:10061000204670BDAB1B000001694A1C02610878CE
:10062000704700B58FB0CDE9013100210591054932
:100630007944CDE903101146684600F02EF80FB05A
:1006400000BD0000E5FFFFFF007B00F08000704769
:10065000754600F03FF8AE4605006946534620F067
:100660000700854618B020B5FFF74AFEBDE82040D8
:100670004FF000064FF000074FF000084FF0000B5E
:1006800021F00701AC46ACE8C009ACE8C009ACE811
:10069000C009ACE8C0098D4670472DE9F041064617
:1006A0000024D6E90170F5688046304603E04146F3
:1006B000B847641C3046A8470028F8D12046BDE85A
:1006C000F08110B50446AFF300802046BDE810402D
:1006D000FFF7B5BD00487047E076002000BFFEE799
:1006E00000B585B00921194800F0E2FBF8B10921F5
:1006F000164800F09FFB6A460021144800F0A5FC54
:100700000098FF281FD90098B0F5006F1BD2104940
:10071000C98A009888420BD10E48007838B9012068
:100720000C490870142269460B48FFF7E3FE0AE003
:100730000A48007838B9012008490870142269462F
:100740000748FFF7D7FE05B000BD00000064004079
:10075000C005002061000020380400206000002057
:100760002404002008B5002000900421074800F070
:100770009FFB50B105481830006800F070000090F1
:100780000421024800F056FB00BF08BD0064004091
:100790002DE9FE4F8246CAF1FF0ABAF1550F43DA3E
:1007A0006A48007805F060FE06460022684B05F0B6
:1007B000BFFC04460D460AEB4A01C1F1FF0005F0FB
:1007C0003CFE804622462B4605F062FECDE9000144
:1007D00005F006FEC0B28DF8090000208DF8080073
:1007E0005A48007805F040FE80460022584B05F03C
:1007F0009FFC04460D460AEB4A0005F01EFE064625
:1008000022462B4605F044FECDE9000105F0E8FD47
:10081000C0B28DF80A00BDF8081008469DF80A100D
:1008200040EA0140BDE8FE8FBAF1AA0F46DAAAF10C
:10083000550000F0FF0A00208DF8090043480078B9
:1008400005F012FE0022424BCDE9000105F070FCDC
:1008500004460D460AEB4A0005F0EFFD0646224627
:100860002B4605F015FE804605F0BAFDC0B28DF8A6
:1008700008003648007805F0F7FD80460022344B2A
:1008800005F056FC04460D460AEB4A01C1F1FF0093
:1008900005F0D3FD064622462B4605F0F9FDCDE9CD
:1008A000000105F09DFDC0B28DF80A00BDF80810EA
:1008B00008469DF80A1040EA0140B3E7AAF1AA00F1
:1008C00000F0FF0A2148007805F0CEFD0646002220
:1008D0001F4B05F02DFC04460D460AEB4A0005F0BF
:1008E000ACFD804622462B4605F0D2FDCDE9000145
:1008F00005F076FDC0B28DF809001448007805F0C7
:10090000B3FD06460022124B05F012FC04460D46CC
:100910000AEB4A01C1F1FF0005F08FFD8046224637
:100920002B4605F0B5FDCDE9000105F059FDC0B23B
:100930008DF8080000208DF80A00BDF80810084660
:100940009DF80A1040EA01406CE70000CF0000204B
:1009500000005940704700BFFEE7000010B5024894
:1009600001F0EAFE10BD0000A403002010B502480B
:1009700001F03AFF10BD0000A403002000BFFEE715
:100980007047000010B500BF102080F31188BFF33E
:100990004F8FBFF36F8F00BF05F0A4FA18B14FF06F
:1009A00080500449086000BF002080F3118800BF18
:1009B00010BD000004ED00E02248C06920F0805026
:1009C00000F180501F49C8611F48007840F00400C2
:1009D0001D49503981F850001A48C06920F08050F4
:1009E0001849C8610846006820F00100401C0860F2
:1009F00000BF14480068C0F340000028F9D0114837
:100A0000406820F003000F49486000BF0D4840686F
:100A1000C0F381000028F9D10A4800680B4908405A
:100A2000084908600020486041F61070C8624FF421
:100A3000801008634FF41F008860C80304490860F1
:100A4000704700000010024050700040FFFFF2FEAF
:100A500008ED00E010B520210C4804F028FD80B11D
:100A60000A4804F017FDC1B2094890F8812090F8B7
:100A70008100401C064B83F8810003F14000815443
:100A800000BF8021014804F012FD10BD0044004069
:100A90000003002000BFFEE700BF704730B50246EC
:100AA00000200023146824F002041460146824F069
:100AB0000104641C146000E05B1C546804F0010431
:100AC0001CB94FF6FF74A342F6D1546804F0010438
:100AD000002C3FD04D78146865F3C71414608D78EE
:100AE000146865F386141460CD78146865F34514B2
:100AF00014600D79146865F3041414604D7914685A
:100B000065F3C30414608D79146865F3820414607E
:100B10000C78D56964F39E75D5610C786508D46945
:100B200065F3DF74D461146824F0010414600023B9
:100B300000E05B1C546804F001041CB14FF6FF7424
:100B4000A342F6D1546804F001040CB1002002E085
:100B5000012000E0002030BD30B502460020002317
:100B6000146824F002041460146824F00104641C66
:100B7000146000E05B1C546804F001041CB94FF6DB
:100B8000FF74A342F6D1546804F001045CB30C88EE
:100B9000641ED56964F30B05D5618D78D46965F35E
:100BA0001964D461CD78D46965F31344D4610D79A7
:100BB000D46965F31654D461146824F001041460F8
:100BC000002300E05B1C546804F001041CB14FF6E4
:100BD000FF74A342F6D1546804F001040CB1002064
:100BE00002E0012000E0002030BD000000B589B027
:100BF0000121304801F018F807A800F05FF8002044
:100C00008DF81C008DF81D0001208DF81E008DF858
:100C10001F0000208DF820008DF821008DF82200A3
:100C200007A92548FFF73AFF1220ADF8140000206D
:100C30008DF8160005208DF8170000208DF818009B
:100C400005A91D48FFF788FF01208DF8040000204A
:100C50008DF805008DF806008DF8070001208DF84D
:100C600008000020ADF80A00ADF80C00ADF80E0049
:100C7000ADF8100001A9104800F029F80022114633
:100C8000162003F057F800221146142003F052F802
:100C900001220221084800F0CFF90122D1020648C2
:100CA00000F0CAF90122D103034800F0C5F909B0E8
:100CB00000BD000019001C000064004000214170CC
:100CC0008170C1700171417181710170704730B5DF
:100CD0000022CC78012303FA04F2D0F8003223F08A
:100CE00001035B1CC0F80032D0F81C329343C0F8FB
:100CF0001C320B7913B1012B5AD12CE0D0F80C32F5
:100D00009343C0F80C328B891C04CD7800F5107326
:100D100043F83540CC7853F834300C892343CD78F0
:100D200000F5107444F835304B891C04CD7800F57B
:100D3000107303EBC5035C60CC7800F5107303EB14
:100D4000C4035B68CC882343CD7800F5107404EBB2
:100D5000C50463602DE0D0F80C321343C0F80C32A8
:100D6000CB881C04CD7800F5107343F83540CC785F
:100D700053F834300C892343CD7800F5107444F8CF
:100D800035304B891C04CD7800F5107303EBC50397
:100D90005C60CC7800F5107303EBC4035B688C894E
:100DA0002343CD7800F5107404EBC504636000E0C4
:100DB00000BF00BF4B7813B1012B0CD105E0D0F878
:100DC00004329343C0F8043206E0D0F804321343EF
:100DD000C0F8043200E000BF00BF8B7813B1012BD4
:100DE0000CD105E0D0F814329343C0F8143206E079
:100DF000D0F814321343C0F8143200E000BF00BF33
:100E00000B783BB1012B0BD1D0F81C321343C0F847
:100E10001C3206E0D0F81C329343C0F81C3200E0CC
:100E200000BF00BFD0F8003223F00103C0F8003249
:100E300030BD0000122935D2DFE801F034090A0B79
:100E40000F0C14171B341F223425282B2E3100BF02
:100E500000BF00BF0422426025E00422426000225D
:100E6000826120E0012282601DE04FF48072826086
:100E700019E04FF48032826015E00822C26012E06F
:100E80001022C2600FE0082202610CE01022026111
:100E900009E00822426006E01022426003E0034AB3
:100EA000826000E000BF00BF704700000101010048
:100EB0000246002012296FD2DFE801F06E090D1101
:100EC000151D2125292D35393D45494D515D936924
:100ED00003F0010062E09369C3F340005EE09369B0
:100EE000C3F380005AE09369C3F302130BB10120EE
:100EF00000E0002052E05368C3F380004EE09368A6
:100F000003F001004AE09368C3F3002046E09368D1
:100F1000C3F3004042E0D36803F003030BB10120A8
:100F200000E000203AE0D368C3F3C00036E0D368A5
:100F3000C3F3001032E0136903F003030BB1012087
:100F400000E000202AE01369C3F3C00026E0136923
:100F5000C3F3001022E05368C3F3C0001EE05368DF
:100F6000C3F340031BB95368C3F300130BB1012053
:100F700000E0002012E09368C3F380633BB99368FC
:100F8000C3F3C0631BB99368C3F300730BB10120B3
:100F900000E0002002E0FFE7002000BF00BF704734
:100FA0001CB50121214800F03FFE01214FF4C01083
:100FB00000F03AFE01211E4801F038FB684601F0BE
:100FC000CDFA01208DF8070000208DF804000820DC
:100FD0008DF806008001009004208DF80500694618
:100FE000144801F0C6FA01208DF8070000208DF8A2
:100FF00006004FF48070009018208DF805006946B7
:101000000C4801F0B6FA01210848401C00F00CFE23
:1010100001210648401C00F007FE01210348401C46
:1010200000F002FE684601F099FA1CBD03001800AA
:101030000204002C000C01401AB143690B434361C8
:1010400002E043698B434361704730B505460C4667
:10105000134605F5D87000EB04100068C0F380005B
:101060001872187A10B1012813D107E005F5D8706D
:1010700000EB04100068400D18600BE005F5D87017
:1010800000EB041000686FF0604101EAD000586086
:1010900000E000BF00BF05F5D87000EB0410006849
:1010A000C0F34000587205F5D87000EB041040689A
:1010B00000F00F00987205F5D87000EB041040683E
:1010C000000AD87405F5D87000EB04108068D87257
:1010D00005F5D87000EB04108068010A197305F556
:1010E000D87000EB04108068010C597305F5D870B6
:1010F00000EB04108068010E997305F5D87000EBC1
:101100000410C068D87305F5D87000EB0410C068EF
:10111000010A197405F5D87000EB0410C068010CC1
:10112000597405F5D87000EB0410C068010E99746D
:101130002146284600F09DF830BD10B50246042037
:101140009368C3F380630BB100200CE09368C3F392
:10115000C0630BB1012006E09368C3F300730BB1C9
:10116000022000E0042004287CD002F5C07303EBC9
:1011700000131B6803F0010402F5C07303EB0013B6
:101180001C600C7A02F5C07303EB00131B6864F358
:10119000820302F5C07404EB001423600B7A13B1D0
:1011A000012B1CD10DE00C8802F5C07303EB00137A
:1011B0001B6864F35F5302F5C07404EB00142360F2
:1011C0000EE002F5C07303EB00131B684C6843EAA2
:1011D000C40402F5C07303EB00131C6000E000BF01
:1011E00000BF4C7A02F5C07303EB00131B6864F375
:1011F000410302F5C07404EB001423608B7A02F5FE
:10120000C07404EB0014646863F3030402F5C07354
:1012100003EB00135C608B7B1C064B7B44EA0344AE
:101220000B7B44EA0323CC7A234302F5C07404EB1E
:101230000014A3608B7C1C064B7C44EA03440B7CAB
:1012400044EA0323CC7B234302F5C07404EB00146F
:10125000E36002F5C07303EB00131B6823F0010386
:101260005B1C00E004E002F5C07404EB0014236092
:1012700010BD11B1012906D102E02022C26003E0B5
:101280002022026100E000BF00BF704795E04B489C
:10129000007801281ED14A4800684A49C98A884214
:1012A00015D14748C07B48490978084078B144487F
:1012B000008846490880881C41490B310A68026051
:1012C0004968416001204249487102F059FE0020FE
:1012D0003A4908703F480078012865D13E480068C7
:1012E00038494988884210D13B4800883B490880EA
:1012F000881C39490B310A68026049684160012045
:101300003349087002F0A4FD4BE0334800682D49D2
:10131000C98888420ED13048008831490880881C2D
:101320002D490B310A680260496841600120284953
:10133000C87036E02848006822494989884203D1AC
:101340000120234988702CE0234800681D49C98981
:10135000884210D12048008822490880881C1E49F4
:101360000B310A6802604968416001201849087120
:1013700002F06EFD15E0184800681249498A88425B
:101380000FD11548008818490880881C12490B3174
:101390000A6802604968416001200D49487002F006
:1013A00057FD00200B4908701048006840F01000FD
:1013B0000E490860052004F069FA68E76100002022
:1013C00038040020C0050020620000200C06002028
:1013D0004D0200206000002024040020DA050020D7
:1013E000EE05002002060020E40500203C0200205B
:1013F0000246002021B1012910D002292AD11BE088
:10140000936803F001033BB19368C3F340030BB14E
:10141000012002E0002000E002201DE09368C3F3F9
:1014200000233BB19368C3F340230BB1012002E0DA
:10143000002000E002200FE09368C3F300433BB1BB
:101440009368C3F340430BB1012002E0002000E0A9
:10145000022001E0002000BF00BF704730B585B01A
:1014600000BF29463C48FFF7C3FF0428F9D03B489A
:1014700000880090002001908DF808008DF8090088
:1014800008208DF80A00002439E0354830F81400AF
:101490004FF6FF71884206D1FF210DF10B00015577
:1014A0000120304908552F48005D01280DD12C48F6
:1014B00030F81400002808DD294830F81400B0F591
:1014C000FA6F02DC0020274908552648005DA0B9C4
:1014D000234830F81400B0F5FA6F04DDC8210DF18F
:1014E0000B00015509E01E4830F814000A2190FB5A
:1014F000F1F0C1B20DF10B000155601CC4B2032C18
:10150000C3DB00218DF80E108DF80F108DF8101030
:10151000154801788DF811100078401C12490870A8
:1015200007210DF10B0000F051FE8DF81200694605
:101530000948FFF702FE054600BF29460648FFF7A7
:1015400057FF0128F9D108480078FF2802D1002070
:101550000549087005B030BD00640040C00500209A
:1015600042020020480200206300002030B585B010
:10157000044600BF29462C48FFF73AFF0428F9D05B
:101580002A4880890090012C17D1294800788DF8CD
:101590000B00274841788DF80C1081788DF80D10DC
:1015A000C1788DF80E1001798DF80F1041798DF802
:1015B000101001218DF8111018E0022C16D11C48D2
:1015C00080798DF80B001A48C1798DF80C10017ADA
:1015D0008DF80D10417A8DF80E10817A8DF80F106C
:1015E000C17A8DF8101002218DF8111001218DF8AB
:1015F0001210002001908DF808008DF809000820D5
:101600008DF80A0069460848FFF797FD054600BFB8
:1016100029460548FFF7ECFE0128F9D1052004F022
:1016200035F905B030BD000000640040C005002061
:10163000B405002010B586B000BF21462648FFF74C
:10164000D7FE0428F9D025480089019024488078E5
:1016500001280FD131208DF80F0030218DF81010A6
:1016600031218DF8111032218DF8121001218DF8E1
:1016700015100BE000208DF80F0000218DF81010E0
:101680008DF811108DF812108DF8151000218DF8BD
:1016900013108DF81410002002908DF80C008DF8B6
:1016A0000D0008208DF80E0007210DF10F0000F04D
:1016B0008DFD8DF8160001A90748FFF73EFD044691
:1016C00000BF21460448FFF793FE0128F9D1052009
:1016D00004F0DCF806B010BD00640040C005002036
:1016E000EE0500204AE0FFF7B9FE25480078012802
:1016F00004D100F0C1FB0020214908702048407847
:10170000012804D100F00AFC00201D4948701C4843
:10171000C078012804D1FFF78DFF00201849C87058
:1017200017488078012805D1FFF720FF02201449CF
:10173000887008E012488078022804D1FFF716FF6D
:1017400000200F4988700E480079012804D100F06C
:10175000ADFC00200A49087109484079012804D1EC
:1017600000F02EFC0020064948710648006840F051
:10177000080004490860642004F088F8B3E700001A
:101780004D0200203C0200201CB50121164800F04B
:101790004BFA0121144800F047FA0121124800F0E9
:1017A00043FA684600F0DAFE01208DF807000020B9
:1017B0008DF804008DF8060028208DF805004020E3
:1017C00000906946094800F0D4FE802000906946E8
:1017D000064800F0CEFE4FF4807000906946034842
:1017E00000F0C7FE1CBD00000400180000100140FE
:1017F00010B5044600F012F800E0641E002CFCD185
:101800004FF40061044800F0A5FE4FF480510248F7
:1018100000F0A0FE10BD0000000801401CB5012131
:10182000164800F001FA0121144800F0FDF968465D
:1018300000F094FE01208DF8070000208DF80400D0
:1018400010208DF80600C001009004208DF80500DE
:1018500069460B4800F08DFE4FF4805000906946B9
:10186000074800F086FE4FF40061054800F074FE62
:101870004FF48051024800F06FFE1CBD02001800BA
:10188000000801400349496860F30711014A5160AB
:1018900070470000001002400349496860F30A21C4
:1018A000014A516070470000001002400349496836
:1018B00060F3CD21014A51607047000000100240E2
:1018C000012807D10749496D21F030013031054A1F
:1018D000516505E00349496D21F03001014A516528
:1018E0007047000000100240052827D2DFE800F012
:1018F000030A11181F00134A126861F30002114B0A
:101900001A601CE00F4A126861F310420D4B1A6016
:1019100015E00C4A126861F318620A4B1A600EE077
:10192000084A126A61F30002064B1A6207E0054A90
:10193000526A61F30002034B5A6200E000BF00BF2D
:1019400070470000001002402DE9F04F85B00446BA
:101950000025AA46AB460026A94600200490039025
:101960000290019000F064FA0090009820B10128E4
:1019700012D0022875D112E05648406DC0F34020C5
:1019800038B15448006BC0F3406010B15248206039
:1019900001E05248206067E05048206064E04D4814
:1019A0004068C0F3004B4B48C06AC00F30BB494889
:1019B0004068C0F3834547484068C0F3417ABAF1B4
:1019C000000F01D10F2D04D14FEA0A10401C05442D
:1019D00000E0AD1CBBF1000F03D14148684320601B
:1019E0003DE03C484068C0F3404018B13C48684383
:1019F000206034E039486843206030E03548C06AF0
:101A0000C0F3031003903348C06AC0F3082002906B
:101A10003048C06A00F007000190BBF1000F02D10E
:101A20002F48049009E02B484068C0F3404010B1B3
:101A30002B48049001E0294804900121019801FA03
:101A400000F0039900FB01FC02990498A0FB0170CF
:101A50000146624600233846FEF765FC206003E03D
:101A6000FFE71E48206000BF00BF1A484068C0F36F
:101A700003161C4810F80690206820FA09F06060F0
:101A800014484068C0F30226174810F806906068B2
:101A900020FA09F0E0600F484068C0F3C2261348FE
:101AA00010F80690606820FA09F0A06009484068C4
:101AB000C0F3007607484068C0F3813040EA8606EC
:101AC0000B4810F80690A068B0FBF9F0206105B053
:101AD000BDE8F08F00100240006CDC0200127A00BA
:101AE00000093D00646C0008746C00087C6C000800
:101AF000846C0008324A811A904218D009DCA0F5A3
:101B00000021082959D2DFE801F0222B343D465844
:101B1000584F891E062950D2DFE801F0030405065C
:101B2000070800BF00BF00BF00BF00BF00BF2549BE
:101B3000496A21F0807101F18071224A516200BF2F
:101B40002049496AC1F300610029F9D136E01D49F5
:101B5000896821F4803101F580311A4A91602DE0C5
:101B60001849896821F4003101F50031154A916066
:101B700024E01449896821F4802101F58021114A6B
:101B800091601BE00F49896821F4002101F50021D3
:101B90000C4A916012E00B49896821F4801101F52B
:101BA0008011084A916009E00649896821F4000122
:101BB00001F50001034A916000E000BF00BF7047DB
:101BC000180024000010024010B501460020094B07
:101BD00003EB1142126801F01F040123A3401A40D5
:101BE00001F01F040123A3409A4200D000E001202D
:101BF00010BD00000010024030B50024002500E0B8
:101C0000641C1120FFF7E0FF012802D0B4F5405F0B
:101C1000F6D31120FFF7D8FF012801D0002500E0FE
:101C20000125284630BD000010B501290DD10E4B0D
:101C300003EB1042126800F01F040123A3401A4373
:101C4000094C04EB10431A600CE0074B03EB104205
:101C5000126800F01F040123A3409A43024C04EBD6
:101C600010431A6010BD00000010024010B5012999
:101C70000DD10E4B03EB1042126800F01F0401233C
:101C8000A3401A43094C04EB10431A600CE0074BC5
:101C900003EB1042126800F01F040123A3409A4393
:101CA000024C04EB10431A6010BD0000001002400B
:101CB00030B50246002000233AB9324C646824F45F
:101CC0008034304D6C60304819E02E4C646824F448
:101CD000803404F580342B4D6C60012A06D12B48EA
:101CE0002C46646824F400346C6008E02648254CD7
:101CF000646824F4003404F50034224D6C60244CF4
:101D0000A04204D9234CA04201D2002326E0224C59
:101D1000A04204D9214CA04201D201231EE0204C54
:101D2000A04204D91F4CA04201D2022316E01D4C50
:101D3000A04204D91C4CA04201D203230EE01B4C4C
:101D4000A04204D91A4CA04201D2042306E0184C48
:101D5000A04203D9174CA04200D20523094C646865
:101D600061F39544074D6C600D09064C646865F39A
:101D70005E74044D6C602C46E46A63F31A64EC6292
:101D800030BD00000010024000093D0000127A0042
:101D900060823B00404B4C0080584F00105E5F005B
:101DA00094357700101B7F0020BCBE00286BEE002E
:101DB00030D73D01D8E9DC011648006820F0010069
:101DC000401C1449086000BF12480068C0F340007E
:101DD0000028F9D00F48406820F003000D49486002
:101DE00000BF0C484068C0F381000028F9D10948C1
:101DF000006809490840074908600020486041F62A
:101E00001070C8624FF4801008634FF41F008860A0
:101E10007047000000100240FFFFF2FE03494968CE
:101E200060F30101014A5160704700000010024058
:101E300002484068C0F38100704700000010024073
:101E40000146C8B20A0A9040401C80B27047014661
:101E50000022002369B14A1E02E05208581C83B2D6
:101E600022F0FF000028F8D1104663F31F2080B253
:101E700070470020FCE7704710B586B000BF2146D0
:101E80002348FFF7B5FA0428F9D02248808801904A
:101E900021488078012803D101218DF8151002E036
:101EA00000218DF815101C4880788DF80F001A4815
:101EB000C1788DF8101001798DF8111041798DF8E5
:101EC000121000218DF813108DF8141000200290CC
:101ED0008DF80C008DF80D0008208DF80E000721FC
:101EE0000DF10F0000F072F98DF8160001A90848F5
:101EF000FFF723F9044600BF21460548FFF778FAAB
:101F00000128F9D1052003F0C1FC06B010BD000086
:101F100000640040C0050020DA05002010B586B03E
:101F200000BF21462348FFF763FA0428F9D022486E
:101F3000808A019021488078012803D101218DF801
:101F4000151002E000218DF815101C4880788DF8DE
:101F50000F001A48C1788DF8101001798DF8111012
:101F600041798DF8121000218DF813108DF814109E
:101F7000002002908DF80C008DF80D0008208DF8DF
:101F80000E0007210DF10F0000F020F98DF816006A
:101F900001A90848FFF7D1F8044600BF21460548CB
:101FA000FFF726FA0128F9D1052003F06FFC06B0EF
:101FB00010BD000000640040C0050020E4050020C2
:101FC00010B586B000BF21463448FFF711FA042847
:101FD000F9D03348008B019032488078092823DCFF
:101FE0003048807807280BD12E48C078642803DC5D
:101FF00001218DF815101AE000218DF8151016E05A
:102000002848C07880280BDC26480079802807DC27
:1020100024484079802803DC01218DF8151006E062
:1020200000218DF8151002E000218DF815101D48D3
:1020300080788DF80F001B48C1788DF81010017959
:102040008DF8111041798DF8121081798DF81310E7
:10205000154801788DF81410002002908DF80C00BE
:102060008DF80D0008208DF80E0007210DF10F00EE
:1020700000F0ACF88DF8160001A90848FFF75DF8EC
:10208000044600BF21460548FFF7B2F90128F9D1FF
:10209000052003F0FBFB06B010BD0000006400400B
:1020A000C00500200C0600206200002010B586B09C
:1020B00000BF21463348FFF79BF90428F9D0324886
:1020C000008A019031488078092823DC2F488078E5
:1020D00007280BD12D48C078642803DC01218DF836
:1020E00015101AE000218DF8151016E02748C07869
:1020F00080280BDC25480079802807DC23484079BC
:10210000802803DC01218DF8151006E000218DF8F0
:10211000151002E000218DF815101C4880788DF80C
:102120000F001A48C1788DF8101001798DF8111040
:1021300041798DF8121081798DF81310C1798DF8DD
:102140001410002002908DF80C008DF80D0008206E
:102150008DF80E0007210DF10F0000F037F88DF813
:10216000160001A90748FEF7E8FF044600BF214614
:102170000448FFF73DF90128F9D1052003F086FB5B
:1021800006B010BD00640040C0050020020600201B
:1021900010B50B46002104E004785C54401C4C1C34
:1021A000A1B29142F8DB10BD70B504460D4600BFE8
:1021B0008021054803F07BF90028F9D0A1B202483C
:1021C00003F06CF9204670BD0038014010B502469E
:1021D0000B460024002104E0505C204484B2481CDB
:1021E000C1B29942F8DBE0B210BD00002DE9F04F1A
:1021F00089B0054640F276764FF470774FF4257833
:1022000040F24E2940F2B22AC34640F22620009006
:1022100040F6363407A9284600F034F801AA07A989
:10222000284600F053F89DF81C0018B1049800F2FD
:102230004E2004449DF81E0030B1049800F2B220F4
:10224000022101FB004406E09DF81D0018B104982E
:1022500000F5257004449DF81F0018B1059800F59D
:10226000257004449DF8200018B1069800F226203D
:10227000044403480460204609B0BDE8F08F000024
:102280003000002070B506460C46012231460D484C
:1022900003F024FC01230C4A31460A4802F04EFAAE
:1022A00009480578C5F300102070C5F3C000A07080
:1022B000C5F380006070C5F38010E070E8092071FC
:1022C00070BD0000A40300208403002070B5054603
:1022D0000E4614460021284600F058F82080462279
:1022E0002946284803F0FAFB0123274A29462548B6
:1022F00002F024FA24480078401CA0802178A088AD
:1023000003F068F8E060512229461E4803F0E6FB1E
:1023100002231D4A29461B4802F010FA1A4949783F
:10232000194A127841EA0220FFF78AFDE0802178FD
:10233000E08803F04FF820610121284600F026F8DC
:102340006080712229460F4803F0C8FB02230E4A21
:1023500029460C4802F0F2F90B4949780A4A1278EA
:1023600041EA0220FFF76CFD2081F07818B1208946
:10237000E188401A2081A178208903F02BF8606160
:1023800070BD0000A40300208403002070B5054642
:102390000C4684B950222946114803F09FFB0123C3
:1023A000104A29460E4802F0C9F90E480078401C30
:1023B0004006000E70BD012C10D17022294608483D
:1023C00003F08CFB0123074A2946054802F0B6F9C1
:1023D00004480078401C4006000EEBE7FF20E9E7C8
:1023E000A40300208403002070B504460E46154661
:1023F000012380223146554803F044FC0123FF228B
:102400003146524803F03EFC00231A4631464F48FD
:1024100003F038FC0623FF2231464C4803F032FC1F
:1024200083223146494803F059FB0123484A31468B
:10243000464802F083F94648007840F004038322BE
:102440003146424803F01EFC0723FF2231463F4835
:1024500003F018FC0123812231463C4803F012FCB2
:10246000012380223146394803F00CFC6B2394226F
:102470003146364803F006FC0023832231463348B8
:1024800003F000FC83223146304803F027FB012390
:102490002F4A31462D4802F051F92D48007808B9ED
:1024A000002070BD012383223146284803F0EAFB57
:1024B00092223146254803F011FB0123244A31467C
:1024C000224802F03BF92248007800F07F0020709B
:1024D0001F480078C00928700023812231461B481C
:1024E00003F0D0FB0623FF223146184803F0CAFB55
:1024F00083223146154803F0F1FA0123144A31468C
:10250000124802F01BF91248007820F004038322DD
:1025100031460E4803F0B6FB0123FF2231460B483B
:1025200003F0B0FB012300223146084803F0AAFB68
:102530000023FF223146054803F0A4FB002380223C
:102540003146024803F09EFB0120AAE7A4030020C5
:102550008403002041617047016170474FF6FF71AD
:102560000160002181710171042141710121C1715A
:102570007047F0B50A461588ABB29579032D01D1A5
:1025800000241AE0957965B9557905F00F0455795D
:10259000182D01D1036110E05579282D0DD143612B
:1025A0000BE0957905F00805167906F00406354329
:1025B000D67906F0030645EA0604DDB2A5B100218E
:1025C00010E001258D401D405DB105688F000F268C
:1025D000BE40B543056005688E0004FA06F6354333
:1025E0000560491C0829ECD3FF2B15DD1B120021C7
:1025F00010E001258D401D405DB145688F000F261C
:10260000BE40B543456045688E0004FA06F6354382
:102610004560491C0829ECD3F0BD024600209368B0
:102620000B408B4200D000E001207047F0B50C4613
:10263000104F07EB1062C0F30741C0F30725C6B285
:10264000C5F12007A7EB010C4FF0FF3707FA0CF399
:10265000C5F120077F1AFB40CB408B4017689F4392
:1026600017602CB106FA01FC176847EA0C071760DF
:10267000F0BD00000000014031E01948007848B981
:1026800002F096F802F0A6F800F0A2FC012014492E
:10269000087024E021E0012001F0FAFF11490880D0
:1026A000322003F0F3F8022001F0F2FF0D494880D8
:1026B000322003F0EBF8032001F0EAFF094988809B
:1026C000322003F0E3F80848006840F02000064993
:1026D00008600348007800B900E0DCE700BFCCE701
:1026E00040020020420200203C0200201AB901F002
:1026F000FE03036102E041F00103036170470268D9
:1027000061F38A220260704710B50446206800F029
:102710006FFB204600F040F90121206800F007F827
:1027200010BD01460869C0B2704701617047026878
:1027300061F300020260704710B504461320207652
:102740004FF48071206800F081F820B14FF480715F
:10275000206800F067F84FF40071206800F076F808
:1027600020B14FF40071206800F05CF84FF48061F4
:10277000206800F06BF820B14FF48061206800F011
:1027800051F84FF40061206800F060F820B14FF478
:102790000061206800F046F84FF48051206800F096
:1027A00055F820B14FF48051206800F03BF84FF409
:1027B0008041206800F04AF820B14FF48041206841
:1027C00000F030F84FF40041206800F03FF820B1ED
:1027D0004FF40041206800F025F800224FF480718A
:1027E000206800F0CDF810BD10B50446E06830B1A7
:1027F000012808D002280AD0032810D10BE0204677
:1028000000F08EFA0CE0204600F0D8F908E02046EF
:1028100000F032FB04E0204600F008FB00E000BFBF
:1028200000BF10BD01F45F42D24392B242614269DF
:1028300002F0020202B18269426902F0100222B182
:10284000026822F00102521C026070470CB5024679
:10285000002001900090080F019021F07F41019825
:1028600010B95069009002E0090C9069009000983E
:10287000084008B101200CBD0020FCE72DE9F04321
:1028800085B00446894615460027B84600262068CC
:1028900020F0010020606846FFF756F83448844273
:1028A00002D03448844200D1039F3348B7FBF0F094
:1028B0001FFA80F8606868F3070060602F4885425F
:1028C0001FD86800B7FBF0F086B2042E00DA0426A9
:1028D000E06966F30B00E061E06920F40040E0612C
:1028E00008F101003F2805DD206A20F03F003F305D
:1028F000206239E008F10100216A60F305012162DC
:1029000032E0B9F1000F09D105EB4500B7FBF0F05B
:1029100086B2E06920F48040E0610CE005EBC50080
:1029200000EB0510B7FBF0F086B2E06920F48040C0
:1029300000F58040E06106B90126E06966F30B000E
:10294000E061E06920F4004000F50040E0614FF4F0
:10295000967008FB00F04FF47A7190FBF1F0401C88
:10296000216A60F30501216205B0BDE8F083000033
:10297000005400400058004040420F00A086010073
:1029800010B51AB143680B43436004E04368CC437D
:10299000A4B22340436010BD1CB504461E49206804
:1029A000884237D101211D48FFF73EF901211C481B
:1029B000FFF73AF901211A48FFF736F904208DF89C
:1029C000040018208DF8050008208DF8060002206C
:1029D0008DF807004020009069461248FFF7C9FDB6
:1029E0008020009069460F48FFF7C3FD0022114682
:1029F0001F2001F09FF900221146202001F09AF9D2
:102A0000094A00212068FFF739FF50220021206881
:102A100000F0E4F91CBD00000054004015001C004B
:102A200003001800000C0140A086010070B50446A8
:102A30000D46164601212068FFF761FE206800F070
:102A40004BFA334600220121204600F065FA10B10E
:102A50000D20207670BD20688068C0F3C03028B992
:102A6000E9B201222068FFF741FE38E005F4407228
:102A7000F02343EAE2112068FFF757FE33460122B4
:102A80000821204600F048FA10B10E202076E1E738
:102A9000E9B22068FFF749FE3346012202212046B1
:102AA00000F03AFA10B10F202076D3E70221206817
:102AB000FFF7B8FE206800F00FFA3346002201212C
:102AC000204600F029FA10B10D202076C2E705F467
:102AD0004072F12343EAE2112068FFF726FE3346F5
:102AE00001220221204600F017FA10B10F202076B3
:102AF000B0E70020AEE7026861F3CB2202607047C6
:102B00002DE9F0410446884616461F46069D0120E1
:102B1000E0600020606166602781256120762B4699
:102B200000222549204600F0F7F910B10120BDE848
:102B3000F08100212068FFF7DEFF01212068FFF708
:102B4000DEFD2A4641462046FFF770FF20B120688F
:102B500000F0C9F90220EAE7208901280BD1002101
:102B60002068FFF7CCFD02212068FFF75BFE20689C
:102B700000F0B9F917E0208902280CD10121206862
:102B8000FFF7B9FF02212068FFF74CFE0021206803
:102B9000FFF7B5FD07E001212068FFF7B0FD022136
:102BA0002068FFF73FFE01224FF4E0612068FFF745
:102BB000E7FE0020BBE700000000021010B504464D
:102BC00004212068FFF742FE00283FD02089032817
:102BD0000ED100212068FFF792FD2068FFF7A1FDCC
:102BE0006268511C616010702089401E208160E085
:102BF000208902281FD1206800F075F92068FFF7AE
:102C000090FD6268511C616010702089401E208117
:102C10002068FFF786FD6268511C61601070208992
:102C2000401E20810120606100224FF4E061206895
:102C3000FFF7A6FE3DE02068FFF773FD6268511CB8
:102C4000616010702089401E208132E040212068A0
:102C5000FFF7FCFD68B3208903280ADD2068FFF731
:102C600060FD6268511C616010702089401E2081E7
:102C70001FE02089032802D02089022806D10022E3
:102C80004FF480612068FFF77BFE12E02068FFF7B9
:102C900048FD01466268501C606011702089401E2A
:102CA00020810120606100224FF4E0612068FFF77D
:102CB00067FE10BD2DE9F0410446884616461F46C2
:102CC000069D0020E06060616660278125612076B6
:102CD0002B4600221149204600F01EF910B10120B8
:102CE000BDE8F08100212068FFF705FF2A46414634
:102CF000204600F035F820B1206800F0F4F80220FA
:102D0000EEE702212068FFF78DFD01224FF4E0611C
:102D10002068FFF735FE0020E2E700000000021007
:102D200010B5044680212068FFF790FDB8B12089D6
:102D300058B90120606100224FF4E0612068FFF77C
:102D40001FFE206800F0CFF809E063685A1C62603B
:102D500019782068FFF7E9FC2089401E208110BD0A
:102D600070B504460D461646206800F0B5F83346A7
:102D700000220121204600F0CFF810B10D2020766E
:102D800070BD20688068C0F3C03028B9E9B2002265
:102D90002068FFF7ABFC15E005F44072F02343EA2E
:102DA000E2112068FFF7C1FC3346012208212046CA
:102DB00000F0B2F810B10E202076E1E7E9B2206809
:102DC000FFF7B3FC334601220221204600F0A4F8AD
:102DD00010B10F202076D3E70020D1E7836861F39C
:102DE000CF338360836862F3090383607047000018
:102DF00010B504460B48844208D101218012FEF729
:102E000035FF0021A012FEF731FF0AE00648844298
:102E100007D101218012FEF729FF0021A012FEF741
:102E200025FF10BD005400400058004010B5044676
:102E300040212068FFF70AFD60B12089D8B12068E1
:102E4000FFF76FFC6268511C616010702089401EA2
:102E5000208110E010212068FFF7F8FC58B1102104
:102E60002068FFF7DFFC0120606100224FF4E06181
:102E70002068FFF785FD10BD10B50446802120684D
:102E8000FFF7E4FC10B3208900B363685A1C62604A
:102E900019782068FFF749FC2089401E208120898D
:102EA000A0B900224FF4E0612068FFF769FD2369B3
:102EB00000224FF48061204600F02EF860614FF44C
:102EC00080612068FFF7AEFC0120606110BD0268E0
:102ED00061F3CF3202607047016821F4807101F51F
:102EE000807101607047016821F4007101F5007183
:102EF00001607047024605E0081EA1F1010101D101
:102F00001220704750690128F6D1107E08B1107E5A
:102F1000F7E70020F5E700002DE9F04104460F46F1
:102F200015461E46224887420FD107E0301EA6F103
:102F3000010603D112202076BDE8F08139462068D1
:102F4000FFF784FC0028F1D130E029E005F0010012
:102F500080B14FF480612068FFF778FC50B12068A1
:102F6000FFF7C1FF4FF480612068FFF75BFC112081
:102F70002076E1E705F0020058B110212068FFF744
:102F800065FC30B110212068FFF74CFC1020207642
:102F9000D2E7301EA6F1010602D112202076CBE73F
:102FA00039462068FFF752FC0028CFD00020C3E745
:102FB00000000210002004490870487080208870CA
:102FC0000120024908707047BC000020CD0000209D
:102FD00010B500202149087001F0DAFB01F0F2FB86
:102FE00001211F48FFF773FF1E48FFF78DFBC82024
:102FF00002F04CFC08E0012000F036F818B932204D
:1030000002F044FC00E000E0F5E700BF08E0022029
:1030100000F02AF818B9322002F038FC00E000E095
:10302000F5E700BF08E0032000F01EF818B93220D1
:1030300002F02CFC00E000E0F5E700BF6421012075
:1030400002F088F86421022002F084F86421032051
:1030500002F080F801200149087010BD4C020020E8
:1030600000540040A40300202DE9F04186B005463D
:103070000026012D04D10821FE48FFF76DFA11E06A
:10308000022D04D11021FB48FFF766FA0AE0032D58
:1030900004D12021F748FFF75FFA03E0002006B0D3
:1030A000BDE8F081322002F0F1FBC0222946F2484F
:1030B00002F014FD0123F14A2946EF4801F03EFBDE
:1030C000EE480078EE2801D00020E8E700238822AF
:1030D0002946E94802F0D6FD522000EB450808EBEE
:1030E000D870C0F347038A222946E34802F0CAFD9C
:1030F000522000EB4500C1B2681EE14A1154012381
:1031000080222946DC4802F0BDFD0123FF2229462A
:10311000D94802F0B7FD00231A462946D64802F0E6
:10312000B1FD91222946D44802F0D8FC0123D34AAC
:103130002946D14801F002FBD0480078D1490870F7
:10314000012300222946CC4802F09CFD0023FF22E7
:103150002946C94802F096FD002380222946C64828
:1031600002F090FD60222946C34802F0B7FC01231B
:10317000C24A2946C04801F0E1FAC048007840F050
:1031800012022946BC4802F0A9FC20234422294609
:10319000B94802F00BFDFF2301222946B64802F090
:1031A00071FD04AA294605A8FFF71EF908B90020F9
:1031B00075E7B0222946B04802F090FC062302AA27
:1031C0002946AD4801F0BAFA0123FF222946AA4850
:1031D00002F058FD00234F222946A74802F052FD75
:1031E0002C234E222946A44802F04CFD0023FF2246
:1031F0002946A14802F046FDB423B62229469E483E
:1032000002F040FD9DF8100008B10C2000E0002005
:103210000746002434E0BC4203DB9DF814008642DC
:103220001AD1E21704EB5272D21002AB9A5C21461B
:10323000E31704EB5373DB10A4EBC30C012303FA75
:103240000CF39A432046E31704EB5373DB100DF1A4
:10325000080C0CF8032011E0E21704EB5272D210B4
:1032600002AB9A5CE31704EB5373DB10A4EBC303CC
:103270001A4102F001020AB1701CC6B2601CC4B24D
:10328000302CC8DB062002ABB022294600907A48D9
:1032900002F04EFC0123FF222946774802F0F2FC9F
:1032A00000231A462946744802F0ECFC0023FF2252
:1032B0002946714802F0E6FC0023092229466E489F
:1032C00002F0E0FC0023102229466B4802F0DAFCF1
:1032D000002311222946684802F0D4FC012324224D
:1032E0002946654802F0CEFCFF2325222946624884
:1032F00002F0C8FC0023752229465F4802F0C2FC98
:103300000123FF2229465C4802F0BCFC2C234E22FC
:103310002946594802F0B6FC00234822294656485F
:1033200002F0B0FC202330222946534802F0AAFCC8
:103330000023FF222946504802F0A4FC0923302232
:1033400029464D4802F09EFC0023542229464A4853
:1033500002F098FC042331222946474802F092FCEF
:10336000032332222946444802F08CFC8323402266
:103370002946414802F086FC2523462229463E483C
:1033800002F080FC0023602229463B4802F07AFCD0
:10339000002327222946384802F074FC06235022D5
:1033A0002946354802F06EFC002351222946324856
:1033B00002F068FC9623522229462F4802F062FC54
:1033C0000823562229462C4802F05CFC3023572261
:1033D0002946294802F056FC002361222946264846
:1033E00002F050FC002362222946234802F04AFCE6
:1033F000002364222946204802F044FC0023652271
:1034000029461D4802F03EFCA023662229461A48A0
:1034100002F038FC0123FF222946174802F032FC53
:10342000322322222946144802F02CFC142347227E
:103430002946114802F026FCFF23492229460E485E
:1034400002F020FC00234A2229460B4802F01AFC15
:103450000023FF222946084802F014FC0A237A229E
:103460002946054802F00EFC00237B22294602482B
:103470000AE0000000100140A403002084030020A3
:10348000570000203400002002F0FCFB21237822AA
:1034900029469F4802F0F6FB0123FF2229469C485B
:1034A00002F0F0FB342323222946994802F0EAFB7C
:1034B000002342222946964802F0E4FBFF234422DF
:1034C0002946934802F0DEFB2623452229469048F0
:1034D00002F0D8FB0523462229468D4802F0D2FB94
:1034E00040231A4629468A4802F0CCFB06230E22C6
:1034F0002946874802F0C6FB1A2320222946844821
:1035000002F0C0FB402343222946814802F0BAFB67
:103510000023FF2229467E4802F0B4FB0323342215
:1035200029467B4802F0AEFB4423352229467848E1
:1035300002F0A8FB0123FF222946754802F0A2FBF6
:10354000042331222946724802F09CFB09234B22B6
:1035500029466F4802F096FB05234C2229466C4809
:1035600002F090FB04234D222946694802F08AFBB1
:103570000023FF222946664802F084FB00234422F0
:103580002946634802F07EFB2023452229466048F5
:1035900002F078FB0823472229465D4802F072FBBF
:1035A0002823482229465A4802F06CFB0023672250
:1035B0002946574802F066FB0423702229465448E6
:1035C00002F060FB012371222946514802F05AFBA8
:1035D000FE23722229464E4802F054FB0023762235
:1035E00029464B4802F04EFB0023772229464848E3
:1035F00002F048FB0123FF222946454802F042FB26
:1036000001230D222946424802F03CFB0023FF2201
:1036100029463F4802F036FB0123802229463C48D8
:1036200002F030FBF82301222946394802F02AFB38
:103630000123FF222946364802F024FB01238E2273
:103640002946334802F01EFB012300222946304858
:1036500002F018FB0023FF2229462D4802F012FB3E
:103660000023802229462A4802F00CFB04230A2268
:103670002946274802F006FB84222946244802F006
:103680002DFA0123234A2946214801F057F8214801
:10369000007820F01003842229461D4802F0F2FA37
:1036A00001230B2229461A4802F0ECFA2846FEF7BD
:1036B0009DFD19490860E82301222946144802F0BB
:1036C000E1FA15480168284601F080FA01231A46FC
:1036D00029460F4802F0D6FA4021284600F090FC17
:1036E00008B90020DBE4022301222946084802F041
:1036F000C9FA0021284600F083FC08B90020CEE476
:10370000E82301222946024802F0BCFA0120C6E45F
:10371000A4030020840300203000002010B500F036
:10372000E9FF6E49087040F203706D49C8826B482A
:10373000007801287ED0032852D0052828D00728F9
:1037400077D140F2F170088040F20120488040F2C9
:103750008120888040F20160C88040F28160088149
:1037600040F20260488140F28260888140F201703C
:10377000C88140F28170088240F20270488240F2B3
:1037800082708882401C0883012056490870A1E09D
:1037900040F2F2705249088040F21120488040F215
:1037A0009120888040F21160C88040F291600881C9
:1037B00040F21260488140F29260888140F21170BC
:1037C000C88140F29170088240F21270488240F243
:1037D00092708882401C088302204249087079E078
:1037E00040F2F3703E49088040F22120488040F2C8
:1037F000A120888040F22160C88040F2A160088149
:1038000040F22260488140F2A260888140F221703B
:10381000C88140F2A170088240F22270488240F2D2
:10382000A2708882401C088304202E49087051E051
:1038300000E027E040F2F4702949088040F231208E
:10384000488040F2B120888040F23160C88040F268
:10385000B160088140F23260488140F2B2608881F4
:1038600040F23170C88140F2B170088240F232708B
:10387000488240F2B2708882401C088308201949AF
:10388000087027E040F2F1701549088040F20120ED
:10389000488040F28120888040F20160C88040F278
:1038A0008160088140F20260488140F28260888134
:1038B00040F20170C88140F28170088240F20270CB
:1038C000488240F282708882401C088301200549AA
:1038D000087000BF00BF0148007810BD4B020020F7
:1038E000C00500206200002010B510480068FCF7F9
:1038F0009DFD044622460D4801680D48FCF7B5FDC4
:1039000040210B484030FCF727FE0020084981F891
:10391000800081F8810005480068FCF787FD0449B4
:1039200081F88200002081F8830010BD280000206B
:103930000003002010B50B48FEF746F910B1094806
:10394000FEF7D8F8012002F0B7F8052002F0A2F83F
:1039500040F2DB5002F0BCF802F094F802F0A4F858
:1039600010BD00001D00240008B51C4800780A287E
:1039700030D2DFE800F005080E11171D2F2F232984
:1039800001F002FA27E016480068009001F0B4F94F
:1039900021E001F0C7F81EE011480068009000F037
:1039A000F5FF18E00E480068009001F055F812E0AD
:1039B0000B480068009001F075F90CE008480068B9
:1039C000009001F0CDF806E005480068009001F095
:1039D000DDF800E000BF00BF08BD0000CD00002002
:1039E000BC0000201CB50024032000F007FA01F001
:1039F0000DFC0C225F496048FEF7CAFB00F050FF47
:103A000002F008F8FFF770FF01F090FD4FF4E1308D
:103A100001F00AFD02F066F9FDF7B6FEFFF77EFE43
:103A20000446072C07D1FDF7BBFAFDF7DFF8534832
:103A3000FDF7DEFE1CE0052C07D1FDF7B1FAFDF71E
:103A4000D5F84F48FDF7D4FE12E0032C07D1FDF75F
:103A5000A7FAFDF7CBF84B48FDF7CAFE08E0012CAA
:103A600006D1FDF79DFAFDF7C1F84748FDF7C0FE06
:103A70004648474908600846FEF746FE01F058FEF2
:103A80004448022100231022CDE9001042A14748FA
:103A900002F0F8F9012803D04548FCF7BBFC02E02E
:103AA00044A0FCF7B7FC4F4804210023CA01CDE92C
:103AB00000104DA14F4802F0E5F9012803D04E480F
:103AC000FCF7A8FC02E04DA0FCF7A4FC5848032139
:103AD00000234FF48072CDE9001056A1584802F03F
:103AE000D1F9012803D05748FCF794FC02E056A016
:103AF000FCF790FC5E48032100234FF48072CDE96F
:103B000000105CA15E4802F0BDF9012803D05D48B9
:103B1000FCF780FC02E05CA0FCF77CFC644804211C
:103B200000238A01CDE9001062A1654802F0AAF9DC
:103B3000012803D06348FCF76DFC02E062A0FCF7AB
:103B400069FC6B48062100238022CDE9001069A1A1
:103B50006B4802F097F9012803D06A48FCF75AFC39
:103B600002E069A0FCF756FC01F00CFE01F0BCFE7F
:103B700000201CBDB4050020E8F7FF1F80841E0054
:103B8000C0CF6A00001BB70040660301005400402C
:103B9000A40300200400002072756E6E696E675FDA
:103BA0006C65645F7461736B00000000E14800089D
:103BB000F06C000872756E6E696E675F6C656420EC
:103BC0007461736B207761732063726561746564DF
:103BD000207375636365737366756C6C792E0D0A5B
:103BE0000000000010000020693263315F746173CF
:103BF0006B00000079260008A46D0008693263316B
:103C00005F7461736B5F66756E6374696F6E207449
:103C100061736B20776173206372656174656420E2
:103C20007375636365737366756C6C792E0D0A002A
:103C30001400002063616E5F74785F7461736B00C1
:103C4000E5160008586E000863616E2074782074D1
:103C500061736B20776173206372656174656420A2
:103C60007375636365737366756C6C792E0D0A00EA
:103C70001800002063616E5F72785F7461736B007F
:103C80008D120008046E000863616E207278207443
:103C900061736B2077617320637265617465642062
:103CA0007375636365737366756C6C792E0D0A00AA
:103CB0001C0000207773323831325F7461736B00FF
:103CC000055D00089C6C000877733238313220742F
:103CD00061736B2077617320637265617465642022
:103CE0007375636365737366756C6C792E0D0A006A
:103CF00020000020777464675F7461736B000000BC
:103D0000415D00084C6D00087761746368646F67FB
:103D1000207461736B2077617320637265617465D1
:103D200064207375636365737366756C6C792E0DAF
:103D30000A0000002DE9F0470B4614464FF0000C36
:103D400000BF2C4A1268C2F302211D4626460A46CD
:103D5000C2F10709B9F1040F02D94FF0040901E0DB
:103D6000C2F10709C84602F10409B9F1070F02D2EE
:103D70004FF0000901E0A2F103094F464FF001099D
:103D800009FA08F9A9F1010909EA050909FA07F987
:103D90004FF0010A0AFA07FAAAF1010A0AEA060A2A
:103DA00049EA0A09CC4601466246002904DB1507A8
:103DB0002E0E114D6E5407E015072F0E0D4D0C35CC
:103DC00001F00F06361FAF5500BF014600290DDB7D
:103DD00000BF00BF01F01F050122AA404D09AD0040
:103DE00005F1E025C5F8002100BF00BF00BFBDE818
:103DF000F08700000CED00E000E400E000BF00F000
:103E00000702064B19684FF6FF031940044B0B439A
:103E100043EA0221014B196000BF70470CED00E03E
:103E20000000FA0500BFBFF34F8F0748006800F499
:103E3000E06006490843001D03490860BFF34F8F47
:103E400000BF00BF00BFFDE70CED00E00000FA0579
:103E500010B5454800684549498888420AD142481A
:103E6000C07A01287FD14FF47A7001F00FFDFFF77F
:103E7000D9FF78E03C4800683C49C98988422FD185
:103E80003948C07A09286EDC3748C07A07280CD137
:103E90003548007B642866DC3348C07A34490870B2
:103EA0003148007B334908705DE02F48007B802853
:103EB00059DC2D48407B802855DC2B48807B8028AE
:103EC00051DC2948C07A2A4908702748007B2A49D2
:103ED00048702548407B08702348807B887042E00A
:103EE000214800682149498A884207D11E48C07A82
:103EF000012838D100202149087034E01A480068B0
:103F00001A49C98A88422ED11748C07A09282ADC62
:103F10001548C07A07280CD11348007B642822DC9E
:103F20001148C07A124908700F48007B1149087087
:103F300019E00D48007B802815DC0B48407B802869
:103F400011DC0948807B80280DDC0748C07A0849CD
:103F500008700548007B084948700348407B08709A
:103F60000148807B887010BD24040020C00500201B
:103F7000CD000020CF000020BC0000204002002027
:103F80001A4800681A49C98A88422ED11748C07A4F
:103F900009282ADC1548C07A07280CD11348007B71
:103FA000642822DC1148C07A124908700F48007B4F
:103FB0001149087019E00D48007B802815DC0B487A
:103FC000407B802811DC0948807B80280DDC074875
:103FD000C07A084908700548007B084948700348C2
:103FE000407B08700148807B88707047380400204F
:103FF000C0050020CD000020CF000020BC00002024
:1040000070B504460D4645F00103002221461148D3
:1040100001F038FE132221460E4801F05FFD012316
:104020000D4A21460B4800F089FB0B48007800F050
:10403000070008B9002070BD01230B222146054866
:1040400001F020FE00231A462146024801F01AFE24
:104050000120F0E7A4030020840300202DE9F041B3
:1040600005460E461C4807681C480068001D01F004
:1040700014FB50B91948006890F82C1001208840B2
:1040800017490968814316480160681C38B936B180
:1040900012480168091D134801F03DFB1AE07C1924
:1040A0000E4800684460BC4207D20C480168091DF4
:1040B0000D48006801F015FB0CE008480168091D77
:1040C0000A48006801F00DFB09480068844201D2EB
:1040D00007480460BDE8F081A00200208C020020A7
:1040E000A4020020CC0600209402002090020020B0
:1040F000BC02002010B5044601F01AFB23480068FA
:10410000401C224908602248006840B920480460E9
:104110000846006801280DD100F01EF90AE01D488C
:10412000006838B91A480068C06AE16A884201D854
:104130001748046018480068401C1749086094F844
:104140002C1001208840154909680843134908606C
:10415000E16A01EB8101124A02EB8100211D01F0AD
:10416000DAFA01F00FFB0B48006868B108480068F4
:10417000C06AE16A884207D24FF08050094908605E
:10418000BFF34F8FBFF36F8F10BD00009C02002064
:104190008C020020A8020020B8020020A402002007
:1041A0001806002004ED00E010B516E001F0C0FA9A
:1041B0000C48C068C468201D01F06FFA0A48006806
:1041C000401E0949086009480068401E0749086008
:1041D00001F0D8FA204600F00BF8044800680028E7
:1041E000E4D110BDB80600209C02002098020020F7
:1041F00010B50446206B01F0E3FA204601F0E0FA26
:1042000010BD000030B54FF4E043174800F007043C
:104210002CB1C01D20F00700134C041B1B1B0246D1
:10422000124C22600024114D6C60D018083820F028
:1042300007000F4C206000240D4D2D686C600C4D64
:104240002D682C601146441A4C60094C24680C609F
:10425000084D4C682C60084D4C682C604FF00044B1
:10426000064D2C6030BD0000E0060020D00200208A
:10427000D8020020E0020020DC020020EC02002036
:1042800000BFFFF791FF064800680128F9D94FF0F9
:10429000805004490860BFF34F8FBFF36F8FF0E782
:1042A0001806002004ED00E02DE9FF5F81460E4670
:1042B0009246DDE90E7B109CAAF10100216B01EB17
:1042C000800828F0070808F0070008B9012000E07E
:1042D000002050B900BF102080F31188BFF34F8F2A
:1042E000BFF36F8F00BF00BFFEE786B1002507E078
:1042F000715D04F134004155705D00B902E06D1C40
:10430000102DF5D300BF00214320015502E000200D
:1043100084F83400052F00D30427E762201D01F044
:10432000DDF904F1180001F0D9F92461C7F10500A5
:10433000A06164620020606484F8480049464046F9
:10434000039A00F05FF92060BBF1000F01D0CBF8B9
:104350000040BDE8FF9F000010B5002407E004EB1B
:1043600084010F4A02EB810001F0ABF9641C052CBB
:10437000F5D30C4801F0A5F90B4801F0A2F90B4860
:1043800001F09FF90A4801F09CF90A4801F099F9F7
:1043900004480949086004480849086010BD000045
:1043A000180600207C06002090060020A4060020AD
:1043B000B8060020CC0600209002002094020020C5
:1043C00010B50146164800E0006803688B42FBD335
:1043D0000246436813448B4204D143684C6823442B
:1043E000436001460A464B6813440468A34211D156
:1043F0000C4C03682468A34208D04B6804686468C6
:1044000023444B6003681B680B6005E0054B1B6889
:104410000B6001E003680B60884200D0016010BDB2
:10442000D0020020D802002009480068006808B9BE
:10443000012000E0002020B14FF0FF300549086066
:1044400005E003480068C0680068024908607047DA
:1044500090020020BC0200200E480068401C08B9F1
:10446000012000E0002050B900BF102080F3118827
:10447000BFF34F8FBFF36F8F00BF00BFFEE700BFDA
:10448000102080F31188BFF34F8FBFF36F8F00BFF1
:1044900000BFFEE7F40200202DE9F04104464FF092
:1044A000000801F069FA5148006808B9FFF7AAFE50
:1044B0004F480068204000287ED13CB304F108003A
:1044C000A04223D9083404F0070000B304F0070029
:1044D000C0F108002044A04216D904F00700C0F142
:1044E0000800044404F0070008B9012000E000209F
:1044F00068B900BF102080F31188BFF34F8FBFF35E
:104500006F8F00BF00BFFEE7002400E00024002CF6
:1045100054D038480068844250D8374E3046056839
:1045200001E02E462D686868A04202D22868002863
:10453000F7D12E480068854240D0306800F1080865
:10454000286830606868001B102819D92F1907F0F7
:10455000070008B9012000E0002050B900BF10207A
:1045600080F31188BFF34F8FBFF36F8F00BF00BF81
:10457000FEE76868001B78606C603846FFF720FF34
:104580001C4968680968081A1A49086008460068E2
:104590001A490968884203D216480068174908601A
:1045A0001349686809680843686000202860144857
:1045B0000068401C124900E000E0086001F036FD90
:1045C00008F0070008B9012000E0002050B900BF42
:1045D000102080F31188BFF34F8FBFF36F8F00BFA0
:1045E00000BFFEE74046BDE8F0810000D802002091
:1045F000EC020020DC020020D0020020E0020020BB
:10460000E4020020001F4FF080730360001F21F0C0
:1046100001030360001F034B03601438026020385D
:10462000704700005944000838B50020164908704A
:1046300048700846408840F2FF31884220DA002462
:1046400011E020020F2190FBF1F00F494988084446
:10465000C5B22846FCF79CF801460090204600F0C1
:10466000C1F8601CC4B20F2CEBDB4FF4B4710748E7
:1046700000F0B6FC04484088401C0349488002E032
:1046800000200149488038BDC00000204C040020B3
:1046900070B5054613222946144801F01FFA02237B
:1046A000134A2946114800F049F81148007800F0F3
:1046B000070010B94FF6FF7070BD1E2229460B4847
:1046C00001F00CFA02230A4A2946084800F036F89D
:1046D000074840780649097840EA012401230B2263
:1046E0002946024801F0CEFA2046E5E7A40300205F
:1046F0008403002070B50025002440210E48FDF7FA
:104700008CFF0446012C00D1254380210A48FDF787
:1047100084FF0446012C02D145EA4400C5B24FF49F
:1047200080710548FDF779FF0446012C02D145EA66
:104730008400C5B2E8B270BD00100140F8B505466E
:104740000C4616461F460F480090601E0E4A115C2C
:104750003B4632462846FEF7D3F90C49087018B19B
:1047600008460078FDF787FB06492846FEF7C2FB9E
:1047700018B106480078FDF77EFB0A2001F086F8A4
:10478000F8BD0000FFFF0F0057000020550000207B
:1047900010B508210548FDF7DDFE10210348FDF79F
:1047A000D9FE20210148FDF7D5FE10BD00100140C3
:1047B0004FF6FF70024908804880888070470000EB
:1047C00042020020522002490870487088707047E9
:1047D0005700002000200249087048708870704718
:1047E0004802002073B505460F2D03DD25A0FBF719
:1047F00011FE7CBD002412E09DF80400C4F1070204
:1048000001219140084008B1FC2000E0C02005EBE8
:104810004501224A02EBC1010855601C84B2072CF5
:10482000EADD082412E09DF80500C4F10F02012121
:104830009140084008B1FC2000E0C02005EB450194
:10484000164A02EBC1010855601C84B20F2CEADD48
:10485000102412E09DF80600C4F1170201219140D6
:10486000084008B1FC2000E0C02005EB45010B4AE0
:1048700002EBC1010855601C84B2172CEADD00BFB1
:10488000B7E700004572726F723A4F7574206F6619
:104890002052616E6765210D0A0000004C04002063
:1048A0001CB501210C48FDF7BFF96846FDF756FE1F
:1048B00001208DF8070000208DF8040010208DF8ED
:1048C00006004002009004208DF805006946034868
:1048D000FDF74FFE1CBD0000040018000010014051
:1048E0000FE00848C06880F400500649C8600648D8
:1048F000006840F00100044908604FF4FA7000F0CD
:10490000C5FFEEE7001001403C02002013B5072070
:1049100037E09DF80020C0F107031A4102F00102C0
:104920000AB1FC2200E0C02201EB410300EBC3030B
:10493000154CE2549DF80120C0F107031A4102F022
:1049400001020AB1FC2300E0C02301EB410400F1A5
:10495000080202EBC4020C4CA3549DF80220C0F1E3
:1049600007031A4102F001020AB1FC2300E0C02350
:1049700001EB410400F1100202EBC402024CA3540B
:10498000401E0028C5DA1CBDD000002071B581B0E2
:104990009DF8040001F09AFE06462C4800782C4A47
:1049A00052F82010304601F0A5FE054601F06EFEDB
:1049B000C0B28DF800009DF8050001F087FE0646A4
:1049C00022480078224A52F82010304601F092FE28
:1049D000054601F05BFEC0B28DF801009DF80600AF
:1049E00001F074FE064619480078194A52F8201062
:1049F000304601F07FFE054601F048FEC0B28DF85A
:104A0000020000210098FFF781FF10480078401C49
:104A10000E490870012406E00E49182202FB04101A
:104A2000FBF723FD641C0F2CF6DB4FF4B47109482F
:104A300000F0D6FA05480078322802DB002003494E
:104A4000087000200149487048807CBDC0000020EB
:104A50008C680008D000002071B581B09DF804007A
:104A600001F034FE06462C4840782C4A52F82010BB
:104A7000304601F03FFE054601F008FEC0B28DF859
:104A800000009DF8050001F021FE0646224840780E
:104A9000224A52F82010304601F02CFE054601F063
:104AA000F5FDC0B28DF801009DF8060001F00EFE84
:104AB000064619484078194A52F82010304601F04D
:104AC00019FE054601F0E2FDC0B28DF8020000219A
:104AD0000098FFF71BFF10484078401C0E494870B3
:104AE000012406E00E49182202FB0410FBF7BDFC6E
:104AF000641C0F2CF6DB4FF4B471094800F070FA17
:104B000005484078642802DB0020034948700020F3
:104B10000149087048807CBDC0000020546900082D
:104B2000D000002010B500F007F9642000F0AEFEC0
:104B300000F02AF9642000F0A9FE00F0FDF86420DE
:104B400000F0A4FE00F020F940F28A2000F09EFE62
:104B50000020024908704870488010BDC000002045
:104B600001B5009800F0C8F84FF4FA7000F08EFE1E
:104B700000F00AF94FF4E67000F088FE00200249C8
:104B800008704870488008BDC000002001B500983A
:104B900000F0B2F8FA2000F079FE00F0F5F8FA2003
:104BA00000F074FE009800F0A7F8FA2000F06EFE06
:104BB00000F0EAF8D22000F069FE002002490870F7
:104BC0004870488008BD0000C00000202DE9F04F6B
:104BD0008DB007460D4640F276794FF4707A4FF467
:104BE000257B40F24E20049040F2B22003905846BC
:104BF000029040F22620019040F636340BA9384648
:104C0000FDF740FB05AA0BA93846FDF75FFB9DF8B1
:104C10002C0018B1089800F24E2004449DF82E0094
:104C200030B1089800F2B220022101FB004406E0F6
:104C30009DF82D0018B1089800F5257004449DF8E2
:104C40002F0018B1099800F5257004449DF8300034
:104C500010B304F22624AC4203D900200DB0BDE805
:104C6000F08FA5EB0408BDF81600C1B2404600F075
:104C7000C6FB06469DF82F0010B1BDF81A00064489
:104C80003046FDF7E4F803467122394600900348A8
:104C900000F08CFF024805600120DFE7A40300203C
:104CA0003000002031B500210098FFF72FFE0124CD
:104CB0000FE00E49182202FB0410FBF7D6FB0B4A4B
:104CC000611C182303FB01201A460949FBF7CDFBA1
:104CD000A41C0E2CEDDB4FF4B471044800F080F9F5
:104CE0000020044908704870488038BDD00000207A
:104CF000E46A0008C000002031B500210098FFF7E9
:104D000005FE012406E00A49182202FB0410FBF705
:104D1000ACFB641C0F2CF6DB4FF4B471044800F0BC
:104D20005FF90020034908704870488038BD0000D2
:104D3000D0000020C000002038B500208DF8000011
:104D400080208DF8010000208DF8020000210098DD
:104D5000FFF7DCFD012406E00949182202FB0410DC
:104D6000FBF783FB641C0F2CF6DB4FF4B471044893
:104D700000F036F90020034908704870488038BDBB
:104D8000D0000020C000002038B500208DF80000C1
:104D90008DF801008DF8020000210098FFF7B6FDA4
:104DA000012406E00949182202FB0410FBF75DFB11
:104DB000641C0F2CF6DB4FF4B471044800F010F9BA
:104DC0000020034908704870488038BDD00000209A
:104DD000C00000202DE9F1434FF0000900248BE0D2
:104DE00000260025A9460027A84600BF77E0002638
:104DF0006FE0002508E04C49182202FB05104B49E2
:104E0000FBF733FB681CC5B20F2DF4DB4FF0000835
:104E100023E0621C02EB4202444B03EBC201C8F1E7
:104E20000702414B4FF0180C0CFB02306246FBF7B7
:104E30001CFB621C02EB42023C4B03EBC20108F17B
:104E40000702394B4FF0180C0CFB02306246FBF79F
:104E50000CFB08F1010000F0FF08B845D9DB44B9AC
:104E600080208DF8010000208DF800008DF80200F0
:104E700015E0012C09D100208DF8010080208DF86B
:104E8000000000208DF8020009E0022C07D100206C
:104E90008DF801008DF8000080208DF80200314669
:104EA0000098FFF733FDC6F10E00C1B20098FFF77E
:104EB0002DFD4FF4B4711C4800F092F84FF000093A
:104EC00002E000BF09F1010919488145F9D3701CBE
:104ED000C6B2C7F10800B0428BDC781CC7B2082FFD
:104EE00085DB4FF0000902E000BF09F1010911481C
:104EF0008145F9D3601CC4B2032CFFF671AF0025C5
:104F000009E00949182202FB051008494831FBF75E
:104F1000ACFA681CC5B20F2DF3DB4FF4B471024834
:104F200000F05EF8BDE8F883D0000020A46B000814
:104F3000801A0600404B4C0010B501210D48FCF7CB
:104F400073FE0D4800F059F803200B49087001204A
:104F50004870022088700020C870087101204871D4
:104F60008871C871054800F062F80121034800F01B
:104F70004FF810BD0E001C00B000002000380040AB
:104F80001CB501210C48FCF74FFE6846FDF7E6FA18
:104F900001208DF8070000208DF8040008208DF80E
:104FA00006000003009004208DF8050069460348C0
:104FB000FDF7DFFA1CBD000003001800000C0140E3
:104FC00010B5044600BF0221044800F028F800286C
:104FD000F9D02146014800F020F810BD003800400B
:104FE00070B505460E46002404E0285DFFF7E8FF93
:104FF000601C84B2B442F8DB70BD002101704170C6
:105000008170C1700171417181710121C17170475D
:10501000026861F3861202607047C1607047024601
:10502000002093680B4003B900E001207047C2697B
:1050300022F40062C2610A7862B9026822F4004276
:105040000260026822F480420260026822F48062F8
:10505000026036E00A78012A0ED1026822F400428A
:105060000260026822F480420260026822F48062D8
:1050700002F58062026024E00A78022A0ED10268FA
:1050800022F4004202F500420260026822F48042EB
:105090000260026822F48062026012E00A78032A49
:1050A0000FD1026822F4004202F500420260026859
:1050B00022F4804202F580420260026822F480629B
:1050C0000260CB79026863F3492202604A78012AC0
:1050D00009D1CA79012A06D1026822F4807202F548
:1050E0008072026003E0026822F4807202604B78F2
:1050F000026863F3820202608A78072A0BDD426845
:1051000022F4807202F5807242608A78036862F34A
:10511000C503036008E0426822F4807242608B7825
:10512000026863F3C5020260CB78026863F3C712BA
:1051300002600B79026863F3CB2202604B7902684C
:1051400063F3410202608B79026863F3000202603C
:105150007047000070B506460C4601238022314698
:10516000274800F08FFD0123FF223146244800F03C
:1051700089FD00231A463146214800F083FD21486D
:105180000378912231461E4800F07CFD0123002265
:1051900031461B4800F076FD0023FF2231461848B7
:1051A00000F070FD002380223146154800F06AFDB2
:1051B000FCB1F8223146124800F090FC0223124A5A
:1051C00031460F48FFF7BAFA0F4840780E49097880
:1051D00040EA012505B16C432346042231460848C4
:1051E00000F018FD042300223146054800F04AFD76
:1051F00005E0022300223146014800F043FD70BD66
:10520000A4030020340000208403002010B54FF4D4
:10521000AA701A490860FCF7CFFD01210846FCF787
:1052200063FB00BFFCF7E8FC0028FBD02321022031
:10523000FCF73EFD01210220FCF756FB00BF1920C0
:10524000FCF7C2FC0128FAD10020FCF71BFB04206C
:10525000FCF72CFB0420FCF71FFB0120FCF730FBC4
:105260000220FCF7DBFD00BFFCF7E2FD0228FBD1CA
:105270000020FCF725FB00F003F810BD00200240E1
:105280002DE9FF5F002400250026A146A246A34683
:105290000020039002900190FCF7CAFD0090009856
:1052A00020B1012814D0022874D115E04348406D84
:1052B000C0F3402040B14148006BC0F3406018B1DA
:1052C0003F484049086002E03F483E49086065E0C9
:1052D0003D483C49086061E038484068C0F30046FA
:1052E0003648C06AC00F20BB34484068C0F38344CE
:1052F00032484068C0F341750DB90F2C03D1280125
:10530000401C044400E0A41C26B9304860432D49E9
:1053100008603DE029484068C0F3404020B12B4878
:1053200060432849086033E0274860432549086006
:105330002EE02248C06AC0F3031003901F48C06AE1
:10534000C0F3082002901D48C06A00F007000190D9
:1053500016B9DFF878B009E018484068C0F340405B
:1053600010B1DFF868B001E0DFF85CB0012101980E
:1053700001FA00F0039900FB01FC0298ABFB0070FE
:105380000146624600233846FAF7CDFF0D49086012
:1053900004E0FFE70C480B49086000BF00BF074866
:1053A0004068C0F303190A4810F809A005480068CE
:1053B00020FA0AF003490860BDE8FF9F0010024090
:1053C000006CDC028402002000127A0000093D001B
:1053D0008C6C000810B5024601EBC100000240F2DF
:1053E0007764604300F5FA704FF47A74B0FBF4F31D
:1053F00002FB03F000F5FA70B0FBF4F010BD10B53D
:10540000024601EBC100000240F27764604300F500
:10541000FA704FF47A74B0FBF4F32046504300EB7B
:105420005300B0FBF3F010BD1CB504460121164833
:10543000FCF7FAFB012114480C38FCF7F5FB684631
:10544000FDF78CF801208DF8070000208DF804008E
:1054500008208DF806008001009004208DF80500DA
:1054600069460A48FDF785F800231A462146084890
:1054700000F026F80121064800F00AF9012104484D
:1054800000F010F81CBD00000E00180000080140DC
:10549000003801400146486880B27047C1F30802F5
:1054A00042607047C26861F34D32C2607047024685
:1054B0001068084008B1012070470020FCE7000098
:1054C0002DE9F04385B004460F469046994668465C
:1054D000FCF73AFA1448844201D1029E00E0039E90
:1054E00006EB86004000B0FBF7F50A20B5FBF0F1B3
:1054F00000FB1150052803D20A20B5FBF0F503E0AC
:105500000A20B5FBF0F0451CA06865F30F00A06011
:10551000E06868F30C30E060206969F30D302061C9
:1055200005B0BDE8F0830000003801401CB5012142
:105530004048FCF779FB01213F48FCF775FB01214E
:105540003C48401CFCF770FB01213B48401CFCF729
:105550006BFB6846FDF702F801208DF8070000207C
:105560008DF8040008208DF80600042000908DF8C6
:10557000050069463148FCF7FCFF4FF4806000905D
:1055800069462F48FCF7F5FF01208DF80700002041
:105590008DF804008DF806000820009018208DF882
:1055A000050069462548FCF7E4FF4FF400600090D1
:1055B00069462348FCF7DDFF0320FEF71FFC0022AD
:1055C00011462620FEF7B6FB002211462720FEF7E3
:1055D000B1FB00231A464FF4E1311A48FFF770FF80
:1055E0000121184800F054F80121164800F04BF84A
:1055F00000231A464FF4E1311348FFF761FF012100
:10560000114800F045F801210F4800F03CF8012254
:105610000E490C4800F01CF801210A48FFF742FF30
:1056200001220A49084800F013F801210648FFF753
:1056300039FF1CBD11001C000200180000080140C9
:10564000000C0140004400400048004005000C00F0
:1056500030B5012A0BD100EB11431B6801F01F0587
:105660000124AC40234300EB114423600AE000EB2B
:1056700011431B6801F01F050124AC40A34300EB5C
:105680001144236030BDC26861F38202C26070477A
:10569000C26861F3C302C260704701460A69D1E97A
:1056A00001309860D1E9010358605068884201D107
:1056B00088685060002008611068401E1060106803
:1056C000704700F1080141604FF0FF31816000F147
:1056D0000801C16001610021016070470021016182
:1056E000704710B502460B685C1C0CB9106907E0E6
:1056F00002F1080000E04068446824689C42FAD93E
:1057000044684C604C68A160886041600A6114681C
:10571000641C146010BD42684A6093688B60936893
:1057200059609160086103685B1C0360704700006A
:1057300000BF102080F31188BFF34F8FBFF36F8F2E
:1057400000BF0E480068401C0C490860084600680D
:10575000012812D10A480068C0B208B9012000E04F
:10576000002050B900BF102080F31188BFF34F8F85
:10577000BFF36F8F00BF00BFFEE77047F402002049
:1057800004ED00E00D48006850B900BF102080F320
:105790001188BFF34F8FBFF36F8F00BF00BFFEE7CD
:1057A00006480068401E054908600846006820B9A0
:1057B000002080F3118800BF00BF7047F402002072
:1057C00070B506463546002E44D0083D2C46224989
:1057D00060680968084008B1012000E0002050B965
:1057E00000BF102080F31188BFF34F8FBFF36F8F7E
:1057F00000BF00BFFEE7206808B9012000E00020DC
:1058000050B900BF102080F31188BFF34F8FBFF352
:105810006F8F00BF00BFFEE70F496068096808404E
:10582000C0B12068B0B90C496068096888436060FD
:1058300000F0A2F80949606809680844074908604F
:105840002046FEF7BDFD06480068401C044908607C
:1058500000F0ECFB70BD0000EC020020DC02002038
:10586000E802002000204FF0E0210861886106482E
:1058700000684FF47A71B0FBF1F0401E4FF0E02168
:105880004861072008617047F002002070B50446A7
:105890000025D4B11248006808B9012000E00020BA
:1058A00050B900BF102080F31188BFF34F8FBFF3B2
:1058B0006F8F00BF00BFFEE700F05EF800212046BA
:1058C000FEF7CCFB00F0B2FB05463DB94FF080502F
:1058D00004490860BFF34F8FBFF36F8F70BD0000A6
:1058E000C802002004ED00E01CB51B4800210B4657
:1058F0008022CDE9001019A11A4800F0C3FA04462D
:10590000012C15D100BF102080F31188BFF34F8FF9
:10591000BFF36F8F00BF4FF0FF30134908600120C5
:105920001249086000201249086000F02FFA10E0C8
:10593000601C08B1012000E0002050B900BF102019
:1059400080F31188BFF34F8FBFF36F8F00BF00BF8D
:10595000FEE7084800681CBDC002002049444C45D1
:105960000000000081420008BC020020A8020020C4
:10597000A0020020C402002002480068401C014927
:1059800008607047C80200201D48006818B1012057
:105990001C49086032E000201A4908601A48006873
:1059A000B0FA80F0C0F11F0101EB8100174A52F8F4
:1059B000200008B1012000E0002050B900BF1020F5
:1059C00080F31188BFF34F8FBFF36F8F00BF00BF0D
:1059D000FEE701EB81020D4B03EB82004268526847
:1059E000426000F108024368934202D14268526863
:1059F00042604268D268064B1A6000BF70470000E0
:105A0000C8020020B0020020A402002018060020D6
:105A10008C0200201CB501211848FCF705F96846E6
:105A2000FCF79CFD01208DF8070000208DF8040094
:105A300010208DF8060004208DF805000820009045
:105A400069460F48FCF795FD1020009069460C4808
:105A5000FCF78FFD2020009069460948FCF789FD7E
:105A600008210748FCF776FD10210548FCF772FD78
:105A700020210348FCF76EFD1CBD00000400180047
:105A8000001001404AF6AA20014908607047000052
:105A9000003000400349496860F30201014A516047
:105AA00070470000003000404CF6CC4001490860CF
:105AB000704700000030004018B90021034A11600F
:105AC00003E045F25551014A116070470030004033
:105AD0000149886070470000003000407CB50646F0
