:020000040800F2
:1000000050140020850100089F0200089702000894
:100010009B0200089102000829040008000000006B
:10002000000000000000000000000000A302000823
:100030009502000800000000A1020008A5020008C7
:100040009F0100089F0100089F0100089F01000810
:100050009F0100089F0100089F0100089F01000800
:100060009F0100089F0100089F0100089F010008F0
:100070009F0100089F0100089F0100089F010008E0
:100080009F0100089F0100089F0100089F010008D0
:100090009F0100089F0100089F0100089F010008C0
:1000A0009F0100089F0100089F0100089F010008B0
:1000B0009F010008450300089F0100089F010008F8
:1000C0009F0100089F0100089F0100089F01000890
:1000D0009F010008A90300089F0100089F01000874
:1000E0009F0100089F0100089F0100080000000018
:1000F0000000000000000000000000000000000000
:10010000000000009F0100089F010008000000009F
:100110009F0100089F01000800000000000000008F
:100120009F0100089F0100089F0100089F0100082F
:1001300000000000000000000000000000000000BF
:100140000000000000000000000000009F01000807
:1001500000000000000000009F0100089F0100084F
:100160000000000000000000000000009F010008E7
:10017000DFF80CD000F07AF800480047E9100008DA
:10018000501400200648804706480047FEE7FEE777
:10019000FEE7FEE7FEE7FEE7FEE7FEE7FEE7FEE737
:1001A000A9020008710100082DE9F05F0546002052
:1001B00092469B4688460646814640241BE02846D8
:1001C00041464746224600F041F853465A46C01A77
:1001D000914110D311461846224600F028F82D1AF6
:1001E00067EB01084F4622460120002100F01FF86E
:1001F00017EB00094E41201EA4F10104DFDC484644
:1002000031462A464346BDE8F09FD2B201E000F8ED
:10021000012B491EFBD270470022F6E710B51346AA
:100220000A4604461946FFF7F0FF204610BD202A73
:1002300004DB203A00FA02F1002070479140C2F13D
:10024000200320FA03F3194390407047202A04DB6F
:10025000203A21FA02F00021704721FA02F3D0403F
:10026000C2F120029140084319467047064C074DE1
:1002700006E0E06840F0010394E807009847103476
:10028000AC42F6D3FFF778FFBC160008DC16000876
:1002900000BFFEE7704700BFFEE700BFFEE7704704
:1002A00070477047704700002248C06920F08050B6
:1002B00000F180501F49C8611F48007840F00400D9
:1002C0001D49503981F850001A48C06920F080500B
:1002D0001849C8610846006820F00100401C086009
:1002E00000BF14480068C0F340000028F9D011484E
:1002F000406820F003000F49486000BF0D48406887
:10030000C0F381000028F9D10A4800680B49084071
:10031000084908600020486041F61070C8624FF438
:10032000801008634FF41F008860C8030449086008
:10033000704700000010024050700040FFFFF2FEC6
:1003400008ED00E010B50121134801F08EF80128F6
:1003500020D10121104801F085F8002000F0D4F9E7
:100360000E480078B0B10E480078401CC0B20C496D
:10037000087008B9FF20087009480078022801DDDC
:1003800000F0DCF906480078052803DD0021054867
:1003900000F052FC10BD0000000400400D000020E1
:1003A0000C0000200400180010B500201B49087044
:1003B00020211B4801F001F970B3194801F0F0F851
:1003C00004461848B0F80408B0F5806F08DB002038
:1003D0001449A1F80408A1F80008A1F802081BE0DC
:1003E0001048B0F80408401C0E49A1F8040808465B
:1003F000B0F80018B0F80008401C0A4AA2F800083B
:10040000104620F81140B0F80008B0F5806F03DB0B
:1004100000201146A1F8000810BD00000C000020CB
:10042000003801404A08002000BFFEE7002807DB33
:1004300000F01F0201219140024A430942F82310B3
:100440007047000080E200E002E008C8121F08C107
:10045000002AFAD170477047002001E001C1121F45
:10046000002AFBD17047000010B504462068A0F1B7
:100470000050B0F5603F22D20021114800F0DCFBB3
:100480000021104800F0D8FB00210E480C3800F085
:10049000D3FB252000F04EFE1D2000F04BFE252052
:1004A000FFF7C4FF1D20FFF7C1FF07496068086020
:1004B000206880F3088800BF08460068804710BDA8
:1004C00001001C000E0018000800002010B50024D8
:1004D00048480078F0B948480078022806D1002042
:1004E0004549087001204349087081E0424800787E
:1004F000042805D100204049087000F057F977E042
:100500003D480078032873D100203B49087000F073
:1005100015F96DE037480078012807D13749087090
:1005200002203449087000F041F961E03148007858
:10053000022836D132480078042828D13148407842
:1005400001063048807801EB00412E48C07801EB6D
:1005500000212C4800790C182B48844211D32B48D9
:100560000068800200F10060A0420AD92549491DB7
:10057000204600F09DFC00202149087000F016F98B
:1005800036E000201E49087000F0D8F830E01C4822
:10059000007805282CD100201949087000F0CEF809
:1005A00026E014480078032822D113480078022856
:1005B00015D100201049087000F0F8F81248406882
:1005C00000F07F40B0F1006F05D100F0E1FB0E4874
:1005D000FFF74AFF0CE003200749087008E00648CF
:1005E0000078032804D100200349087000F0A6F821
:1005F00010BD000002000020010000200D000020BE
:10060000000000204400002000400008E0F7FF1F29
:1006100003480078022800D170470120FCE7000061
:100620000038000810B500F027FC002000F030F87A
:10063000012000F02DF8022000F02AF8002000F040
:100640004FF8012000F04CF8022000F049F800F0CB
:1006500001F810BD1CB501210B4800F0EDFA684609
:1006600000F0DCFC01208DF8070000208DF804006C
:100670008DF806000120009028208DF805006946BD
:10068000024800F0D6FC1CBD020018000008014022
:100690001CB504460F4951F82400012100F0CCFAA2
:1006A000684600F0BBFC01208DF8070000208DF8A3
:1006B000040010208DF80600074830F81400009060
:1006C00004208DF80500054951F82400694600F022
:1006D000B0FC1CBD240000201C00002010000020E5
:1006E000022800DD7047064931F8101031B1044985
:1006F00031F81010034A52F82020116100BFF1E7D1
:100700001C00002010000020022800DD704709496D
:1007100031F8101059B1084951F82010C968054A3C
:1007200032F810205140044A52F82020D16000BF16
:10073000ECE700001C0000201000002010B5EE21A6
:10074000124800F031FF00BF4021104800F035FF93
:100750000028F9D0FF210D4800F026FF00BF4021FE
:100760000A4800F02AFF0028F9D000200849087044
:100770000849087008490870084908700849086065
:10078000084908700849087010BD00000038014091
:1007900000000020010000200200002003000020D3
:1007A000040000200C0000200D00002010B5CC211A
:1007B0000A4800F0F9FE00BF4021084800F0FDFEA5
:1007C0000028F9D0DD21054800F0EEFE00BF4021F1
:1007D000024800F0F2FE0028F9D010BD00380140B8
:1007E00070B55A49B1F80418002902DD00F014FB75
:1007F00000E070BD56490978E1B95649097829B930
:100800005A2802D10121534A11709CE051490978BC
:100810000129FAD1012803D102214E4A117092E038
:10082000A52803D104214B4A11708CE00321494AC9
:10083000117088E04649097802296AD14649097849
:1008400031B101291AD002292BD003295FD13DE013
:10085000312807D10121404A117000213F4A11700F
:100860003F4A11605A2808D13A49097829B901212B
:10087000384A11700321364A117049E03949374A24
:100880001278885435490978491C344A1170114648
:100890000978042904DB0021117002212E4A11700D
:1008A00036E03049091D2E4A126888542C490968DF
:1008B000491C2B4A116011460968B1F5006F04D339
:1008C000002111600321244A117021E00025002439
:1008D00005E02449095D2944CDB2611C8CB2042C89
:1008E000F7DB002406E01F49091D095D2944CDB24C
:1008F000611C8CB2B4F5006FF5DB854203D1042195
:10090000154A117002E00521134A117000E000BF82
:1009100019E00F490978032915D10E49097829B939
:100920005A2810D101210B4A11700CE009490978AD
:10093000012908D1022803D10221064A117002E0E0
:100940000321044A117000BF53E700004A08002049
:100950000200002001000020000000200300002011
:1009600004000020450000200349496860F3071196
:10097000014A516070470000001002400349496875
:1009800060F30A21014A51607047000000100240E4
:100990000349496860F3CD21014A51607047000066
:1009A00000100240012807D10749496D21F03001AC
:1009B0003031054A516505E00349496D21F03001A8
:1009C000014A51657047000000100240052827D2F7
:1009D000DFE800F0030A11181F00134A126861F3E0
:1009E0000002114B1A601CE00F4A126861F31042BA
:1009F0000D4B1A6015E00C4A126861F318620A4B3D
:100A00001A600EE0084A126A61F30002064B1A628D
:100A100007E0054A526A61F30002034B5A6200E0A4
:100A200000BF00BF70470000001002402DE9F04FEA
:100A300085B004460025AA46AB460026A9460020FC
:100A4000049003900290019000F0DEF9009000986D
:100A500020B1012812D0022875D112E05648406D0D
:100A6000C0F3402038B15448006BC0F3406010B16F
:100A70005248206001E05248206067E05048206002
:100A800064E04D484068C0F3004B4B48C06AC00F5B
:100A900030BB49484068C0F3834547484068C0F3CD
:100AA000417ABAF1000F01D10F2D04D14FEA0A109B
:100AB000401C054400E0AD1CBBF1000F03D14148D0
:100AC000684320603DE03C484068C0F3404018B1B6
:100AD0003C486843206034E039486843206030E097
:100AE0003548C06AC0F3031003903348C06AC0F3AE
:100AF000082002903048C06A00F007000190BBF166
:100B0000000F02D12F48049009E02B484068C0F341
:100B1000404010B12B48049001E029480490012185
:100B2000019801FA00F0039900FB01FC0299049876
:100B3000A0FB01700146624600233846FFF734FBF4
:100B4000206003E0FFE71E48206000BF00BF1A4896
:100B50004068C0F303161C4810F80690206820FA7D
:100B600009F0606014484068C0F30226174810F886
:100B70000690606820FA09F0E0600F484068C0F312
:100B8000C226134810F80690606820FA09F0A060A9
:100B900009484068C0F3007607484068C0F38130D8
:100BA00040EA86060B4810F80690A068B0FBF9F002
:100BB000206105B0BDE8F08F00100240006CDC023F
:100BC00000127A0000093D00821600089216000803
:100BD0009A160008A216000810B501460020094B1D
:100BE00003EB1142126801F01F040123A3401A40D5
:100BF00001F01F040123A3409A4200D000E001202D
:100C000010BD00000010024030B50024002500E0B7
:100C1000641C1120FFF7E0FF012802D0B4F5405F0B
:100C2000F6D31120FFF7D8FF012801D0002500E0FE
:100C30000125284630BD000010B501290DD10E4B0D
:100C400003EB1042126800F01F040123A3401A4373
:100C5000094C04EB10431A600CE0074B03EB104205
:100C6000126800F01F040123A3409A43024C04EBD6
:100C700010431A6010BD00000010024030B502465B
:100C80000020002372B9354C646824F48034334D5D
:100C90006C6033482C46246B24F0007404F100741B
:100CA0002C6319E02D4C646824F4803404F58034FE
:100CB0002A4D6C60012A06D12A482C46646824F427
:100CC00000346C6008E02648244C646824F4003446
:100CD00004F50034214D6C60234CA04204D9234C10
:100CE000A04201D2002326E0214CA04204D9214C8D
:100CF000A04201D201231EE01F4CA04204D91F4C88
:100D0000A04201D2022316E01C4CA04204D91C4C84
:100D1000A04201D203230EE01A4CA04204D91A4C7F
:100D2000A04201D2042306E0174CA04203D9174C7D
:100D3000A04200D20523094C646861F39544074D35
:100D40006C600D09054C646865F35E74034D6C605E
:100D50002C46E46A63F31A64EC6230BD0010024072
:100D600000093D0000127A0060823B00404B4C00BD
:100D700080584F00105E5F0094357700101B7F0095
:100D800020BCBE00286BEE0030D73D01D8E9DC0165
:100D90001648006820F00100401C1449086000BF9C
:100DA00012480068C0F340000028F9D00F4840689E
:100DB00020F003000D49486000BF0C484068C0F3B4
:100DC00081000028F9D1094800680949084007490D
:100DD00008600020486041F61070C8624FF480102F
:100DE00008634FF41F008860704700000010024045
:100DF000FFFFF2FE0349496860F30101014A5160B7
:100E0000704700000010024002484068C0F38100B3
:100E1000704700000010024010B50022134914482A
:100E200000F00AFC1348B0F80408401E1149A1F86C
:100E3000040801220D490E4800F0FEFB0D48B0F8F1
:100E40000218B0F80208401C0A4AA2F8020810462C
:100E500010F81140B0F80208B0F5806F03DB0020F5
:100E60001146A1F80208204610BD000005000C0044
:100E7000003801404A08002010B5042000F0CCFAE8
:100E8000074800680749B0FBF1F0074908600846C9
:100E900000684FF47A7148430449086010BD0000AF
:100EA0004000002040420F003000002034000020AD
:100EB0002DE9F04105460E4600F096F8284600F070
:100EC00073F80F480068FF2803D805F5806000F02C
:100ED0006BF800240CE0315D601C305C01EB0020FD
:100EE00087B23946284600F00DF8AD1CA01C84B22C
:100EF000B4F5006FEFDB00F021F8BDE8F0810000F1
:100F0000E0F7FF1F70B504460D4603260A48006946
:100F100020F00100401C0849086125804FF4801032
:100F200000F030F806460448006920F0010002494C
:100F30000861304670BD000000200240034800698F
:100F400020F0800080300149086170470020024095
:100F500003200B49C96801F0010109B100200EE02E
:100F60000749C968C1F3800109B1012007E00449BC
:100F7000C968C1F3001109B1022000E003207047E5
:100F80000020024000B502460323FFF7E1FF0346BD
:100F900003E0FFF7DDFF0346521E0BB9002AF8D12C
:100FA00002B90423184600BD30B5044603250D4898
:100FB000006920F00200801C0A490861084644616B
:100FC000006920F04000403008614804FFF7DAFF74
:100FD00005460448006920F00200024908612846DD
:100FE00030BD000000200240024803494860034829
:100FF000486070472301674500200240AB89EFCD70
:10100000044800680449884201D10120704700204B
:10101000FCE7000000380008384B54414FF6FF71E0
:101020000160002181710171042141710121C171AF
:101030007047F0B50A461588ABB29579032D01D1FA
:1010400000241AE0957965B9557905F00F045579B2
:10105000182D01D1036110E05579282D0DD1436180
:101060000BE0957905F00805167906F0040635437E
:10107000D67906F0030645EA0604DDB2A5B10021E3
:1010800010E001258D401D405DB105688F000F26E1
:10109000BE40B543056005688E0004FA06F6354388
:1010A0000560491C0829ECD3FF2B15DD1B1200211C
:1010B00010E001258D401D405DB145688F000F2671
:1010C000BE40B543456045688E0004FA06F63543D8
:1010D0004560491C0829ECD3F0BD10B5FFF780FB33
:1010E000FFF7F4F910BD000000F0B2F8FFF79AFA2C
:1010F000032000F099F8FFF78BFA022803D10B4880
:10110000FFF7B2F902E00A48FFF7AEF94FF4E13019
:1011100000F0EEF9FFF774FF08B1FFF747FB00F0AE
:10112000ADF901E0FFF7D9FFFCE7000000C00108BE
:101130000040000810B50146084600280BDB00F00F
:101140001F0301229A40054B440943F82420BFF3B2
:101150004F8FBFF36F8F00BF10BD000080E100E034
:101160002DE9F0470B4614464FF0000C00BF2C4A07
:101170001268C2F302211D4626460A46C2F107093B
:10118000B9F1040F02D94FF0040901E0C2F10709D7
:10119000C84602F10409B9F1070F02D24FF0000965
:1011A00001E0A2F103094F464FF0010909FA08F9DD
:1011B000A9F1010909EA050909FA07F94FF0010A3D
:1011C0000AFA07FAAAF1010A0AEA060A49EA0A092A
:1011D000CC4601466246002904DB15072E0E114D50
:1011E0006E5407E015072F0E0D4D0C3501F00F065C
:1011F000361FAF5500BF014600290DDB00BF00BF01
:1012000001F01F050122AA404D09AD0005F1E025BE
:10121000C5F8002100BF00BF00BFBDE8F087000097
:101220000CED00E000E400E000BF00F00702064B18
:1012300019684FF6FF031940044B0B4343EA0221A0
:10124000014B196000BF70470CED00E00000FA058B
:1012500010B54FF4AA701A490860FFF799FD0121F3
:101260000846FFF7B3FB00BFFFF7CEFC0028FBD01A
:1012700023210220FFF702FD01210220FFF7A6FB38
:1012800000BF1920FFF7A8FC0128FAD10020FFF7C2
:101290006BFB0420FFF77CFB0420FFF76FFB0120B2
:1012A000FFF780FB0220FFF7A5FD00BFFFF7ACFDB5
:1012B0000228FBD10020FFF775FB00F003F810BDFA
:1012C000002002402DE9FF5F002400250026A146F2
:1012D000A246A3460020039002900190FFF794FDE0
:1012E0000090009820B1012814D0022874D115E094
:1012F0004348406DC0F3402040B14148006BC0F30B
:10130000406018B13F484049086002E03F483E490C
:10131000086065E03D483C49086061E03848406845
:10132000C0F300463648C06AC00F20BB344840684E
:10133000C0F3834432484068C0F341750DB90F2CA7
:1013400003D12801401C044400E0A41C26B9304805
:1013500060432D4908603DE029484068C0F34040A3
:1013600020B12B4860432849086033E02748604398
:10137000254908602EE02248C06AC0F3031003909C
:101380001F48C06AC0F3082002901D48C06A00F0E0
:101390000700019016B9DFF878B009E018484068F6
:1013A000C0F3404010B1DFF868B001E0DFF85CB096
:1013B0000121019801FA00F0039900FB01FC029859
:1013C000ABFB00700146624600233846FEF7ECFE98
:1013D0000D49086004E0FFE70C480B49086000BFB6
:1013E00000BF07484068C0F303190A4810F809A075
:1013F0000548006820FA0AF003490860BDE8FF9F2D
:1014000000100240006CDC024000002000127A0054
:1014100000093D00AA160008042808D14FF0E02179
:10142000096941F004014FF0E022116107E04FF03B
:10143000E021096921F004014FF0E02211617047B9
:10144000C1628262436923F001035B1C4361704700
:10145000026861F3061202607047026861F30002DD
:1014600002607047CA430261704702460020136958
:101470000B400BB1012000E00020704710B586B092
:10148000142101A8FEF7C8FE01211148FFF7D4FB83
:10149000002201211D20FFF763FE01A8FFF7C6FA15
:1014A00042F210710298B0FBF1F422460948FFF7AE
:1014B000C7FF00210748FFF7CBFF0122114605486F
:1014C00000F00AF801210348FFF7C7FF06B010BD7E
:1014D00001001C0000040040012A03D1C3680B4333
:1014E000C36003E012B9C3688B43C3607047000058
:1014F0001CB5044601212648FFF79EFB0121244824
:101500000C38FFF799FB6846FFF788FD01208DF83E
:10151000070000208DF8040008208DF806008001E7
:10152000009004208DF8050069461A48FFF781FDF8
:1015300001208DF8070000208DF804008DF80600CA
:101540004FF48060009018208DF80500694611481E
:10155000FFF76FFD002211462520FFF701FE002353
:101560001A4621460C4800F031F801210A4800F0E3
:1015700083F80121084800F07AF80122074906485B
:1015800000F05AF80121044800F012F81CBD0000D8
:101590000E001800000801400038014005000C0052
:1015A0000146486880B27047C1F308024260704744
:1015B000C26861F34D32C26070470246106808404D
:1015C00008B1012070470020FCE700002DE9F0433E
:1015D00085B004460F46904699466846FFF726FABE
:1015E0001448844201D1029E00E0039E06EB86006F
:1015F0004000B0FBF7F50A20B5FBF0F100FB1150FD
:10160000052803D20A20B5FBF0F503E00A20B5FB5C
:10161000F0F0451CA06865F30F00A060E06868F377
:101620000C30E060206969F30D30206105B0BDE841
:10163000F08300000038014030B5012A0BD100EBE7
:1016400011431B6801F01F050124AC40234300EB4C
:10165000114423600AE000EB11431B6801F01F05F1
:101660000124AC40A34300EB1144236030BDC268A9
:1016700061F38202C2607047C26861F3C302C26054
:10168000704700000000000000000102030406078C
:10169000080900000000010203040000000001022C
:1016A000030402040608020C0810000000000000F9
:1016B000000001020304060708090000DC16000808
:1016C0000000002044000000480400082017000823
:1016D000440000200C140000580400080000000022
:1016E00000000000000000000000000000100140A9
:1016F000001001400010014004000800002000001C
:101700000400180004001800040018000000000085
:1017100000000000000000000100000000127A003C
:04000005080001717D
:020000040800F2
:1040000028770020E5420008D3480008C748000888
:10401000CF480008FD450008F94B000800000000EB
:104020000000000000000000000000004D420008F9
:10403000C54800080000000091420008D54800086B
:10404000FF420008FF420008FF420008FF4200084C
:10405000FF420008FF420008FF420008FF4200083C
:10406000FF420008FF420008FF420008FF4200082C
:10407000FF420008FF420008FF420008FF4200081C
:10408000FF420008FF420008FF420008FF4200080C
:1040900001460008FF420008D5460008FF4200081C
:1040A000FF420008FF420008FF420008FF420008EC
:1040B000FF420008FF420008FF420008CD48000808
:1040C000CB480008FF420008FF420008FF420008FA
:1040D000FF420008A5490008D54A0008FF42000831
:1040E000FF420008FF420008FF42000800000000F5
:1040F00000000000000000000000000000000000C0
:1041000000000000FF420008FF420008000000001D
:10411000FF420008FF42000800000000000000000D
:10412000FF420008FF420008FF420008FF4200086B
:10413000000000000000000000000000000000007F
:10414000000000000000000000000000FF42000826
:104150000000000000000000FF420008FF420008CD
:10416000000000000000000000000000FF42000806
:1041700000F002F800F05AF80AA090E8000C82441F
:104180008344AAF10107DA4501D100F04FF8AFF2FC
:10419000090EBAE80F0013F0010F18BFFB1A43F025
:1041A00001031847FC7500001C7600000A444FF01C
:1041B000000C10F8013B13F0070408BF10F8014B86
:1041C0001D1108BF10F8015B641E05D010F8016BCB
:1041D000641E01F8016BF9D113F0080F1EBF10F82F
:1041E000014BAD1C0C1B09D16D1E58BF01F801CB52
:1041F000FAD505E014F8016B01F8016B6D1EF9D5D5
:104200009142D6D3704700000023002400250026E9
:10421000103A28BF78C1FBD8520728BF30C148BF29
:104220000B6070471FB51FBD10B510BD00F0B3F98E
:104230001146FFF7F7FF02F00FF900F0D1F903B4D0
:10424000FFF7F2FF03BC00F0D9FC0000224B196815
:104250000868B0E8F00F80F30988BFF36F8F4FF064
:10426000000080F311884EF00D0E70470000000032
:1042700006480068006880F3088862B661B6BFF33C
:104280004F8FBFF36F8F00DF00BF00BF08ED00E06E
:10429000EFF30980BFF36F8F0F4B1A6820E9F00F1F
:1042A000106008B54FF0100080F31188BFF34F8FF6
:1042B000BFF36F8F06F04CFA4FF0000080F31188C7
:1042C000BDE8084019680868B0E8F00F80F3098875
:1042D000BFF36F8F704700BFA4040020EFF3058089
:1042E000704700000948804709480047FEE7FEE79D
:1042F000FEE7FEE7FEE7FEE7FEE7FEE7FEE7FEE796
:1043000004480549054A064B704700000949000862
:1043100071410008287100202877002028730020B0
:1043200028730020704753EA020C00F069802DE9E1
:10433000F04B4FF00006002B1FBFB3FA83F503FAD2
:1043400005F424FA05F65E4012BF1643B2FA82F570
:1043500002FA05F4C5F120051EBF22FA05FC44EA65
:104360000C04203556EA044C4FEA144418BF641C70
:104370004FF000084FF00009904271EB030C39D365
:10438000002919BFB1FA81F701FA07F6B0FA80F7F0
:1043900000FA07F6C7F120071EBF20FA07FC46EA1D
:1043A0000C062037B6FBF4FCA7EB0507103F07F01F
:1043B0001F0BCBF120060CFA0BFB2CFA06F644BFC0
:1043C000B3460026202FA4BF5E464FF0000B5BEAE9
:1043D000060C08BF4FF0010B19EB0B09ABFB027C7D
:1043E00048EB0608C01B06FB02CC0BFB03CC71EBB1
:1043F0000C01C1E70B46024641464846BDE8F08B3A
:1044000013B54FF000004FF00001AFF30080BDE89E
:104410001C40704710B5431C02E010F8011B71B13D
:104420008107FAD14FF0013202C88C1A8C4314EA8A
:10443000C211F9D0C01A0A0603D0C01E10BDC01A9E
:1044400010BD0A0401D0801E10BD0902FCD0401E20
:1044500010BD032A40F2308010F0030C00F01580EC
:1044600011F8013BBCF1020F624498BF11F801CB77
:1044700000F8013B38BF11F8013BA2F1040298BFDC
:1044800000F801CB38BF00F8013B11F0030300F046
:104490002580083AC0F0088051F8043B083A51F8EA
:1044A00004CBA0E80810F5E7121D5CBF51F8043BEF
:1044B00040F8043BAFF30080D20724BF11F8013B62
:1044C00011F801CB48BF11F8012B24BF00F8013BC4
:1044D00000F801CB48BF00F8012B704710B5203A17
:1044E000C0F00B80B1E81850203AA0E81850B1E8AD
:1044F0001850A0E81850BFF4F5AF5FEA027C24BF63
:10450000B1E81850A0E8185044BF18C918C0BDE859
:1045100010405FEA827C24BF51F8043B40F8043B22
:1045200008BF7047D20728BF31F8023B48BF11F8D7
:10453000012B28BF20F8023B48BF00F8012B704731
:104540004FF0000200B5134694469646203922BF2C
:10455000A0E80C50A0E80C50B1F12001BFF4F7AF77
:10456000090728BFA0E80C5048BF0CC05DF804EB59
:10457000890028BF40F8042B08BF704748BF20F8C7
:10458000022B11F0804F18BF00F8012B70477047C5
:10459000704770477047754600F02CF8AE4605002E
:1045A0006946534620F00700854618B020B5FFF74E
:1045B000A7FEBDE820404FF000064FF000074FF087
:1045C00000084FF0000B21F00701AC46ACE8C00931
:1045D000ACE8C009ACE8C009ACE8C0098D4670473A
:1045E00010B50446AFF300802046BDE81040FFF749
:1045F00026BE000000487047C470002000BFFEE7E0
:1046000000B585B009212B4800F030FD00284ED0C0
:104610006A460021274800F0E4FD0098FF2846D9AB
:104620000098B0F5006F42D240F2F17100988842D4
:1046300008D1142269462048FFF750FF01201F4986
:10464000087034E040F2F2710098884209D11422D7
:10465000694619481430FFF741FF012018490870D6
:1046600025E040F2F3710098884209D1142269468E
:1046700011482830FFF732FF01201249087016E078
:1046800040F2F4710098884209D1142269460A4820
:104690003C30FFF723FF01200B49087007E014228C
:1046A00069460A48FFF71AFF01200949087005B05A
:1046B00000BD00000064004068110020410000209F
:1046C000420000204300002044000020541100203C
:1046D0004000002008B5002000900421074800F0A9
:1046E000C5FC50B105481830006800F0700000901B
:1046F0000421024800F07CFC00BF08BD00640040BB
:104700002DE9FE4F8246CAF1FF0ABAF1550F43DA8E
:104710006A48007806F06AFC06460022684B06F0FC
:10472000C9FA04460D460AEB4A01C1F1FF0006F042
:1047300046FC804622462B4606F06CFCCDE9000183
:1047400006F010FCC0B28DF8090000208DF80800BA
:104750005A48007806F04AFC80460022584B06F082
:10476000A9FA04460D460AEB4A0006F028FC064664
:1047700022462B4606F04EFCCDE9000106F0F2FB86
:10478000C0B28DF80A00BDF8081008469DF80A105E
:1047900040EA0140BDE8FE8FBAF1AA0F46DAAAF15D
:1047A000550000F0FF0A00208DF80900434800780A
:1047B00006F01CFC0022424BCDE9000106F07AFA1B
:1047C00004460D460AEB4A0006F0F9FB064622466F
:1047D0002B4606F01FFC804606F0C4FBC0B28DF8E5
:1047E00008003648007806F001FC80460022344B71
:1047F00006F060FA04460D460AEB4A01C1F1FF00DB
:1048000006F0DDFB064622462B4606F003FCCDE90A
:10481000000106F0A7FBC0B28DF80A00BDF8081031
:1048200008469DF80A1040EA0140B3E7AAF1AA0041
:1048300000F0FF0A2148007806F0D8FB0646002267
:104840001F4B06F037FA04460D460AEB4A0006F005
:10485000B6FB804622462B4606F0DCFBCDE9000184
:1048600006F080FBC0B28DF809001448007806F00D
:10487000BDFB06460022124B06F01CFA04460D460C
:104880000AEB4A01C1F1FF0006F099FB804622467F
:104890002B4606F0BFFBCDE9000106F063FBC0B27A
:1048A0008DF8080000208DF80A00BDF808100846B1
:1048B0009DF80A1040EA01406CE70000B0000020BB
:1048C00000005940704700BFFEE77047704700BFC7
:1048D000FEE7704710B500BF102080F31188BFF3CA
:1048E0004F8FBFF36F8F00BF06F0BEF818B14FF0C7
:1048F00080500449086000BF002080F3118800BF89
:1049000010BD000004ED00E02248C06920F0805096
:1049100000F180501F49C8611F48007840F0040032
:104920001D49503981F850001A48C06920F0805064
:104930001849C8610846006820F00100401C086062
:1049400000BF14480068C0F340000028F9D01148A7
:10495000406820F003000F49486000BF0D484068E0
:10496000C0F381000028F9D10A4800680B490840CB
:10497000084908600020486041F61070C8624FF492
:10498000801008634FF41F008860C8030449086062
:10499000704700000010024050700040FFFFF2FE20
:1049A00008ED00E010B52021454805F01DFC002869
:1049B00072D02021424805F00EFC424800780028C1
:1049C0006AD14148007840B93D4805F0F7FB5528C9
:1049D00062D101203C4908705EE03B480078012824
:1049E00008D1374805F0EAFBAA2855D102203649FC
:1049F000087051E034480078022819D15520334915
:104A000081F88000AA21314880F881102C4805F0F7
:104A1000D5FBC1B22D4880F8821090F8820085281D
:104A20003ADC0320294981F881012749087033E0E5
:104A30002548007803282FD1214805F0BFFBC1B2DB
:104A4000224890F8812190F88101401C1F4B83F887
:104A5000810103F180008154803890F8811190F831
:104A60008200401D814217D1184690F8812100F143
:104A700080011748FFF732FD01201249087001023A
:104A800012488030FFF75CFD0020104981F8810159
:104A900081F883010C4908704021094805F0A4FB06
:104AA00018B14021064805F096FB8021044805F026
:104AB0009BFB18B18021024805F08DFB10BD000062
:104AC0000038014032000020380000201805002086
:104AD0002008002010B52021424805F085FB002861
:104AE0007BD020213F4805F076FB3F480078002826
:104AF00073D13E48007840B93A4805F05FFB55282D
:104B00006BD101203949087067E0384800780128E6
:104B100008D1344805F052FBAA285ED1022033495F
:104B200008705AE031480078022822D155203049D7
:104B300081F88000AA212E4880F88110294805F0CC
:104B40003DFBC1B22A4880F8821090F88200852887
:104B500005DC0320264981F8810124490870244896
:104B600090F88200852838D18521214880F882106C
:104B700033E01E48007803282FD11A4805F01EFBA9
:104B8000C1B21B4890F8812190F88101401C184B5C
:104B900083F8810103F180008154803890F88111FD
:104BA00090F88200401D814217D1184690F881216B
:104BB00000F180010F48FFF791FC01200A490870BD
:104BC00001020B488030FFF7BBFC0020084981F848
:104BD000810181F88301054908708021014805F0B1
:104BE00003FB10BD004400403300002039000020CA
:104BF0009C0600204008002000BFFEE700BF704771
:104C000010B50446012C04D18021044801F0A0F91C
:104C100003E08021014801F099F910BD000801402E
:104C200000200FE000220B490A540021094A121FFC
:104C300011540A220749091D0A540022091D0A5469
:104C4000411CC8B20428EDDB0021024A121F117476
:104C500070470000BC11002030B502460020002340
:104C6000146824F002041460146824F00104641C25
:104C7000146000E05B1C546804F001041CB94FF69A
:104C8000FF74A342F6D1546804F00104002C3FD015
:104C90004D78146865F3C71414608D78146865F353
:104CA00086141460CD78146865F3451414600D798A
:104CB000146865F3041414604D79146865F3C30433
:104CC00014608D79146865F3820414600C78D569DA
:104CD00064F39E75D5610C786508D46965F3DF745B
:104CE000D461146824F001041460002300E05B1C0C
:104CF000546804F001041CB14FF6FF74A342F6D1CE
:104D0000546804F001040CB1002002E0012000E02E
:104D1000002030BD30B5024600200023146824F086
:104D200002041460146824F00104641C146000E0A0
:104D30005B1C546804F001041CB94FF6FF74A342D5
:104D4000F6D1546804F001045CB30C88641ED56984
:104D500064F30B05D5618D78D46965F31964D4616A
:104D6000CD78D46965F31344D4610D79D46965F3C2
:104D70001654D461146824F001041460002300E088
:104D80005B1C546804F001041CB14FF6FF74A3428D
:104D9000F6D1546804F001040CB1002002E00120B7
:104DA00000E0002030BD000000B589B0012130488E
:104DB00000F0BAFE07A800F05FF800208DF81C0094
:104DC0008DF81D0001208DF81E008DF81F000020B9
:104DD0008DF820008DF8210001208DF8220007A910
:104DE0002448FFF739FF1220ADF8140000208DF899
:104DF000160005208DF8170000208DF8180005A971
:104E00001C48FFF787FF01208DF8040000208DF873
:104E100005008DF806008DF8070001208DF80800C8
:104E20000020ADF80A00ADF80C00ADF80E00ADF8AA
:104E3000100001A90F4800F028F8002211461620A2
:104E400001F004FC00221146142001F0FFFB0122B6
:104E50000221084800F0BCF90122D102054800F007
:104E6000B7F90122D103034800F0B2F909B000BD3F
:104E700019001C0000640040002141708170C17065
:104E80000171417181710170704730B50022CC7899
:104E9000012303FA04F2D0F8003223F001035B1C73
:104EA000C0F80032D0F81C329343C0F81C320B79A2
:104EB00013B1012B5AD12CE0D0F80C329343C0F837
:104EC0000C328B891C04CD7800F5107343F8354003
:104ED000CC7853F834300C892343CD7800F5107426
:104EE00044F835304B891C04CD7800F5107303EB82
:104EF000C5035C60CC7800F5107303EBC4035B68FA
:104F0000CC882343CD7800F5107404EBC5046360AE
:104F10002DE0D0F80C321343C0F80C32CB881C04BF
:104F2000CD7800F5107343F83540CC7853F8343021
:104F30000C892343CD7800F5107444F835304B8943
:104F40001C04CD7800F5107303EBC5035C60CC78CE
:104F500000F5107303EBC4035B688C892343CD78A1
:104F600000F5107404EBC504636000E000BF00BFEF
:104F70004B7813B1012B0CD105E0D0F804329343E8
:104F8000C0F8043206E0D0F804321343C0F804320B
:104F900000E000BF00BF8B7813B1012B0CD105E0FE
:104FA000D0F814329343C0F8143206E0D0F814322B
:104FB0001343C0F8143200E000BF00BF0B783BB1D0
:104FC000012B0BD1D0F81C321343C0F81C3206E081
:104FD000D0F81C329343C0F81C3200E000BF00BF81
:104FE000D0F8003223F00103C0F8003230BD0000D9
:104FF000122935D2DFE801F034090A0B0F0C14171F
:105000001B341F223425282B2E3100BF00BF00BFC8
:105010000422426025E0042242600022826120E0F6
:10502000012282601DE04FF48072826019E04FF42B
:105030008032826015E00822C26012E01022C26055
:105040000FE0082202610CE01022026109E0082250
:10505000426006E01022426003E0034A826000E002
:1050600000BF00BF704700000101010002460020A0
:1050700012296FD2DFE801F06E090D11151D2125EF
:10508000292D35393D45494D515D936903F00100A6
:1050900062E09369C3F340005EE09369C3F380006C
:1050A0005AE09369C3F302130BB1012000E0002022
:1050B00052E05368C3F380004EE0936803F00100B0
:1050C0004AE09368C3F3002046E09368C3F30040CE
:1050D00042E0D36803F003030BB1012000E000209D
:1050E0003AE0D368C3F3C00036E0D368C3F30010DE
:1050F00032E0136903F003030BB1012000E000204C
:105100002AE01369C3F3C00026E01369C3F300105B
:1051100022E05368C3F3C0001EE05368C3F34003AA
:105120001BB95368C3F300130BB1012000E000204A
:1051300012E09368C3F380633BB99368C3F3C06321
:105140001BB99368C3F300730BB1012000E000208A
:1051500002E0FFE7002000BF00BF70471CB501213F
:10516000184800F0E1FC01214FF4C01000F0DCFC15
:105170000121154800F04EFF684600F0EBFE0120CB
:105180008DF8070000208DF8040008208DF8060037
:105190008001009004208DF8050069460B4800F05E
:1051A000E4FE01208DF8070000208DF806004FF482
:1051B0008070009018208DF805006946034800F0C3
:1051C000D4FE1CBD030018000204002C000C01409A
:1051D0001AB143690B43436102E043698B43436166
:1051E000704730B505460C46134605F5D87000EB00
:1051F00004100068C0F380001872187A10B10128FA
:1052000013D107E005F5D87000EB04100068400DDD
:1052100018600BE005F5D87000EB041000686FF023
:10522000604101EAD000586000E000BF00BF05F512
:10523000D87000EB04100068C0F34000587205F508
:10524000D87000EB0410406800F00F00987205F56C
:10525000D87000EB04104068000AD87405F5D870C7
:1052600000EB04108068D87205F5D87000EB0410CC
:105270008068010A197305F5D87000EB0410806886
:10528000010C597305F5D87000EB04108068010E0D
:10529000997305F5D87000EB0410C068D87305F554
:1052A000D87000EB0410C068010A197405F5D870B5
:1052B00000EB0410C068010C597405F5D87000EBC0
:1052C0000410C068010E99742146284600F001F8C8
:1052D00030BD11B1012906D102E02022C26003E0F5
:1052E0002022026100E000BF00BF70471BE18E4832
:1052F0000078012805D1002001F0B2FB00208A4986
:1053000008708A480078012804D101F0A9FB002028
:105310008649087086480078012805D1022001F0EE
:105320009FFB00208249087082480078012805D13F
:10533000032001F095FB00207E4908707E4800782C
:10534000012870D17D480068B0F5D66F68D02DDC9B
:10535000B0F5D26F62D015DCB0F5D06F5DD009DC4E
:10536000A0F28120B8B3102852D0202851D0302884
:1053700073D14FE0A0F2816070B301286FD0022892
:1053800079D172E0B0F5D46F49D007DCA0F291601A
:10539000A0B3012864D002286DD167E0A0F2A1601B
:1053A00068B301285DD0022865D160E040F29272B6
:1053B000811A90424CD017DC40F28172A0EB0201BE
:1053C000904238D009DCA0F2B16068B3012849D01E
:1053D000022850D14CE01AE027E0012937D00229F9
:1053E0002FD0102947D127E011292CD008DC012922
:1053F00028D00F2921D010293DD12AE016E016E04F
:105400001F291BD0202925D0212934D11CE000BF21
:1054100000BF00BF01F014FE2EE000BF00BF00BFC0
:1054200001F0A6FD28E02BE002E000BF00BF00BFB6
:1054300002F006FB20E000BF00BF00BF02F000F951
:105440001AE000BF00BF00BF02F088F814E000BF00
:1054500000BF00BF01F0E8FE0EE00CE0FFE700BF78
:1054600000BF00BF02F07CF906E000BF00BF00BF34
:1054700002F016F900E000BF00BF00202E490870BE
:105480002F48007C282840DB00202D490874002488
:1054900038E02B48015D001D005D814207D028489F
:1054A000015D001D01550021001D015507E0244844
:1054B0000830005D401CC1B2214808300155204829
:1054C0000830005D0A2817DBFF2004EB44011D4A69
:1054D00022F8210004EB440102EB8101488004EB37
:1054E000440102EB81018880002115480C300155F0
:1054F0000A21001F015503E0012111480C3001551C
:10550000601CC4B2042CC4DB00240D48007C401C89
:105510000B4908740C48006840F010000A49086004
:10552000052005F097F8E2E6410000204200002047
:1055300043000020440000204000002054110020BF
:10554000B81100208C150020900400207047000046
:105550000EE003F023FE03F0BFFC03F02FFC32202B
:1055600005F078F80348006840F008000149086039
:10557000EFE700009004002010B500F00DF84FF4A4
:105580000061044800F0E2FC4FF48051014800F053
:10559000DDFC10BD000801401CB50121114800F0E0
:1055A000C3FA01210F4800F0BFFA684600F0D2FCB0
:1055B00001208DF8070000208DF8040010208DF8E0
:1055C0000600C001009004208DF8050069460648D9
:1055D00000F0CBFC4FF4805000906946024800F088
:1055E000C4FC1CBD020018000008014010B50446B0
:1055F000012C04D18021044800F0A8FC03E08021A4
:10560000014800F0A5FC10BD000C014010B5124887
:10561000807C012804D103F0FBF800200E49887437
:105620000D48007D012804D103F04EF800200A49FE
:1056300008750948807D012804D102F099FE0020F8
:10564000054988750448007E012804D102F040FE17
:1056500000200149087610BD1016002010B51E4824
:1056600090F82400012806D1002003F073FC0020EC
:10567000194981F82400184890F82600032806D11B
:10568000012003F067FC0020134981F8260012482E
:1056900090F82700032806D1022003F05BFC0020CD
:1056A0000D4981F827000C4890F82800032805D1FF
:1056B00003F050FC0020084981F82800064890F8C3
:1056C0002900032806D1042003F044FC00200249ED
:1056D00081F8290010BD00001016002010B51848F0
:1056E0000078012804D103F063FA002014490870FF
:1056F00013488078012805D1002003F0DDFC00204C
:105700000F4988700E48C078012804D103F0D4FCFA
:1057100000200B49C8700A480079012805D10220F1
:1057200003F0CAFC002006490871054840790128A9
:1057300005D1032003F0C0FC00200149487110BDD1
:105740001016002030B502460B464FF6FF700021C0
:1057500011E0555C6840002409E000F0010525B126
:1057600040104AF20105684000E04010641C082C1B
:10577000F3DB4D1CE9B29942EBDB30BD024682EA15
:10578000010070470349496860F30711014A5160FD
:1057900070470000001002400349496860F30A2185
:1057A000014A5160704700000010024003494968F7
:1057B00060F3CD21014A51607047000000100240A3
:1057C000012807D10749496D21F030013031054AE0
:1057D000516505E00349496D21F03001014A5165E9
:1057E0007047000000100240052827D2DFE800F0D3
:1057F000030A11181F00134A126861F30002114BCB
:105800001A601CE00F4A126861F310420D4B1A60D7
:1058100015E00C4A126861F318620A4B1A600EE038
:10582000084A126A61F30002064B1A6207E0054A51
:10583000526A61F30002034B5A6200E000BF00BFEE
:1058400070470000001002402DE9F04F85B004467B
:105850000025AA46AB460026A946002004900390E6
:105860000290019000F042FA0090009820B10128C7
:1058700012D0022875D112E05648406DC0F3402086
:1058800038B15448006BC0F3406010B152482060FA
:1058900001E05248206067E05048206064E04D48D5
:1058A0004068C0F3004B4B48C06AC00F30BB49484A
:1058B0004068C0F3834547484068C0F3417ABAF175
:1058C000000F01D10F2D04D14FEA0A10401C0544EE
:1058D00000E0AD1CBBF1000F03D1414868432060DC
:1058E0003DE03C484068C0F3404018B13C48684344
:1058F000206034E039486843206030E03548C06AB1
:10590000C0F3031003903348C06AC0F3082002902C
:105910003048C06A00F007000190BBF1000F02D1CF
:105920002F48049009E02B484068C0F3404010B174
:105930002B48049001E0294804900121019801FAC4
:1059400000F0039900FB01FC02990498A0FB017090
:105950000146624600233846FEF7E5FC206003E07E
:10596000FFE71E48206000BF00BF1A484068C0F330
:1059700003161C4810F80690206820FA09F06060B1
:1059800014484068C0F30226174810F80690606873
:1059900020FA09F0E0600F484068C0F3C2261348BF
:1059A00010F80690606820FA09F0A0600948406885
:1059B000C0F3007607484068C0F3813040EA8606AD
:1059C0000B4810F80690A068B0FBF9F0206105B014
:1059D000BDE8F08F00100240006CDC0200127A007B
:1059E00000093D0040B7000850B7000858B700084C
:1059F00060B70008324A811A904218D009DCA0F53D
:105A00000021082959D2DFE801F0222B343D465805
:105A1000584F891E062950D2DFE801F0030405061D
:105A2000070800BF00BF00BF00BF00BF00BF25497F
:105A3000496A21F0807101F18071224A516200BFF0
:105A40002049496AC1F300610029F9D136E01D49B6
:105A5000896821F4803101F580311A4A91602DE086
:105A60001849896821F4003101F50031154A916027
:105A700024E01449896821F4802101F58021114A2C
:105A800091601BE00F49896821F4002101F5002194
:105A90000C4A916012E00B49896821F4801101F5EC
:105AA0008011084A916009E00649896821F40001E3
:105AB00001F50001034A916000E000BF00BF70479C
:105AC000180024000010024010B501460020094BC8
:105AD00003EB1142126801F01F040123A3401A4096
:105AE00001F01F040123A3409A4200D000E00120EE
:105AF00010BD00000010024030B50024002500E079
:105B0000641C1120FFF7E0FF012802D0B4F5405FCC
:105B1000F6D31120FFF7D8FF012801D0002500E0BF
:105B20000125284630BD000010B501290DD10E4BCE
:105B300003EB1042126800F01F040123A3401A4334
:105B4000094C04EB10431A600CE0074B03EB1042C6
:105B5000126800F01F040123A3409A43024C04EB97
:105B600010431A6010BD00000010024030B502461C
:105B7000002000233AB9324C646824F48034304D5C
:105B80006C60304819E02E4C646824F4803404F5CD
:105B900080342B4D6C60012A06D12B482C4664685A
:105BA00024F400346C6008E02648254C646824F432
:105BB000003404F50034224D6C60244CA04204D91A
:105BC000234CA04201D2002326E0224CA04204D95B
:105BD000214CA04201D201231EE0204CA04204D956
:105BE0001F4CA04201D2022316E01D4CA04204D952
:105BF0001C4CA04201D203230EE01B4CA04204D94E
:105C00001A4CA04201D2042306E0184CA04203D94A
:105C1000174CA04200D20523094C646861F39544F7
:105C2000074D6C600D09064C646865F35E74044DA5
:105C30006C602C46E46A63F31A64EC6230BD0000C9
:105C40000010024000093D0000127A0060823B0013
:105C5000404B4C0080584F00105E5F009435770039
:105C6000101B7F0020BCBE00286BEE0030D73D012A
:105C7000D8E9DC011648006820F00100401C1449F6
:105C8000086000BF12480068C0F340000028F9D047
:105C90000F48406820F003000D49486000BF0C48E1
:105CA0004068C0F381000028F9D10948006809491B
:105CB0000840074908600020486041F61070C8623B
:105CC0004FF4801008634FF41F0088607047000095
:105CD00000100240FFFFF2FE0349496860F3010132
:105CE000014A5160704700000010024002484068BD
:105CF000C0F3810070470000001002401CB5012174
:105D00002C48FFF711FF01212A48FFF70DFF012161
:105D10002848801EFFF708FF01212648801EFFF754
:105D200003FF01212348401EFFF7FEFE0121214809
:105D3000401EFFF7F9FE01211E48401EFFF7F4FE4A
:105D4000684600F007F901208DF8070000208DF863
:105D5000040010208DF8060004208DF80500C00214
:105D600000906946144800F000F920200090694630
:105D7000114800F0FAF84020009069460F4800F002
:105D8000F4F88020009069460C4800F0EEF880207E
:105D9000009069460A4800F0E8F820200090694623
:105DA000074800F0E2F8402000906946044800F0FF
:105DB000DCF81CBD04001800001001400008014080
:105DC000000C01400149C8607047000000200240FB
:105DD00070B504460D4603260A48006920F001000C
:105DE000401C0849086125804FF4801000F030F80D
:105DF00006460448006920F0010002490861304667
:105E000070BD0000002002400348006920F08000BF
:105E100080300149086170470020024003200B498F
:105E2000C96801F0010109B100200EE00749C96805
:105E3000C1F3800109B1012007E00449C968C1F339
:105E4000001109B1022000E0032070470020024049
:105E500000B502460323FFF7E1FF034603E0FFF727
:105E6000DDFF0346521E0BB9002AF8D102B9042304
:105E7000184600BD10B50B46002104E004785C54C0
:105E8000401C4C1CA1B29142F8DB10BD30B5044659
:105E900003250D48006920F00200801C0A490861B2
:105EA00008464461006920F0400040300861480421
:105EB000FFF7CEFF05460448006920F002000249C2
:105EC0000861284630BD0000002002400248034916
:105ED000486003484860704723016745002002403E
:105EE000AB89EFCD01B507202BE09DF80010C0F184
:105EF0000702114101F0010109B1FC2100E0C021BC
:105F0000114A11549DF80110C0F10702114101F02E
:105F1000010109B1FC2200E0C0220B4B00F1080195
:105F20005A549DF80210C0F10702114101F001011D
:105F300009B1FC2200E0C022034B00F110015A54C9
:105F4000401E0028D1DA08BD71040020416170476D
:105F5000016170474FF6FF7101600021817101718D
:105F6000042141710121C1717047F0B50A461588BD
:105F7000ABB29579032D01D100241AE0957965B96A
:105F8000557905F00F045579182D01D1036110E002
:105F90005579282D0DD143610BE0957905F0080561
:105FA000167906F004063543D67906F0030645EA6D
:105FB0000604DDB2A5B1002110E001258D401D4091
:105FC0005DB105688F000F26BE40B54305600568CA
:105FD0008E0004FA06F635430560491C0829ECD307
:105FE000FF2B15DD1B12002110E001258D401D4007
:105FF0005DB145688F000F26BE40B54345604568DA
:106000008E0004FA06F635434560491C0829ECD396
:10601000F0BD0000F0B50C46104F07EB1062C0F366
:106020000741C0F30725C6B2C5F12007A7EB010C55
:106030004FF0FF3707FA0CF3C5F120077F1AFB403A
:10604000CB408B4017689F4317602CB106FA01FCC8
:10605000176847EA0C071760F0BD00000000014018
:1060600070B505460C46022C41DC012D04D0022DF2
:1060700012D0032D39D11FE0022C09D1002000F0ED
:1060800087F8C82004F0E6FA012000F081F802E069
:10609000204600F07DF829E0022C09D1002000F014
:1060A0008FF8C82004F0D6FA012000F089F802E049
:1060B000204600F085F819E0022C0FD1002000F0F6
:1060C00067F8002000F07CF8C82004F0C3FA012033
:1060D00000F05EF8012000F073F805E0204600F0C3
:1060E00057F8204600F06CF800E000BF00BF70BD1C
:1060F00070B506460C461546022C47DC012E04D02E
:10610000022E14D0032E3FD123E0022C0BD100200D
:1061100000F03EF8642105FB01F004F09BFA012039
:1061200000F036F802E0204600F032F82DE0022CB4
:106130000BD1002000F044F8642105FB01F004F0CD
:1061400089FA012000F03CF802E0204600F038F81F
:106150001BE0022C11D1002000F01AF8002000F002
:106160002FF8642105FB01F004F074FA012000F01F
:106170000FF8012000F024F805E0204600F008F8B0
:10618000204600F01DF800E000BF00BF70BD000019
:1061900010B504463CB920210748FFF7D7FE002080
:1061A0000649087006E020210348FFF7D1FE0120D0
:1061B0000249087010BD0000000C0140940400204A
:1061C00010B504463CB940210748FFF7BFFE002048
:1061D0000649487006E040210348FFF7B9FE012058
:1061E0000249487010BD0000000C014094040020DA
:1061F00000200449087048708020887003200249FC
:1062000008707047A0000020AE0000200020374931
:10621000486008724872082088720020344948603B
:106220000872487208208872002131488161017724
:106230004177082181770021C16280F8301080F811
:106240003110082180F832100021016480F84410D8
:1062500080F84510082180F8461000202549486044
:10626000087248720820887200202349486008722A
:1062700048720820887200211F48816101774177A8
:10628000082181770021C16280F8301080F8311038
:10629000082180F832100021016480F8441080F851
:1062A0004510082180F84610002014494860087203
:1062B0004872082088720021104881610177417777
:1062C000082181770021C16280F8301080F83110F8
:1062D000082180F832100021016480F8441080F811
:1062E0004510082180F8461070470000401100203A
:1062F000C816002018170020781600202C17002040
:1063000010B51B480068FEF785F804462246184879
:1063100001681848FEF79DF84FF4807115488030E9
:10632000FEF70EF90020134981F8800181F8810100
:106330000F480068FEF76EF80E4981F882010020D0
:1063400081F8830180210C48FEF7FAF84FF4807140
:1063500009488030FEF7F4F80020074981F88001F1
:1063600081F8810181F8820181F8830110BD00006C
:106370002C000020180500209C06002010B50B48BA
:10638000FFF7A2FB10B10948FFF734FB012004F02E
:106390003FFA052004F02AFA40F2DB5004F044FAF8
:1063A00004F01CFA04F02CFA10BD00001D002400BB
:1063B0000BE003F05FFD0548006840F00100034971
:1063C00008604FF4FA7004F045F9F2E790040020F9
:1063D00008B51F4800780A2836D2DFE800F0050823
:1063E0000E11171D2335292F03F094FA2DE01948BB
:1063F0000068009003F054FA27E003F0FFF924E06E
:1064000014480068009002F017FF1EE01148006871
:10641000009002F079FF18E00E480068009003F049
:1064200059F912E00B480068009002F0D5FF0CE02B
:1064300008480068009003F0F9F906E00548006894
:10644000009003F00BFA00E000BF00BF08BD0000A1
:10645000AE000020A00000201CB54B4800784B493E
:1064600008700846007802280CD14948486049481D
:106470008860C860012048704FF4E031C00600F029
:1064800073F90BE043484149486041488860C8605F
:10649000022048704103800600F066F9032000F0F6
:1064A00039F903F075FB0C223B493C48FFF7E2FC4D
:1064B000FFF724FC00F062F9FFF722FF03F0D2FEA1
:1064C000FEF7AEFBFEF74AFEFEF76EFCFFF754F850
:1064D00004F0EEF904F010F83148022100231022F4
:1064E000CDE900102FA1324804F08EFA3148022184
:1064F00000230A02CDE900102FA1334804F084FAEA
:106500003248022100234A02CDE9001030A134486C
:1065100004F07AFA334802210023CA01CDE90010C1
:1065200031A1344804F070FA334802210023CA0133
:10653000CDE9001031A1344804F066FA3348052152
:1065400000234FF40072CDE9001031A1334804F06C
:106550005BFA3348062100238022CDE9001031A1E7
:10656000334804F051FA3348022100238022CDE958
:10657000001031A1344804F047FA03F0E7FF04F0BB
:1065800097F800201CBD000000380008DC17002030
:1065900000C0010800400008D4150020E8F7FF1FE4
:1065A000040000204C4544325F7461736B000000AE
:1065B000B1630008080000207573617274315F7266
:1065C000785F7461736B0000899E00080C000020E6
:1065D0007573617274315F74785F7461736B0000FE
:1065E000719F00081400002063616E5F74785F740F
:1065F00061736B00515500081800002063616E5FE5
:1066000072785F7461736B00ED5200081C0000200B
:106610007773323831325F7461736B00C1A8000840
:1066200020000020777464675F7461736B00000062
:10663000E9A80008240000207573617274325F724B
:10664000785F7461736B00001DA000082DE9F047AE
:106650000B4614464FF0000C00BF2C4A1268C2F3E0
:1066600002211D4626460A46C2F10709B9F1040F68
:1066700002D94FF0040901E0C2F10709C84602F14E
:106680000409B9F1070F02D24FF0000901E0A2F1AD
:1066900003094F464FF0010909FA08F9A9F1010968
:1066A00009EA050909FA07F94FF0010A0AFA07FA97
:1066B000AAF1010A0AEA060A49EA0A09CC46014691
:1066C0006246002904DB15072E0E114D6E5407E0BB
:1066D00015072F0E0D4D0C3501F00F06361FAF5567
:1066E00000BF014600290DDB00BF00BF01F01F0500
:1066F0000122AA404D09AD0005F1E025C5F80021B1
:1067000000BF00BF00BFBDE8F08700000CED00E057
:1067100000E400E000BF00F00702064B19684FF6E6
:10672000FF031940044B0B4343EA0221014B19605C
:1067300000BF70470CED00E00000FA0500BFBFF39A
:106740004F8F0748006800F4E06006490843001DC9
:1067500003490860BFF34F8F00BF00BF00BFFDE7D4
:106760000CED00E00000FA05024A0A400243024B29
:106770001A60704780FFFF1F08ED00E010B5012090
:1067800003F060FE012003F0F3F90120FEF738FA70
:106790000120FEF72BFF01210846FFF761FC0121D4
:1067A0000220FFF75DFC10BD2DE9F04104460D46C7
:1067B000164655200B490870AA204870042088709E
:1067C000200AC8700C710846457186718178C01C1A
:1067D000FEF7B8FF0746380A0249C8710F72092050
:1067E000BDE8F081CC1700202DE9F04104460E46AB
:1067F000154655200D490870AA204870052088705C
:10680000200AC8700C7108464671280A8871CD713B
:1068100008468178C01CFEF795FF0746380A0349F1
:1068200008724F720A20BDE8F0810000CC170020EA
:1068300008B55648407904280FDC54488079092867
:106840000BDC5248C079802807DC5048007A802849
:1068500003DC4E48407A80280CDD00204C49C87289
:106860004A48407908B90F2001E048484079484932
:10687000887289E04548807907280AD14348C07961
:10688000642806DD00204249C87240484079887279
:106890007AE03E48407900BB3C488079072808D11F
:1068A0003A48C079642804DC3848C079394908700E
:1068B00009E03648C079384948703448007A087091
:1068C0003248407A88703148807934490870012014
:1068D0002F49C8720F20887256E02C484079012851
:1068E00011D140F201702E4908602848407A00908A
:1068F0002648037AC2798179002003F081FA0120C9
:106900002849087040E021484079022811D140F21E
:106910001170234948611D48407A00901B48037A52
:10692000C2798179012003F06BFA01201D4948707A
:106930002AE016484079032811D140F22170184905
:1069400088621248407A00901048037AC2798179AF
:10695000022003F055FA01201249887014E00B4818
:106960004079042810D140F231700D49C8630748BE
:10697000407A00900548037AC2798179032003F0B8
:106980003FFA01200749C87008BD00002008002018
:1069900010160020B0000020A0000020AE00002053
:1069A000C8160020641600202948807909280BDCCD
:1069B0002748C079802807DC2548007A802803DC36
:1069C0002348407A80280CDD002022494873204863
:1069D000407908B90F2001E01D4840791D4908732E
:1069E00035E01B48807907280AD11948C079642806
:1069F00006DD00201749487315484079087326E0E2
:106A00001348407930B90020124948731048407942
:106A100008731CE040F203700F4908600C4880794D
:106A2000C8720B48C1790C4801730948017A0A48B9
:106A300041730748417A08488173054841790648FF
:106A4000C173002101744174012004490874704726
:106A500020080020101600201817002064160020BF
:106A600030B1012813D0022825D003284DD137E0BA
:106A70002749C97A274A11802549097B5180244931
:106A8000497B91802249497C234A11703EE020498C
:106A9000C97F204A91811E4991F820201D49CA8151
:106AA0001B4991F821201B490A82194991F82510A8
:106AB000194A51702AE0164991F83310154A11838A
:106AC000134991F8342013494A83114991F835202C
:106AD00010498A830E4991F839100F4A917015E0D8
:106AE0000B4991F847100B4A9184094991F84820C5
:106AF0000849CA84064991F8492006490A8504498B
:106B000091F84D10044AD17000E000BF00BF7047FB
:106B1000681100208C150020B811002025488078CD
:106B20000C2807D00020244908702449C8710F2080
:106B300088713EE01F48407918B91E48807B0728BD
:106B400007DD00201C4908701C4948720F2008729C
:106B500006E0012018490870184948720F20087291
:106B600015480078012824D112488079144908700A
:106B70001048C07948700F48007A88700D48417AF3
:106B80000F48C1700B48807A0D4908710948C17AD5
:106B90000B4841710748007B094988710548417BD2
:106BA0000748C1710348807B0649087006200649E2
:106BB00008707047200800203100002010160020C7
:106BC000A5000020AD000020AE0000202548807800
:106BD0000C2807D00020244908702449C8710F20D0
:106BE00088713EE01F48407918B91E48807B07280D
:106BF00007DD00201C4908701C49C8710F208871EE
:106C000006E00120184908701849C8710F208871E2
:106C100015480078012824D1124880791449087059
:106C20001048C07948700F48007A88700D48417A42
:106C30000F48C1700B48807A0D4908710948C17A24
:106C40000B4841710748007B094988710548417B21
:106C50000748C1710348807B064908700520064932
:106C60000870704720080020310000201016002016
:106C7000A5000020AD000020AE00002010B5554852
:106C8000C0795449897940EA0120534988830846EC
:106C9000807803287ED14F48407901280FD000200A
:106CA00088700846828B00219B20FFF79DFD4B4991
:106CB0000870084601784A4801F0BAFA89E0464867
:106CC000808B4549098B884210DB4348828B002129
:106CD0009B20FFF789FD414908700846017840482C
:106CE00001F0A6FA00203C49887072E0394A927897
:106CF000D21C384B995C3B4A1078FEF73FFD39496E
:106D00000870344A9278121D324B995C354A50789B
:106D1000FEF734FD334948702F498C8BE11704EBA3
:106D200011710911A4EB01112F4B03EBC11029497B
:106D300089784A1F27490831FDF78BFB26498A8B42
:106D4000098B491E8A4209D02349888BC11700EB61
:106D500011710911A0EB01110F2911D11E494FF436
:106D60000062C868204903F065FD1B48C06800F553
:106D700000601949C8604FF400611B48FDF7E0FB53
:106D80001548828B01219B20FFF72EFD13490870C7
:106D9000084600E00DE00178114801F049FA0E487C
:106DA000818B008B401E814213D104200A498870D8
:106DB0000FE00020084988700846828B00219B2044
:106DC000FFF712FD0549087008460178044801F0F4
:106DD0002FFA10BD40080020DC1700209604002088
:106DE000CC170020980400204009002010B51E4850
:106DF000807818B11C488078012826D11B4840793A
:106E0000012814D119488079012810D116484278F8
:106E100001219820FFF7C8FC154908700846017841
:106E2000144801F005FA01200F4988701AE00E4855
:106E3000427800219820FFF7B7FC0D4908700846FA
:106E400001780C4801F0F4F90CE007484278002181
:106E50009820FFF7A9FC0649087008460178054804
:106E600001F0E6F910BD0000DC170020400800200A
:106E700096040020CC17002010B51F484079042844
:106E800007DD00201D4981F82500012081F824003C
:106E900031E01948407930B90120184981F82500BE
:106EA00081F8240027E014484079012804D140F2F9
:106EB00002601349086019E00F484079022804D1A4
:106EC00040F212600E49086010E00B484079032838
:106ED00004D140F222600A49086007E00648407980
:106EE000042803D140F232600549086002F0B4FF83
:106EF0000348FEF72BFB10BD2008002010160020D1
:106F00004011002010B50446042C05DD0020164970
:106F100048700120087025E024B90120124948700A
:106F200008701FE0012C04D140F201600F49086095
:106F300013E0022C04D140F211600C4908600CE00F
:106F4000032C04D140F221600849086005E0042CBC
:106F500003D140F231600549086002F07DFF03482B
:106F6000FEF7F4FA10BD00001016002040110020BA
:106F70000A480068B0F5D06F09D0B0F5D26F07D0DD
:106F8000B0F5D46F05D0B0F5D66F04D102E003E0C0
:106F900002E001E000E000BF00BF70475411002094
:106FA00010B50446042C09DD0020224948740CB9B0
:106FB0000F2000E020461F49087439E02CB9012059
:106FC0001C4948740F20087432E0012C0AD140F2A9
:106FD000012019490860002002F0BEFE0120174977
:106FE000087225E0022C0AD140F2112012494861B2
:106FF000012002F0B1FE01211048417218E0032C7B
:107000000AD140F221200C498862022002F0A4FE3D
:1070100001210A4881720BE0042C09D140F2312091
:107020000549C863032002F097FE01210348C1729D
:1070300010BD0000101600202C1700206416002040
:1070400023480068A0F2812030B1102812D02028F7
:107050001ED0302838D129E01D48407C012802D1BB
:107060001C49487402E000201A494874012019495B
:1070700008742AE01648407C012802D1154948745A
:1070800002E00020134948740220124908741CE0F1
:107090000F48407C012802D10E49487402E00020CC
:1070A0000C49487403200B4908740EE00848407CE2
:1070B000012802D10749487402E0002005494874BC
:1070C00004200449087400E000BF00BF70470000BE
:1070D000541100201016002010B51248407928B134
:1070E0000020114948760120087619E00D48807982
:1070F00030B90020FEF77AFA01200B4948760CE0FF
:1071000008488079012805D1FEF770FA0120064968
:10711000487602E0002004494876012002490876BA
:1071200010BD0000200800201016002010B51248E5
:10713000407928B100201149C8750120887519E0EF
:107140000D48807930B90020FDF75AFD01200B4928
:10715000C8750CE008488079012805D1FDF750FD7D
:1071600001200649C87502E000200449C8750120C5
:107170000249887510BD000020080020101600206C
:1071800000B525484079042802DC2348407930B90D
:1071900000202249C8732048407988733AE01E488D
:1071A000407901280AD140F202701D490860002090
:1071B00002F0FCFD01201B4908712BE016484079C4
:1071C00002280AD140F2127015494861012002F0EC
:1071D000EDFD0121134841711CE00F48407903285F
:1071E0000AD140F222700E498862022002F0DEFDD0
:1071F00001210C4881710DE007484079042809D12C
:1072000040F232700649C863032002F0CFFD01212D
:107210000448C17100BD00002008002010160020A5
:10722000781600206416002012480068A0F28270D0
:1072300030B1102809D020280DD0302817D110E007
:1072400001200D49C873887312E001200A49C873F0
:10725000022088730CE001200749C873032088735B
:1072600006E001200449C8730420887300E000BFD1
:1072700000BF7047541100201016002010B51248AE
:10728000407928B10020114948750120087519E09E
:107290000D48807930B9002002F06AFC01200B49CA
:1072A00048750CE008488079012805D102F060FC9F
:1072B00001200649487502E0002004494875012074
:1072C0000249087510BD000020080020101600209B
:1072D00010B51248407928B100201149C874012026
:1072E000887419E00D48807930B9002003F0AAF8BD
:1072F00001200B49C8740CE008488079012805D1A9
:1073000003F0A0F801200649C87402E000200449F7
:10731000C87401200249887410BD000020080020B4
:107320001016002010B54248807801286ED14148DF
:1073300080793F494978884210D000203C498870C4
:107340000846427800219920FFF72EFA3A49087042
:1073500008460178394800F06BFF67E03548C0798E
:1073600000063449097A40EA01403249497A40EA44
:1073700001203049897A08432D4908612D48007B56
:107380002C49C97A40EA0120294908830846007C33
:1073900000F07F0028B90846008AC0F3C710488370
:1073A00007E02348008A012101EBD010C0B2204938
:1073B00048831F480069B0F5C03F05D81C48008BC2
:1073C0001B49498B884210D0002019498870084613
:1073D000427800219920FFF7E7F91749087008461D
:1073E0000178164800F024FF20E01148427801217E
:1073F0009920FFF7D9F910490870084601780F481D
:1074000000F016FF02200A4988700FE000200849AA
:1074100088700846427800219920FFF7C5F906498F
:10742000087008460178054800F002FF10BD000012
:10743000DC1700204008002096040020CC17002014
:1074400010B54048807802286AD13F484079012829
:1074500005D13D4880793B494978884210D00020C9
:10746000384988700846427800219A20FFF79CF935
:107470003649087008460178354800F0D9FE5FE0CB
:10748000304880682F49C860FF2032490870487032
:107490002D48C07900062C49097A40EA01402A4962
:1074A000497A40EA01202849897A084325494861F8
:1074B0002548007B2449C97A40EA012021494883B4
:1074C000084640690969884205D11E48408B1D491C
:1074D000098B884210D000201A49887008464278EB
:1074E00000219A20FFF760F91849087008460178D2
:1074F000174800F09DFE23E001201749087011484D
:10750000427801219A20FFF74FF910490870084688
:1075100001780F4800F08CFE03200A4988700FE0C4
:107520000020084988700846427800219A20FFF719
:107530003BF90649087008460178054800F078FED6
:1075400010BD0000DC170020400800209604002039
:10755000CC170020980400209704002034480068CD
:10756000A0F2837030B1102812D0202820D030280B
:107570003ED12DE02F48007840F001002D490870E1
:107580002B48407C2C49097808432B49087030E08F
:107590002848007840F00200264908702448407CC2
:1075A00040062549097841EA10602349087020E027
:1075B0002048007840F004001E4908701C48407CB8
:1075C00080061D49097841EA10601B49087010E0E7
:1075D0001848007840F00800164908701448407CAC
:1075E000C0061549097841EA10601349087000E0A7
:1075F00000BF00BF0E48C07B0E490978884215D1F4
:107600000B48C07B0C490978884203D101200B4903
:10761000487302E00020094948730648007807498A
:107620000873002003490870034908707047000080
:1076300054110020450000204600002010160020B4
:1076400015480068A0F2817030B110280BD02028B6
:1076500010D030281CD114E00F48407C0F49C8726C
:107660000120887215E00C48407C0C49C872022049
:1076700088720EE00848407C0849C872032088726E
:1076800007E00548407C0549C8720420887200E084
:1076900000BF00BF704700005411002010160020EA
:1076A0002D480068A0F2836030B110284ED0202809
:1076B0004DD030284DD14BE02748C07A012818D151
:1076C000264988762448007B01280ED12248407B39
:1076D000012803D02048407B022806D11E48017BA8
:1076E0001E4801770121C1762FE000211B48C17699
:1076F0002BE01948C07A022827D101201749887643
:107700001548007B01281AD10846017F1248407BAA
:10771000814214D101211148C1760F48C17B807B81
:1077200041EA00200D49C8830B48417C007C41EAB6
:1077300000200A49088400210848418402E0002111
:107740000648C17600210548017703E002E001E028
:1077500000E000BF00BF7047541100203A1600201F
:1077600061480068A0F2826030B1102831D0202832
:107770005CD0302872D187E05B48807C012827D11B
:107780005948407C01280FD1584857490B310A68A5
:10779000C26089880182564890F8260040F00100B6
:1077A000534981F8260013E04F48407C02280FD14E
:1077B0004E484D490B310A68C0F812208988C182B1
:1077C0004B4890F8260040F00200494981F8260015
:1077D00088E04548807C012827D14348407C012827
:1077E0000FD1424840490B310A6882618988818300
:1077F0003F4890F8270040F001003D4981F82700FC
:1078000013E03948407C02280FD1384836490B3103
:107810000A68C0F81E2089884184354890F82700FE
:1078200040F00200324981F827005BE02E48807C5E
:10783000012828D12C48407C012810D12B482A4906
:107840000B310A68426289880185294890F828002E
:1078500040F00100264981F8280014E041E0224868
:10786000407C02280FD121481F490B310A68C0F81B
:107870002A208988C1851E4890F8280040F002001F
:107880001B4981F828002DE01748807C012827D16A
:107890001548407C01280FD1144813490B310A6860
:1078A000026389888186124890F8290040F001001F
:1078B0000F4981F8290013E00B48407C02280FD1C2
:1078C0000A4809490B310A68C0F83620898841877F
:1078D000074890F8290040F00200054981F8290086
:1078E00000E000BF00BF704754110020D4150020F5
:1078F0001016002010B518484079012803D1164809
:10790000407901280DD01548427800219D20FEF7CE
:107910004BFF1349087008460178124800F088FCB4
:1079200019E00E48427801219D20FEF73DFF0C49E9
:107930000870084601780B4800F07AFC0748806818
:107940000649C86000208870FF2007490870487009
:1079500000200649087010BD40080020DC170020F8
:1079600096040020CC1700209804002097040020E3
:1079700010B52D488078042848D12C48407901283A
:107980000DD02948427800219C20FEF70DFF2849A0
:10799000087008460178274800F04AFC43E0234875
:1079A000807925490978884205D12048C079224943
:1079B000497888420DD01C48427800219C20FEF76F
:1079C000F3FE1B490870084601781A4800F030FCA5
:1079D00029E0154840781449887701221E3117485C
:1079E00002F028FF1048427801219C20FEF7DCFEBF
:1079F0000F490870084601780E4800F019FC4FF452
:107A00007A7002F027FEFEF799FE0CE006484278F5
:107A100000219C20FEF7C8FE054908700846017841
:107A2000044800F005FC10BDDC17002040080020D1
:107A300096040020CC17002098040020003800088D
:107A400026480068A0F2816030B1102813D02028A9
:107A500021D030283ED12DE02048407C012809D19A
:107A60001F481E490B310A68026089888180012005
:107A70001C4988702FE01948407C01280AD1184819
:107A800016490B310A68C0F8062089884181012017
:107A90001449C8701FE01148407C012809D11048E2
:107AA0000E490B310A68C2608988018201200D49A4
:107AB000087110E00948407C01280AD108480749AC
:107AC0000B310A68C0F812208988C182012005495B
:107AD000487100E000BF00BF704700005411002053
:107AE000BC150020101600202DE9F04105460E4679
:107AF0001C4807681C480068001D02F0B3FC50B920
:107B00001948006890F82C1001208840174909682E
:107B1000814316480160681C38B936B112480168C3
:107B2000091D134802F0DCFC1AE07C190E480068BD
:107B30004460BC4207D20C480168091D0D4800682A
:107B400002F0B4FC0CE008480168091D0A4800680E
:107B500002F0ACFC09480068844201D20748046086
:107B6000BDE8F081B8040020A4040020BC0400207B
:107B7000B0200020AC040020A8040020D404002081
:107B800010B5044602F0B8FC23480068401C2249A6
:107B900008602248006840B9204804600846006830
:107BA00001280DD100F01EF90AE01D48006838B91F
:107BB0001A480068C06AE16A884201D81748046020
:107BC00018480068401C1749086094F82C100120E0
:107BD000884015490968084313490860E16A01EBC8
:107BE0008101124A02EB8100211D02F079FC02F0B2
:107BF000ADFC0B48006868B108480068C06AE16ADB
:107C0000884207D24FF0805009490860BFF34F8F78
:107C1000BFF36F8F10BD0000B4040020A404002047
:107C2000C0040020D0040020BC040020FC1F002061
:107C300004ED00E010B516E002F05EFC0C48C068F0
:107C4000C468201D02F00EFC0A480068401E094965
:107C5000086009480068401E0749086002F076FC89
:107C6000204600F00BF8044800680028E4D110BD5D
:107C70009C200020B4040020B004002010B504466D
:107C8000206B02F081FC204602F07EFC10BD00005B
:107C900030B54FF4A043174800F007042CB1C01DC5
:107CA00020F00700134C041B1B1B0246124C2260E1
:107CB0000024114D6C60D018083820F007000F4CDC
:107CC000206000240D4D2D686C600C4D2D682C60DB
:107CD0001146441A4C60094C24680C60084D4C68ED
:107CE0002C60084D4C682C604FF00044064D2C6011
:107CF00030BD0000C4200020E8040020F004002073
:107D0000F8040020F40400200405002000BFFFF761
:107D100091FF064800680128F9D94FF080500449C6
:107D20000860BFF34F8FBFF36F8FF0E7FC1F002099
:107D300004ED00E02DE9FF5F81460E469246DDE945
:107D40000E7B109CAAF10100216B01EB800828F04A
:107D5000070808F0070008B9012000E0002050B92A
:107D600000BF102080F31188BFF34F8FBFF36F8FD8
:107D700000BF00BFFEE786B1002507E0715D04F19A
:107D800034004155705D00B902E06D1C102DF5D333
:107D900000BF00214320015502E0002084F8340098
:107DA000052F00D30427E762201D02F07CFB04F1BD
:107DB000180002F078FB2461C7F10500A06164623D
:107DC0000020606484F8480049464046039A00F069
:107DD0005FF92060BBF1000F01D0CBF80040BDE897
:107DE000FF9F000010B5002407E004EB84010F4A58
:107DF00002EB810002F04AFB641C052CF5D30C4811
:107E000002F044FB0B4802F041FB0B4802F03EFB42
:107E10000A4802F03BFB0A4802F038FB04480949D3
:107E2000086004480849086010BD0000FC1F0020DD
:107E30006020002074200020882000209C2000204A
:107E4000B0200020A8040020AC04002010B501469A
:107E5000164800E0006803688B42FBD30246436883
:107E600013448B4204D143684C6823444360014669
:107E70000A464B6813440468A34211D10C4C0368B2
:107E80002468A34208D04B680468646823444B60AC
:107E900003681B680B6005E0054B1B680B6001E085
:107EA00003680B60884200D0016010BDE804002028
:107EB000F004002009480068006808B9012000E0CB
:107EC000002020B14FF0FF300549086005E003486D
:107ED0000068C0680068024908607047A804002074
:107EE000D40400200E480068401C08B9012000E0BE
:107EF000002050B900BF102080F31188BFF34F8FCE
:107F0000BFF36F8F00BF00BFFEE700BF102080F3FC
:107F10001188BFF34F8FBFF36F8F00BF00BFFEE725
:107F20000C0500202DE9F04104464FF0000802F056
:107F300007FC5148006808B9FFF7AAFE4F480068DF
:107F4000204000287ED13CB304F10800A04223D990
:107F5000083404F0070000B304F00700C0F1080083
:107F60002044A04216D904F00700C0F108000444E0
:107F700004F0070008B9012000E0002068B900BF44
:107F8000102080F31188BFF34F8FBFF36F8F00BFB6
:107F900000BFFEE7002400E00024002C54D0384845
:107FA0000068844250D8374E3046056801E02E46BE
:107FB0002D686868A04202D228680028F7D12E48B0
:107FC0000068854240D0306800F1080828683060B9
:107FD0006868001B102819D92F1907F0070008B985
:107FE000012000E0002050B900BF102080F311886C
:107FF000BFF34F8FBFF36F8F00BF00BFFEE768680E
:10800000001B78606C603846FFF720FF1C496868E9
:108010000968081A1A490860084600681A49096878
:10802000884203D2164800681749086013496868F7
:108030000968084368600020286014480068401CF4
:10804000124900E000E0086002F0B2FD08F007000D
:1080500008B9012000E0002050B900BF102080F3D3
:108060001188BFF34F8FBFF36F8F00BF00BFFEE7D4
:108070004046BDE8F0810000F00400200405002027
:10808000F4040020E8040020F8040020FC04002090
:10809000001F4FF080730360001F21F00103036095
:1080A000001F034B03601438026020387047000043
:1080B000E57E000838B51548008840F2FF31884257
:1080C00020DA002411E02002282190FBF1F00F4972
:1080D00009780844C5B22846FCF712FB0146009017
:1080E000204600F017F8601CC4B2282CEBDB4FF4DC
:1080F0007071074801F082FC04480088401C034965
:10810000088002E000200149088038BD8A04002070
:10811000C911002013B50246282A00DD1CBD00202D
:1081200012E09DF80410C0F107040123A340194098
:1081300009B1FC2100E0C02102EB42031B4C04EB1F
:10814000C3031954411C88B20728EADD082012E055
:108150009DF80510C0F10F040123A340194009B197
:10816000FC2100E0C02102EB4203104C04EBC303EE
:108170001954411C88B20F28EADD102012E09DF846
:108180000610C0F117040123A340194009B1FC21D6
:1081900000E0C02102EB4203044C04EBC30319547A
:1081A000411C88B21728EADD00BFB7E7C9110020DB
:1081B00013B5072037E09DF80020C0F107031A41EE
:1081C00002F001020AB1FC2200E0C02201EB4103EF
:1081D00000EBC303154CE2549DF80120C0F10703E6
:1081E0001A4102F001020AB1FC2300E0C02301EBB6
:1081F000410400F1080202EBC4020C4CA3549DF8A8
:108200000220C0F107031A4102F001020AB1FC2367
:1082100000E0C02301EB410400F1100202EBC402B4
:10822000024CA354401E0028C5DA1CBDB10000203A
:1082300070B506460D4602E0022002F00BFA214816
:1082400000780128F8D001201E490870802D37DA07
:1082500080211D48FCF774F9002404E0305D1A49C0
:108260000855601CC4B2AC42F8DB174880F8825154
:1082700014E000BF8021154801F0B6FF0028F9D0B6
:10828000114890F8802190F88001401C0E4B83F833
:1082900080011846815C0D4801F094FF0A4890F86F
:1082A0008001094991F882118842E2DB00200649E9
:1082B00081F88001052002F0CDF900200149087005
:1082C00070BD0000300000209C06002000440040EB
:1082D00070B5054680212348FCF732F95520214925
:1082E0000870AA204870042088700220C8700820F6
:1082F0000871002048711C48407E887108468178CA
:10830000C01CFDF71FFA0446200A1649C8710C72FA
:10831000092081F8820114E000BF8021134801F098
:1083200063FF0028F9D00F4890F8802190F8800171
:10833000401C0C4B83F880011846815C0B4801F00F
:1083400041FF084890F88001064991F8821188425F
:10835000E2DB0020034981F88001052002F07AF970
:1083600070BD0000180500201016002000380140E4
:1083700070B5054680212348FCF7E2F855202149D5
:108380000870AA204870042088700220C870072056
:108390000871002048711C48C07D887108468178AA
:1083A000C01CFDF7CFF90446200A1649C8710C72AB
